S0170000696E746567726174696F6E546573742E73726563C9
S11300000C946C050C9494050C9494050C94940530
S11300100C9494050C9494050C9494050C949405F8
S11300200C9494050C9494050C9494050C949405E8
S11300300C9494050C9494050C9494050C949405D8
S11300400C94260B0C9494050C94A6090C94D809D2
S11300500C9494050C9494050C9494050C949405B8
S11300600C94F6200C949405646973636F6E6E654A
S11300706374656400726967687420636F6E6E658B
S113008063746564006C65667420636F6E6E65638B
S1130090746564005353443133303620616C6C6FA3
S11300A0636174696F6E206661696C656400000049
S11300B00008000201000003040700000000000023
S11300C000000102040810204080010204081020EE
S11300D001020408102004040404040404040202B9
S11300E002020202030303030303000000002300CF
S11300F02600290000000000250028002B00000035
S11301000000240027002A0000000000003E5B4F8E
S11301105B3E3E6B4F6B3E1C3E7C3E1C183C7E3C63
S1130120181C577D571C1C5E7F5E1C00183C180071
S1130130FFE7C3E7FF0018241800FFE7DBE7FF3001
S1130140483A060E2629792926407F050507407F6F
S113015005253F5A3CE73C5A7F3E1C1C08081C1CE2
S11301603E7F14227F22145F5F005F5F06097F01D8
S11301707F006689956A606060606094A2FFA294C3
S113018008047E040810207E201008082A1C080891
S11301901C2A08081E101010100C1E0C1E0C3038DF
S11301A03E3830060E3E0E06000000000000005FE0
S11301B000000007000700147F147F14242A7F2AFC
S11301C012231308646236495620500008070300BE
S11301D0001C2241000041221C002A1C7F1C2A080A
S11301E0083E08080080703000080808080800006D
S11301F060600020100804023E5149453E00427FE1
S1130200400072494949462141494D331814127F2F
S11302101027454545393C4A4949314121110907CF
S11302203649494936464949291E00001400000050
S11302304034000000081422411414141414004122
S113024022140802015909063E415D594E7C1211DF
S1130250127C7F494949363E414141227F41414117
S11302603E7F494949417F090909013E4141517392
S11302707F0808087F00417F41002040413F017F03
S1130280081422417F404040407F021C027F7F04CB
S113029008107F3E4141413E7F090909063E415114
S11302A0215E7F09192946264949493203017F0104
S11302B0033F4040403F1F2040201F3F4038403F05
S11302C0631408146303047804036159494D43001B
S11302D07F4141410204081020004141417F040252
S11302E001020440404040400003070800205454E9
S11302F078407F28444438384444442838444428C7
S11303007F385454541800087E090218A4A49C7819
S11303107F0804047800447D40002040403D007F75
S11303201028440000417F40007C047804787C0855
S11303300404783844444438FC1824241818242429
S113034018FC7C08040408485454542404043F440E
S1130350243C4040207C1C2040201C3C4030403C3D
S113036044281028444C9090907C4464544C44009D
S11303700836410000007700000041360800020101
S11303800204023C2623263C1EA1A161123A4040ED
S1130390207A38545455592155557941225454786A
S11303A042215554784020545579400C1E52721203
S11303B0395555555939545454593955545458008C
S11303C000457C410002457D420001457C407D1290
S11303D011127DF0282528F07C54554500205454F2
S11303E07C547C0A097F4932494949323A4444449D
S11303F03A324A4848303A4141217A3A42402078D8
S1130400009DA0A07D3D4242423D3D4040403D3CD8
S113041024FF2424487E4943662B2FFC2F2BFF09FD
S113042029F620C0887E09032054547941000044F1
S11304307D413048484A32384040227A007A0A0ADC
S1130440727D0D19317D2629292F2826292929264F
S113045030484D4020380808080808080808382F94
S113046010C8ACBA2F102834FA00007B000008141E
S11304702A142222142A14085500550055AA55AAF4
S113048055AAFF55FF55FF000000FF00101010FF94
S113049000141414FF001010FF00FF1010F010F0EF
S11304A0141414FC001414F700FF0000FF00FF14E0
S11304B014F404FC141417101F10101F101F14142C
S11304C0141F00101010F0000000001F1010101076
S11304D01F10101010F010000000FF10101010106A
S11304E010101010FF10000000FF140000FF00FFA8
S11304F000001F10170000FC04F414141710171444
S113050014F404F40000FF00F71414141414141465
S1130510F700F7141414171410101F101F141414D8
S1130520F4141010F010F000001F101F0000001F42
S113053014000000FC140000F010F01010FF10FF75
S1130540141414FF141010101F00000000F010FF0A
S1130550FFFFFFFFF0F0F0F0F0FFFFFF00000000EE
S113056000FFFF0F0F0F0F0F3844443844FC4A4A72
S11305704A347E02020606027E027E026355494127
S1130580633844443C04407E201E2006027E02025E
S113059099A5E7A5991C2A492A1C4C7201724C3072
S11305A04A4D4D303048784830BC625A463D3E4949
S11305B04949007E0101017E2A2A2A2A2A44445FED
S11305C0444440514A444040444A51400000FF01E1
S11305D003E080FF000008086B6B083612362436EF
S11305E0060F090F06000018180000001010003054
S11305F040FF0101001F01011E00191D1712003CDC
S11306003C3C3C00000000002200FF2100000103EC
S1130610070F1F3F7F0080C0E0F0F8FCFEDB40A422
S1130620A62EAF2000A1C8D300408DAED580A8006F
S11306300060000000000000000000000000000056
S1130640E00000000000000000000000000001E0E5
S11306500000000000000000000000000001F000A5
S113066000000000000000000000000003F0000093
S1130670000000000000000000000007F00000007F
S11306800000000000000000000007F80000000067
S11306900000000000000000000FF800000003C08C
S11306A0007E000001E0007F0FF800000003C0009E
S11306B0FE000001E000FFEFF800000003C000FEB0
S11306C0000001E000FFFFF800000003C000F0009C
S11306D000000F007FFE7FC0000003C000F0000098
S11306E0000F003FFE7FF83FF1FBCFFCFEF3BC3D63
S11306F0EFE01FFE7FFF7FFBFFDFFEFEFFBC3DEF51
S1130700E01FC6FFFF7FFBFFDFFEFEFFBC3DEFE007
S11307100FE3C7FE787BC3DE1EF0FFBC3DEF00078E
S1130720FF87FC787BC3DE1EF0F83C3DEF0001FF41
S1130730FFF0007BC3C01EF0F03C3DEF0001F37FEF
S1130740E03FFBC3CFFEF0F03C3DEF0003E33F800E
S11307507FFBC3DFFEF0F03C3DEF0007E73C007891
S11307607BC3DE1EF0F03C3DEF0007FFBE00787B4C
S1130770C3DE1EF0F03C3DEF0007FFFE00787BC3B4
S1130780DE1EF0F03C3DEF000FFFFE007FFBFFDFBD
S1130790FEF0F03FFDEFE00FFFFF007FFBFFDFFE09
S11307A0F0F03FFDEFE00FF9FF003E79F9CF9EF046
S11307B0F01F3DE7E01FF1FF000000000000000013
S11307C0000000001F80FF007FFFFFFFFFFFFFFF0F
S11307D0FFFFE01C007F007FFFFFFFFEB46D888DEC
S11307E018E000001F007FFFFFFFFE95AD7DB57789
S11307F0E000000F007FFFFFFFFEA5AD9D8D19E017
S1130800000006007FFFFFFFFEB5ADEDB57EE00002
S11308100000000001800000000000000000000350
S11308208000000000000000000007C0000000007D
S1130830000000000007C0000000000000000000ED
S11308400FC00000000000000000001FE0000000D6
S11308500000000000001FE0000000000000000095
S1130860003FE00000000000000000003FF0000036
S1130870000000000000007FF00000000000000005
S11308801FF87FF0000000000000003FFE7FF00032
S11308900000000000003FFF7FF0000000000000A7
S11308A0001FFFFBE0000000000000000FFFF9FF45
S11308B0C00000000000000FFFF9FFF80000000076
S11308C0000007FFF1FFFF00000000000003FC73BD
S11308D0FFFF80000000000001FE3FFFFF800000DA
S11308E000000000FF1E0FFF000000000000007F5A
S11308F0FE1FFC000000000000003FFFFFF80000A6
S113090000000000000FDFFFE00000000000000016
S11309101F19FFC0000000000000003F3CFF000062
S11309200000000000007E7CF800000000000000D1
S1130930007FFE7C0000000000000000FFFFFC00C0
S113094000000000000000FFFFFE000000000000A7
S11309500000FFFFFE0000000000000001FFEFFEAA
S11309600000000000000001FFCFFE0000000000B6
S1130970000003FF07FE0000000000000003FC0766
S1130980FE0000000000000003F003FE0000000071
S1130990000000018000FE000000000000000000D4
S11309A0007E000000000000000000003E00000087
S11309B0000000000000000C0000000000000780A0
S11309C000FC000003C0000000078001FC000003DD
S11309D0C0000000078001FC000003C00000000705
S11309E08001E00000001E000000078001E000001C
S11309F0001E007FE3F79FF9FDE7787BDFC0FFF778
S1130A00FFBFFDFDFF787BDFC0FFF7FFBFFDFDFFEC
S1130A10787BDFC0F0F787BC3DE1FF787BDE00F038
S1130A20F787BC3DE1F0787BDE0000F787803DE18D
S1130A30E0787BDE007FF7879FFDE1E0787BDE00D6
S1130A40FFF787BFFDE1E0787BDE00F0F787BC3D70
S1130A50E1E0787BDE00F0F787BC3DE1E0787BDE07
S1130A6000F0F787BC3DE1E0787BDE00FFF7FFBFD5
S1130A70FDE1E07FFBDFC0FFF7FFBFFDE1E07FFBAF
S1130A80DFC07CF3F39F3DE1E03E7BCFC00000007C
S1130A900000000000000000FFFFFFFFFFFFFFFF5A
S1130AA0FFFFC0FFFFFFFFFD68DB111A31C0FFFF2E
S1130AB0FFFFFD2B5AFB6AEFC0FFFFFFFFFD4B5BFF
S1130AC03B1A33C0FFFFFFFFFD6B5BDB6AFDC00019
S1130AD02A08080A3A1F5E0811241FBECFEFD8E087
S1130AE0DEBFCDBF11E0A0E0B1E0E0EDF8E402C06C
S1130AF005900D92A639B107D9F723E0A6E9B1E034
S1130B0001C01D92AF37B207E1F715E0CBE6D5E09F
S1130B1004C02197FE010E947E22C836D107C9F77E
S1130B200E94360A0C945B240C9400000F9361E03D
S1130B308DE00E94410C62E086E00E94410C61E07D
S1130B4087E00E94410C60E087E00E947D0C61E038
S1130B5083E00E94410C60E083E00E947D0C62E02F
S1130B6084E00E94410C26E040E855E260E070E039
S1130B7087E092E00E94420981EF91E00E9497137E
S1130B8001E021E04CE362E081EB91E00E949319E3
S1130B90811106C064E970E087E092E00E94AC0A2B
S1130BA061E081EB91E00E94811381E090E09093F9
S1130BB0C4018093C3019093C2018093C1010F913A
S1130BC008950F931F93CF93DF930E94700B0091AE
S1130BD09601109197012091980130919901DC01BF
S1130BE0CB01801B910BA20BB30B85369105A1059C
S1130BF0B10578F10E94700B609396017093970190
S1130C00809398019093990181EF91E00E94D51609
S1130C10C0E0D0E02AE030E040E050E060E070E086
S1130C20CB010E94EF0C9B01AC01332744275527CD
S1130C30BE0181EF91E00E9429162196C031D105B1
S1130C4049F781EF91E0DF91CF911F910F910C94BF
S1130C501914DF91CF911F910F910895CF92DF92D4
S1130C60EF92FF921F93CF93DF9381EF91E00E9465
S1130C70D516C0E0D0E02AE030E040E050E060E08B
S1130C8070E0CB010E94EF0C162F2AE030E040E028
S1130C9050E060E070E0CB010E94EF0C6B017C013E
S1130CA02AE030E040E050E060E070E0CB010E94D8
S1130CB0EF0CDC01CB019927AA27BB27DC0199277C
S1130CC08827DD24EE24FF24FE2CED2CDC2CCC2400
S1130CD08C299D29AE29BF299C01AD01212BBE0180
S1130CE081EF91E00E9429162196C031D10519F6B1
S1130CF081EF91E0DF91CF911F91FF90EF90DF9012
S1130D00CF900C9419140F931F93CF93DF93C0E0EB
S1130D10D0E008E010E020E030E040E050E0BA012C
S1130D2081EF91E00E949E1620E030E04AE050E01E
S1130D30BE0181EF91E00E94291681EF91E00E94AB
S1130D40191469E170E080E090E00E94A10B219603
S1130D50C830D105F1F6DF91CF911F910F9108951D
S1130D600F931F93CF93DF93C7E0D0E008E010E028
S1130D7020E030E040E050E0BA0181EF91E00E94D1
S1130D809E1620E030E04AE050E0BE0181EF91E0A1
S1130D900E94291681EF91E00E94191469E170E024
S1130DA080E090E00E94A10B219700F7DF91CF91A2
S1130DB01F910F9108950F931F938091B00181119A
S1130DC033C081E08093B0010E94700B6093AA014C
S1130DD07093AB018093AC019093AD01DC01CB0126
S1130DE088519C4FAF4FBF4F8093A6019093A701AA
S1130DF0A093A801B093A9010FE010E028E030E02F
S1130E0040E050E0BA0181EF91E00E949E162AE092
S1130E1030E0A9016FE070E081EF91E00E942916B3
S1130E2081EF91E00E9419140E94700B0091A601B9
S1130E301091A7012091A8013091A9010617170765
S1130E4028073907D8F58091AE018830A0F50E94B3
S1130E50700BDC01CB0188519C4FAF4FBF4F809387
S1130E60A6019093A701A093A801B093A901809132
S1130E70AE018F5F8093AE010FE010E028E030E018
S1130E8040E050E0BA0181EF91E00E949E1600918B
S1130E90AE0110E020E130E0201B310B4AE050E0CD
S1130EA0BA0181EF91E00E949E1681EF91E01F91BB
S1130EB00F910C94191481E08093AF011F910F914D
S1130EC00895CF92DF92EF92FF920F931F93CF93E7
S1130ED0DF9384E00E94AC0C8C0186E00E94AC0C91
S1130EE0EC010E94700BC090A201D090A301E0908D
S1130EF0A401F090A501DC01CB018C199D09AE0978
S1130F00BF0985369105A105B105A0F00E94700BBB
S1130F106093A2017093A3018093A4019093A5010F
S1130F200E94700BAB01BC012AE030E087E092E044
S1130F300E94140B0E94700BC0909E01D0909F01E0
S1130F40E090A001F090A101DC01CB018C199D0976
S1130F50AE09BF090B97A105B10560F10E94700BA2
S1130F6060939E0170939F018093A0019093A101CF
S1130F700115110561F48091AF01811105C00E9432
S1130F80DB060E94B00616C00E942E0613C02097EE
S1130F9049F48091AF018111F7CF0E9483060E942A
S1130FA0DB0608C00E94E1051092AF011092B00167
S1130FB01092AE010E94700BC0909A01D0909B01D8
S1130FC0E0909C01F0909D01DC01CB018C199D09FE
S1130FD0AE09BF0985369105A105B10590F10E94BE
S1130FE0700B60939A0170939B0180939C01909382
S1130FF09D0181EB91E00E9475191092BE0110923F
S1131000BD011092C0011092BF01012B19F465E8D3
S113101070E007C0CD2B19F465E770E002C068E604
S113102070E081EB91E00E94AC0A81EB91E0DF91EA
S1131030CF911F910F91FF90EF90DF90CF900C9480
S11310400C1DDF91CF911F910F91FF90EF90DF90D6
S1131050CF9008958F929F92AF92BF92CF92DF92DA
S1131060EF92FF920F9322E530E049E050E060E117
S113107070E081EF91E00E94071680EA882E86E8EE
S1131080982EAA24A394B12C90E8C92E9AE1D92EC3
S113109096E0E92EF12C0FEF21EB32E040E260E81C
S11310A081EB91E00E94CD170F91FF90EF90DF90BC
S11310B0CF90BF90AF909F908F90089581EB91E077
S11310C00E94191881EF91E00C948413FC01918D16
S11310D0228D892F90E0805C9F4F821B91098F7332
S11310E099270895FC01918D828D981731F0828D96
S11310F0E80FF11D858D90E008958FEF9FEF08951F
S1131100FC01918D828D981761F0828DDF01A80F0B
S1131110B11D5D968C91928D9F5F9F73928F90E02D
S113112008958FEF9FEF0895FC01538D448D252F73
S113113030E0842F90E0821B930B541710F0CF966D
S11311400895019708958EEF99E0892B49F080E086
S113115090E0892B29F00E94FE0981110C94000073
S11311600895FC01848DDF01A80FB11DA35ABF4F60
S11311702C91848D90E001968F739927848FA68992
S1131180B7892C93A089B1898C91837080648C93E6
S1131190938D848D981306C00288F389E02D808195
S11311A08F7D80830895EF92FF920F931F93CF93C7
S11311B0DF93EC0181E0888F9B8D8C8D981305C0A3
S11311C0E889F989808185FD26C0F62E0B8D10E013
S11311D00F5F1F4F0F731127E02E8C8DE8120CC088
S11311E00FB607FCFACFE889F989808185FFF5CF2E
S11311F0CE010E94B108F1CF8B8DFE01E80FF11DE5
S1131200E35AFF4FF0829FB7F8940B8FEA89FB896A
S1131210808180620AC09FB7F894EE89FF89608359
S1131220E889F98980818370806480839FBF81E02D
S113123090E0DF91CF911F910F91FF90EF9008956F
S1131240CF93DF93EC01888D8823C9F0EA89FB8969
S1131250808185FD05C0A889B9898C9186FD0FC060
S11312600FB607FCF5CF808185FFF2CFA889B98935
S11312708C9185FFEDCFCE010E94B108E7CFDF91BD
S1131280CF910895CF92DF92EF92FF921F93CF9365
S1131290DF93EC016A017B01122F60E874E88EE1B0
S11312A090E0A70196010E942322DA01C901019767
S11312B0A109B109B695A795979587959C01E889E9
S11312C0F98982E08083211580E13807A8F0E88954
S11312D0F989108260E472E48FE090E0A70196013E
S11312E00E942322DA01C9010197A109B109B69527
S11312F0A795979587959C01EC85FD853083EE85B0
S1131300FF852083188EEC89FD891083EA89FB8987
S1131310808180618083EA89FB8980818860808301
S1131320EA89FB89808180688083EA89FB898081DE
S11313308F7D8083DF91CF911F91FF90EF90DF909D
S1131340CF90089580E090E0089508951F920F9241
S11313500FB60F9211242F938F939F93EF93FF93C4
S1131360E0911702F09118028081E0911D02F09142
S11313701E0282FD12C09081809120028F5F8F73C4
S113138020912102821751F0E0912002F0E0E95F00
S1131390FD4F958F8093200201C08081FF91EF91D2
S11313A09F918F912F910F900FBE0F901F901895C2
S11313B01F920F920FB60F9211242F933F934F93C6
S11313C05F936F937F938F939F93AF93BF93EF93A9
S11313D0FF9387E092E00E94B108FF91EF91BF91E3
S11313E0AF919F918F917F916F915F914F913F91B9
S11313F02F910F900FBE0F901F90189587E092E0E9
S11314000E94660821E0892B09F420E0822F0895C8
S1131410E7E0F2E01382128288EE93E0A0E0B0E00D
S113142084839583A683B7838EE091E09183808340
S113143085EC90E09587848784EC90E09787868795
S113144080EC90E0918B808B81EC90E0938B828B8D
S113145082EC90E0958B848B86EC90E0978B868B66
S1131460118E128E138E148E089508950E94DD0B32
S11314700E94350A0E949605C3EAD8E00E946107DB
S11314802097E1F30E94A308F9CFCF92DF92EF9265
S1131490FF920F931F93CF93DF936C017A018B011B
S11314A0C0E0D0E0CE15DF0581F0D8016D918D014B
S11314B0D601ED91FC910190F081E02DC6010995D2
S11314C0892B11F02196EECF7E01C701DF91CF91D8
S11314D01F910F91FF90EF90DF90CF9008956115C9
S11314E0710579F0FB0101900020E9F73197AF0114
S11314F0461B570BDC01ED91FC910280F381E02D3A
S1131500099480E090E00895EF92FF920F931F9367
S1131510CF93DF938C017B01C0E0D0E0F701EC0FA7
S1131520FD1F6491662361F0D801ED91FC91019057
S1131530F081E02DC8010995892B11F02196EECF99
S1131540CE01DF91CF911F910F91FF90EF900895FD
S11315506CE171E00C946F0A0F931F93CF93DF93A8
S1131560EC010E94840A8C01CE010E94A80A800F1B
S1131570911FDF91CF911F910F9108958F929F92A8
S1131580AF92BF92EF92FF920F931F93CF93DF938B
S1131590CDB7DEB7A1970FB6F894DEBF0FBECDBFAF
S11315A07C01FA01CB0119A2223008F42AE08E0151
S11315B00F5D1F4F822E912CA12CB12CBF01A501D0
S11315C094010E942322F901CA01015011096A30D1
S11315D010F4605D01C0695CD8016C93232B242B4B
S11315E0252B61F7B801C7010E946F0AA1960FB6B7
S11315F0F894DEBF0FBECDBFDF91CF911F910F9145
S1131600FF90EF90BF90AF909F908F900895211519
S1131610310541F4DC01ED91FC910190F081E02D64
S1131620642F09940C94BE0A0F931F93CF93DF93F6
S1131630EC010E94070B8C01CE010E94A80A800FC6
S1131640911FDF91CF911F910F9108951F920F92D7
S11316500FB60F9211242F933F938F939F93AF93C1
S1131660BF938091A5029091A602A091A702B09188
S1131670A8023091A40226E0230F2D3720F402960D
S1131680A11DB11D05C029E8230F0396A11DB11D9D
S11316902093A4028093A5029093A602A093A7028C
S11316A0B093A8028091A9029091AA02A091AB02E2
S11316B0B091AC020196A11DB11D8093A902909333
S11316C0AA02A093AB02B093AC02BF91AF919F91D9
S11316D08F913F912F910F900FBE0F901F901895EF
S11316E02FB7F8946091A5027091A6028091A70289
S11316F09091A8022FBF08953FB7F8948091A90252
S11317009091AA02A091AB02B091AC0226B5A89B1D
S113171005C02F3F19F00196A11DB11D3FBFBA2F7F
S1131720A92F982F8827820F911DA11DB11DBC01DF
S1131730CD0143E0660F771F881F991F4A95D1F7A3
S113174008958F929F92AF92BF92CF92DF92EF92C1
S1131750FF926B017C010E947C0B4B015C01C11464
S1131760D104E104F10401F10E94401F0E947C0BAA
S1131770DC01CB0188199909AA09BB09883E934069
S1131780A105B10560F321E0C21AD108E108F1080E
S113179088EE880E83E0981EA11CB11CC114D104EC
S11317A0E104F10419F7DBCFFF90EF90DF90CF90C5
S11317B0BF90AF909F908F900895789484B5826085
S11317C084BD84B5816084BD85B5826085BD85B5E1
S11317D0816085BDEEE6F0E0808181608083E1E890
S11317E0F0E01082808182608083808181608083C8
S11317F0E0E8F0E0808181608083E1EBF0E08081CB
S113180084608083E0EBF0E0808181608083EAE79C
S1131810F0E0808184608083808182608083808125
S11318208E7F80838081806880831092C1000895B8
S1131830833081F028F4813099F08230A1F008954A
S11318408730A9F08830B9F08430D1F480918000D9
S11318508F7D03C0809180008F77809380000895EE
S113186084B58F7702C084B58F7D84BD089580913F
S1131870B0008F7703C08091B0008F7D8093B0005B
S11318800895CF93DF9390E0FC01EE53FF4F249132
S1131890FC01EA52FF4F8491882361F190E0880FA4
S11318A0991FFC01E250FF4FC591D491FC01EC500B
S11318B0FF4FA591B491611109C09FB7F894888135
S11318C0209582238883EC912E230BC0623061F42F
S11318D09FB7F8948881322F309583238883EC91C5
S11318E02E2B2C939FBF06C08FB7F894E8812E2B24
S11318F028838FBFDF91CF9108951F93CF93DF93F8
S1131900282F30E0F901E255FF4F8491F901EE539D
S1131910FF4FD491F901EA52FF4FC491CC23C1F097
S1131920162F81110E94180CEC2FF0E0EE0FFF1F10
S1131930EC50FF4FA591B4919FB7F894111104C0D6
S11319408C91D095D82302C0EC91DE2BDC939FBF01
S1131950DF91CF911F910895CF93DF93282F30E02B
S1131960F901E255FF4F8491F901EE53FF4FD491F1
S1131970F901EA52FF4FC491CC2391F081110E94E6
S1131980180CEC2FF0E0EE0FFF1FE651FF4FA5916E
S1131990B491EC91ED2381E090E021F480E002C069
S11319A080E090E0DF91CF910895CF92DF92EF92A3
S11319B0FF92611571058105910549F06B017C0168
S11319C00E94F023A70196010E94452203C060E013
S11319D070E0CB01FF90EF90DF90CF900895CF920D
S11319E0DF92EF92FF920F931F936217730784079E
S11319F0950784F489019A016B017C01C901B8013E
S1131A006C197D098E099F090E94D50C6C0D7D1DF2
S1131A108E1D9F1D1F910F91FF90EF90DF90CF902F
S1131A2008952F923F924F925F926F927F928F927E
S1131A309F92AF92BF92CF92DF92EF92FF920F9359
S1131A401F93CF93DF9300D000D000D0CDB7DEB783
S1131A502C017E836D836A015901C801FC82EB82EB
S1131A604801841A950A97FE03C0919481949108C1
S1131A7035012D813E81621A730A77FE03C0719489
S1131A8061947108681479045CF43A2D2B2D5C017F
S1131A90832F922F3D812E81DE82CD82C32ED22EC2
S1131AA0AD81BE81AA16BB065CF43C2D2D2D6C01C4
S1131AB0832F922F3D812E81BE82AD82A32EB22E22
S1131AC085012D813E81021B130B1C012C183D083E
S1131AD037FE03C0319421943108780117FF03C005
S1131AE03FEFE31AF30AF594E794C816D9062CF0ED
S1131AF08FEF9FEF9A83898304C0A1E0B0E0BA839B
S1131B00A9832D813E81A216B30624F1D201ED9161
S1131B10FC910484F585E02D2B813C8168147904C3
S1131B2024F44D815E81B60103C0A6016D817E81DE
S1131B30C2010995E218F308F7FE06C029813A812B
S1131B40C20ED31EE00EF11E8D819E8101969E83EE
S1131B508D83D7CF26960FB6F894DEBF0FBECDBFC8
S1131B60DF91CF911F910F91FF90EF90DF90CF9075
S1131B70BF90AF909F908F907F906F905F904F90A9
S1131B803F902F900895DC01ED91FC910084F18544
S1131B90E02D09940F931F93DC01ED91FC91048CCB
S1131BA0F58DE02D09951F910F9108950F931F93C3
S1131BB0DC01ED91FC91068CF78DE02D09951F91C8
S1131BC00F910895EF92FF920F931F93DC01ED9113
S1131BD0FC9100A0F1A1E02D09951F910F91FF90B8
S1131BE0EF90089508958F929F92AF92BF92CF92F3
S1131BF0DF92EF92FF920F931F93CF93DF93EC0149
S1131C005B014A0169017801E881F9810284F38565
S1131C10E02D0995C80CD91C860101501109E881F1
S1131C20F9810488F589E02D9501A401B501CE015F
S1131C300995E881F9810688F789E02DCE01DF91C5
S1131C40CF911F910F91FF90EF90DF90CF90BF90B5
S1131C50AF909F908F9009948F929F92AF92BF9272
S1131C60CF92DF92EF92FF920F931F93CF93DF9364
S1131C70EC015B014A016901E881F9810284F38581
S1131C80E02D099595012C0D3D1D21503109E88168
S1131C90F9810488F589E02D78018401A401B50156
S1131CA0CE010995E881F9810688F789E02DCE01F6
S1131CB0DF91CF911F910F91FF90EF90DF90CF9024
S1131CC0BF90AF909F908F9009944F925F926F92C4
S1131CD07F928F929F92AF92BF92CF92DF92EF92B8
S1131CE0FF920F931F93CF93DF936C012B015A0143
S1131CF039014801DC01ED91FC910284F385E02D6A
S1131D000995E201640C751CD601ED91FC91C61590
S1131D10D7055CF40088F189E02D87019401A501C1
S1131D20BE01C60109952196EFCF0688F789E02DFB
S1131D30C601DF91CF911F910F91FF90EF90DF903B
S1131D40CF90BF90AF909F908F907F906F905F9057
S1131D504F900994EF92FF920F931F93DC011A9610
S1131D600D911C911B9718962D913C911997ED910B
S1131D70FC9100A0F1A1E02D7B0140E050E060E087
S1131D8070E009951F910F91FF90EF9008958F9245
S1131D909F92AF92BF92CF92DF92EF92FF920F93F6
S1131DA01F93CF93DF934C016B015A01E901DC01CE
S1131DB0ED91FC916217730781F40417150724F45D
S1131DC08B2D5801042F182F0A191B0998012F5F16
S1131DD03F4F048CF58DE02D12C04017510709F5D3
S1131DE02617370724F48D2D6901C62FD82F9E019D
S1131DF02C193D092F5F3F4F068CF78DE02D87018D
S1131E00A501B601C4010995DF91CF911F910F91EE
S1131E10FF90EF90DF90CF90BF90AF909F908F9006
S1131E2008950284F385E02D0995D401ED91FC9188
S1131E300488F589E02D9E01A501B601C401099528
S1131E40D401ED91FC910688F789E02DC401DF915E
S1131E50CF911F910F91FF90EF90DF90CF90BF90A3
S1131E60AF909F908F9009946F927F928F929F92E0
S1131E70AF92BF92CF92DF92EF92FF920F931F9394
S1131E80CF93DF93EC014B015A0169013801E881DA
S1131E90F9810284F385E02D0995E881F9810288AE
S1131EA0F389E02D87019601A501B401CE010995BE
S1131EB0A501460D571D41505109E881F981028859
S1131EC0F389E02D9601B401CE010995E881F981E9
S1131ED00088F189E02D9301A501B401CE01099593
S1131EE0C80CD91CB60161507109E881F9810088D8
S1131EF0F189E02D9301A501CE010995E881F981CD
S1131F000688F789E02DCE01DF91CF911F910F91C3
S1131F10FF90EF90DF90CF90BF90AF909F908F9005
S1131F207F906F9009940895FC016370668B84819F
S1131F30958126813781613039F0633029F09187AA
S1131F408087338722870895318720879387828704
S1131F500895FC01138212828FE291E091838083C1
S1131F607583648357834683718760875387428769
S1131F70168A158614861786168681E0858B848BCF
S1131F802FEF3FEF338B228B318B208B878B108E7F
S1131F90128E118E08953F924F925F926F927F92AC
S1131FA08F929F92AF92BF92CF92DF92EF92FF9265
S1131FB00F931F93CF93DF93CDB7DEB72A970FB656
S1131FC0F894DEBF0FBECDBF5C017E836D8358875E
S1131FD04F8329013701DC01ED91FC910284F385E3
S1131FE0E02D0995C801079697FD07969C0193E09B
S1131FF0359527959A95E1F73A832983812C912C7D
S1132000E12CF12C312C8F8198858E0D9F1D9C83A2
S11320108B83E614F7040CF03DC01A861986A98553
S1132020BA85A017B10774F5CD0187709927892B5C
S113203011F0330C0EC0E985FA85F7FD379683E07D
S1132040F595E7958A95E1F7E80DF91DE40DF51D81
S1132050349037FE11C0D501ED91FC910484F585CF
S1132060E02D96014B815C816D817E8189859A8505
S1132070680F791FC5010995A985BA851196BA8794
S1132080A987CDCFBFEFEB1AFB0A29813A81820ED3
S1132090931EB9CFD501ED91FC910688F789E02D07
S11320A0C5012A960FB6F894DEBF0FBECDBFDF91EF
S11320B0CF911F910F91FF90EF90DF90CF90BF9041
S11320C0AF909F908F907F906F905F904F903F90D4
S11320D009942F923F924F925F926F927F928F92C8
S11320E09F92AF92BF92CF92DF92EF92FF920F93A3
S11320F01F93CF93DF93CDB7DEB76B970FB6F894EA
S1132100DEBF0FBECDBF9B8F8A8F2B015A834983BD
S1132110D22E198708874701AB82DC0159962D918D
S11321203C915A972115310509F000C118968D91FB
S11321309C911997681779070CF0E7C11A968D914D
S11321409C911B97481759070CF0DFC12C2C312C9C
S1132150FB0126E0C29EE00DF11D1124FD87EC87F2
S11321601E161F060CF0D1C14A2D50E05B874A872A
S113217083E0440F551F8A95E1F75F874E87898175
S11321809A81840F951F181619060CF0BEC1589633
S11321908C91811104C06FEA6D1508F4D394AA8D53
S11321A0BB8DED91FC9111970284F385E02DCD0157
S11321B00995B5E0DB9EC0011124EC2DF0E0F98B0C
S11321C0E88B92012B5F3F4F3B8B2A8B32015D8260
S11321D04C82AC01441955095D8B4C8B7B81672F74
S11321E070E07F8B6E8B89819A810896998F888F96
S11321F0EC89FD89E60DF71DE85FFE4FD490A981B7
S1132200BA81BF83AE835D01D0FE16C0AA8DBB8D9B
S1132210ED91FC91B1E0CB1209C02B81213031F456
S11322200484F585E02D2885398519C00684F78551
S1132230E02DE884F9841DC0488559854815590561
S113224011F1AA8DBB8DED91FC91B1E0CB120DC0C3
S11322502B81213051F40484F585E02D9401A501EE
S1132260B3018A8D9B8D09950EC00684F785E02DF8
S113227074010A851B8591014E815F816C817D818A
S11322808A8D9B8D0995D6944E815F816E897F8955
S1132290460F571F5F834E837FEFA71AB70A888DB7
S11322A0998DA816B90609F0AFCFAC81BD81E88934
S11322B0F989AE0FBF1FBD83AC83FFEF6F1A7F0A8E
S11322C02A893B896216730609F092CF488559859D
S11322D04815590509F4F7C0AA8DBB8DED91FC9101
S11322E0B1E0CB1212C02B81213079F4B2016B5FC3
S11322F07F4F0088F189E02D840128E030E0498196
S11323005A818A8D9B8D0995DEC06C857D85621905
S113231073090684F785E02D74010E851F859101EC
S113232049815A818A8D9B8D0995CDC0F9013496D6
S1132330E491DE1AF901329685919491B7E0DB9E1F
S1132340800D911D1124F90125913491398B288B2D
S1132350FC0125903490FC01329674903196A4903F
S1132360329694903196B49031E03C1518F04B813C
S1132370423068F0692D092C000C770B7D836C8347
S11323808B2D0B2C000C990B9F838E8304C01F8212
S11323901E821D821C82AA8DBB8DED91FC9111972A
S11323A00284F385E02DCD010995612CD12C812C7B
S11323B0FB81EF2FF0E0FB87EA872C2D30E03D878F
S11323C02C8749815A814B0D511DB7FC5A955D8B61
S11323D04C8BB201690D711D97FC7A957F8B6E8BC6
S11323E08A1408F070C0282D30E04E815F81420FBE
S11323F0531FAA85BB85A49FC001A59F900DB49FC0
S1132400900D1124E981FA81E80FF91FFF87EE8707
S1132410862D912C4C895D89420F531F5B8B4A8B0F
S1132420971408F04DC0BB24B394B80E877041F4E0
S1132430C1010196E889F989E20DF31DD4901C01CC
S1132440D7FE3AC051E0C51216C06B81613099F4D1
S1132450AA8DBB8DED91FC9111970484F585E02D37
S1132460288539854A895B896E897F89690D711D43
S1132470CD01099521C08C819D81890D911DEC852B
S1132480FD858E9FB0018F9F700D9E9F700D11244E
S1132490640D751DAA8DBB8DED91FC911197068479
S11324A0F785E02DE884F9840A851B852C853D8514
S11324B04E855F85CD010995DD0C93948B2DB0CFAE
S11324C0670C83948DCFAA8DBB8DED91FC911197F0
S11324D00688F789E02DCD016B960FB6F894DEBF20
S11324E00FBECDBFDF91CF911F910F91FF90EF9061
S11324F0DF90CF90BF90AF909F908F907F906F9020
S11325005F904F903F902F9009946B960FB6F8947C
S1132510DEBF0FBECDBFDF91CF911F910F91FF9012
S1132520EF90DF90CF90BF90AF909F908F907F906F
S11325306F905F904F903F902F9008958F929F924D
S1132540AF92CF92EF92FF920F931F93CF93DF93AB
S1132550EC01262F898D9A8D009709F042C06A30CC
S113256059F41D861C862D898E859F8538E0239F0E
S1132570800D911D112443C06D3009F4AAC08F89C8
S11325808823C9F03C898C859D8546E0349F800D65
S1132590911D1124488559854817590764F41D86EF
S11325A01C863D898E859F8548E0349F800D911D52
S11325B011249F878E87EA88FB88088919894E85AC
S11325C05F856C857D85AD88CC88CE010E946910BD
S11325D02C898C859D8536E0239F800D911D1124C7
S11325E03EC06A3079F41D861C862D89FC0138961C
S11325F0E4918E859F852E9F800D911D11249F87C8
S11326008E8767C06D3009F464C0FC013496349140
S1132610631708F45EC03296E491E61708F459C0D3
S1132620462F431B342FFC0132968590949047E04B
S1132630349F800C911C1124F4013296349131960C
S1132640E491332311F0E1110DC0F4013496E491C7
S11326502C898C859D85E29F800D911D11249D8779
S11326608C8737C0F401359644915F89552319F15D
S11326705C89E32FF0E0E40FF11D47FDFA955E9FBE
S1132680B0015F9F700D11244C855D85460F571F67
S1132690688579856417750774F41D861C863D89E1
S11326A0FC013896E4918E859F853E9F800D911D97
S11326B011249F878E87EA88FB88088919894E85AB
S11326C05F856C857D85AD88CC88CE010E946910BC
S11326D0BCCF81E090E0DF91CF911F910F91FF90EB
S11326E0EF90CF90AF909F908F900895611101C0AB
S11326F061E0FC01648B411101C041E0FC01458BA8
S11327000895462F0C947613CF93DF93EC018985BB
S11327109A850E941C238E819F8197FD05C060E0ED
S1132720DF91CF910C94410CDF91CF910895CF9319
S1132730DF93EC018E819F8197FD07C061E00E94C9
S1132740410C60E08E810E947D0C81E08983DF91E1
S1132750CF910895EF92FF920F931F93CF93DF933E
S1132760EC017B0189859A850E941C239E858B85BB
S1132770981719F084E090E002C083E090E08E9D09
S113278080018F9D100D9E9D100D11241D830C83BF
S1132790C8010E9484229A878987009741F0A80182
S11327A060E070E00E944C24FB82EA8204C01D8237
S11327B01C821B821A82DF91CF911F910F91FF908F
S11327C0EF900895FC0131E096858385981330E0FD
S11327D0CB0126E0969587952A95E1F7282F23705B
S11327E02687CB0144E0969587954A95E1F7837057
S11327F08387AB0156954795569547954370448713
S1132800962F9370958791E06F3F710511F008F052
S113281090E0908341855285452B51F091E0281337
S113282090E0391729F062817381CF010C94AA13C7
S11328300895CF92DF92EF92FF920F931F93CF935D
S1132840DF93CDB7DEB729970FB6F894DEBF0FBE7E
S1132850CDBF8C01DC0119968D919C911A97892B1F
S113286009F48FC10E947C0BF801C784D088E188E9
S1132870F2886C157D058E059F0520F46787708BA3
S1132880818B928BF801C784D088E188F288DC01BF
S1132890CB018C199D09AE09BF098C329140A10569
S11328A0B10500F3F894D80114968D919C91159775
S11328B09A83898319960D90BC91A02D7D01EFEF29
S11328C0EE1AFE0A8C918987D8018C9153960D904B
S11328D0BC91A02D882309F41AC11D82AB32B10525
S11328E009F059C09BB1F8018589982B98879BB151
S11328F0809589238F838F818E83898587FF02C08A
S113290088858E8358856F8149853E812D81898193
S11329109A81D7015BB9262F3BB900C046FD252F0C
S11329206BB900C05BB9362F2BB900C045FD352FFC
S11329306BB900C05BB9262F3BB900C044FD252FFD
S11329406BB900C05BB9362F2BB900C043FD352FDE
S11329506BB900C05BB9262F3BB900C042FD252FDF
S11329606BB900C05BB9362F2BB900C041FD352FC0
S11329706BB900C05BB9262F3BB900C040FD252FC1
S11329806BB901975BB9362F2BB94D9147FD352FA4
S11329906BB901F6B8C0A532B10509F059C095B1BB
S11329A0F8018589982B988795B1809589238F8321
S11329B08F818E83898587FF02C088858E835885A1
S11329C06F8149853E812D8189819A81D70155B9CD
S11329D0262F35B900C046FD252F65B900C055B96D
S11329E0362F25B900C045FD352F65B900C055B94E
S11329F0262F35B900C044FD252F65B900C055B94F
S1132A00362F25B900C043FD352F65B900C055B92F
S1132A10262F35B900C042FD252F65B900C055B930
S1132A20362F25B900C041FD352F65B900C055B911
S1132A30262F35B900C040FD252F65B9019755B93A
S1132A40362F25B94D9147FD352F65B901F65BC089
S1132A50989709F08CC098B1F8018589982B9887CC
S1132A6098B1809589238F838F818E83898587FF91
S1132A7002C088858E8358856F8149853E812D816A
S1132A8089819A81D70158B9262F38B900C046FDEB
S1132A90252F68B900C058B9362F28B900C045FDA4
S1132AA0352F68B900C058B9262F38B900C044FD85
S1132AB0252F68B900C058B9362F28B900C043FD86
S1132AC0352F68B900C058B9262F38B900C042FD67
S1132AD0252F68B900C058B9362F28B900C041FD68
S1132AE0352F68B900C058B9262F38B900C040FD49
S1132AF0252F68B9019758B9362F28B94D9147FD4C
S1132B00352F68B901F649873E832D832EC09C91E9
S1132B10F8018589982B98879C91809589238F83C8
S1132B208F818C8388E08B8358856F8149853B81B5
S1132B302C8189819A81F7015C9347FD252F2C9381
S1132B40262F3A9531F0441F6C9300C000C000C09A
S1132B50F3CF6C93000038E04191019769F7F801D5
S1132B60B48BA38B49873B832C839A838983789482
S1132B700E947C0BD8011F966D937D938D939C933B
S1132B80529729960FB6F894DEBF0FBECDBFDF91E2
S1132B90CF911F910F91FF90EF90DF90CF90089508
S1132BA00F931F93CF93DF93EC01162F072F898187
S1132BB0882339F08E819F8197FD03C060E00E94D5
S1132BC0410C1E830F838981882341F061E0812FAA
S1132BD00E94410C60E0812F0E947D0C812F902F78
S1132BE0FC01EA52FF4FE491F0E0EE0FFF1FEC50BE
S1132BF0FF4F259134913C8B2B8BFC01EE53FF4FFF
S1132C00E491ED8BDF91CF911F910F910895EF9295
S1132C10FF920F931F93CF93DF93EC017B018A0103
S1132C20198218861A8619861F86188A198A1A8A9A
S1132C30B9010E94E213B701CE010E94AA13B801A0
S1132C40CE01DF91CF911F910F91FF90EF900C94E3
S1132C50D0157F928F929F92AF92BF92CF92DF92C4
S1132C60EF92FF920F931F93CF93DF93FC01828126
S1132C7093816817790708F053C04A01AA24BB243A
S1132C80782CC32ED42EE52EFF24BC2DA22F8085B4
S1132C90882361F0889E40011124792C8C9D600169
S1132CA01124BD2D829F70011124AF2D9685D385EB
S1132CB0E184F2849D1308C0CB01880F991F680F2B
S1132CC0791F6E0D7F1D1CC0660F771F660F771F5F
S1132CD06E0D7F1D052F1127222733277B01E90E57
S1132CE0F11C811102C0202F09C090E0809F600177
S1132CF0819FD00C909FD00C11242D2DE7012883A7
S1132D0083859B01280F311DE90178828485EB01BD
S1132D10C80FD11DB8838585FB01E80FF11DA08381
S1132D20DF91CF911F910F91FF90EF90DF90CF90A3
S1132D30BF90AF909F908F907F9008958F929F92B5
S1132D40AF92BF92CF92DF92EF92FF920F931F93B5
S1132D50CF93DF936C014A015B01E901FC01E2803E
S1132D60F3802E153F05A0F40115110531F0020F73
S1132D70131F0E151F0508F47801CE15DF0540F466
S1132D80A5019401BE01C6010E9429162196F5CF22
S1132D90DF91CF911F910F91FF90EF90DF90CF9033
S1132DA0BF90AF909F908F900895FC01448155810E
S1132DB060E070E0818592850C944C24FC0177FDE1
S1132DC0B9C080859185681779070CF0B3C057FDA9
S1132DD0B1C082859385481759070CF008958689F8
S1132DE0823079F484819581DC01A61BB70BBD0187
S1132DF06150710986819781DC01A41BB50BAD017B
S1132E000EC0833009F084C064277527CA01862761
S1132E1097276827792746815781481B590B4150CA
S1132E2051092130310531F048F12230310509F4DE
S1132E304AC00895CA0157FD07969C01A3E0359541
S1132E402795AA95E1F7A481B5812A9FC0012B9FFC
S1132E50900D3A9F900D1124680F791F078CF0A1F3
S1132E60E02DE60FF71F4770552781E090E001C081
S1132E70880F4A95EAF79081892B48C0CA0157FD0B
S1132E8007969C0193E0359527959A95E1F7A481DF
S1132E90B5812A9FC0012B9F900D3A9F900D11245C
S1132EA0680F791F078CF0A1E02DE60FF71F47701C
S1132EB0552781E090E001C0880F4A95EAF7809594
S1132EC09081892323C0CA0157FD07969C0183E0A2
S1132ED0359527958A95E1F7A481B5812A9FC0018C
S1132EE02B9F900D3A9F900D1124680F791F078C2A
S1132EF0F0A1E02DE60FF71F4770552781E090E021
S1132F0001C0880F4A95EAF7908189278083089544
S1132F10813009F086CF6427752746275727642711
S1132F20752784819581DC01A61BB70BBD01615017
S1132F30710977CF08952091AF02222399F04FB7FA
S1132F40F8942091AF02213059F42DB32093AD02AF
S1132F503DB32091AE02209523232DBB4FBF02C069
S1132F604093AD028CBD9DBD08958EBD00000DB48F
S1132F7007FEFDCF8EB508958091AF02882361F0DE
S1132F809FB7F8942091AF028091AD02213019F4DB
S1132F908DBB9FBF08958FBF08954F925F926F922C
S1132FA07F928F929F92AF92BF92CF92DF92EF92D5
S1132FB0FF920F93CF93DF93CDB7DEB73C01290186
S1132FC050E070E00E94A90F8BE591E0F30191833A
S1132FD08083148E138E4114510411F0C20102C077
S1132FE081EB92E0F301968F858F10A2178E8FEFFD
S1132FF084A385A386A387A300A7C5AAD6AAE7AA04
S1133000F0AE81AE92AEA3AEB4AE80E586AF81E001
S113301087AFDF91CF910F91FF90EF90DF90CF902A
S1133020BF90AF909F908F907F906F905F904F90E4
S113303008952BE531E0FC0131832083878D90A135
S1133040009711F00C941C2308951F93CF93DF93E2
S1133050FC01858D968D009719F1162FEF0161A162
S1133060062E000C770B0E94221F8D8D9E8DDC0195
S1133070ED91FC910190F081E02D60E009958D8D3A
S11330809E8DDC01ED91FC910190F081E02D612F8A
S113309009958D8D9E8DDF91CF911F910C94371FD3
S11330A0A5A5B6A59C9183A9809589238C93838D2E
S11330B0948D892B31F0862FDF91CF911F910C9441
S11330C0B51728E030E080E8A1A5B2A591A9462F64
S11330D0482319F04C91942B03C04C919095942360
S11330E09C93A3A5B4A54C9192A9942B9C93A3A5BE
S11330F0B4A54C9192A9909594239C9386952150C4
S1133100310911F7DF91CF911F9108951F93CF9348
S1133110DF93EC01162F8D8D9E8D009739F04DA90C
S11331205EA96FA978AD0E94141F0FC08B8D9C8D72
S1133130892B21F08EAD9FAD0E949B17EFA5F8A9B6
S113314090818CA9809589238083111102C066EA3D
S113315001C067EACE010E9425188D8D9E8D0097CF
S113316049F049AD5AAD6BAD7CADDF91CF911F9164
S11331700C94141FEFA5F8A990818CA9892B808346
S11331808B8D9C8D892B29F0DF91CF911F910C940D
S1133190BC17DF91CF911F910895BF92CF92DF9218
S11331A0EF92FF920F931F93CF93DF93EC01B62E10
S11331B0072F142F8D8D9E8D009709F452C069A19D
S11331C0062E000C770B0E94221F8D8D9E8DDC0134
S11331D0ED91FC910190F081E02D60E00995CB2CFC
S11331E0D02EEE24E394F12C8D8D9E8D112371F15C
S11331F0B0E2EB16F104B8F00E94371F69A1062E65
S1133200000C770B8D8D9E8D0E94221F8D8D9E8DBF
S1133210DC01ED91FC910190F081E02D60E00995D5
S1133220EE24E394F12C8D8D9E8DF6016491DC01E6
S1133230ED91FC910190F081E02D0995BFEFEB1A1F
S1133240FB0A1150F60131966F01CECFDF91CF9179
S11332501F910F91FF90EF90DF90CF90BF900C944F
S1133260371FEDA5FEA590818BA9809589238083C6
S1133270E62EF72E112379F1F70184912B8D3C8DE5
S1133280232B39F00E94B5171150C70101967C0118
S1133290F1CF28E030E040E8E9A5FAA599A9582F34
S11332A0542319F05081952B03C050819095952398
S11332B09083EBA5FCA550819AA9952B9083EBA54F
S11332C0FCA550819AA99095952390834695215009
S11332D0310911F7D9CFDF91CF911F910F91FF9051
S11332E0EF90DF90CF90BF900895FC018681978185
S11332F09C01295F3F4F37FF02C0295F3F4F83E0A6
S1133300359527958A95E1F784819581289FA001B9
S1133310299F500D389F500D112460E070E0878D77
S113332090A10C944C248F929F92AF92BF92CF9213
S1133330DF92EF92FF920F931F93CF93DF93EC01F1
S1133340862EB42EA22E902E8F8D98A1892BE9F46F
S11333502E813F81C901079697FD079623E0959535
S113336087952A95E1F72C813D81AC01429FC001EC
S1133370439F900D529F900D11240E94842298A384
S11333808F8F892B11F480E092C1CE010E947519B0
S11333908E819F816C817D8181329105E4F0AC0145
S11333A04054510957FF02C04F5F5F4F55954795F1
S11333B06255710977FF02C06F5F7F4F75956795FE
S11333C0CC24C394D12C80E4E82EF12C02E510E047
S11333D02FE038E01BC0AC014052510957FF02C036
S11333E04F5F5F4F559547956357710977FF02C04B
S11333F06F5F7F4F75956795CC24C394D12CA0E261
S1133400EA2EF12C03E710E02FE236E0CE010E9411
S1133410CB0F8AA28D8D9E8D009799F0B11007C0B5
S11334202E813F812032310521F42CE303C02B2D62
S113343001C02DE329A3992009F436C10E94021F7B
S113344079C061E08EA10E94410C61E08FA10E94CD
S1133450410C8EA1082E000C990BFC01EA52FF4F7F
S1133460E491F0E0EE0FFF1FEC50FF4F25913491F3
S11334703EA72DA7FC01EE53FF4FE491EBAB8FA1C8
S1133480082E000C990BFC01EA52FF4FE491F0E086
S1133490EE0FFF1FEC50FF4FA591B491B8ABAFA74F
S11334A0FC01EE53FF4FE491ECAB8C91E82BEC93D1
S11334B08B8D9C8D892B31F0992009F43BC00E949F
S11334C0FE1D38C061E08CA10E94410C61E08DA119
S11334D00E94410C8CA1082E000C990BFC01EA52AD
S11334E0FF4FE491F0E0EE0FFF1FEC50FF4F2591EA
S11334F034913AA729A7FC01EE53FF4FE491E9ABBD
S11335008DA1082E000C990BFC01EA52FF4FE491A7
S1133510F0E0EE0FFF1FEC50FF4FA591B491BCA754
S1133520ABA7FC01EE53FF4FE491EAAB8C91E0951D
S1133530E823EC93AA20F1F088A587FD1BC061E085
S11335400E94410C61E088A50E947D0C61E070E05E
S113355080E090E00E94A10B60E088A50E947D0CB1
S11335606AE070E080E090E00E94A10B61E088A531
S11335700E947D0C8D8D9E8D009739F04DA95EA91A
S11335806FA978AD0E94141F0FC08B8D9C8D892B61
S113359021F08EAD9FAD0E949B17EFA5F8A99081F5
S11335A08CA980958923808344E06BE276E0CE0188
S11335B00E94CD186E816150CE010E94251844E00E
S11335C067E276E0CE010E94CD188AA1813011F421
S11335D060E101C064E1CE010E94251844E063E289
S11335E076E0CE010E94CD188FE88DAF8C819D814D
S11335F08038910571F48E819F8180349105B9F4EE
S11336008AA1813011F48FE901C08FEC8DAF12E1F2
S11336100FC08036910559F48E819F81409739F40B
S11336208AA1813011F480E101C08FEA8DAF12E0EC
S11336306AEDCE010E942518612FCE010E94251843
S113364061E8CE010E9425186DADCE010E942518B7
S113365069EDCE010E9425188AA1813011F462E23D
S113366001C061EFCE010E94251846E06DE176E0CD
S1133670CE010E94CD188D8D9E8D009739F049ADF5
S11336805AAD6BAD7CAD0E94141F0CC0EFA5F8A918
S113369090818CA9892B80838B8D9C8D892B11F033
S11336A00E94BC1781E003C0A11046CF67CFDF9111
S11336B0CF911F910F91FF90EF90DF90CF90BF902B
S11336C0AF909F908F9008950F931F93CF93DF93A4
S11336D0DC0157FD64C016968D919C91179748178D
S11336E059070CF05CC077FF04C0260F371F60E059
S11336F070E01496CD91DC911597CB01820F931F46
S1133700C817D9071CF49E01261B370B1216130683
S11337100CF045C0FA0157FD3796CF01E3E09595CB
S11337208795EA95E1F78C9FF0018D9FF00D9C9FA2
S1133730F00D11246E0F7F1F5F96ED91FC91909711
S1133740E60FF71F4770552781E090E001C0880F0E
S11337504A95EAF7482F0130110539F078F0023024
S11337601105E9F42E0F3F1F13C02E0F3F1FE21760
S1133770F307A9F08081842B8193F9CF80952E0FD4
S11337803F1FE217F30759F0908198239193F9CFE3
S1133790E217F30721F0808184278193F9CFDF9129
S11337A0CF911F910F910895EF92FF920F931F9362
S11337B0CF93DF93EC0177FDA5C0EC80FD806E15FF
S11337C07F050CF09FC057FF04C0240F351F40E055
S11337D050E08E819F81FA01E20FF31F8E179F073D
S11337E01CF49C01241B350B121613060CF08AC022
S11337F0922F842F8695869586958E9DD0018F9DD8
S1133800B00D11246A0F7B1FAF8DB8A1A60FB71F8F
S11338104770B1F188E0841B482F682F70E0FB01EA
S1133820EB5EF94FE491281798F4621B71092FEFAE
S113383030E002C0359527956A95E2F7E22301301E
S1133840110549F078F00230110509F05BC00EC093
S11338500130110519F48C91E82B0AC001301105CF
S113386008F049C0E0958C91E82302C08C91E827C8
S1133870EC93941708F446C02C813D81A20FB31F2A
S1133880E92FE41BE830F8F00230110561F48E2FC3
S11338909C9190959C932C813D81A20FB31F8850DD
S11338A08830B0F70FC081E00115110509F480E0FC
S11338B081959E2F8C932C813D81A20FB31F98502C
S11338C09830C0F7E770EE23E9F0F0E0E35FF94FDA
S11338D0E4910130110539F048F00230110591F4FA
S11338E08C91E82706C08C91E82B03C0E0958C915D
S11338F0E823EC9307C00230110509F4B7CFAE0DED
S1133900BF1DBECFDF91CF911F910F91FF90EF901C
S113391008950F931F93DC015696EC915697E2306D
S113392061F0E33009F1E13081F51496ED91FC91F9
S11339301597E41BF50B319723C0DC011496ED9128
S1133940FC911597DF01A61BB70BBD01DC01169690
S1133950ED91FC911797DF01A41BB50BAD0141500C
S11339605109621B730B11C0FA01DC0116964D91CB
S11339705C911797DA01A61BB70BBD01621B730B91
S1133980AB01BF010E94D41B02C00E94641B1F91A3
S11339900F9108950F931F93DC015696EC9156975F
S11339A0E23069F0E33011F1E13089F51496ED91DC
S11339B0FC911597E41BF50BE21BF30B23C0DC0110
S11339C01496ED91FC911597DF01A61BB70BBD0171
S11339D061507109DC011696ED91FC911797DF0196
S11339E0A41BB50BAD01421B530B11C0FA01DC0142
S11339F016964D915C911797DA01A61BB70BBD0182
S1133A0061507109AB01BF010E94641B02C00E9496
S1133A10D41B1F910F910895CF92DF92EF92FF92E2
S1133A200F931F93CF93DF93EC018D8D9E8D0097A1
S1133A3039F04DA95EA96FA978AD0E94141F0FC07B
S1133A408B8D9C8D892B21F08EAD9FAD0E949B1791
S1133A50EFA5F8A990818CA980958923808345E0FE
S1133A6068E076E0CE010E94CD186C816150CE01F1
S1133A700E9425182E813F81C901079697FD07965C
S1133A8023E0959587952A95E1F72C813D81829FC6
S1133A907001839FF00C929FF00C11240F8D18A1DC
S1133AA08D8D9E8DE00EF11E009709F443C069A12F
S1133AB0062E000C770B0E94221F8D8D9E8DDC013B
S1133AC0ED91FC910190F081E02D60E4099568018D
S1133AD001E010E08D8D9E8DEC14FD0441F1003267
S1133AE01105B0F00E94371F69A1062E000C770B58
S1133AF08D8D9E8D0E94221F8D8D9E8DDC01ED91FA
S1133B00FC910190F081E02D60E4099501E010E062
S1133B108D8D9E8DF60161916F01DC01ED91FC911B
S1133B200190F081E02D09950F5F1F4FD3CF0E94C4
S1133B30371F35C0EDA5FEA590818BA9892B808305
S1133B400E151F0561F1F80181918F012B8D3C8DBC
S1133B50232B19F00E94B517F3CF28E030E040E89A
S1133B60E9A5FAA599A9582F542319F05081952B4A
S1133B7003C05081909595239083EBA5FCA55081BB
S1133B809AA9952B9083EBA5FCA550819AA99095B1
S1133B909523908346952150310911F7D1CF8D8D0E
S1133BA09E8D009771F049AD5AAD6BAD7CADDF9140
S1133BB0CF911F910F91FF90EF90DF90CF900C94D5
S1133BC0141FEFA5F8A990818CA9892B80838B8D74
S1133BD09C8D892B51F0DF91CF911F910F91FF9014
S1133BE0EF90DF90CF900C94BC17DF91CF911F9191
S1133BF00F91FF90EF90DF90CF900895CF93CFB7C0
S1133C00F8948091B002811127C0E0EEF0E0849135
S1133C10ECECF0E09491E82FF0E0EE0FFF1FE2509F
S1133C20FF4FA591B491EC91E92321F461E08AE07E
S1133C300E947D0C61E08AE00E94410C8CB5806199
S1133C408CBD8CB580648CBD61E08DE00E94410C1C
S1133C5061E08BE00E94410C8091B0028F5F809301
S1133C60B002CFBFCF9108958091E50290E02091FA
S1133C70E602821B910908959091E6028091E50283
S1133C80981750F4E92FF0E0E951FD4F208130E01E
S1133C909F5F9093E60202C02FEF3FEFC9010895A2
S1133CA0E091E6028091E502E81730F4F0E0E95192
S1133CB0FD4F808190E008958FEF9FEF0895089560
S1133CC0CF93DF93EC01E091BD02F091BE023097F7
S1133CD0F1F09091E6028091E5029817C0F090E02F
S1133CE0292F30E02617370754F4DE01A20FB31F43
S1133CF04C91D901A951BD4F4C939F5FF1CF1092C4
S1133D00E6026093E502CB01DF91CF910994DF9144
S1133D10CF910895E091BF02F091C002309729F04D
S1133D201092C3021092C20209940895CF92DF92B6
S1133D30EF92FF920F931F93CF93DF937C01CB01FC
S1133D408A012091C102222389F0EB016B01C40E88
S1133D50D51ECC15DD0569F06991D701ED91FC9173
S1133D600190F081E02DC7010995F3CF642F0E94E3
S1133D70801FC801DF91CF911F910F91FF90EF90A9
S1133D80DF90CF900895CF93DF931F92CDB7DEB726
S1133D9069832091C1022223D1F02091C2022032F2
S1133DA040F021E030E0FC013383228380E090E0A6
S1133DB015C08091C302E82FF0E0EC53FD4F9981C8
S1133DC090838F5F8093C3028093C20205C061E039
S1133DD0CE0101960E94801F81E090E00F90DF9158
S1133DE0CF910895FC011382128288EE93E0A0E043
S1133DF0B0E084839583A683B78387E891E09183B9
S1133E00808308951092E6021092E5021092C30294
S1133E101092C2020E94411F8AE89EE10E94AD1FD7
S1133E2080E69EE10C94A81FCB01BA010C946C1F90
S1133E3081E08093C1026093E4021092C302109265
S1133E40C20208950C94181F0F93062F21E040918D
S1133E50C20264EC72E08091E4020E94CE1F1092D0
S1133E60C3021092C2021092C1020F91089561E040
S1133E700C94241F81EB92E00C94F21E0E944724C0
S1133E80089510927A0381E0809378031092770367
S1133E9061E082E10E947D0C61E083E10E947D0C7F
S1133EA0E9EBF0E080818E7F808380818D7F808349
S1133EB080E28093B80085E48093BC000895ECEB25
S1133EC0F0E080818A7B808360E082E10E947D0C47
S1133ED060E083E10C947D0C9B01AC0160E072E135
S1133EE08AE790E00E942322DA01C9014097A109E0
S1133EF0B109B695A795979587958093B8000895CD
S1133F0040912903262F30E0240F311D2132310541
S1133F10DCF420917A032430C9F4FC0180E090E0C1
S1133F20861758F4309129032191DC01A55DBC4F1B
S1133F30A30FB11D2C930196F3CF80912903680F31
S1133F406093290380E0089581E0089582E0089554
S1133F5090936E0380936D03089590937003809300
S1133F606F03089585EC8093BC0010927A03089542
S1133F70CF93DF9391E090937203882361F0C09113
S1133F80B800D091BA000E945F1F0E94411FD093D5
S1133F90BA00C093B800DF91CF9108954F925F9219
S1133FA06F927F928F929F92AF92BF92CF92DF9245
S1133FB0EF92FF920F931F93CF93DF93413208F058
S1133FC0C6C0122FF42ED72EE62ED82F0E947C0BBB
S1133FD04B015C01C0917A03CC2311F180917303EE
S1133FE090917403A0917503B0917603892B8A2B69
S1133FF08B2B81F30E947C0B4090730350907403CD
S11340006090750370907603DC01CB0188199909DF
S1134010AA09BB09481659066A067B06D8F683C066
S113402082E080937A03009378038FEF80930703F1
S113403010924C03F0924B039E2DADE4B3E0EE2DB1
S1134040FD2D8E2F891B8F1518F481918D93F9CF37
S11340501092790390917903DD0FD92BD0937903D2
S113406080917703813089F5109277030E947C0B4D
S11340706B017C01809179038093BB008091730371
S113408090917403A0917503B0917603892B8A2BC8
S11340908B2BA9F00E947C0B809073039090740387
S11340A0A0907503B0907603DC01CB018C199D09B7
S11340B0AE09BF0988169906AA06BB06A0F180912D
S11340C0BC0083FDD7CF85EC01C085EE8093BC0096
S11340D00E947C0B6B017C01112359F180917A03BE
S11340E0823039F58091730390917403A091750324
S11340F0B0917603892B8A2B8B2B71F30E947C0B56
S11341008090730390907403A0907503B09076032D
S1134110DC01CB018C199D09AE09BF0988169906EB
S1134120AA06BB06C8F6809171030E94B81FC5E0B9
S113413013C0809107038F3F79F080910703803289
S113414041F080910703803331F0C4E005C0C1E041
S113415003C0C2E001C0C3E08C2FDF91CF911F9157
S11341600F91FF90EF90DF90CF90BF90AF909F9012
S11341708F907F906F905F904F90089585ED80931E
S1134180BC008091730390917403A0917503B09166
S113419076030796A11DB11D23E0B695A7959795C3
S11341A087952A95D1F72091BC0024FF1CC040912B
S11341B07303509174036091750370917603452BDA
S11341C0462B472B81F30097A105B10541F02AE165
S11341D02A95F1F700C00197A109B109E4CF8091B4
S11341E071030C94B81F10927A0308951F920F92D2
S11341F00FB60F9211242F933F934F935F936F93B6
S11342007F938F939F93AF93BF93EF93FF9380918B
S1134210B900887F803609F49EC078F5883209F4A5
S11342205DC090F4803109F456C038F4882309F451
S1134230F5C0883009F44FC0F5C0883109F44EC088
S1134240803209F45FC0EEC0803409F46AC058F4C7
S1134250803309F457C0883309F0E4C0809307031E
S11342600E94B21FDFC0803509F44FC0883509F4BD
S11342705DC0883409F0D6C0D3C0883909F4C4C0FD
S1134280A8F4883709F467C038F4883609F463C0A1
S1134290803709F460C0C6C0883809F4B5C08039D5
S11342A009F45FC0803809F0BDC05BC0803B09F4ED
S11342B083C038F4803A09F466C0883A09F47CC0B3
S11342C0B1C0803C09F4A4C0883C09F4A1C0883B77
S11342D009F487C0A7C08091790310C090914C0362
S11342E080914B03981770F5E0914C0381E08E0F99
S11342F080934C03F0E0E35BFC4F80818093BB0030
S113430085EC83C0809307038BC0E0914C0381E06C
S11343108E0F80934C038091BB00F0E0E35BFC4F75
S1134320808390914C0380914B036BC0E0914C03CC
S113433081E08E0F80934C038091BB00F0E0E35B3F
S1134340FC4F80838091780381116AC081E080935F
S1134350770384EA5EC083E080937A0310920803B3
S1134360CFCF80910803803208F04EC0E09108035B
S113437081E08E0F809308038091BB00F0E0E75F3B
S1134380FC4F8083BDCF0E94B21F8091080380320E
S113439030F4E0910803F0E0E75FFC4F1082609195
S11343A0080370E0E0916D03F0916E0389E093E0FF
S11343B009951092080336C084E080937A03109222
S11343C02A0310922903E0916F03F0917003099579
S11343D080912903811105C081E080932903109203
S11343E02B03E0912A0381E08E0F80932A03F0E0EF
S11343F0E55DFC4F80818093BB0090912A038091FE
S11344002903981708F47CCF85E88093BC000AC080
S113441085EC8093BC0010927A0304C010920703C9
S11344200E94BE20FF91EF91BF91AF919F918F9118
S11344307F916F915F914F913F912F910F900FBE9C
S11344400F901F901895A1E21A2EAA1BBB1BFD0109
S11344500DC0AA1FBB1FEE1FFF1FA217B307E4075F
S1134460F50720F0A21BB30BE40BF50B661F771FB7
S1134470881F991F1A9469F7609570958095909597
S11344809B01AC01BD01CF010895052E97FB1EF4DD
S113449000940E945C2257FD07D00E94232207FC4F
S11344A003D04EF40C945C225095409530952195A0
S11344B03F4F4F4F5F4F089590958095709561954C
S11344C07F4F8F4F9F4F0895A29FB001B39FC001AC
S11344D0A39F700D811D1124911DB29F700D811D2C
S11344E01124911D08950E946422A59F900DB49FEC
S11344F0900DA49F800D911D11240895EE0FFF1FB0
S11345000590F491E02D09940F931F93CF93DF93BB
S11345108230910510F482E090E0E0917D03F09107
S11345207E0320E030E0A0E0B0E0309719F1408154
S113453051810281138148175907C8F084179507E0
S113454069F4109731F012960C93129713961C93FA
S113455027C000937D0310937E0322C021153105EB
S113456019F04217530718F49A01BD01EF01DF0156
S1134570F801DBCF21153105F9F0281B390B243064
S1134580310580F48A819B816115710521F0FB015D
S11345909383828304C090937E0380937D03FE0102
S11345A0329644C0FE01E20FF31F8193919322508F
S11345B03109398328833AC020917B0330917C03ED
S11345C0232B41F4209102013091030130937C03A9
S11345D020937B03209100013091010121153105C5
S11345E041F42DB73EB74091040150910501241BBD
S11345F0350BE0917B03F0917C03E217F307A0F401
S11346002E1B3F0B2817390778F0AC014E5F5F4F24
S11346102417350748F04E0F5F1F50937C034093D7
S11346207B038193919302C0E0E0F0E0CF01DF913E
S1134630CF911F910F910895CF93DF93009709F4C1
S113464081C0FC01329713821282A0917D03B09144
S11346507E03109781F420813181820F931F209172
S11346607B0330917C032817390751F5F0937C03C1
S1134670E0937B0367C0ED0120E030E0CE17DF0755
S113468040F44A815B819E0141155105F1F0EA0134
S1134690F5CFD383C28340815181840F951FC817FE
S11346A0D90759F488819981840F951F02969183C3
S11346B080838A819B81938382832115310529F428
S11346C0F0937E03E0937D033DC0E901FB83EA831D
S11346D049915991C40FD51FEC17FD0761F48081EE
S11346E09181840F951F0296E901998388838281C1
S11346F093819B838A83E0E0F0E012968D919C91F4
S11347001397009719F0FD01DC01F7CF8D919C916F
S113471011979D012E5F3F4F820F931F20917B03C2
S113472030917C032817390769F4309729F41092E3
S11347307E0310927D0302C013821282B0937C0325
S1134740A0937B03DF91CF9108958F929F92AF92B4
S1134750BF92CF92DF92EF92FF92CF93DF93EC015F
S1134760688179818A819B81611571058105910533
S113477021F464E279ED8BE597E02DE133EF41E03C
S113478050E00E94452249015A019B01AC01A7EA6D
S1134790B1E40E9473226B017C01ACEEB4EFA5017D
S11347A094010E945624DC01CB018C0D9D1DAE1D8D
S11347B0BF1DB7FF03C00197A109B048888399833F
S11347C0AA83BB83BC01CD019F77DF91CF91FF907A
S11347D0EF90DF90CF90BF90AF909F908F9008950F
S11347E08F929F92AF92BF92CF92DF92EF92FF92FD
S11347F0609106017091070180910801909109016F
S1134800611571058105910521F464E279ED8BE56B
S113481097E02DE133EF41E050E00E944522490149
S11348205A019B01AC01A7EAB1E40E9473226B0117
S11348307C01ACEEB4EFA50194010E945624DC0186
S1134840CB018C0D9D1DAE1DBF1DB7FF03C001978D
S1134850A109B0488093060190930701A093080131
S1134860B0930901BC01CD019F77FF90EF90DF90D9
S1134870CF90BF90AF909F908F9008956093060162
S1134880709307018093080190930901089581E0D2
S113489090E0F8940C945B24DC0101C06D934150CA
S11348A05040E0F70895B7FF0C9473220E947322DE
S11348B0821B930B089515E0CBE6D5E004C0FE01FE
S11348C00E947E222196CC36D107C9F7F894FFCFF7
S11348D000007F0320000100000000000000D30856
S11348E0450A940820096608800872080D0A006EBB
S11348F0616E00696E66006F766600000000009EBF
S113490012450AA209A5093E1FF20DC30DE20DCA04
S11349100DD60D110DF20D940F930FF30D2C0E65A2
S11349200EAA0EC70E340F000000009E12450AA204
S113493009A509DE16F20DC30DE20DCA0DD60D113F
S11349400DF20D940F8618CA1C891C650EAA0EC799
S11349500E340F00000000C31E961EA2095F1E3411
S10949601E3C1E501E0067
S9030000FC
