S0170000696E746567726174696F6E546573742E73726563C9
S11300000C947D050C94A5050C94A5050C94A505EC
S11300100C94A5050C94A5050C94A5050C94A505B4
S11300200C94A5050C94A5050C94A5050C94A505A4
S11300300C94A5050C94A5050C94A5050C94A50594
S11300400C940D100C94A5050C94880D0C94BA0D09
S11300500C94A5050C94A5050C94A5050C94A50574
S11300600C9477260C94A5054C564C005941592004
S11300704C564C2B2B0050414952494E473E3E3E74
S1130080003C3C3C50414952494E47004A6F686E1F
S113009020536D697468005B6D645D4C564C005B65
S11300A06D645D4C564C004A6F686E20536D6974E4
S11300B068005353443133303620616C6C6F636194
S11300C074696F6E206661696C65640000000008E5
S11300D0000201000003040700000000000000000B
S11300E001020408102040800102040810200102CB
S11300F00408102004040404040404040202020298
S1130100020203030303030300000000230026008C
S1130110290000000000250028002B00000000003A
S1130120240027002A0000000000003E5B4F5B3ED5
S11301303E6B4F6B3E1C3E7C3E1C183C7E3C181CA8
S1130140577D571C1C5E7F5E1C00183C1800FFE79F
S1130150C3E7FF0018241800FFE7DBE7FF30483A45
S1130160060E2629792926407F050507407F0525A7
S11301703F5A3CE73C5A7F3E1C1C08081C1C3E7F2F
S113018014227F22145F5F005F5F06097F017F00F6
S11301906689956A606060606094A2FFA294080416
S11301A07E040810207E201008082A1C08081C2A37
S11301B008081E101010100C1E0C1E0C30383E388F
S11301C030060E3E0E06000000000000005F000036
S11301D00007000700147F147F14242A7F2A1223A7
S11301E01308646236495620500008070300001CB7
S11301F02241000041221C002A1C7F1C2A08083EC0
S113020008080080703000080808080800006060D2
S11302100020100804023E5149453E00427F400040
S113022072494949462141494D331814127F102718
S1130230454545393C4A4949314121110907364967
S1130240494936464949291E00001400000040343B
S11302500000000814224114141414140041221440
S11302600802015909063E415D594E7C1211127C67
S11302707F494949363E414141227F4141413E7FC8
S1130280494949417F090909013E414151737F08A8
S113029008087F00417F41002040413F017F08144E
S11302A022417F404040407F021C027F7F040810AF
S11302B07F3E4141413E7F090909063E4151215E8D
S11302C07F09192946264949493203017F01033F21
S11302D04040403F1F2040201F3F4038403F6314B0
S11302E008146303047804036159494D43007F41B2
S11302F041410204081020004141417F04020102EF
S11303000440404040400003070800205454784013
S11303107F284444383844444428384444287F38A7
S11303205454541800087E090218A4A49C787F0829
S113033004047800447D40002040403D007F1028A4
S1130340440000417F40007C047804787C08040465
S1130350783844444438FC1824241818242418FCFD
S11303607C08040408485454542404043F44243CA2
S11303704040207C1C2040201C3C4030403C442811
S11303801028444C9090907C4464544C44000836AB
S11303904100000077000000413608000201020419
S11303A0023C2623263C1EA1A161123A4040207A39
S11303B03854545559215555794122545478422181
S11303C05554784020545579400C1E5272123955B8
S11303D055555939545454593955545458000045B5
S11303E07C410002457D420001457C407D12111292
S11303F07DF0282528F07C545545002054547C5425
S11304007C0A097F4932494949323A4444443A32E0
S11304104A4848303A4141217A3A42402078009D86
S1130420A0A07D3D4242423D3D4040403D3C24FF32
S11304302424487E4943662B2FFC2F2BFF0929F6E1
S113044020C0887E090320545479410000447D4132
S11304503048484A32384040227A007A0A0A727D8B
S11304600D19317D2629292F2826292929263048A6
S11304704D4020380808080808080808382F10C814
S1130480ACBA2F102834FA00007B000008142A1498
S11304902222142A14085500550055AA55AA55AA13
S11304A0FF55FF55FF000000FF00101010FF00145F
S11304B01414FF001010FF00FF1010F010F01414BB
S11304C014FC001414F700FF0000FF00FF1414F4E0
S11304D004FC141417101F10101F101F1414141FE1
S11304E000101010F0000000001F101010101F105A
S11304F0101010F010000000FF1010101010101059
S11305001010FF10000000FF140000FF00FF0000A7
S11305101F10170000FC04F414141710171414F41B
S113052004F40000FF00F714141414141414F70056
S1130530F7141414171410101F101F141414F414A7
S11305401010F010F000001F101F0000001F140016
S11305500000FC140000F010F01010FF10FF141441
S113056014FF141010101F00000000F010FFFFFF14
S1130570FFFFF0F0F0F0F0FFFFFF0000000000FFCD
S1130580FF0F0F0F0F0F3844443844FC4A4A4A34D3
S11305907E02020606027E027E02635549416338EA
S11305A044443C04407E201E2006027E020299A59B
S11305B0E7A5991C2A492A1C4C7201724C304A4DF9
S11305C04D303048784830BC625A463D3E4949492E
S11305D0007E0101017E2A2A2A2A2A44445F4444D7
S11305E040514A444040444A51400000FF0103E066
S11305F080FF000008086B6B083612362436060F9D
S1130600090F06000018180000001010003040FF09
S11306100101001F01011E00191D1712003C3C3C82
S11306203C000000000000FF2F27002200FF2100F3
S1130630000103070F1F3F7F0080C0E0F0F8FCFEBD
S1130640DB40A4A62EAF2000A1C8D300408DAED5B8
S113065080A800006000000000000000000000000E
S1130660000000E0000000000000000000000000A6
S11306700001E00000000000000000000000000095
S113068001F0000000000000000000000000000372
S1130690F00000000000000000000000000007F06F
S11306A00000000000000000000000000007F80047
S11306B00000000000000000000000000FF800002F
S11306C00003C0007E000001E0007F0FF80000007E
S11306D003C000FE000001E000FFEFF8000000038B
S11306E0C000FE000001E000FFFFF800000003C0AE
S11306F000F00000000F007FFE7FC0000003C00078
S1130700F00000000F003FFE7FF83FF1FBCFFCFE3E
S1130710F3BC3DEFE01FFE7FFF7FFBFFDFFEFEFF2C
S1130720BC3DEFE01FC6FFFF7FFBFFDFFEFEFFBC0B
S11307303DEFE00FE3C7FE787BC3DE1EF0FFBC3D58
S1130740EF0007FF87FC787BC3DE1EF0F83C3DEF2B
S11307500001FFFFF0007BC3C01EF0F03C3DEF0042
S113076001F37FE03FFBC3CFFEF0F03C3DEF00031D
S1130770E33F807FFBC3DFFEF0F03C3DEF0007E783
S11307803C00787BC3DE1EF0F03C3DEF0007FFBE6B
S113079000787BC3DE1EF0F03C3DEF0007FFFE0057
S11307A0787BC3DE1EF0F03C3DEF000FFFFE007FC0
S11307B0FBFFDFFEF0F03FFDEFE00FFFFF007FFBEC
S11307C0FFDFFEF0F03FFDEFE00FF9FF003E79F9A7
S11307D0CF9EF0F01F3DE7E01FF1FF000000000096
S11307E0000000000000001F80FF007FFFFFFFFFEC
S11307F0FFFFFFFFFFE01C007F007FFFFFFFFEB451
S11308006D888D18E000001F007FFFFFFFFE95AD8F
S11308107DB577E000000F007FFFFFFFFEA5AD9DD3
S11308208D19E0000006007FFFFFFFFEB5ADEDB5BA
S11308307EE00000000000018000000000000000D5
S11308400000038000000000000000000007C0005A
S1130850000000000000000007C0000000000000CD
S11308600000000FC00000000000000000001FE0B6
S11308700000000000000000001FE0000000000075
S1130880000000003FE00000000000000000003F06
S1130890F00000000000000000007FF000000000F5
S11308A00000001FF87FF0000000000000003FFE81
S11308B07FF0000000000000003FFF7FF000000018
S11308C0000000001FFFFBE0000000000000000F1C
S11308D0FFF9FFC00000000000000FFFF9FFF8005F
S11308E0000000000007FFF1FFFF0000000000000F
S11308F003FC73FFFF80000000000001FE3FFFFFC8
S113090080000000000000FF1E0FFF000000000038
S113091000007FFE1FFC000000000000003FFFFFFE
S1130920F8000000000000000FDFFFE000000000FE
S11309300000001F19FFC0000000000000003F3C41
S1130940FF00000000000000007E7CF800000000B2
S1130950000000007FFE7C0000000000000000FF9B
S1130960FFFC0000000000000000FFFFFE0000008C
S11309700000000000FFFFFE000000000000000176
S1130980FFEFFE0000000000000001FFCFFE0000AA
S1130990000000000003FF07FE000000000000004C
S11309A003FC07FE0000000000000003F003FE004B
S11309B0000000000000018000FE000000000000B4
S11309C0000000007E000000000000000000003E67
S11309D0000000000000000000000C000000000007
S11309E000078000FC000003C0000000078001FC39
S11309F0000003C0000000078001FC000003C000E9
S1130A000000078001E00000001E000000078001D4
S1130A10E00000001E007FE3F79FF9FDE7787BDF2D
S1130A20C0FFF7FFBFFDFDFF787BDFC0FFF7FFBF0F
S1130A30FDFDFF787BDFC0F0F787BC3DE1FF787BED
S1130A40DE00F0F787BC3DE1F0787BDE0000F7873D
S1130A50803DE1E0787BDE007FF7879FFDE1E07871
S1130A607BDE00FFF787BFFDE1E0787BDE00F0F777
S1130A7087BC3DE1E0787BDE00F0F787BC3DE1E038
S1130A80787BDE00F0F787BC3DE1E0787BDE00FF99
S1130A90F7FFBFFDE1E07FFBDFC0FFF7FFBFFDE134
S1130AA0E07FFBDFC07CF3F39F3DE1E03E7BCFC002
S1130AB00000000000000000000000FFFFFFFFFF37
S1130AC0FFFFFFFFFFC0FFFFFFFFFD68DB111A31CF
S1130AD0C0FFFFFFFFFD2B5AFB6AEFC0FFFFFFFFC4
S1130AE0FD4B5B3B1A33C0FFFFFFFFFD6B5BDB6A13
S1130AF0FDC00C0BEA0DBB24400B11241FBECFEF2D
S1130B00D8E0DEBFCDBF11E0A0E0B1E0EAE4F6E555
S1130B1002C005900D92AA3BB107D9F723E0AAEBD6
S1130B20B1E001C01D92A43BB207E1F715E0CCE7A8
S1130B30D5E004C02197FE010E943B29C937D107A3
S1130B40C9F70E94180E0C94182B0C9400000F93F4
S1130B5061E08DE00E94281162E08EE00E9428117D
S1130B6062E08FE00E94281162E080E10E94281177
S1130B7062E081E10E94281162E086E00E9428116F
S1130B8061E087E00E94281160E087E00E94641120
S1130B9061E083E00E94281160E083E00E94641118
S1130BA062E084E00E94281126E040E855E260E01B
S1130BB070E08CE392E00E94240D86E292E00E94B1
S1130BC07E1801E021E04CE362E086EE91E00E94B1
S1130BD07A1E811106C062EB70E08CE392E00E9401
S1130BE0970E81E090E09093F9018093F80190933F
S1130BF0F7018093F60186EE91E00E945C1E62E0AC
S1130C0086EE91E00E94681867EA70E086EE91E053
S1130C100E94660E86EE91E00E94F3214FE060E0B0
S1130C2086EE91E00F910C94E5222F923F924F9221
S1130C305F926F927F928F929F92AF92BF92CF9268
S1130C40DF92EF92FF920F931F93CF93DF930E9453
S1130C5057100091CB011091CC012091CD0130911E
S1130C60CE01DC01CB01801B910BA20BB30B0091D5
S1130C700A0110910B0120910C0130910D0108170C
S1130C8019072A073B0708F051C10E9457106093C7
S1130C90CB017093CC018093CD019093CE018091D0
S1130CA0CA018F5F803118F48093CA0102C0109288
S1130CB0CA0186E292E00E94BC1B00E010E039E128
S1130CC0C32ED12CE12CF12C42E3842E912CA12CA7
S1130CD0B12C54E6452E512C612C712C80910E01BF
S1130CE090E0081719070CF00BC18091CA01180194
S1130CF0280E311C8FE028223324003111050CF416
S1130D00E1C0C80140978031910508F4DDC04097E7
S1130D108031910508F4DAC040978031910508F4D8
S1130D20D8C04097409748F440920A0150920B0172
S1130D3060920C0170920D01C7C0C80180559109E1
S1130D40409758F480920A0190920B01A0920C01F2
S1130D50B0920D01C0E0DEE1BEC0C8018056910929
S1130D60409760F4C0920A01D0920B01E0920C010A
S1130D70F0920D01C0E0DEE16EE1AEC0C801805723
S1130D8091094097D0F48CE090E0A0E0B0E080932B
S1130D900A0190930B01A0930C01B0930D0124E17F
S1130DA030E040E050E065E070E080E090E00E94D8
S1130DB0D611D62FC0E060E08FC0C80180589109D9
S1130DC0409718F586E090E0A0E0B0E080930A0137
S1130DD090930B01A0930C01B0930D0124E130E03A
S1130DE040E050E065E070E080E090E00E94D611C1
S1130DF0D62F24E130E040E050E065E070E080E090
S1130E0090E00E94D611C0E067C0C80180599109E2
S1130E10409758F583E090E0A0E0B0E080930A01A9
S1130E2090930B01A0930C01B0930D0124E130E0E9
S1130E3040E050E065E070E080E090E00E94D61170
S1130E40D62F24E130E040E050E065E070E080E03F
S1130E5090E00E94D611C62F24E130E040E050E03B
S1130E6065E070E080E090E02AC081E090E0A0E0DE
S1130E70B0E080930A0190930B01A0930C01B0930E
S1130E800D012EE130E040E050E064E170E080E0EC
S1130E9090E00E94D611D62F2EE130E040E050E0E1
S1130EA064E170E080E090E00E94D611C62F2EE14C
S1130EB030E040E050E064E170E080E090E00E94C7
S1130EC0D6110AC0C0E003C0C0E004C0CAE0D0E04C
S1130ED002C0CAE0DAE06AE08C2F90E0A0E0B0E063
S1130EE0BA2FA92F982F8827AD2B9C01AD01262B53
S1130EF0B10186E292E00E94101B0F5F1F4FEECEFD
S1130F0086E292E0DF91CF911F910F91FF90EF90D5
S1130F10DF90CF90BF90AF909F908F907F906F9015
S1130F205F904F903F902F900C940019DF91CF91D8
S1130F301F910F91FF90EF90DF90CF90BF90AF90F3
S1130F409F908F907F906F905F904F903F902F90E5
S1130F500895CF92DF92EF92FF921F93CF93DF9386
S1130F600E945710C090C601D090C701E090C801FC
S1130F70F090C901DC01CB018C199D09AE09BF09B0
S1130F800B97A105B10508F458C00E94571060934F
S1130F90C6017093C7018093C8019093C90186E28A
S1130FA092E00E94BC1BC0E0D0E02AE030E040E0C8
S1130FB050E060E070E0CB010E94D611162F2AE0C9
S1130FC030E040E050E060E070E0CB010E94D611D8
S1130FD06B017C012AE030E040E050E060E070E02A
S1130FE0CB010E94D611DC01CB019927AA27BB278C
S1130FF0DC0199278827DD24EE24FF24FE2CED2C28
S1131000DC2CCC248C299D29AE29BF299C01AD015F
S1131010212BBE0186E292E00E94101B2196C03172
S1131020D10519F686E292E0DF91CF911F91FF90EE
S1131030EF90DF90CF900C940019DF91CF911F9126
S1131040FF90EF90DF90CF9008950F931F930E942D
S113105057100091C2011091C3012091C401309135
S1131060C501DC01CB01801B910BA20BB30B4A978A
S1131070A105B105C0F10E9457106093C20170939D
S1131080C3018093C4019093C5018091C0019091E4
S1131090C10101968730910529F09093C101809395
S11310A0C00104C01092C1011092C00108E010E018
S11310B020E030E040E050E0BA0186E292E00E9495
S11310C0851B6091C0017091C10120E030E04AE0CD
S11310D050E086E292E00E94101B86E292E01F91AB
S11310E00F910C9400191F910F9108950F931F9362
S11310F00E9457100091BC011091BD012091BE01C6
S11311003091BF01DC01CB01801B910BA20BB30B0F
S11311104A97A105B105E0F10E9457106093BC0104
S11311207093BD018093BE019093BF018091BA0179
S11311309091BB0101968730910529F09093BB01F2
S11311408093BA0104C01092BB011092BA0108E066
S113115010E020E030E040E050E0BA0186E292E0A6
S11311600E94851B8091BA019091BB0167E070E0F9
S1131170681B790B20E030E04AE050E086E292E020
S11311800E94101B86E292E01F910F910C940019AB
S11311901F910F9108950F931F938091E501811181
S11311A033C081E08093E5010E9457106093DF0112
S11311B07093E0018093E1019093E201DC01CB01A3
S11311C088519C4FAF4FBF4F8093DB019093DC015C
S11311D0A093DD01B093DE010FE010E028E030E0E1
S11311E040E050E0BA0186E292E00E94851B2EE1C5
S11311F030E0A9016FE070E086E292E00E94101BEB
S113120086E292E00E9400190E9457100091DB01CF
S11312101091DC012091DD013091DE0106171707E2
S11312202807390708F072C08091E40181116EC06B
S11312308091E3018830A0F50E945710DC01CB01B6
S113124088519C4FAF4FBF4F8093DB019093DC01DB
S1131250A093DD01B093DE018091E3018F5F809361
S1131260E3010FE010E028E030E040E050E0BA0194
S113127086E292E00E94851B0091E30110E020E1E8
S113128030E0201B310B4EE150E0BA0186E292E0DF
S11312900E94851B86E292E01F910F910C94001925
S11312A080910E018F5F883C08F087EC80930E01DB
S11312B081E08093E40186EE91E00E945C1E62E08E
S11312C086EE91E00E9468181092F3011092F201E8
S11312D01092F5011092F4016CE670E086EE91E054
S11312E00E94970E68E670E086EE91E00E94660E1A
S11312F04AE050E060910E0186EE91E00E94180FE2
S113130086EE91E01F910F910C94F3211F910F91A0
S11313100895CF92DF92EF92FF920F931F93CF9392
S1131320DF9384E00E9493118C0186E00E94931164
S1131330EC010E945710C090D701D090D801E090E2
S1131340D901F090DA01DC01CB018C199D09AE09B9
S1131350BF0985369105A105B10508F48FC00E9427
S113136057106093D7017093D8018093D90190935B
S1131370DA010E9457100E94BA0B20E030E04AE7DD
S113138054E40E94480BAB01BC0122E030E08CE342
S113139092E00E940B106FE071E08CE392E00E94F7
S11313A08A0E4AE050E060910E018CE392E00E94C4
S11313B0110F8FE00E949311892B19F566E171E0FA
S11313C08CE392E00E948A0E80910E018F5F8093DD
S11313D00E0186EE91E00E94412386EE91E00E9488
S11313E05C1E62E086EE91E00E9468181092F301A0
S11313F01092F2011092F5011092F4016FE970E07D
S113140027C080E10E949311892B91F561E271E07C
S11314108CE392E00E948A0E80910E0181508093A9
S11314200E0186EE91E00E94412386EE91E00E9437
S11314305C1E62E086EE91E00E9468181092F3014F
S11314401092F2011092F5011092F40167E970E034
S113145086EE91E00E94660E4AE050E060910E0133
S113146086EE91E00E94110F86EE91E00E94F32136
S113147062E471E08CE392E00E94A90E0E9457108E
S1131480C090D301D090D401E090D501F090D60162
S1131490DC01CB018C199D09AE09BF090297A10596
S11314A0B10508F449C00E9457106093D3017093AA
S11314B0D4018093D5019093D6010115110561F4EF
S11314C08091E401811105C00E94CB080E94760836
S11314D033C00E94A90730C0209749F48091E401E9
S11314E08111F7CF0E9425080E94CB0825C00E94D5
S11314F015068091E4018823C9F086EE91E00E94EC
S11315005C1E62E086EE91E00E9468186CE870E070
S113151086EE91E00E94660E86EE91E00E94F32131
S11315204FE060E086EE91E00E94E5221092E40133
S11315301092E5011092E3010E945710C090CF0170
S1131540D090D001E090D101F090D201DC01CB0128
S11315508C199D09AE09BF0985369105A105B10510
S113156008F451C00E9457106093CF017093D001CA
S11315708093D1019093D2018091E401811143C001
S1131580012BC1F486EE91E00E94412386EE91E0A6
S11315900E945C1E62E086EE91E00E946818109240
S11315A0F3011092F2011092F5011092F40161E836
S11315B070E019C0CD2B39F586EE91E00E944123ED
S11315C086EE91E00E945C1E62E086EE91E00E944D
S11315D068181092F3011092F2011092F501109222
S11315E0F40166E770E086EE91E00E94970E86EEC5
S11315F091E0DF91CF911F910F91FF90EF90DF90D9
S1131600CF900C94F321DF91CF911F910F91FF9014
S1131610EF90DF90CF9008958F929F92AF92BF92F8
S1131620CF92DF92EF92FF920F9322E530E049E0F0
S113163050E060E170E086E292E00E94EE1A80EAF7
S1131640882E86E8982EAA24A394B12C90E8C92E5B
S11316509AE1D92E96E0E92EF12C0FEF26EE32E036
S113166040E260E886EE91E00E94B41C0F91FF9086
S1131670EF90DF90CF90BF90AF909F908F900895A0
S113168086EE91E00E94001D86E292E00C946B18B5
S11316900E945C0B0C940E0C0E94070C58F00E94E4
S11316A0000C40F029F45F3F29F00C94F70B511122
S11316B00C94420C0C94FD0B0E941F0C68F39923AC
S11316C0B1F3552391F3951B550BBB27AA2762173A
S11316D07307840738F09F5F5F4F220F331F441F47
S11316E0AA1FA9F335D00E2E3AF0E0E832D091507B
S11316F05040E695001CCAF72BD0FE2F29D0660F68
S1131700771F881FBB1F261737074807AB07B0E8AA
S113171009F0BB0B802DBF01FF2793585F4F3AF0B0
S11317209E3F510578F00C94F70B0C94420C5F3FEC
S1131730E4F3983ED4F3869577956795B795F79536
S11317409F5FC9F7880F911D9695879597F908951E
S1131750E1E0660F771F881FBB1F621773078407BA
S1131760BA0720F0621B730B840BBA0BEE1F88F7C9
S1131770E0950895E89409C097FB3EF49095809510
S1131780709561957F4F8F4F9F4F9923A9F0F92F43
S113179096E9BB279395F695879577956795B795C1
S11317A0F111F8CFFAF4BB0F11F460FF1BC06F5FA7
S11317B07F4F8F4F9F4F16C0882311F096E911C0B9
S11317C0772321F09EE8872F762F05C0662371F0DA
S11317D096E8862F70E060E02AF09A95660F771FEE
S11317E0881FDAF7880F9695879597F9089597F9E2
S11317F09F6780E870E060E008959FEF80EC0895B3
S113180000240A94161617061806090608950024DB
S11318100A9412161306140605060895092E039455
S1131820000C11F4882352F0BB0F40F4BF2B11F4C9
S113183060FF04C06F5F7F4F8F4F9F4F089557FD28
S11318409058440F551F59F05F3F71F04795880F2A
S113185097FB991F61F09F3F79F0879508951216C1
S113186013061406551FF2CF4695F1DF08C016166D
S113187017061806991FF1CF86957105610508941E
S11318800895E894BB2766277727CB0197F9089535
S1131890FC01918D228D892F90E0805C9F4F821BEB
S11318A091098F7399270895FC01918D828D981762
S11318B031F0828DE80FF11D858D90E008958FEF52
S11318C09FEF0895FC01918D828D981761F0828DB0
S11318D0DF01A80FB11D5D968C91928D9F5F9F7360
S11318E0928F90E008958FEF9FEF0895FC01538D40
S11318F0448D252F30E0842F90E0821B930B5417E6
S113190010F0CF9608950197089580EE9DE0892BFD
S113191049F080E090E0892B29F00E94E00D8111CC
S11319200C9400000895FC01848DDF01A80FB11D03
S1131930A35ABF4F2C91848D90E001968F73992701
S1131940848FA689B7892C93A089B1898C918370DF
S113195080648C93938D848D981306C00288F389D8
S1131960E02D80818F7D80830895EF92FF920F9305
S11319701F93CF93DF93EC0181E0888F9B8D8C8D37
S1131980981305C0E889F989808185FD26C0F62E63
S11319900B8D10E00F5F1F4F0F731127E02E8C8DFE
S11319A0E8120CC00FB607FCFACFE889F9898081E8
S11319B085FFF5CFCE010E94930CF1CF8B8DFE01F4
S11319C0E80FF11DE35AFF4FF0829FB7F8940B8F95
S11319D0EA89FB89808180620AC09FB7F894EE8906
S11319E0FF896083E889F9898081837080648083BA
S11319F09FBF81E090E0DF91CF911F910F91FF9005
S1131A00EF900895CF93DF93EC01888D8823C9F07C
S1131A10EA89FB89808185FD05C0A889B9898C91F3
S1131A2086FD0FC00FB607FCF5CF808185FFF2CF8E
S1131A30A889B9898C9185FFEDCFCE010E94930CC2
S1131A40E7CFDF91CF910895CF92DF92EF92FF928B
S1131A501F93CF93DF93EC016A017B01122F60E89F
S1131A6074E88EE190E0A70196010E94E028DA0173
S1131A70C9010197A109B109B695A79597958795CD
S1131A809C01E889F98982E08083211580E1380787
S1131A90A8F0E889F989108260E472E48FE090E0AC
S1131AA0A70196010E94E028DA01C9010197A10962
S1131AB0B109B695A795979587959C01EC85FD8509
S1131AC03083EE85FF852083188EEC89FD89108391
S1131AD0EA89FB89808180618083EA89FB8980812E
S1131AE088608083EA89FB89808180688083EA89B1
S1131AF0FB8980818F7D8083DF91CF911F91FF903F
S1131B00EF90DF90CF90089580E090E008950895DD
S1131B101F920F920FB60F9211242F938F939F93BE
S1131B20EF93FF93E0914C02F0914D028081E0919C
S1131B305202F091530282FD12C0908180915502AD
S1131B408F5F8F7320915602821751F0E0915502F6
S1131B50F0E0E45CFD4F958F8093550201C08081D5
S1131B60FF91EF919F918F912F910F900FBE0F9046
S1131B701F9018951F920F920FB60F9211242F9356
S1131B803F934F935F936F937F938F939F93AF9301
S1131B90BF93EF93FF938CE392E00E94930CFF9129
S1131BA0EF91BF91AF919F918F917F916F915F91D1
S1131BB04F913F912F910F900FBE0F901F9018954A
S1131BC08CE392E00E94480C21E0892B09F420E088
S1131BD0822F0895ECE3F2E01382128288EE93E000
S1131BE0A0E0B0E084839583A683B78382E391E089
S1131BF09183808385EC90E09587848784EC90E0E2
S1131C009787868780EC90E0918B808B81EC90E0C5
S1131C10938B828B82EC90E0958B848B86EC90E0A6
S1131C20978B868B118E128E138E148E08950895C1
S1131C300E94C4100E94170E0E94A705C5E8DCE0AC
S1131C400E9489092097E1F30E94850CF9CFCF9275
S1131C50DF92EF92FF920F931F93CF93DF936C0168
S1131C607A018B01C0E0D0E0CE15DF0581F0D80108
S1131C706D918D01D601ED91FC910190F081E02DE3
S1131C80C6010995892B11F02196EECF7E01C7017B
S1131C90DF91CF911F910F91FF90EF90DF90CF9044
S1131CA008956115710579F0FB0101900020E9F7B1
S1131CB03197AF01461B570BDC01ED91FC9102807B
S1131CC0F381E02D099480E090E00895EF92FF9273
S1131CD00F931F93CF93DF938C017B01C0E0D0E07F
S1131CE0F701EC0FFD1F6491662361F0D801ED91BB
S1131CF0FC910190F081E02DC8010995892B11F028
S1131D002196EECFCE01DF91CF911F910F91FF90DD
S1131D10EF9008950C94510EDC01ED91FC9101902B
S1131D20F081E02D099460E471E00C94510E0F935E
S1131D301F93CF93DF93EC010E94660E8C01CE01BA
S1131D400E94930E800F911FDF91CF911F910F91ED
S1131D5008950F931F93CF93DF93EC010E94510ECC
S1131D608C01CE010E94930E800F911FDF91CF91C1
S1131D701F910F9108958F929F92AF92BF92EF920D
S1131D80FF920F931F93CF93DF93CDB7DEB7A19745
S1131D900FB6F894DEBF0FBECDBF7C01FA01CB01B4
S1131DA019A2223008F42AE08E010F5D1F4F822E03
S1131DB0912CA12CB12CBF01A50194010E94E02813
S1131DC0F901CA01015011096A3010F4605D01C0C3
S1131DD0695CD8016C93232B242B252B61F7B80164
S1131DE0C7010E94510EA1960FB6F894DEBF0FBE34
S1131DF0CDBFDF91CF911F910F91FF90EF90BF90D6
S1131E00AF909F908F9008952115310541F4DC0126
S1131E10ED91FC910190F081E02D642F09940C94D4
S1131E20BB0E9A01462F50E060E070E00C94040F62
S1131E300F931F93CF93DF93EC010E94110F8C013A
S1131E40CE010E94930E800F911FDF91CF911F91BD
S1131E500F9108959A01AB0160E070E00C94040FB7
S1131E607F928F929F92AF92BF92CF92DF92EF9226
S1131E70FF920F931F93CF93DF938C016A017B0131
S1131E80722E9A01AB01C701B6010E94DB28882398
S1131E9019F063E471E027C046015701E894B7F8EC
S1131EA02FEF3FEF4FE75FE7C501B4010E94DB2846
S1131EB081110DC02FEF3FEF4FE75FE7C501B4017C
S1131EC00E94112818161CF467E471E00CC02FEF6F
S1131ED03FEF4FE75FE4C701B6010E946928181677
S1131EE094F46BE471E0C801DF91CF911F910F91DD
S1131EF0FF90EF90DF90CF90BF90AF909F908F9026
S1131F007F900C94510E2FEF3FEF4FE75FECC7012A
S1131F10B6010E94112887FDE4CF20E030E0A9013A
S1131F20C701B6010E94112887FF0AC06DE2C801EB
S1131F300E948C0EEC01F7FAF094F7F8F09402C0CA
S1131F40C0E0D0E0B12C60E070E080E09FE37B145F
S1131F5041F020E030E040E251E40E94480BB394A9
S1131F60F6CFA70196010E94A5276B017C010E9470
S1131F7016284B015C012AE0AB01BC01C8010E9498
S1131F80BB0EC80FD91F7720B9F1C501B4010E9457
S1131F90BA0B9B01AC01C701B6010E94A4276B01D7
S1131FA07C016EE2C8010E948C0EC80FD91F20E08C
S1131FB030E040E251E4C701B6010E946E284B01B3
S1131FC05C010E9416286B017C014AE050E0C801C4
S1131FD00E942A0FC80FD91FB60180E090E00E942A
S1131FE0BA0B9B01AC01C501B4010E94A4276B018B
S1131FF07C017A947110DBCFCE01DF91CF911F91D8
S11320000F91FF90EF90DF90CF90BF90AF909F9093
S11320108F907F9008950C94300F1F920F920FB6FB
S11320200F9211242F933F938F939F93AF93BF935A
S11320308091DA029091DB02A091DC02B091DD0282
S11320403091D90226E0230F2D3720F40296A11DEA
S1132050B11D05C029E8230F0396A11DB11D2093CE
S1132060D9028093DA029093DB02A093DC02B0934E
S1132070DD028091DE029091DF02A091E002B09136
S1132080E1020196A11DB11D8093DE029093DF024F
S1132090A093E002B093E102BF91AF919F918F9121
S11320A03F912F910F900FBE0F901F9018952FB74F
S11320B0F8946091DA027091DB028091DC029091D5
S11320C0DD022FBF08953FB7F8948091DE0290910E
S11320D0DF02A091E002B091E10226B5A89B05C001
S11320E02F3F19F00196A11DB11D3FBFBA2FA92F93
S11320F0982F8827820F911DA11DB11DBC01CD0110
S113210043E0660F771F881F991F4A95D1F70895FA
S11321108F929F92AF92BF92CF92DF92EF92FF92F3
S11321206B017C010E9463104B015C01C114D1045A
S1132130E104F10401F10E94C1240E946310DC0156
S1132140CB0188199909AA09BB09883E9340A105C6
S1132150B10560F321E0C21AD108E108F10888EE64
S1132160880E83E0981EA11CB11CC114D104E104A3
S1132170F10419F7DBCFFF90EF90DF90CF90BF9081
S1132180AF909F908F900895789484B5826084BDB9
S113219084B5816084BD85B5826085BD85B5816067
S11321A085BDEEE6F0E0808181608083E1E8F0E0C7
S11321B01082808182608083808181608083E0E8F6
S11321C0F0E0808181608083E1EBF0E080818460D5
S11321D08083E0EBF0E0808181608083EAE7F0E0D7
S11321E080818460808380818260808380818E7F0F
S11321F080838081806880831092C1000895833039
S113220081F028F4813099F08230A1F0089587306C
S1132210A9F08830B9F08430D1F4809180008F7DAA
S113222003C0809180008F7780938000089584B5E7
S11322308F7702C084B58F7D84BD08958091B000EE
S11322408F7703C08091B0008F7D8093B000089594
S1132250CF93DF9390E0FC01E052FF4F2491FC0107
S1132260EC50FF4F8491882361F190E0880F991F0F
S1132270FC01E45EFE4FC591D491FC01EE5EFE4F7D
S1132280A591B491611109C09FB7F89488812095F4
S113229082238883EC912E230BC0623061F49FB7B4
S11322A0F8948881322F309583238883EC912E2BE8
S11322B02C939FBF06C08FB7F894E8812E2B2883F8
S11322C08FBFDF91CF9108951F93CF93DF93282F72
S11322D030E0F901E453FF4F8491F901E052FF4FDC
S11322E0D491F901EC50FF4FC491CC23C1F0162FC7
S11322F081110E94FF10EC2FF0E0EE0FFF1FEE5E45
S1132300FE4FA591B4919FB7F894111104C08C911C
S1132310D095D82302C0EC91DE2BDC939FBFDF91D4
S1132320CF911F910895CF93DF93282F30E0F901C7
S1132330E453FF4F8491F901E052FF4FD491F90126
S1132340EC50FF4FC491CC2391F081110E94FF10F7
S1132350EC2FF0E0EE0FFF1FE85FFE4FA591B49164
S1132360EC91ED2381E090E021F480E002C080E074
S113237090E0DF91CF910895CF92DF92EF92FF9298
S1132380611571058105910549F06B017C010E947D
S1132390AD2AA70196010E94022903C060E070E003
S11323A0CB01FF90EF90DF90CF900895CF92DF9212
S11323B0EF92FF920F931F93621773078407950799
S11323C084F489019A016B017C01C901B8016C197B
S11323D07D098E099F090E94BC116C0D7D1D8E1D07
S11323E09F1D1F910F91FF90EF90DF90CF90089564
S11323F02F923F924F925F926F927F928F929F9211
S1132400AF92BF92CF92DF92EF92FF920F931F93FE
S1132410CF93DF9300D000D000D0CDB7DEB72C012E
S11324207E836D836A015901C801FC82EB824801F5
S1132430841A950A97FE03C09194819491083501FA
S11324402D813E81621A730A77FE03C071946194F0
S11324507108681479045CF43A2D2B2D5C01832FE8
S1132460922F3D812E81DE82CD82C32ED22EAD816C
S1132470BE81AA16BB065CF43C2D2D2D6C01832F66
S1132480922F3D812E81BE82AD82A32EB22E850174
S11324902D813E81021B130B1C012C183D0837FEB5
S11324A003C0319421943108780117FF03C03FEF32
S11324B0E31AF30AF594E794C816D9062CF08FEFC3
S11324C09FEF9A83898304C0A1E0B0E0BA83A98313
S11324D02D813E81A216B30624F1D201ED91FC9127
S11324E00484F585E02D2B813C816814790424F45F
S11324F04D815E81B60103C0A6016D817E81C2015A
S11325000995E218F308F7FE06C029813A81C20E44
S1132510D31EE00EF11E8D819E8101969E838D83D4
S1132520D7CF26960FB6F894DEBF0FBECDBFDF918E
S1132530CF911F910F91FF90EF90DF90CF90BF90BC
S1132540AF909F908F907F906F905F904F903F904F
S11325502F900895DC01ED91FC910084F185E02D2C
S113256009940F931F93DC01ED91FC91048CF58D7C
S1132570E02D09951F910F9108950F931F93DC018E
S1132580ED91FC91068CF78DE02D09951F910F912B
S11325900895EF92FF920F931F93DC01ED91FC914C
S11325A000A0F1A1E02D09951F910F91FF90EF90EC
S11325B0089508958F929F92AF92BF92CF92DF9227
S11325C0EF92FF920F931F93CF93DF93EC015B0184
S11325D04A0169017801E881F9810284F385E02DDB
S11325E00995C80CD91C860101501109E881F981AB
S11325F00488F589E02D9501A401B501CE01099562
S1132600E881F9810688F789E02DCE01DF91CF9129
S11326101F910F91FF90EF90DF90CF90BF90AF90FC
S11326209F908F9009948F929F92AF92BF92CF9276
S1132630DF92EF92FF920F931F93CF93DF93EC01FE
S11326405B014A016901E881F9810284F385E02D87
S1132650099595012C0D3D1D21503109E881F98121
S11326600488F589E02D78018401A401B501CE0127
S11326700995E881F9810688F789E02DCE01DF917B
S1132680CF911F910F91FF90EF90DF90CF90BF906B
S1132690AF909F908F9009944F925F926F927F9228
S11326A08F929F92AF92BF92CF92DF92EF92FF925E
S11326B00F931F93CF93DF936C012B015A013901C0
S11326C04801DC01ED91FC910284F385E02D09952C
S11326D0E201640C751CD601ED91FC91C615D70579
S11326E05CF40088F189E02D87019401A501BE0105
S11326F0C60109952196EFCF0688F789E02DC6011A
S1132700DF91CF911F910F91FF90EF90DF90CF90C9
S1132710BF90AF909F908F907F906F905F904F90FD
S11327200994EF92FF920F931F93DC011A960D9177
S11327301C911B9718962D913C911997ED91FC9142
S113274000A0F1A1E02D7B0140E050E060E070E0EA
S113275009951F910F91FF90EF9008958F929F928A
S1132760AF92BF92CF92DF92EF92FF920F931F939B
S1132770CF93DF934C016B015A01E901DC01ED9128
S1132780FC916217730781F40417150724F48B2D49
S11327905801042F182F0A191B0998012F5F3F4F66
S11327A0048CF58DE02D12C04017510709F526174A
S11327B0370724F48D2D6901C62FD82F9E012C19BB
S11327C03D092F5F3F4F068CF78DE02D8701A50152
S11327D0B601C4010995DF91CF911F910F91FF902C
S11327E0EF90DF90CF90BF90AF909F908F9008951F
S11327F00284F385E02D0995D401ED91FC910488C0
S1132800F589E02D9E01A501B601C4010995D40105
S1132810ED91FC910688F789E02DC401DF91CF91F9
S11328201F910F91FF90EF90DF90CF90BF90AF90EA
S11328309F908F9009946F927F928F929F92AF9204
S1132840BF92CF92DF92EF92FF920F931F93CF9399
S1132850DF93EC014B015A0169013801E881F981E8
S11328600284F385E02D0995E881F9810288F389D2
S1132870E02D87019601A501B401CE010995A501BA
S1132880460D571D41505109E881F9810288F389A9
S1132890E02D9601B401CE010995E881F981008803
S11328A0F189E02D9301A501B401CE010995C80C6D
S11328B0D91CB60161507109E881F9810088F18958
S11328C0E02D9301A501CE010995E881F9810688DF
S11328D0F789E02DCE01DF91CF911F910F91FF90E9
S11328E0EF90DF90CF90BF90AF909F908F907F90AC
S11328F06F9009940895FC016370668B84819581BF
S113290026813781613039F0633029F091878087DF
S11329103387228708953187208793878287089594
S1132920FC011382128283E591E091838083758395
S11329306483578346837187608753874287168AE7
S1132940158614861786168681E0858B848B2FEF77
S11329503FEF338B228B318B208B878B108E128E23
S1132960118E08953F924F925F926F927F928F9251
S11329709F92AF92BF92CF92DF92EF92FF920F930A
S11329801F93CF93DF93CDB7DEB72A970FB6F89492
S1132990DEBF0FBECDBF5C017E836D8358874F833E
S11329A029013701DC01ED91FC910284F385E02DCE
S11329B00995C801079697FD07969C0193E0359504
S11329C027959A95E1F73A832983812C912CE12C60
S11329D0F12C312C8F8198858E0D9F1D9C838B83C8
S11329E0E614F7040CF03DC01A861986A985BA8549
S11329F0A017B10774F5CD0187709927892B11F0C1
S1132A00330C0EC0E985FA85F7FD379683E0F5951A
S1132A10E7958A95E1F7E80DF91DE40DF51D34906D
S1132A2037FE11C0D501ED91FC910484F585E02DAC
S1132A3096014B815C816D817E8189859A85680FC1
S1132A40791FC5010995A985BA851196BA87A98701
S1132A50CDCFBFEFEB1AFB0A29813A81820E931E78
S1132A60B9CFD501ED91FC910688F789E02DC50118
S1132A702A960FB6F894DEBF0FBECDBFDF91CF917B
S1132A801F910F91FF90EF90DF90CF90BF90AF9088
S1132A909F908F907F906F905F904F903F9009949C
S1132AA02F923F924F925F926F927F928F929F925A
S1132AB0AF92BF92CF92DF92EF92FF920F931F9348
S1132AC0CF93DF93CDB7DEB76B970FB6F894DEBF25
S1132AD00FBECDBF9B8F8A8F2B015A834983D22E81
S1132AE0198708874701AB82DC0159962D913C91E7
S1132AF05A972115310509F000C118968D919C91C2
S1132B001997681779070CF0E7C11A968D919C9173
S1132B101B97481759070CF0DFC12C2C312CFB01F3
S1132B2026E0C29EE00DF11D1124FD87EC871E16E0
S1132B301F060CF0D1C14A2D50E05B874A8783E021
S1132B40440F551F8A95E1F75F874E8789819A81E3
S1132B50840F951F181619060CF0BEC158968C9157
S1132B60811104C06FEA6D1508F4D394AA8DBB8D4E
S1132B70ED91FC9111970284F385E02DCD01099527
S1132B80B5E0DB9EC0011124EC2DF0E0F98BE88B5D
S1132B9092012B5F3F4F3B8B2A8B32015D824C822B
S1132BA0AC01441955095D8B4C8B7B81672F70E018
S1132BB07F8B6E8B89819A810896998F888FEC8997
S1132BC0FD89E60DF71DEA5DFE4FD490A981BA8117
S1132BD0BF83AE835D01D0FE16C0AA8DBB8DED917F
S1132BE0FC91B1E0CB1209C02B81213031F4048473
S1132BF0F585E02D2885398519C00684F785E02DF3
S1132C00E884F9841DC0488559854815590511F192
S1132C10AA8DBB8DED91FC91B1E0CB120DC02B813F
S1132C20213051F40484F585E02D9401A501B3010C
S1132C308A8D9B8D09950EC00684F785E02D74015D
S1132C400A851B8591014E815F816C817D818A8D0E
S1132C509B8D0995D6944E815F816E897F89460F3D
S1132C60571F5F834E837FEFA71AB70A888D998D0C
S1132C70A816B90609F0AFCFAC81BD81E889F989FE
S1132C80AE0FBF1FBD83AC83FFEF6F1A7F0A2A8983
S1132C903B896216730609F092CF48855985481519
S1132CA0590509F4F7C0AA8DBB8DED91FC91B1E0F3
S1132CB0CB1212C02B81213079F4B2016B5F7F4FAC
S1132CC00088F189E02D840128E030E049815A81AF
S1132CD08A8D9B8D0995DEC06C857D85621973098B
S1132CE00684F785E02D74010E851F8591014981C5
S1132CF05A818A8D9B8D0995CDC0F9013496E49152
S1132D00DE1AF901329685919491B7E0DB9E800D2D
S1132D10911D1124F90125913491398B288BFC01E3
S1132D2025903490FC01329674903196A49032969A
S1132D3094903196B49031E03C1518F04B814230B8
S1132D4068F0692D092C000C770B7D836C838B2D27
S1132D500B2C000C990B9F838E8304C01F821E8250
S1132D601D821C82AA8DBB8DED91FC91119702846A
S1132D70F385E02DCD010995612CD12C812CFB81AB
S1132D80EF2FF0E0FB87EA872C2D30E03D872C877E
S1132D9049815A814B0D511DB7FC5A955D8B4C8B63
S1132DA0B201690D711D97FC7A957F8B6E8B8A1425
S1132DB008F070C0282D30E04E815F81420F531F10
S1132DC0AA85BB85A49FC001A59F900DB49F900DBB
S1132DD01124E981FA81E80FF91FFF87EE87862D18
S1132DE0912C4C895D89420F531F5B8B4A8B97143E
S1132DF008F04DC0BB24B394B80E877041F4C101F0
S1132E000196E889F989E20DF31DD4901C01D7FEDF
S1132E103AC051E0C51216C06B81613099F4AA8D95
S1132E20BB8DED91FC9111970484F585E02D2885E7
S1132E3039854A895B896E897F89690D711DCD0148
S1132E40099521C08C819D81890D911DEC85FD859D
S1132E508E9FB0018F9F700D9E9F700D1124640D85
S1132E60751DAA8DBB8DED91FC9111970684F78594
S1132E70E02DE884F9840A851B852C853D854E85E3
S1132E805F85CD010995DD0C93948B2DB0CF670C34
S1132E9083948DCFAA8DBB8DED91FC9111970688FB
S1132EA0F789E02DCD016B960FB6F894DEBF0FBE07
S1132EB0CDBFDF91CF911F910F91FF90EF90DF90E5
S1132EC0CF90BF90AF909F908F907F906F905F90C6
S1132ED04F903F902F9009946B960FB6F894DEBFF5
S1132EE00FBECDBFDF91CF911F910F91FF90EF9057
S1132EF0DF90CF90BF90AF909F908F907F906F9016
S1132F005F904F903F902F9008958F929F92AF9231
S1132F10CF92EF92FF920F931F93CF93DF93EC0125
S1132F20262F898D9A8D009709F042C06A3059F492
S1132F301D861C862D898E859F8538E0239F800DF4
S1132F40911D112443C06D3009F4AAC08F898823D0
S1132F50C9F03C898C859D8546E0349F800D911D88
S1132F601124488559854817590764F41D861C8621
S1132F703D898E859F8548E0349F800D911D1124E5
S1132F809F878E87EA88FB88088919894E855F8523
S1132F906C857D85AD88CC88CE010E9450152C8926
S1132FA08C859D8536E0239F800D911D11243EC0A4
S1132FB06A3079F41D861C862D89FC013896E491CB
S1132FC08E859F852E9F800D911D11249F878E874E
S1132FD067C06D3009F464C0FC0134963491631702
S1132FE008F45EC03296E491E61708F459C0462FFF
S1132FF0431B342FFC0132968590949047E0349F14
S1133000800C911C1124F401329634913196E49190
S1133010332311F0E1110DC0F4013496E4912C89AD
S11330208C859D85E29F800D911D11249D878C8741
S113303037C0F401359644915F89552319F15C89B1
S1133040E32FF0E0E40FF11D47FDFA955E9FB00118
S11330505F9F700D11244C855D85460F571F688551
S113306079856417750774F41D861C863D89FC01F7
S11330703896E4918E859F853E9F800D911D112485
S11330809F878E87EA88FB88088919894E855F8522
S11330906C857D85AD88CC88CE010E945015BCCF4F
S11330A081E090E0DF91CF911F910F91FF90EF901D
S11330B0CF90AF909F908F900895611101C061E00F
S11330C0FC01648B411101C041E0FC01458B089572
S11330D0462F0C945D18CF93DF93EC0189859A8574
S11330E00E94D9298E819F8197FD05C060E0DF9100
S11330F0CF910C942811DF91CF910895CF93DF9352
S1133100EC018E819F8197FD07C061E00E94281128
S113311060E08E810E94641181E08983DF91CF9108
S11331200895EF92FF920F931F93CF93DF93EC01D7
S11331307B0189859A850E94D9299E858B8598175C
S113314019F084E090E002C083E090E08E9D80015D
S11331508F9D100D9E9D100D11241D830C83C8019D
S11331600E9441299A878987009741F0A80160E06D
S113317070E00E94092BFB82EA8204C01D821C823B
S11331801B821A82DF91CF911F910F91FF90EF90D4
S11331900895FC0131E096858385981330E0CB01D6
S11331A026E0969587952A95E1F7282F23702687A0
S11331B0CB0144E0969587954A95E1F78370838720
S11331C0AB01569547955695479543704487962F7E
S11331D09370958791E06F3F710511F008F090E0CE
S11331E0908341855285452B51F091E0281390E05E
S11331F0391729F062817381CF010C9491180895D5
S1133200CF92DF92EF92FF920F931F93CF93DF93AE
S1133210CDB7DEB729970FB6F894DEBF0FBECDBF8A
S11332208C01DC0119968D919C911A97892B09F4D4
S11332308FC10E946310F801C784D088E188F288A6
S11332406C157D058E059F0520F46787708B818B37
S1133250928BF801C784D088E188F288DC01CB0125
S11332608C199D09AE09BF098C329140A105B105A5
S113327000F3F894D80114968D919C9115979A8334
S1133280898319960D90BC91A02D7D01EFEFEE1A64
S1133290FE0A8C918987D8018C9153960D90BC912C
S11332A0A02D882309F41AC11D82AB32B10509F09F
S11332B059C09BB1F8018589982B98879BB180955B
S11332C089238F838F818E83898587FF02C08885B8
S11332D08E8358856F8149853E812D8189819A81AC
S11332E0D7015BB9262F3BB900C046FD252F6BB92A
S11332F000C05BB9362F2BB900C045FD352F6BB923
S113330000C05BB9262F3BB900C044FD252F6BB923
S113331000C05BB9362F2BB900C043FD352F6BB904
S113332000C05BB9262F3BB900C042FD252F6BB905
S113333000C05BB9362F2BB900C041FD352F6BB9E6
S113334000C05BB9262F3BB900C040FD252F6BB9E7
S113335001975BB9362F2BB94D9147FD352F6BB9CA
S113336001F6B8C0A532B10509F059C095B1F8010C
S11333708589982B988795B1809589238F838F8130
S11333808E83898587FF02C088858E8358856F81E7
S113339049853E812D8189819A81D70155B9262F8E
S11333A035B900C046FD252F65B900C055B9362F83
S11333B025B900C045FD352F65B900C055B9262F84
S11333C035B900C044FD252F65B900C055B9362F65
S11333D025B900C043FD352F65B900C055B9262F66
S11333E035B900C042FD252F65B900C055B9362F47
S11333F025B900C041FD352F65B900C055B9262F48
S113340035B900C040FD252F65B9019755B9362F50
S113341025B94D9147FD352F65B901F65BC09897E5
S113342009F08CC098B1F8018589982B988798B1D8
S1133430809589238F838F818E83898587FF02C03E
S113344088858E8358856F8149853E812D81898148
S11334509A81D70158B9262F38B900C046FD252FC7
S113346068B900C058B9362F28B900C045FD352FBA
S113347068B900C058B9262F38B900C044FD252FBB
S113348068B900C058B9362F28B900C043FD352F9C
S113349068B900C058B9262F38B900C042FD252F9D
S11334A068B900C058B9362F28B900C041FD352F7E
S11334B068B900C058B9262F38B900C040FD252F7F
S11334C068B9019758B9362F28B94D9147FD352F62
S11334D068B901F649873E832D832EC09C91F8017B
S11334E08589982B98879C91809589238F838F81D8
S11334F08C8388E08B8358856F8149853B812C813F
S113350089819A81F7015C9347FD252F2C93262FFF
S11335103A9531F0441F6C9300C000C000C0F3CF53
S11335206C93000038E04191019769F7F801B48B7E
S1133530A38B49873B832C839A83898378940E9445
S11335406310D8011F966D937D938D939C9352972E
S113355029960FB6F894DEBF0FBECDBFDF91CF9191
S11335601F910F91FF90EF90DF90CF9008950F93EC
S11335701F93CF93DF93EC01162F072F89818823A4
S113358039F08E819F8197FD03C060E00E9428116D
S11335901E830F838981882341F061E0812F0E947B
S11335A0281160E0812F0E946411812F902FFC016B
S11335B0EC50FF4FE491F0E0EE0FFF1FEE5EFE4F84
S11335C0259134913C8B2B8BFC01E052FF4FE4910D
S11335D0ED8BDF91CF911F910F910895EF92FF92A0
S11335E00F931F93CF93DF93EC017B018A01198220
S11335F018861A8619861F86188A198A1A8AB901A2
S11336000E94C918B701CE010E949118B801CE01D9
S1133610DF91CF911F910F91FF90EF900C94B71A07
S11336207F928F929F92AF92BF92CF92DF92EF924E
S1133630FF920F931F93CF93DF93FC0182819381B9
S11336406817790708F053C04A01AA24BB24782CD0
S1133650C32ED42EE52EFF24BC2DA22F80858823D3
S113366061F0889E40011124792C8C9D6001112405
S1133670BD2D829F70011124AF2D9685D385E184E1
S1133680F2849D1308C0CB01880F991F680F791F1E
S11336906E0D7F1D1CC0660F771F660F771F6E0DA2
S11336A07F1D052F1127222733277B01E90EF11CEB
S11336B0811102C0202F09C090E0809F6001819F8A
S11336C0D00C909FD00C11242D2DE70128838385E5
S11336D09B01280F311DE90178828485EB01C80F15
S11336E0D11DB8838585FB01E80FF11DA083DF910F
S11336F0CF911F910F91FF90EF90DF90CF90BF90EB
S1133700AF909F908F907F9008958F929F92AF92E9
S1133710BF92CF92DF92EF92FF920F931F93CF93BA
S1133720DF936C014A015B01E901FC01E280F38053
S11337302E153F05A0F40115110531F0020F131FDA
S11337400E151F0508F47801CE15DF0540F4A50118
S11337509401BE01C6010E94101B2196F5CFDF9192
S1133760CF911F910F91FF90EF90DF90CF90BF907A
S1133770AF909F908F900895FC014481558160E043
S113378070E0818592850C94092BFC0177FDB9C00A
S113379080859185681779070CF0B3C057FDB1C0D7
S11337A082859385481759070CF0089586898230DD
S11337B079F484819581DC01A61BB70BBD016150AE
S11337C0710986819781DC01A41BB50BAD010EC084
S11337D0833009F084C064277527CA018627972798
S11337E06827792746815781481B590B4150510955
S11337F02130310531F048F12230310509F44AC055
S11338000895CA0157FD07969C01A3E035952795B5
S1133810AA95E1F7A481B5812A9FC0012B9F900D41
S11338203A9F900D1124680F791F078CF0A1E02DA9
S1133830E60FF71F4770552781E090E001C0880F1D
S11338404A95EAF79081892B48C0CA0157FD07962B
S11338509C0193E0359527959A95E1F7A481B5816C
S11338602A9FC0012B9F900D3A9F900D1124680F41
S1133870791F078CF0A1E02DE60FF71F477055273D
S113388081E090E001C0880F4A95EAF78095908125
S1133890892323C0CA0157FD07969C0183E035950F
S11338A027958A95E1F7A481B5812A9FC0012B9FB2
S11338B0900D3A9F900D1124680F791F078CF0A189
S11338C0E02DE60FF71F4770552781E090E001C017
S11338D0880F4A95EAF7908189278083089581307B
S11338E009F086CF6427752746275727642775274D
S11338F084819581DC01A61BB70BBD016150710960
S113390077CF08952091E402222399F04FB7F894D9
S11339102091E402213059F42DB32093E2023DB307
S11339202091E302209523232DBB4FBF02C0409377
S1133930E2028CBD9DBD08958EBD00000DB407FE4E
S1133940FDCF8EB508958091E402882361F09FB77E
S1133950F8942091E4028091E202213019F48DBBA5
S11339609FBF08958FBF08954F925F926F927F9289
S11339708F929F92AF92BF92CF92DF92EF92FF927B
S11339800F93CF93DF93CDB7DEB73C01290150E00D
S113399070E00E9490148FE791E0F301918380839B
S11339A0148E138E4114510411F0C20102C086EE2C
S11339B092E0F301968F858F10A2178E8FEF84A368
S11339C085A386A387A300A7C5AAD6AAE7AAF0AEB3
S11339D081AE92AEA3AEB4AE80E586AF81E087AF90
S11339E0DF91CF910F91FF90EF90DF90CF90BF9038
S11339F0AF909F908F907F906F905F904F900895BD
S1133A002FE731E0FC0131832083878D90A100975B
S1133A1011F00C94D92908951F93CF93DF93FC01DF
S1133A20858D968D009719F1162FEF0161A1062E51
S1133A30000C770B0E94A3248D8D9E8DDC01ED91EB
S1133A40FC910190F081E02D60E009958D8D9E8DB3
S1133A50DC01ED91FC910190F081E02D612F09953D
S1133A608D8D9E8DDF91CF911F910C94B824A5A5C7
S1133A70B6A59C9183A9809589238C93838D948D7D
S1133A80892B31F0862FDF91CF911F910C949C1CD0
S1133A9028E030E080E8A1A5B2A591A9462F4823EB
S1133AA019F04C91942B03C04C91909594239C93C2
S1133AB0A3A5B4A54C9192A9942B9C93A3A5B4A5BA
S1133AC04C9192A9909594239C9386952150310909
S1133AD011F7DF91CF911F9108951F93CF93DF9337
S1133AE0EC01162F8D8D9E8D009739F04DA95EA99E
S1133AF06FA978AD0E9495240FC08B8D9C8D892B66
S1133B0021F08EAD9FAD0E94821CEFA5F8A9908193
S1133B108CA9809589238083111102C066EA01C0B3
S1133B2067EACE010E940C1D8D8D9E8D009749F091
S1133B3049AD5AAD6BAD7CADDF91CF911F910C9423
S1133B409524EFA5F8A990818CA9892B80838B8D6E
S1133B509C8D892B29F0DF91CF911F910C94A31C8C
S1133B60DF91CF911F910895BF92CF92DF92EF9290
S1133B70FF920F931F93CF93DF93EC01B62E072F81
S1133B80142F8D8D9E8D009709F452C069A1062EC5
S1133B90000C770B0E94A3248D8D9E8DDC01ED918A
S1133BA0FC910190F081E02D60E00995CB2CD02EA2
S1133BB0EE24E394F12C8D8D9E8D112371F1B0E2EE
S1133BC0EB16F104B8F00E94B82469A1062E000C8B
S1133BD0770B8D8D9E8D0E94A3248D8D9E8DDC018F
S1133BE0ED91FC910190F081E02D60E00995EE24C7
S1133BF0E394F12C8D8D9E8DF6016491DC01ED91A1
S1133C00FC910190F081E02D0995BFEFEB1AFB0ABE
S1133C101150F60131966F01CECFDF91CF911F91F4
S1133C200F91FF90EF90DF90CF90BF900C94B82449
S1133C30EDA5FEA590818BA9809589238083E62E2E
S1133C40F72E112379F1F70184912B8D3C8D232BD1
S1133C5039F00E949C1C1150C70101967C01F1CFE0
S1133C6028E030E040E8E9A5FAA599A9582F5423A3
S1133C7019F05081952B03C0508190959523908322
S1133C80EBA5FCA550819AA9952B9083EBA5FCA5E7
S1133C9050819AA990959523908346952150310996
S1133CA011F7D9CFDF91CF911F910F91FF90EF9032
S1133CB0DF90CF90BF900895FC01868197819C018D
S1133CC0295F3F4F37FF02C0295F3F4F83E035959F
S1133CD027958A95E1F784819581289FA001299FE2
S1133CE0500D389F500D112460E070E0878D90A135
S1133CF00C94092B8F929F92AF92BF92CF92DF9236
S1133D00EF92FF920F931F93CF93DF93EC01862ED4
S1133D10B42EA22E902E8F8D98A1892BE9F42E819A
S1133D203F81C901079697FD079623E095958795EE
S1133D302A95E1F72C813D81AC01429FC001439F4C
S1133D40900D529F900D11240E94412998A38F8FAA
S1133D50892B11F480E092C1CE010E945C1E8E81F9
S1133D609F816C817D8181329105E4F0AC014054E6
S1133D70510957FF02C04F5F5F4F559547956255F4
S1133D80710977FF02C06F5F7F4F75956795CC24EB
S1133D90C394D12C80E4E82EF12C02E510E022E358
S1133DA038E01BC0AC014052510957FF02C04F5FBD
S1133DB05F4F559547956357710977FF02C06F5F51
S1133DC07F4F75956795CC24C394D12CA0E2EA2E3D
S1133DD0F12C03E710E022E536E0CE010E94B21494
S1133DE08AA28D8D9E8D009799F0B11007C02E8107
S1133DF03F812032310521F42CE303C02B2D01C077
S1133E002DE329A3992009F436C10E94832479C0A3
S1133E1061E08EA10E94281161E08FA10E94281107
S1133E208EA1082E000C990BFC01EC50FF4FE4917D
S1133E30F0E0EE0FFF1FEE5EFE4F259134913EA79A
S1133E402DA7FC01E052FF4FE491EBAB8FA1082EAC
S1133E50000C990BFC01EC50FF4FE491F0E0EE0FE5
S1133E60FF1FEE5EFE4FA591B491B8ABAFA7FC0166
S1133E70E052FF4FE491ECAB8C91E82BEC938B8DEB
S1133E809C8D892B31F0992009F43BC00E947F233B
S1133E9038C061E08CA10E94281161E08DA10E94CC
S1133EA028118CA1082E000C990BFC01EC50FF4F3B
S1133EB0E491F0E0EE0FFF1FEE5EFE4F259134918A
S1133EC03AA729A7FC01E052FF4FE491E9AB8DA189
S1133ED0082E000C990BFC01EC50FF4FE491F0E02C
S1133EE0EE0FFF1FEE5EFE4FA591B491BCA7ABA7EA
S1133EF0FC01E052FF4FE491EAAB8C91E095E8239A
S1133F00EC93AA20F1F088A587FD1BC061E00E9414
S1133F10281161E088A50E94641161E070E080E0EE
S1133F2090E00E94881060E088A50E9464116AE015
S1133F3070E080E090E00E94881061E088A50E9413
S1133F4064118D8D9E8D009739F04DA95EA96FA9DE
S1133F5078AD0E9495240FC08B8D9C8D892B21F008
S1133F608EAD9FAD0E94821CEFA5F8A990818CA90B
S1133F7080958923808344E06EE476E0CE010E943C
S1133F80B41D6E816150CE010E940C1D44E06AE4B0
S1133F9076E0CE010E94B41D8AA1813011F460E163
S1133FA001C064E1CE010E940C1D44E066E476E0A9
S1133FB0CE010E94B41D8FE88DAF8C819D81803825
S1133FC0910571F48E819F8180349105B9F48AA1A1
S1133FD0813011F48FE901C08FEC8DAF12E10FC075
S1133FE08036910559F48E819F81409739F48AA1D6
S1133FF0813011F480E101C08FEA8DAF12E06AEDE7
S1134000CE010E940C1D612FCE010E940C1D61E89F
S1134010CE010E940C1D6DADCE010E940C1D69EDF8
S1134020CE010E940C1D8AA1813011F462E201C00C
S113403061EFCE010E940C1D46E060E476E0CE0103
S11340400E94B41D8D8D9E8D009739F049AD5AADF7
S11340506BAD7CAD0E9495240CC0EFA5F8A99081AE
S11340608CA9892B80838B8D9C8D892B11F00E94C8
S1134070A31C81E003C0A11046CF67CFDF91CF918D
S11340801F910F91FF90EF90DF90CF90BF90AF9072
S11340909F908F9008950F931F93CF93DF93DC012C
S11340A057FD64C016968D919C9117974817590730
S11340B00CF05CC077FF04C0260F371F60E070E08F
S11340C01496CD91DC911597CB01820F931FC817DD
S11340D0D9071CF49E01261B370B121613060CF08D
S11340E045C0FA0157FD3796CF01E3E095958795D2
S11340F0EA95E1F78C9FF0018D9FF00D9C9FF00DE8
S113410011246E0F7F1F5F96ED91FC919097E60F3F
S1134110F71F4770552781E090E001C0880F4A954A
S1134120EAF7482F0130110539F078F00230110513
S1134130E9F42E0F3F1F13C02E0F3F1FE217F307A2
S1134140A9F08081842B8193F9CF80952E0F3F1F96
S1134150E217F30759F0908198239193F9CFE2176E
S1134160F30721F0808184278193F9CFDF91CF91E8
S11341701F910F910895EF92FF920F931F93CF9386
S1134180DF93EC0177FDA5C0EC80FD806E157F0503
S11341900CF09FC057FF04C0240F351F40E050E0CF
S11341A08E819F81FA01E20FF31F8E179F071CF483
S11341B09C01241B350B121613060CF08AC0922F97
S11341C0842F8695869586958E9DD0018F9DB00D02
S11341D011246A0F7B1FAF8DB8A1A60FB71F4770BC
S11341E0B1F188E0841B482F682F70E0FB01E85C84
S11341F0F94FE491281798F4621B71092FEF30E00E
S113420002C0359527956A95E2F7E223013011053E
S113421049F078F00230110509F05BC00EC001309E
S1134220110519F48C91E82B0AC00130110508F02E
S113423049C0E0958C91E82302C08C91E827EC9367
S1134240941708F446C02C813D81A20FB31FE92FB7
S1134250E41BE830F8F00230110561F48E2F9C91D4
S113426090959C932C813D81A20FB31F8850883078
S1134270B0F70FC081E00115110509F480E08195C4
S11342809E2F8C932C813D81A20FB31F98509830A0
S1134290C0F7E770EE23E9F0F0E0E05DF94FE49158
S11342A00130110539F048F00230110591F48C9178
S11342B0E82706C08C91E82B03C0E0958C91E82395
S11342C0EC9307C00230110509F4B7CFAE0DBF1D42
S11342D0BECFDF91CF911F910F91FF90EF90089582
S11342E00F931F93DC015696EC915697E23061F0E0
S11342F0E33009F1E13081F51496ED91FC911597C5
S1134300E41BF50B319723C0DC011496ED91FC916D
S11343101597DF01A61BB70BBD01DC011696ED91C5
S1134320FC911797DF01A41BB50BAD014150510956
S1134330621B730B11C0FA01DC0116964D915C915E
S11343401797DA01A61BB70BBD01621B730BAB01F8
S1134350BF010E94BB2002C00E944B201F910F91FD
S113436008950F931F93DC015696EC915697E23013
S113437069F0E33011F1E13089F51496ED91FC9187
S11343801597E41BF50BE21BF30B23C0DC01149619
S1134390ED91FC911597DF01A61BB70BBD01615090
S11343A07109DC011696ED91FC911797DF01A41BAE
S11343B0B50BAD01421B530B11C0FA01DC0116967B
S11343C04D915C911797DA01A61BB70BBD016150A3
S11343D07109AB01BF010E944B2002C00E94BB20A7
S11343E01F910F910895CF92DF92EF92FF920F9356
S11343F01F93CF93DF93EC018D8D9E8D009739F041
S11344004DA95EA96FA978AD0E9495240FC08B8D2C
S11344109C8D892B21F08EAD9FAD0E94821CEFA54F
S1134420F8A990818CA980958923808345E06BE26B
S113443076E0CE010E94B41D6C816150CE010E94D1
S11344400C1D2E813F81C901079697FD079623E035
S1134450959587952A95E1F72C813D81829F70017E
S1134460839FF00C929FF00C11240F8D18A18D8D59
S11344709E8DE00EF11E009709F443C069A1062E3B
S1134480000C770B0E94A3248D8D9E8DDC01ED9191
S1134490FC910190F081E02D60E40995680101E050
S11344A010E08D8D9E8DEC14FD0441F10032110558
S11344B0B0F00E94B82469A1062E000C770B8D8DF4
S11344C09E8D0E94A3248D8D9E8DDC01ED91FC9127
S11344D00190F081E02D60E4099501E010E08D8DFC
S11344E09E8DF60161916F01DC01ED91FC910190CB
S11344F0F081E02D09950F5F1F4FD3CF0E94B824A0
S113450035C0EDA5FEA590818BA9892B80830E155E
S11345101F0561F1F80181918F012B8D3C8D232BB7
S113452019F00E949C1CF3CF28E030E040E8E9A594
S1134530FAA599A9582F542319F05081952B03C03B
S11345405081909595239083EBA5FCA550819AA961
S1134550952B9083EBA5FCA550819AA99095952362
S1134560908346952150310911F7D1CF8D8D9E8DC1
S1134570009771F049AD5AAD6BAD7CADDF91CF9131
S11345801F910F91FF90EF90DF90CF900C949524A2
S1134590EFA5F8A990818CA9892B80838B8D9C8DA4
S11345A0892B51F0DF91CF911F910F91FF90EF90E4
S11345B0DF90CF900C94A31CDF91CF911F910F91AA
S11345C0FF90EF90DF90CF9008950F931F93CF93B8
S11345D0DF93EC01062F142F8D8D9E8D009739F0FB
S11345E04DA95EA96FA978AD0E9495240FC08B8D4B
S11345F09C8D892B21F08EAD9FAD0E94821CEFA56E
S1134600F8A990818CA980958923808342E069E28E
S113461076E0CE010E94B41D602FCE010E940C1DD5
S113462060E0CE010E940C1D612FCE010E940C1D82
S113463043E066E276E0CE010E94B41D8D8D9E8D2E
S1134640009751F049AD5AAD6BAD7CADDF91CF9180
S11346501F910F910C949524EFA5F8A990818CA932
S1134660892B80838B8D9C8D892B31F0DF91CF91A9
S11346701F910F910C94A31CDF91CF911F910F9167
S11346800895CF93DF93EC018D8D9E8D009739F0C3
S11346904DA95EA96FA978AD0E9495240FC08B8D9A
S11346A09C8D892B21F08EAD9FAD0E94821CEFA5BD
S11346B0F8A990818CA98095892380836EE2CE012C
S11346C00E940C1D8D8D9E8D009741F049AD5AAD11
S11346D06BAD7CADDF91CF910C949524EFA5F8A937
S11346E090818CA9892B80838B8D9C8D892B21F0C3
S11346F0DF91CF910C94A31CDF91CF910895CF93B8
S1134700CFB7F8948091E502811127C0EEEFF0E075
S11347108491EAEEF0E09491E82FF0E0EE0FFF1FB1
S1134720E45EFE4FA591B491EC91E92321F461E09C
S11347308AE00E94641161E08AE00E9428118CB52D
S113474080618CBD8CB580648CBD61E08DE00E947D
S1134750281161E08BE00E9428118091E5028F5FAF
S11347608093E502CFBFCF91089580911A0390E022
S113477020911B03821B9109089590911B03809142
S11347801A03981750F4E92FF0E0E45EFC4F2081FF
S113479030E09F5F90931B0302C02FEF3FEFC901EE
S11347A00895E0911B0380911A03E81730F4F0E0B8
S11347B0E45EFC4F808190E008958FEF9FEF0895B1
S11347C00895CF93DF93EC01E091F202F091F302AC
S11347D03097F1F090911B0380911A039817C0F061
S11347E090E0292F30E02617370754F4DE01A20F9A
S11347F0B31F4C91D901A45EBC4F4C939F5FF1CF82
S113480010921B0360931A03CB01DF91CF9109949B
S1134810DF91CF910895E091F402F091F502309781
S113482029F01092F8021092F70209940895CF9299
S1134830DF92EF92FF920F931F93CF93DF937C014C
S1134840CB018A012091F602222389F0EB016B014E
S1134850C40ED51ECC15DD0569F06991D701ED9123
S1134860FC910190F081E02DC7010995F3CF642FED
S11348700E940125C801DF91CF911F910F91FF90F4
S1134880EF90DF90CF900895CF93DF931F92CDB731
S1134890DEB769832091F6022223D1F02091F7023A
S11348A0203240F021E030E0FC013383228380E0B9
S11348B090E015C08091F802E82FF0E0E750FD4F3A
S11348C0998190838F5F8093F8028093F70205C0EB
S11348D061E0CE0101960E94012581E090E00F90F5
S11348E0DF91CF910895FC011382128288EE93E048
S11348F0A0E0B0E084839583A683B7838BEA91E03C
S113490091838083089510921B0310921A031092CE
S1134910F8021092F7020E94C2248BE094E20E94F3
S11349202E2581EE93E20C942925CB01BA010C9437
S1134930ED2481E08093F602609319031092F8024B
S11349401092F70208950C9499240F93062F21E0F6
S11349504091F70269EF72E0809119030E944F259C
S11349601092F8021092F7021092F6020F91089535
S113497061E00C94A52486EE92E00C9473240E94CA
S1134980042B08951092AF0381E08093AD0310923D
S1134990AC0361E082E10E94641161E083E10E9462
S11349A06411E9EBF0E080818E7F808380818D7FCC
S11349B0808380E28093B80085E48093BC000895EE
S11349C0ECEBF0E080818A7B808360E082E10E94EE
S11349D0641160E083E10C9464119B01AC0160E01C
S11349E072E18AE790E00E94E028DA01C901409769
S11349F0A109B109B695A795979587958093B800B5
S1134A00089540915E03262F30E0240F311D21329A
S1134A103105DCF42091AF032430C9F4FC0180E0BB
S1134A2090E0861758F430915E032191DC01A05A7E
S1134A30BC4FA30FB11D2C930196F3CF80915E035D
S1134A40680F60935E0380E0089581E0089582E03A
S1134A5008959093A3038093A20308959093A503CC
S1134A608093A403089585EC8093BC001092AF0357
S1134A700895CF93DF9391E09093A703882361F087
S1134A80C091B800D091BA000E94E0240E94C224D0
S1134A90D093BA00C093B800DF91CF9108954F929C
S1134AA05F926F927F928F929F92AF92BF92CF92BA
S1134AB0DF92EF92FF920F931F93CF93DF934132D4
S1134AC008F0C6C0122FF42ED72EE62ED82F0E943F
S1134AD063104B015C01C091AF03CC2311F18091B1
S1134AE0A8039091A903A091AA03B091AB03892BC9
S1134AF08A2B8B2B81F30E9463104090A803509063
S1134B00A9036090AA037090AB03DC01CB01881960
S1134B109909AA09BB09481659066A067B06D8F6FC
S1134B2083C082E08093AF030093AD038FEF809343
S1134B303C0310928103F09280039E2DA2E8B3E01F
S1134B40EE2DFD2D8E2F891B8F1518F481918D93D9
S1134B50F9CF1092AE039091AE03DD0FD92BD09311
S1134B60AE038091AC03813089F51092AC030E94AE
S1134B7063106B017C018091AE038093BB00809134
S1134B80A8039091A903A091AA03B091AB03892B28
S1134B908A2B8B2BA9F00E9463108090A80390901D
S1134BA0A903A090AA03B090AB03DC01CB018C193C
S1134BB09D09AE09BF0988169906AA06BB06A0F18D
S1134BC08091BC0083FDD7CF85EC01C085EE809336
S1134BD0BC000E9463106B017C01112359F1809188
S1134BE0AF03823039F58091A8039091A903A09175
S1134BF0AA03B091AB03892B8A2B8B2B71F30E94F0
S1134C0063108090A8039090A903A090AA03B09089
S1134C10AB03DC01CB018C199D09AE09BF098816D1
S1134C209906AA06BB06C8F68091A6030E943925F8
S1134C30C5E013C080913C038F3F79F080913C0321
S1134C40803241F080913C03803331F0C4E005C0F0
S1134C50C1E003C0C2E001C0C3E08C2FDF91CF915B
S1134C601F910F91FF90EF90DF90CF90BF90AF9086
S1134C709F908F907F906F905F904F90089585EDF7
S1134C808093BC008091A8039091A903A091AA03EA
S1134C90B091AB030796A11DB11D23E0B695A7956E
S1134CA0979587952A95D1F72091BC0024FF1CC0C5
S1134CB04091A8035091A9036091AA037091AB039A
S1134CC0452B462B472B81F30097A105B10541F0F5
S1134CD02AE12A95F1F700C00197A109B109E4CFAF
S1134CE08091A6030C9439251092AF0308951F9266
S1134CF00F920FB60F9211242F933F934F935F930C
S1134D006F937F938F939F93AF93BF93EF93FF938F
S1134D108091B900887F803609F49EC078F5883286
S1134D2009F45DC090F4803109F456C038F4882346
S1134D3009F4F5C0883009F44FC0F5C0883109F48E
S1134D404EC0803209F45FC0EEC0803409F46AC0FA
S1134D5058F4803309F457C0883309F0E4C08093D1
S1134D603C030E943325DFC0803509F44FC08835E9
S1134D7009F45DC0883409F0D6C0D3C0883909F479
S1134D80C4C0A8F4883709F467C038F4883609F435
S1134D9063C0803709F460C0C6C0883809F4B5C060
S1134DA0803909F45FC0803809F0BDC05BC0803B26
S1134DB009F483C038F4803A09F466C0883A09F4E7
S1134DC07CC0B1C0803C09F4A4C0883C09F4A1C0F3
S1134DD0883B09F487C0A7C08091AE0310C09091AE
S1134DE0810380918003981770F5E091810381E03D
S1134DF08E0F80938103F0E0EE57FC4F8081809307
S1134E00BB0085EC83C080933C038BC0E09181039D
S1134E1081E08E0F809381038091BB00F0E0EE5718
S1134E20FC4F808390918103809180036BC0E0915B
S1134E30810381E08E0F809381038091BB00F0E0B9
S1134E40EE57FC4F80838091AD0381116AC081E0ED
S1134E508093AC0384EA5EC083E08093AF03109236
S1134E603D03CFCF80913D03803208F04EC0E091E6
S1134E703D0381E08E0F80933D038091BB00F0E001
S1134E80E25CFC4F8083BDCF0E94332580913D03BB
S1134E90803230F4E0913D03F0E0E25CFC4F10829C
S1134EA060913D0370E0E091A203F091A3038EE3CF
S1134EB093E0099510923D0336C084E08093AF03DC
S1134EC010925F0310925E03E091A403F091A50396
S1134ED0099580915E03811105C081E080935E0392
S1134EE010926003E0915F0381E08E0F80935F0373
S1134EF0F0E0E05AFC4F80818093BB0090915F0307
S1134F0080915E03981708F47CCF85E88093BC00F9
S1134F100AC085EC8093BC001092AF0304C01092C9
S1134F203C030E943F26FF91EF91BF91AF919F9167
S1134F308F917F916F915F914F913F912F910F903E
S1134F400FBE0F901F9018955058BB27AA270E9498
S1134F50BC270C940E0C0E94000C38F00E94070C25
S1134F6020F039F49F3F19F426F40C94FD0B0EF451
S1134F70E095E7FB0C94F70BE92F0E941F0C58F304
S1134F80BA17620773078407950720F079F4A6F52A
S1134F900C94410C0EF4E0950B2EBA2FA02D0B01AE
S1134FA0B90190010C01CA01A0011124FF27591B6A
S1134FB099F0593F50F4503E68F11A16F040A22F70
S1134FC0232F342F4427585FF3CF469537952795E1
S1134FD0A795F0405395C9F77EF41F16BA0B620BE0
S1134FE0730B840BBAF09150A1F0FF0FBB1F661F27
S1134FF0771F881FC2F70EC0BA0F621F731F841F6A
S113500048F4879577956795B795F7959E3F08F08F
S1135010B0CF9395880F08F09927EE0F9795879551
S113502008950E94452808F481E008950E94270C01
S113503088F09F5798F0B92F9927B751B0F0E1F055
S1135040660F771F881F991F1AF0BA95C9F714C005
S1135050B13091F00E94410CB1E008950C94410CE0
S1135060672F782F8827B85F39F0B93FCCF386953E
S113507077956795B395D9F73EF49095809570959B
S113508061957F4F8F4F9F4F0895990F0008550FDB
S1135090AA0BE0E8FEEF16161706E807F907C0F0BA
S11350A012161306E407F50798F0621B730B840BC2
S11350B0950B39F40A2661F0232B242B252B21F49C
S11350C008950A2609F4A140A6958FEF811D811D3C
S11350D008950E94452808F48FEF08950E948128BE
S11350E00C940E0C0E94000C38F00E94070C20F067
S11350F0952311F00C94F70B0C94FD0B11240C94D4
S1135100420C0E941F0C70F3959FC1F3950F50E061
S1135110551F629FF001729FBB27F00DB11D639F65
S1135120AA27F00DB11DAA1F649F6627B00DA11D0B
S1135130661F829F2227B00DA11D621F739FB00DB1
S1135140A11D621F839FA00D611D221F749F332721
S1135150A00D611D231F849F600D211D822F762FBA
S11351606A2F11249F5750409AF0F1F088234AF097
S1135170EE0FFF1FBB1F661F771F881F9150504003
S1135180A9F79E3F510580F00C94F70B0C94420C48
S11351905F3FE4F3983ED4F3869577956795B7958A
S11351A0F795E7959F5FC1F7FE2B880F911D9695A4
S11351B0879597F908950E944528880B990B0895BF
S11351C0A1E21A2EAA1BBB1BFD010DC0AA1FBB1F07
S11351D0EE1FFF1FA217B307E407F50720F0A21B79
S11351E0B30BE40BF50B661F771F881F991F1A94E6
S11351F069F760957095809590959B01AC01BD0110
S1135200CF010895052E97FB1EF400940E941929DE
S113521057FD07D00E94E02807FC03D04EF40C94FD
S1135220192950954095309521953F4F4F4F5F4F29
S1135230089590958095709561957F4F8F4F9F4FFE
S11352400895A29FB001B39FC001A39F700D811D5B
S11352501124911DB29F700D811D1124911D08957B
S11352600E942129A59F900DB49F900DA49F800DAD
S1135270911D11240895EE0FFF1F0590F491E02D68
S113528009940F931F93CF93DF938230910510F409
S113529082E090E0E091B203F091B30320E030E0CB
S11352A0A0E0B0E0309719F140815181028113816F
S11352B048175907C8F08417950769F4109731F017
S11352C012960C93129713961C9327C00093B20363
S11352D01093B30322C02115310519F04217530767
S11352E018F49A01BD01EF01DF01F801DBCF2115AC
S11352F03105F9F0281B390B2430310580F48A81FB
S11353009B816115710521F0FB019383828304C0A5
S11353109093B3038093B203FE01329644C0FE011E
S1135320E20FF31F8193919322503109398328832B
S11353303AC02091B0033091B103232B41F4209162
S11353400201309103013093B1032093B003209103
S11353500001309101012115310541F42DB73EB70B
S11353604091040150910501241B350BE091B003D9
S1135370F091B103E217F307A0F42E1B3F0B28179B
S1135380390778F0AC014E5F5F4F2417350748F0BA
S11353904E0F5F1F5093B1034093B00381939193D9
S11353A002C0E0E0F0E0CF01DF91CF911F910F91B7
S11353B00895CF93DF93009709F481C0FC013297DD
S11353C013821282A091B203B091B303109781F4B7
S11353D020813181820F931F2091B0033091B1035A
S11353E02817390751F5F093B103E093B00367C070
S11353F0ED0120E030E0CE17DF0740F44A815B8105
S11354009E0141155105F1F0EA01F5CFD383C28322
S113541040815181840F951FC817D90759F4888199
S11354209981840F951F0296918380838A819B8141
S1135430938382832115310529F4F093B303E09318
S1135440B2033DC0E901FB83EA8349915991C40F3A
S1135450D51FEC17FD0761F480819181840F951F9E
S11354600296E90199838883828193819B838A834D
S1135470E0E0F0E012968D919C911397009719F05B
S1135480FD01DC01F7CF8D919C9111979D012E5F59
S11354903F4F820F931F2091B0033091B10328171F
S11354A0390769F4309729F41092B3031092B203C8
S11354B002C013821282B093B103A093B003DF91B0
S11354C0CF9108958F929F92AF92BF92CF92DF9225
S11354D0EF92FF92CF93DF93EC01688179818A8107
S11354E09B81611571058105910521F464E279EDD3
S11354F08BE597E02DE133EF41E050E00E94022973
S113550049015A019B01AC01A7EAB1E40E94302988
S11355106B017C01ACEEB4EFA50194010E94132B46
S1135520DC01CB018C0D9D1DAE1DBF1DB7FF03C05B
S11355300197A109B04888839983AA83BB83BC01DE
S1135540CD019F77DF91CF91FF90EF90DF90CF90C7
S1135550BF90AF909F908F9008958F929F92AF923B
S1135560BF92CF92DF92EF92FF9260910601709109
S11355700701809108019091090161157105810568
S1135580910521F464E279ED8BE597E02DE133EFA9
S113559041E050E00E94022949015A019B01AC01FB
S11355A0A7EAB1E40E9430296B017C01ACEEB4EFB0
S11355B0A50194010E94132BDC01CB018C0D9D1DD0
S11355C0AE1DBF1DB7FF03C00197A109B04880936A
S11355D0060190930701A0930801B0930901BC014F
S11355E0CD019F77FF90EF90DF90CF90BF90AF9069
S11355F09F908F90089560930601709307018093A4
S1135600080190930901089581E090E0F8940C94C6
S1135610182BDC0101C06D9341505040E0F7089510
S1135620B7FF0C9430290E943029821B930B0895F4
S113563015E0CCE7D5E004C0FE010E943B29219689
S10D5640CD37D107C9F7F894FFCF66
S113564A0000B403200001000000C80000000109A2
S113565A204C564C3A0009204C6576656C205570EE
S113566A0009204C6576656C20446F776E00000053
S113567A0000B50C270E760C020D480C620C540C73
S113568A0D0A006E616E00696E66006F7666000030
S113569A0000008517270E840D870DBF24D912AA8E
S11356AA12C912B112BD12F811D9127B147A14DA82
S11356BA1213134C139113AE131B1400000000852C
S11356CA17270E840D870DC51BD912AA12C912B148
S11356DA12BD12F811D9127B146D1DB12170214C1F
S11356EA139113AE131B14000000004424172484DE
S10D56FA0DE023B523BD23D12300E6
S9030000FC
