:100000000C945B050C9483050C9483050C94542488
:100010000C9454240C9454240C9483050C94830560
:100020000C9483050C9483050C9483050C94830530
:100030000C9483050C9483050C9483050C94830520
:100040000C949B100C9483050C94160E0C94480E83
:100050000C9483050C9483050C9483050C94830500
:100060000C94D8280C9483054C564C3D004C564CAF
:100070003D005353443133303620616C6C6F636103
:1000800074696F6E206661696C6564000000000829
:10009000000201000003040700000000000000004F
:1000A000010204081020408001020408102001020F
:1000B00004081020040404040404040402020202DC
:1000C00002020303030303030000000023002600D1
:1000D000290000000000250028002B00000000007F
:1000E000240027002A0000000000003E5B4F5B3E1A
:1000F0003E6B4F6B3E1C3E7C3E1C183C7E3C181CED
:10010000577D571C1C5E7F5E1C00183C1800FFE7E3
:10011000C3E7FF0018241800FFE7DBE7FF30483A89
:10012000060E2629792926407F050507407F0525EB
:100130003F5A3CE73C5A7F3E1C1C08081C1C3E7F73
:1001400014227F22145F5F005F5F06097F017F003A
:100150006689956A606060606094A2FFA29408045A
:100160007E040810207E201008082A1C08081C2A7B
:1001700008081E101010100C1E0C1E0C30383E38D3
:1001800030060E3E0E06000000000000005F00007A
:100190000007000700147F147F14242A7F2A1223EB
:1001A0001308646236495620500008070300001CFB
:1001B0002241000041221C002A1C7F1C2A08083E04
:1001C0000808008070300008080808080000606017
:1001D0000020100804023E5149453E00427F400085
:1001E00072494949462141494D331814127F10275D
:1001F000454545393C4A49493141211109073649AC
:10020000494936464949291E00001400000040347F
:100210000000000814224114141414140041221484
:100220000802015909063E415D594E7C1211127CAB
:100230007F494949363E414141227F4141413E7F0C
:10024000494949417F090909013E414151737F08EC
:1002500008087F00417F41002040413F017F081492
:1002600022417F404040407F021C027F7F040810F3
:100270007F3E4141413E7F090909063E4151215ED1
:100280007F09192946264949493203017F01033F65
:100290004040403F1F2040201F3F4038403F6314F4
:1002A00008146303047804036159494D43007F41F6
:1002B00041410204081020004141417F0402010233
:1002C0000440404040400003070800205454784058
:1002D0007F284444383844444428384444287F38EC
:1002E0005454541800087E090218A4A49C787F086E
:1002F00004047800447D40002040403D007F1028E9
:10030000440000417F40007C047804787C080404A9
:10031000783844444438FC1824241818242418FC41
:100320007C08040408485454542404043F44243CE6
:100330004040207C1C2040201C3C4030403C442855
:100340001028444C9090907C4464544C44000836EF
:10035000410000007700000041360800020102045D
:10036000023C2623263C1EA1A161123A4040207A7D
:1003700038545455592155557941225454784221C5
:100380005554784020545579400C1E5272123955FC
:1003900055555939545454593955545458000045F9
:1003A0007C410002457D420001457C407D121112D6
:1003B0007DF0282528F07C545545002054547C5469
:1003C0007C0A097F4932494949323A4444443A3225
:1003D0004A4848303A4141217A3A42402078009DCB
:1003E000A0A07D3D4242423D3D4040403D3C24FF77
:1003F0002424487E4943662B2FFC2F2BFF0929F626
:1004000020C0887E090320545479410000447D4176
:100410003048484A32384040227A007A0A0A727DCF
:100420000D19317D2629292F2826292929263048EA
:100430004D4020380808080808080808382F10C858
:10044000ACBA2F102834FA00007B000008142A14DC
:100450002222142A14085500550055AA55AA55AA57
:10046000FF55FF55FF000000FF00101010FF0014A3
:100470001414FF001010FF00FF1010F010F01414FF
:1004800014FC001414F700FF0000FF00FF1414F424
:1004900004FC141417101F10101F101F1414141F25
:1004A00000101010F0000000001F101010101F109E
:1004B000101010F010000000FF101010101010109D
:1004C0001010FF10000000FF140000FF00FF0000EC
:1004D0001F10170000FC04F414141710171414F460
:1004E00004F40000FF00F714141414141414F7009B
:1004F000F7141414171410101F101F141414F414EC
:100500001010F010F000001F101F0000001F14005A
:100510000000FC140000F010F01010FF10FF141485
:1005200014FF141010101F00000000F010FFFFFF58
:10053000FFFFF0F0F0F0F0FFFFFF0000000000FF11
:10054000FF0F0F0F0F0F3844443844FC4A4A4A3417
:100550007E02020606027E027E026355494163382E
:1005600044443C04407E201E2006027E020299A5DF
:10057000E7A5991C2A492A1C4C7201724C304A4D3D
:100580004D303048784830BC625A463D3E49494972
:10059000007E0101017E2A2A2A2A2A44445F44441B
:1005A00040514A444040444A51400000FF0103E0AA
:1005B00080FF000008086B6B083612362436060FE1
:1005C000090F06000018180000001010003040FF4E
:1005D0000101001F01011E00191D1712003C3C3CC7
:1005E0003C00000000002200FF2100000103070F73
:1005F0001F3F7F0080C0E0F0F8FCFEDB40A4A62E89
:10060000AF2000A1C8D300408DAED580A800006007
:100610000000000000000000000000000000E000FA
:1006200000000000000000000000000001E00000E9
:10063000000000000000000000000001F0000000C9
:100640000000000000000000000003F000000000B7
:1006500000000000000000000007F00000000000A3
:10066000000000000000000007F80000000000008B
:10067000000000000000000FF800000003C0007E32
:10068000000001E0007F0FF800000003C000FE0042
:100690000001E000FFEFF800000003C000FE0000D2
:1006A00001E000FFFFF800000003C000F0000000C0
:1006B0000F007FFE7FC0000003C000F00000000FAD
:1006C000003FFE7FF83FF1FBCFFCFEF3BC3DEFE0C7
:1006D0001FFE7FFF7FFBFFDFFEFEFFBC3DEFE01F45
:1006E000C6FFFF7FFBFFDFFEFEFFBC3DEFE00FE339
:1006F000C7FE787BC3DE1EF0FFBC3DEF0007FF871F
:10070000FC787BC3DE1EF0F83C3DEF0001FFFFF0FC
:10071000007BC3C01EF0F03C3DEF0001F37FE03FE3
:10072000FBC3CFFEF0F03C3DEF0003E33F807FFBD7
:10073000C3DFFEF0F03C3DEF0007E73C00787BC3F1
:10074000DE1EF0F03C3DEF0007FFBE00787BC3DE0D
:100750001EF0F03C3DEF0007FFFE00787BC3DE1E7D
:10076000F0F03C3DEF000FFFFE007FFBFFDFFEF0EF
:10077000F03FFDEFE00FFFFF007FFBFFDFFEF0F03B
:100780003FFDEFE00FF9FF003E79F9CF9EF0F01F3B
:100790003DE7E01FF1FF0000000000000000000046
:1007A00000001F80FF007FFFFFFFFFFFFFFFFFFF35
:1007B000E01C007F007FFFFFFFFEB46D888D18E016
:1007C00000001F007FFFFFFFFE95AD7DB577E000C5
:1007D000000F007FFFFFFFFEA5AD9D8D19E000001B
:1007E00006007FFFFFFFFEB5ADEDB57EE000000027
:1007F00000000180000000000000000000038000F5
:10080000000000000000000007C000000000000021
:1008100000000007C00000000000000000000FC042
:100820000000000000000000001FE00000000000C9
:10083000000000001FE00000000000000000003F7A
:10084000E00000000000000000003FF00000000099
:1008500000000000007FF0000000000000001FF812
:100860007FF0000000000000003FFE7FF00000006D
:10087000000000003FFF7FF0000000000000001FAC
:10088000FFFBE0000000000000000FFFF9FFC000C8
:1008900000000000000FFFF9FFF80000000000005A
:1008A00007FFF1FFFF00000000000003FC73FFFFE3
:1008B00080000000000001FE3FFFFF8000000000FC
:1008C0000000FF1E0FFF000000000000007FFE1F61
:1008D000FC000000000000003FFFFFF800000000E7
:1008E0000000000FDFFFE0000000000000001F1903
:1008F000FFC0000000000000003F3CFF00000000BF
:10090000000000007E7CF800000000000000007F76
:10091000FE7C0000000000000000FFFFFC00000063
:100920000000000000FFFFFE0000000000000000CB
:10093000FFFFFE0000000000000001FFEFFE0000CE
:10094000000000000001FFCFFE00000000000000DA
:1009500003FF07FE0000000000000003FC07FE008C
:1009600000000000000003F003FE00000000000093
:1009700000018000FE000000000000000000007E7A
:10098000000000000000000000003E000000000029
:1009900000000000000C000000000000078000FCC8
:1009A000000003C0000000078001FC000003C0003D
:1009B0000000078001FC000003C000000007800168
:1009C000E00000001E000000078001E00000001EA3
:1009D000007FE3F79FF9FDE7787BDFC0FFF7FFBFFC
:1009E000FDFDFF787BDFC0FFF7FFBFFDFDFF787BDC
:1009F000DFC0F0F787BC3DE1FF787BDE00F0F787D2
:100A0000BC3DE1F0787BDE0000F787803DE1E078D7
:100A10007BDE007FF7879FFDE1E0787BDE00FFF75C
:100A200087BFFDE1E0787BDE00F0F787BC3DE1E0C9
:100A3000787BDE00F0F787BC3DE1E0787BDE00F0FC
:100A4000F787BC3DE1E0787BDE00FFF7FFBFFDE10B
:100A5000E07FFBDFC0FFF7FFBFFDE1E07FFBDFC012
:100A60007CF3F39F3DE1E03E7BCFC000000000003F
:100A7000000000000000FFFFFFFFFFFFFFFFFFFF80
:100A8000C0FFFFFFFFFD68DB111A31C0FFFFFFFF52
:100A9000FD2B5AFB6AEFC0FFFFFFFFFD4B5B3B1ACC
:100AA00033C0FFFFFFFFFD6B5BDB6AFDC0003C094D
:100AB000780E1C277E0911241FBECFEFD8E0DEBFC1
:100AC000CDBF11E0A0E0B1E0ECE5FBE502C0059090
:100AD0000D92AA3EB107D9F724E0AAEEB1E001C019
:100AE0001D92AB39B207E1F715E0CAE5D5E004C0C5
:100AF0002197FE010E94C42BC735D107C9F70E9478
:100B0000A60E0C94A12D0C9400000F9361E08DE0D3
:100B10000E94B61162E08EE00E94B61162E08FE0A2
:100B20000E94B61162E080E10E94B61162E081E1AC
:100B30000E94B61162E086E00E94B61161E087E093
:100B40000E94B61160E087E00E94F21161E083E04C
:100B50000E94B61160E083E00E94F21162E084E03E
:100B60000E94B61126E040E855E260E070E08FEDAB
:100B700092E00E94B20D40EC52E160E070E080EC47
:100B800092E00E94522540EC52E160E070E081EA80
:100B900092E00E9452258BE892E00E940C1901E03D
:100BA00021E04CE362E08BE492E00E94081F811197
:100BB00006C062E770E08FED92E00E94250F81E0B1
:100BC00090E090935E0280935D0290935C0280932C
:100BD0005B028BE492E00E94EA1E61E08BE492E00B
:100BE0000E94F6188BE492E00F910C9481222F92D0
:100BF0003F924F925F926F927F928F929F92AF92AD
:100C0000BF92CF92DF92EF92FF920F931F93CF93F9
:100C1000DF930E94E5100091FB011091FC012091EF
:100C2000FD013091FE01DC01CB01801B910BA20B79
:100C3000B30B00910A0110910B0120910C0130912E
:100C40000D01081719072A073B0708F04DC10E943C
:100C5000E5106093FB017093FC018093FD0190937C
:100C6000FE018091FA018F5F803118F48093FA01C0
:100C700002C01092FA018BE892E00E944A1C00E048
:100C800010E039E1C32ED12CE12CF12C42E3842E6B
:100C9000912CA12CB12C54E6452E512C612C712C99
:100CA00080910E0190E0081719070CF007C18091A0
:100CB000FA011801280E311C8FE02822332400315C
:100CC00011050CF4DDC0C80140978031910508F48E
:100CD000D9C040978031910508F4D6C04097803143
:100CE000910508F4D4C04097409748F440920A0117
:100CF00050920B0160920C0170920D01C3C0C801AB
:100D000080559109409758F480920A0190920B0106
:100D1000A0920C01B0920D01C0E0DAE0BAC0C801A7
:100D200080569109409760F4C0920A01D0920B015D
:100D3000E0920C01F0920D01C0E0DAE06AE0AAC096
:100D4000C801805791094097D0F48CE090E0A0E072
:100D5000B0E080930A0190930B01A0930C01B09333
:100D60000D012AE030E040E050E061E070E080E01A
:100D700090E00E946412D62FC0E060E08BC0C801F2
:100D800080589109409718F586E090E0A0E0B0E027
:100D900080930A0190930B01A0930C01B0930D0175
:100DA0002AE030E040E050E061E070E080E090E078
:100DB0000E946412D62F2AE030E040E050E061E06B
:100DC00070E080E090E00E946412C0E063C0C8015F
:100DD00080599109409738F583E090E0A0E0B0E0B9
:100DE00080930A0190930B01A0930C01B0930D0125
:100DF0002AE030E040E050E061E070E080E090E028
:100E00000E946412D62F2AE030E040E050E061E01A
:100E100070E080E090E00E946412C62F2AE030E08B
:100E200040E050E026C081E090E0A0E0B0E0809398
:100E30000A0190930B01A0930C01B0930D012FE0D8
:100E400030E040E050E061E070E080E090E00E943F
:100E50006412D62F2FE030E040E050E061E070E017
:100E600080E090E00E946412C62F2FE030E040E066
:100E700050E061E070E080E090E00E9464120AC0FF
:100E8000C0E003C0C0E004C0C5E0D0E002C0C5E0DF
:100E9000D5E065E08C2F90E0A0E0B0E0BA2FA92F5C
:100EA000982F8827AD2B9C01AD01262BB1018BE833
:100EB00092E00E949E1B0F5F1F4FF2CE8BE892E0E4
:100EC000DF91CF911F910F91FF90EF90DF90CF9026
:100ED000BF90AF909F908F907F906F905F904F905A
:100EE0003F902F900C948E19DF91CF911F910F910D
:100EF000FF90EF90DF90CF90BF90AF909F908F903A
:100F00007F906F905F904F903F902F900895CF9279
:100F1000DF92EF92FF921F93CF93DF930E94E51031
:100F2000C090F601D090F701E090F801F090F9013F
:100F3000DC01CB018C199D09AE09BF090B97A105F6
:100F4000B10508F458C00E94E5106093F601709353
:100F5000F7018093F8019093F9018BE892E00E94E9
:100F60004A1CC0E0D0E02AE030E040E050E060E021
:100F700070E0CB010E946412162F2AE030E040E0BE
:100F800050E060E070E0CB010E9464126B017C01D4
:100F90002AE030E040E050E060E070E0CB010E94E9
:100FA0006412DC01CB019927AA27BB27DC01992712
:100FB0008827DD24EE24FF24FE2CED2CDC2CCC2411
:100FC0008C299D29AE29BF299C01AD01212BBE0191
:100FD0008BE892E00E949E1B2196C031D10519F644
:100FE0008BE892E0DF91CF911F91FF90EF90DF901F
:100FF000CF900C948E19DF91CF911F91FF90EF90BD
:10100000DF90CF9008950F931F930E94E5100091F9
:10101000F2011091F3012091F4013091F501DC010E
:10102000CB01801B910BA20BB30B4A97A105B10515
:10103000C0F10E94E5106093F2017093F301809378
:10104000F4019093F5018091F0019091F1010196E6
:101050008730910529F09093F1018093F00104C04D
:101060001092F1011092F00108E010E020E030E071
:1010700040E050E0BA018BE892E00E94131C6091BE
:10108000F0017091F10120E030E04AE050E08BE89F
:1010900092E00E949E1B8BE892E01F910F910C94AE
:1010A0008E191F910F9108950F931F930E94E510C1
:1010B0000091EC011091ED012091EE013091EF01D2
:1010C000DC01CB01801B910BA20BB30B4A97A1054E
:1010D000B105E0F10E94E5106093EC017093ED0121
:1010E0008093EE019093EF018091EA019091EB01E2
:1010F00001968730910529F09093EB018093EA01E6
:1011000004C01092EB011092EA0108E010E020E028
:1011100030E040E050E0BA018BE892E00E94131CFE
:101120008091EA019091EB0167E070E0681B790B18
:1011300020E030E04AE050E08BE892E00E949E1B05
:101140008BE892E01F910F910C948E191F910F91D3
:1011500008950F931F9380914A02811133C081E05B
:1011600080934A020E94E510609344027093450206
:101170008093460290934702DC01CB0188519C4F3B
:10118000AF4FBF4F8093400290934102A093420221
:10119000B09343020FE010E028E030E040E050E080
:1011A000BA018BE892E00E94131C2EE130E0A90105
:1011B0006FE070E08BE892E00E949E1B8BE892E06B
:1011C0000E948E190E94E510009140021091410288
:1011D000209142023091430206171707280739076A
:1011E00008F047C080914902811143C080914802B4
:1011F0008830A0F50E94E510DC01CB0188519C4F9E
:10120000AF4FBF4F8093400290934102A0934202A0
:10121000B0934302809148028F5F809348020FE0B1
:1012200010E028E030E040E050E0BA018BE892E0C6
:101230000E94131C0091480210E020E130E0201BC6
:10124000310B4EE150E0BA018BE892E00E94131C92
:101250008BE892E01F910F910C948E1980910E01F2
:101260008F5F883C08F087EC80930E0181E08093CB
:1012700049021F910F9108958F929F92AF92BF9252
:10128000CF92DF92EF92FF920F9320E045E066E06D
:1012900080EC92E00E94272520E043E062E081EAB2
:1012A00092E00E94272522E530E049E050E060E12D
:1012B00070E08BE892E00E947C1B80EA882E86E832
:1012C000982EAA24A394B12C90E8C92E9AE1D92E85
:1012D00096E0E92EF12C0FEF2DEC33E040E260E8D0
:1012E0008BE492E00E94421D0F91FF90EF90DF90FF
:1012F000CF90BF90AF909F908F9008958BE492E035
:101300000E948E1D8BE892E00E94F91881EA92E01B
:101310000E94CE2480EC92E00C94CE240F931F9375
:101320000E94E510009130021091310220913202AA
:1013300030913302DC01CB01801B910BA20BB30B6C
:10134000893E9340A105B10550F10E94E5106093DC
:1013500030027093310280933202909333020E94E4
:10136000E510AB01BC0140932C0250932D02609319
:101370002E0270932F022AE030E081EA92E00E9470
:10138000AC0F40912C0250912D0260912E02709171
:101390002F022AE030E080EC92E00E94AC0F0E9425
:1013A000E510009128021091290220912A02309123
:1013B0002B02DC01CB01801B910BA20BB30B893CF0
:1013C0009105A105B10580F00E94E5106093280207
:1013D0007093290280932A0290932B029091270206
:1013E00081E08927809327020E94E5100091230263
:1013F000109124022091250230912602DC01CB01BC
:10140000801B910BA20BB30B85369105A105B1058D
:1014100008F446C00E94E5106093230270932402F2
:1014200080932502909326028BE492E00E94EA1EAC
:10143000109258021092570210925A0210925902BA
:101440006FE071E08BE492E00E94180F40912C0253
:1014500050912D0260912E0270912F022AE030E00F
:101460008BE492E00E94AC0F6AE171E08BE492E0C1
:101470000E94180F6BE172E08BE492E00E94370F3C
:1014800064E271E08BE492E00E94180F63E172E085
:101490008BE492E00E94370F8BE492E00E9481225D
:1014A00080912702811134C080EC92E00E942B24AD
:1014B00080EC92E00E94FD23181619060CF05BC028
:1014C00080EC92E00E94732320911102309112026D
:1014D000F901E75FFD4F8A3059F02730310540F4BC
:1014E00080832F5F3F4F3093120220931102E0CF91
:1014F00010821092120210921102E9E0F2E0A3E1D0
:10150000B2E081918D9382E0E131F807D1F7D0CF3D
:1015100081EA92E00E942B2481EA92E00E94FD235E
:101520001816190644F581EA92E00E94732320916F
:10153000070230910802F901E150FE4F8A3059F05C
:101540002730310540F480832F5F3F4F30930802EE
:1015500020930702E1CF1082109208021092070236
:10156000EFEFF1E0ABE1B2E081918D9322E0E73063
:10157000F207D1F7D1CF1F910F910895CF92DF924B
:10158000EF92FF920F931F93CF93DF930E948E09E8
:1015900084E00E9421128C0186E00E942112EC015D
:1015A0000E94E510C0903C02D0903D02E0903E02C7
:1015B000F0903F02DC01CB018C199D09AE09BF09F7
:1015C00085369105A105B10508F489C00E94E51092
:1015D00060933C0270933D0280933E0290933F02E1
:1015E0000E94E5100E94480C20E030E04AE754E4F5
:1015F0000E94D60BAB01BC0122E030E08FED92E0FF
:101600000E9499106EE271E08FED92E00E94180F37
:101610004AE050E060910E018FED92E00E949F0F32
:101620008FE00E942112892B01F565E371E08FEDB7
:1016300092E00E94180F80910E01873C18F48F5F92
:1016400080930E018BE492E00E94EA1E10925802F1
:101650001092570210925A02109259028BE492E0B3
:101660000E94210F6DE670E024C080E10E942112EB
:10167000892B79F560E471E08FED92E00E94180FFC
:1016800080910E01823018F0815080930E018BE41E
:1016900092E00E94EA1E1092580210925702109295
:1016A0005A02109259028BE492E00E94210F68E6E0
:1016B00070E08BE492E00E94F40E4AE050E060910A
:1016C0000E018BE492E00E949F0F8BE492E00E9457
:1016D000812261E671E08FED92E00E94370F0E9457
:1016E000E510C0903802D0903902E0903A02F090B4
:1016F0003B02DC01CB018C199D09AE09BF090297A1
:10170000A105B10558F10E94E5106093380270936D
:10171000390280933A0290933B02012B61F480914D
:101720004902811105C00E94A9080E94540816C0F0
:101730000E94870713C0CD2B49F480914902811183
:10174000F7CF0E9403080E94A90808C00E94F7056D
:101750001092490210924A02109248020E94E5102B
:1017600000913402109135022091360230913702F7
:10177000DC01CB01801B910BA20BB30B85369105CD
:10178000A105B10550F00E94E510609334027093FA
:1017900035028093360290933702DF91CF911F91EB
:1017A0000F91FF90EF90DF90CF9008950E94EA0B89
:1017B0000C949C0C0E94950C58F00E948E0C40F0EA
:1017C00029F45F3F29F00C94850C51110C94D00C36
:1017D0000C948B0C0E94AD0C68F39923B1F3552344
:1017E00091F3951B550BBB27AA2762177307840734
:1017F00038F09F5F5F4F220F331F441FAA1FA9F3CA
:1018000035D00E2E3AF0E0E832D091505040E695B7
:10181000001CCAF72BD0FE2F29D0660F771F881F18
:10182000BB1F261737074807AB07B0E809F0BB0B0B
:10183000802DBF01FF2793585F4F3AF09E3F51051F
:1018400078F00C94850C0C94D00C5F3FE4F3983E38
:10185000D4F3869577956795B795F7959F5FC9F708
:10186000880F911D9695879597F90895E1E0660F89
:10187000771F881FBB1F621773078407BA0720F002
:10188000621B730B840BBA0BEE1F88F7E09508956B
:10189000E89409C097FB3EF490958095709561950A
:1018A0007F4F8F4F9F4F9923A9F0F92F96E9BB27C0
:1018B0009395F695879577956795B795F111F8CF3C
:1018C000FAF4BB0F11F460FF1BC06F5F7F4F8F4FA7
:1018D0009F4F16C0882311F096E911C0772321F09D
:1018E0009EE8872F762F05C0662371F096E8862F35
:1018F00070E060E02AF09A95660F771F881FDAF78C
:10190000880F9695879597F9089597F99F6780E8CE
:1019100070E060E008959FEF80EC089500240A9441
:101920001616170618060906089500240A941216BA
:101930001306140605060895092E0394000C11F4ED
:10194000882352F0BB0F40F4BF2B11F460FF04C09A
:101950006F5F7F4F8F4F9F4F089557FD9058440FF3
:10196000551F59F05F3F71F04795880F97FB991FFE
:1019700061F09F3F79F087950895121613061406BB
:10198000551FF2CF4695F1DF08C016161706180648
:10199000991FF1CF86957105610508940895E89423
:1019A000BB2766277727CB0197F90895FC01918D16
:1019B000228D892F90E0805C9F4F821B91098F734D
:1019C00099270895FC01918D828D981731F0828DB1
:1019D000E80FF11D858D90E008958FEF9FEF08953A
:1019E000FC01918D828D981761F0828DDF01A80F27
:1019F000B11D5D968C91928D9F5F9F73928F90E049
:101A000008958FEF9FEF0895FC01538D448D252F8E
:101A100030E0842F90E0821B930B541710F0CF9688
:101A20000895019708958EE69EE0892B49F080E0A5
:101A300090E0892B29F00E946E0E81110C94000019
:101A40000895FC01848DDF01A80FB11DA35ABF4F7B
:101A50002C91848D90E001968F739927848FA689AD
:101A6000B7892C93A089B1898C91837080648C9301
:101A7000938D848D981306C00288F389E02D8081B0
:101A80008F7D80830895EF92FF920F931F93CF93E2
:101A9000DF93EC0181E0888F9B8D8C8D981305C0BE
:101AA000E889F989808185FD26C0F62E0B8D10E02E
:101AB0000F5F1F4F0F731127E02E8C8DE8120CC0A3
:101AC0000FB607FCFACFE889F989808185FFF5CF49
:101AD000CE010E94210DF1CF8B8DFE01E80FF11D8B
:101AE000E35AFF4FF0829FB7F8940B8FEA89FB8986
:101AF000808180620AC09FB7F894EE89FF89608375
:101B0000E889F98980818370806480839FBF81E048
:101B100090E0DF91CF911F910F91FF90EF9008958A
:101B2000CF93DF93EC01888D8823C9F0EA89FB8984
:101B3000808185FD05C0A889B9898C9186FD0FC07B
:101B40000FB607FCF5CF808185FFF2CFA889B98950
:101B50008C9185FFEDCFCE010E94210DE7CFDF9163
:101B6000CF910895CF92DF92EF92FF921F93CF9380
:101B7000DF93EC016A017B01122F60E874E88EE1CB
:101B800090E0A70196010E94692BDA01C901019733
:101B9000A109B109B695A795979587959C01E88904
:101BA000F98982E08083211580E13807A8F0E8896F
:101BB000F989108260E472E48FE090E0A701960159
:101BC0000E94692BDA01C9010197A109B109B695F3
:101BD000A795979587959C01EC85FD853083EE85CB
:101BE000FF852083188EEC89FD891083EA89FB89A3
:101BF000808180618083EA89FB898081886080831D
:101C0000EA89FB89808180688083EA89FB898081F9
:101C10008F7D8083DF91CF911F91FF90EF90DF90B8
:101C2000CF90089580E090E0089508951F920F925C
:101C30000FB60F9211242F938F939F93EF93FF93DF
:101C4000E091EF02F091F0028081E091F502F091D5
:101C5000F60282FD12C090818091F8028F5F8F732F
:101C60002091F902821751F0E091F802F0E0E15280
:101C7000FD4F958F8093F80201C08081FF91EF9115
:101C80009F918F912F910F900FBE0F901F901895DD
:101C90001F920F920FB60F9211242F933F934F93E1
:101CA0005F936F937F938F939F93AF93BF93EF93C4
:101CB000FF938FED92E00E94210DFF91EF91BF9174
:101CC000AF919F918F917F916F915F914F913F91D4
:101CD0002F910F900FBE0F901F9018958FED92E0EF
:101CE0000E94D60C21E0892B09F420E0822F089570
:101CF000EFEDF2E01382128288EE93E0A0E0B0E014
:101D000084839583A683B78381E591E09183808363
:101D100085EC90E09587848784EC90E097878687B0
:101D200080EC90E0918B808B81EC90E0938B828BA8
:101D300082EC90E0958B848B86EC90E0978B868B81
:101D4000118E128E138E148E089508950E945211D2
:101D50000E94A50E0E948505C3E1DDE00E94BE0A37
:101D60002097E1F30E94130DF9CFCF92DF92EF920B
:101D7000FF920F931F93CF93DF936C017A018B0136
:101D8000C0E0D0E0CE15DF0581F0D8016D918D0166
:101D9000D601ED91FC910190F081E02DC6010995ED
:101DA000892B11F02196EECF7E01C701DF91CF91F3
:101DB0001F910F91FF90EF90DF90CF9008956115E4
:101DC000710579F0FB0101900020E9F73197AF012F
:101DD000461B570BDC01ED91FC910280F381E02D55
:101DE000099480E090E00895EF92FF920F931F9383
:101DF000CF93DF938C017B01C0E0D0E0F701EC0FC3
:101E0000FD1F6491662361F0D801ED91FC91019072
:101E1000F081E02DC8010995892B11F02196EECFB4
:101E2000CE01DF91CF911F910F91FF90EF90089518
:101E30000C94DF0EDC01ED91FC910190F081E02D1E
:101E400009946FE571E00C94DF0E0F931F93CF930D
:101E5000DF93EC010E94F40E8C01CE010E94210F51
:101E6000800F911FDF91CF911F910F9108950F93D4
:101E70001F93CF93DF93EC010E94DF0E8C01CE0104
:101E80000E94210F800F911FDF91CF911F910F9121
:101E900008958F929F92AF92BF92EF92FF920F930D
:101EA0001F93CF93DF93CDB7DEB7A1970FB6F8940A
:101EB000DEBF0FBECDBF7C01FA01CB0119A22230DB
:101EC00008F42AE08E010F5D1F4F822E912CA12C69
:101ED000B12CBF01A50194010E94692BF901CA012F
:101EE000015011096A3010F4605D01C0695CD801CD
:101EF0006C93232B242B252B61F7B801C7010E947B
:101F0000DF0EA1960FB6F894DEBF0FBECDBFDF91F6
:101F1000CF911F910F91FF90EF90BF90AF909F9046
:101F20008F9008952115310541F4DC01ED91FC916C
:101F30000190F081E02D642F09940C94490F9A01CF
:101F4000462F50E060E070E00C94920F9A01AB01D4
:101F500060E070E00C94920F0F931F93CF93DF9388
:101F6000EC010E94920F8C01CE010E94210F800F84
:101F7000911FDF91CF911F910F9108957F928F92C2
:101F80009F92AF92BF92CF92DF92EF92FF920F9308
:101F90001F93CF93DF938C016A017B01722E9A010C
:101FA000AB01C701B6010E943C2B882319F062E601
:101FB00071E027C046015701E894B7F82FEF3FEFD3
:101FC0004FE75FE7C501B4010E943C2B81110DC0B2
:101FD0002FEF3FEF4FE75FE7C501B4010E94722A80
:101FE00018161CF466E671E00CC02FEF3FEF4FE7C8
:101FF0005FE4C701B6010E94CA2A181694F46AE683
:1020000071E0C801DF91CF911F910F91FF90EF9088
:10201000DF90CF90BF90AF909F908F907F900C9467
:10202000DF0E2FEF3FEF4FE75FECC701B6010E94D5
:10203000722A87FDE4CF20E030E0A901C701B60194
:102040000E94722A87FF0AC06DE2C8010E941A0F1F
:10205000EC01F7FAF094F7F8F09402C0C0E0D0E099
:10206000B12C60E070E080E09FE37B1441F020E061
:1020700030E040E251E40E94D60BB394F6CFA701C2
:1020800096010E94062A6B017C010E94772A4B016F
:102090005C012AE0AB01BC01C8010E94490FC80FD6
:1020A000D91F7720B9F1C501B4010E94480C9B01EA
:1020B000AC01C701B6010E94052A6B017C016EE2EA
:1020C000C8010E941A0FC80FD91F20E030E040E27B
:1020D00051E4C701B6010E94CF2A4B015C010E9466
:1020E000772A6B017C014AE050E0C8010E94A60FEC
:1020F000C80FD91FB60180E090E00E94480C9B01F8
:10210000AC01C501B4010E94052A6B017C017A94DF
:102110007110DBCFCE01DF91CF911F910F91FF9016
:10212000EF90DF90CF90BF90AF909F908F907F9077
:1021300008950C94BE0F1F920F920FB60F921124A8
:102140002F933F938F939F93AF93BF9380917D0382
:1021500090917E03A0917F03B091800330917C0326
:1021600026E0230F2D3720F40296A11DB11D05C0D6
:1021700029E8230F0396A11DB11D20937C038093B2
:102180007D0390937E03A0937F03B093800380919F
:10219000810390918203A0918303B09184030196FF
:1021A000A11DB11D8093810390938203A0938303AB
:1021B000B0938403BF91AF919F918F913F912F91E5
:1021C0000F900FBE0F901F9018952FB7F894609145
:1021D0007D0370917E0380917F03909180032FBFD8
:1021E00008953FB7F8948091810390918203A09164
:1021F0008303B091840326B5A89B05C02F3F19F037
:102200000196A11DB11D3FBFBA2FA92F982F882776
:10221000820F911DA11DB11DBC01CD0143E0660FD0
:10222000771F881F991F4A95D1F708958F929F9223
:10223000AF92BF92CF92DF92EF92FF926B017C013F
:102240000E94F1104B015C01C114D104E104F104BE
:1022500001F10E9422270E94F110DC01CB018819B4
:102260009909AA09BB09883E9340A105B10560F30D
:1022700021E0C21AD108E108F10888EE880E83E057
:10228000981EA11CB11CC114D104E104F10419F77A
:10229000DBCFFF90EF90DF90CF90BF90AF909F90FB
:1022A0008F900895789484B5826084BD84B58160F0
:1022B00084BD85B5826085BD85B5816085BDEEE64E
:1022C000F0E0808181608083E1E8F0E0108280812D
:1022D00082608083808181608083E0E8F0E080819B
:1022E00081608083E1EBF0E0808184608083E0EBBB
:1022F000F0E0808181608083EAE7F0E080818460A3
:10230000808380818260808380818E7F80838081D2
:10231000806880831092C1000895833081F028F492
:10232000813099F08230A1F008958730A9F088308B
:10233000B9F08430D1F4809180008F7D03C080910A
:1023400080008F7780938000089584B58F7702C0D6
:1023500084B58F7D84BD08958091B0008F7703C0D0
:102360008091B0008F7D8093B0000895CF93DF936C
:1023700090E0FC01E056FF4F2491FC01EC54FF4F2C
:102380008491882361F190E0880F991FFC01E45249
:10239000FF4FC591D491FC01EE52FF4FA591B4912E
:1023A000611109C09FB7F8948881209582238883A2
:1023B000EC912E230BC0623061F49FB7F8948881B2
:1023C000322F309583238883EC912E2B2C939FBF43
:1023D00006C08FB7F894E8812E2B28838FBFDF913A
:1023E000CF9108951F93CF93DF93282F30E0F90109
:1023F000E457FF4F8491F901E056FF4FD491F90162
:10240000EC54FF4FC491CC23C1F0162F81110E94D0
:102410008D11EC2FF0E0EE0FFF1FEE52FF4FA59154
:10242000B4919FB7F894111104C08C91D095D82322
:1024300002C0EC91DE2BDC939FBFDF91CF911F9107
:102440000895CF93DF93282F30E0F901E457FF4F31
:102450008491F901E056FF4FD491F901EC54FF4FFC
:10246000C491CC2391F081110E948D11EC2FF0E0EA
:10247000EE0FFF1FE853FF4FA591B491EC91ED23B0
:1024800081E090E021F480E002C080E090E0DF9104
:10249000CF910895CF92DF92EF92FF92611571056F
:1024A0008105910549F06B017C010E94362DA70141
:1024B00096010E948B2B03C060E070E0CB01FF907F
:1024C000EF90DF90CF900895CF92DF92EF92FF923E
:1024D0000F931F93621773078407950784F489018C
:1024E0009A016B017C01C901B8016C197D098E0943
:1024F0009F090E944A126C0D7D1D8E1D9F1D1F910C
:102500000F91FF90EF90DF90CF9008952F923F9220
:102510004F925F926F927F928F929F92AF92BF92F3
:10252000CF92DF92EF92FF920F931F93CF93DF939F
:1025300000D000D000D0CDB7DEB72C017E836D83F4
:102540006A015901C801FC82EB824801841A950A8C
:1025500097FE03C091948194910835012D813E81AD
:10256000621A730A77FE03C071946194710868144B
:1025700079045CF43A2D2B2D5C01832F922F3D8141
:102580002E81DE82CD82C32ED22EAD81BE81AA16CF
:10259000BB065CF43C2D2D2D6C01832F922F3D81C9
:1025A0002E81BE82AD82A32EB22E85012D813E8169
:1025B000021B130B1C012C183D0837FE03C031947D
:1025C00021943108780117FF03C03FEFE31AF30AA3
:1025D000F594E794C816D9062CF08FEF9FEF9A83F5
:1025E000898304C0A1E0B0E0BA83A9832D813E8134
:1025F000A216B30624F1D201ED91FC910484F58575
:10260000E02D2B813C816814790424F44D815E8196
:10261000B60103C0A6016D817E81C2010995E21851
:10262000F308F7FE06C029813A81C20ED31EE00EE0
:10263000F11E8D819E8101969E838D83D7CF269634
:102640000FB6F894DEBF0FBECDBFDF91CF911F91C3
:102650000F91FF90EF90DF90CF90BF90AF909F9041
:102660008F907F906F905F904F903F902F90089544
:10267000DC01ED91FC910084F185E02D09940F932C
:102680001F93DC01ED91FC91048CF58DE02D0995F3
:102690001F910F9108950F931F93DC01ED91FC9111
:1026A000068CF78DE02D09951F910F910895EF92FB
:1026B000FF920F931F93DC01ED91FC9100A0F1A11B
:1026C000E02D09951F910F91FF90EF9008950895C7
:1026D0008F929F92AF92BF92CF92DF92EF92FF9232
:1026E0000F931F93CF93DF93EC015B014A016901C4
:1026F0007801E881F9810284F385E02D0995C80C01
:10270000D91C860101501109E881F9810488F589F5
:10271000E02D9501A401B501CE010995E881F9816B
:102720000688F789E02DCE01DF91CF911F910F919F
:10273000FF90EF90DF90CF90BF90AF909F908F90E1
:1027400009948F929F92AF92BF92CF92DF92EF92B5
:10275000FF920F931F93CF93DF93EC015B014A012C
:102760006901E881F9810284F385E02D09959501DD
:102770002C0D3D1D21503109E881F9810488F5892E
:10278000E02D78018401A401B501CE010995E8810D
:10279000F9810688F789E02DCE01DF91CF911F9155
:1027A0000F91FF90EF90DF90CF90BF90AF909F90F0
:1027B0008F9009944F925F926F927F928F929F9227
:1027C000AF92BF92CF92DF92EF92FF920F931F933F
:1027D000CF93DF936C012B015A0139014801DC01D1
:1027E000ED91FC910284F385E02D0995E201640CE2
:1027F000751CD601ED91FC91C615D7055CF40088D7
:10280000F189E02D87019401A501BE01C60109955A
:102810002196EFCF0688F789E02DC601DF91CF9191
:102820001F910F91FF90EF90DF90CF90BF90AF90EE
:102830009F908F907F906F905F904F900994EF9250
:10284000FF920F931F93DC011A960D911C911B9719
:1028500018962D913C911997ED91FC9100A0F1A152
:10286000E02D7B0140E050E060E070E009951F91B1
:102870000F91FF90EF9008958F929F92AF92BF9229
:10288000CF92DF92EF92FF920F931F93CF93DF933C
:102890004C016B015A01E901DC01ED91FC916217D9
:1028A000730781F40417150724F48B2D5801042FA6
:1028B000182F0A191B0998012F5F3F4F048CF58DC3
:1028C000E02D12C04017510709F52617370724F4E9
:1028D0008D2D6901C62FD82F9E012C193D092F5F20
:1028E0003F4F068CF78DE02D8701A501B601C4018D
:1028F0000995DF91CF911F910F91FF90EF90DF909D
:10290000CF90BF90AF909F908F9008950284F385F1
:10291000E02D0995D401ED91FC910488F589E02D15
:102920009E01A501B601C4010995D401ED91FC9168
:102930000688F789E02DC401DF91CF911F910F9197
:10294000FF90EF90DF90CF90BF90AF909F908F90CF
:1029500009946F927F928F929F92AF92BF92CF9283
:10296000DF92EF92FF920F931F93CF93DF93EC01CF
:102970004B015A0169013801E881F9810284F3852C
:10298000E02D0995E881F9810288F389E02D87011E
:102990009601A501B401CE010995A501460D571D6B
:1029A00041505109E881F9810288F389E02D9601AF
:1029B000B401CE010995E881F9810088F189E02D03
:1029C0009301A501B401CE010995C80CD91CB6012B
:1029D00061507109E881F9810088F189E02D930146
:1029E000A501CE010995E881F9810688F789E02DD6
:1029F000CE01DF91CF911F910F91FF90EF90DF906B
:102A0000CF90BF90AF909F908F907F906F900994E0
:102A10000895FC016370668B8481958126813781DE
:102A2000613039F0633029F09187808733872287BE
:102A3000089531872087938782870895FC01138248
:102A4000128282E791E09183808375836483578348
:102A500046837187608753874287168A1586148656
:102A60001786168681E0858B848B2FEF3FEF338BA3
:102A7000228B318B208B878B108E128E118E0895B6
:102A80003F924F925F926F927F928F929F92AF92FE
:102A9000BF92CF92DF92EF92FF920F931F93CF934B
:102AA000DF93CDB7DEB72A970FB6F894DEBF0FBE1F
:102AB000CDBF5C017E836D8358874F832901370129
:102AC000DC01ED91FC910284F385E02D0995C801AC
:102AD000079697FD07969C0193E0359527959A9563
:102AE000E1F73A832983812C912CE12CF12C312CB4
:102AF0008F8198858E0D9F1D9C838B83E614F70430
:102B00000CF03DC01A861986A985BA85A017B107B1
:102B100074F5CD0187709927892B11F0330C0EC005
:102B2000E985FA85F7FD379683E0F595E7958A956F
:102B3000E1F7E80DF91DE40DF51D349037FE11C0E5
:102B4000D501ED91FC910484F585E02D96014B8132
:102B50005C816D817E8189859A85680F791FC501A9
:102B60000995A985BA851196BA87A987CDCFBFEFF8
:102B7000EB1AFB0A29813A81820E931EB9CFD50147
:102B8000ED91FC910688F789E02DC5012A960FB6D4
:102B9000F894DEBF0FBECDBFDF91CF911F910F9193
:102BA000FF90EF90DF90CF90BF90AF909F908F906D
:102BB0007F906F905F904F903F9009942F923F923B
:102BC0004F925F926F927F928F929F92AF92BF923D
:102BD000CF92DF92EF92FF920F931F93CF93DF93E9
:102BE000CDB7DEB76B970FB6F894DEBF0FBECDBF83
:102BF0009B8F8A8F2B015A834983D22E198708878E
:102C00004701AB82DC0159962D913C915A972115D1
:102C1000310509F000C118968D919C91199768179C
:102C200079070CF0E7C11A968D919C911B97481774
:102C300059070CF0DFC12C2C312CFB0126E0C29E81
:102C4000E00DF11D1124FD87EC871E161F060CF008
:102C5000D1C14A2D50E05B874A8783E0440F551F5E
:102C60008A95E1F75F874E8789819A81840F951F46
:102C7000181619060CF0BEC158968C91811104C02B
:102C80006FEA6D1508F4D394AA8DBB8DED91FC917C
:102C900011970284F385E02DCD010995B5E0DB9E07
:102CA000C0011124EC2DF0E0F98BE88B92012B5F31
:102CB0003F4F3B8B2A8B32015D824C82AC01441921
:102CC00055095D8B4C8B7B81672F70E07F8B6E8B02
:102CD00089819A810896998F888FEC89FD89E60D04
:102CE000F71DEA51FF4FD490A981BA81BF83AE830B
:102CF0005D01D0FE16C0AA8DBB8DED91FC91B1E0B7
:102D0000CB1209C02B81213031F40484F585E02DEC
:102D10002885398519C00684F785E02DE884F98473
:102D20001DC0488559854815590511F1AA8DBB8DDF
:102D3000ED91FC91B1E0CB120DC02B81213051F40B
:102D40000484F585E02D9401A501B3018A8D9B8D46
:102D500009950EC00684F785E02D74010A851B8550
:102D600091014E815F816C817D818A8D9B8D09955A
:102D7000D6944E815F816E897F89460F571F5F838E
:102D80004E837FEFA71AB70A888D998DA816B906CA
:102D900009F0AFCFAC81BD81E889F989AE0FBF1FC3
:102DA000BD83AC83FFEF6F1A7F0A2A893B896216C5
:102DB000730609F092CF488559854815590509F4DD
:102DC000F7C0AA8DBB8DED91FC91B1E0CB1212C082
:102DD0002B81213079F4B2016B5F7F4F0088F1893C
:102DE000E02D840128E030E049815A818A8D9B8D55
:102DF0000995DEC06C857D85621973090684F785A7
:102E0000E02D74010E851F85910149815A818A8DBB
:102E10009B8D0995CDC0F9013496E491DE1AF90134
:102E2000329685919491B7E0DB9E800D911D11241F
:102E3000F90125913491398B288BFC012590349030
:102E4000FC01329674903196A4903296949031960B
:102E5000B49031E03C1518F04B81423068F0692D98
:102E6000092C000C770B7D836C838B2D0B2C000CB5
:102E7000990B9F838E8304C01F821E821D821C8239
:102E8000AA8DBB8DED91FC9111970284F385E02D05
:102E9000CD010995612CD12C812CFB81EF2FF0E025
:102EA000FB87EA872C2D30E03D872C8749815A81AA
:102EB0004B0D511DB7FC5A955D8B4C8BB201690DC2
:102EC000711D97FC7A957F8B6E8B8A1408F070C009
:102ED000282D30E04E815F81420F531FAA85BB85AC
:102EE000A49FC001A59F900DB49F900D1124E9816E
:102EF000FA81E80FF91FFF87EE87862D912C4C8908
:102F00005D89420F531F5B8B4A8B971408F04DC0AD
:102F1000BB24B394B80E877041F4C1010196E889CF
:102F2000F989E20DF31DD4901C01D7FE3AC051E09F
:102F3000C51216C06B81613099F4AA8DBB8DED91DD
:102F4000FC9111970484F585E02D288539854A89FF
:102F50005B896E897F89690D711DCD01099521C03D
:102F60008C819D81890D911DEC85FD858E9FB00121
:102F70008F9F700D9E9F700D1124640D751DAA8D7D
:102F8000BB8DED91FC9111970684F785E02DE884C7
:102F9000F9840A851B852C853D854E855F85CD018D
:102FA0000995DD0C93948B2DB0CF670C83948DCF56
:102FB000AA8DBB8DED91FC9111970688F789E02DC4
:102FC000CD016B960FB6F894DEBF0FBECDBFDF917B
:102FD000CF911F910F91FF90EF90DF90CF90BF9016
:102FE000AF909F908F907F906F905F904F903F90A9
:102FF0002F9009946B960FB6F894DEBF0FBECDBF2D
:10300000DF91CF911F910F91FF90EF90DF90CF90C4
:10301000BF90AF909F908F907F906F905F904F90F8
:103020003F902F9008958F929F92AF92CF92EF9200
:10303000FF920F931F93CF93DF93EC01262F898D7F
:103040009A8D009709F042C06A3059F41D861C869B
:103050002D898E859F8538E0239F800D911D112439
:1030600043C06D3009F4AAC08F898823C9F03C8918
:103070008C859D8546E0349F800D911D11244885E7
:1030800059854817590764F41D861C863D898E852D
:103090009F8548E0349F800D911D11249F878E8766
:1030A000EA88FB88088919894E855F856C857D854E
:1030B000AD88CC88CE010E94DE152C898C859D853B
:1030C00036E0239F800D911D11243EC06A3079F4B3
:1030D0001D861C862D89FC013896E4918E859F857E
:1030E0002E9F800D911D11249F878E8767C06D30A4
:1030F00009F464C0FC0134963491631708F45EC08F
:103100003296E491E61708F459C0462F431B342F3A
:10311000FC0132968590949047E0349F800C911C7E
:103120001124F401329634913196E491332311F055
:10313000E1110DC0F4013496E4912C898C859D85B4
:10314000E29F800D911D11249D878C8737C0F4016B
:10315000359644915F89552319F15C89E32FF0E09E
:10316000E40FF11D47FDFA955E9FB0015F9F700D62
:1031700011244C855D85460F571F68857985641736
:10318000750774F41D861C863D89FC013896E49110
:103190008E859F853E9F800D911D11249F878E8770
:1031A000EA88FB88088919894E855F856C857D854D
:1031B000AD88CC88CE010E94DE15BCCF81E090E0C6
:1031C000DF91CF911F910F91FF90EF90CF90AF9033
:1031D0009F908F900895611101C061E0FC01648BA4
:1031E000411101C041E0FC01458B0895462F0C942C
:1031F000EB18CF93DF93EC0189859A850E94622CAE
:103200008E819F8197FD05C060E0DF91CF910C9486
:10321000B611DF91CF910895CF93DF93EC018E81AA
:103220009F8197FD07C061E00E94B61160E08E812A
:103230000E94F21181E08983DF91CF910895EF928E
:10324000FF920F931F93CF93DF93EC017B0189854E
:103250009A850E94622C9E858B85981719F084E0D0
:1032600090E002C083E090E08E9D80018F9D100D64
:103270009E9D100D11241D830C83C8010E94CA2B32
:103280009A878987009741F0A80160E070E00E946A
:10329000922DFB82EA8204C01D821C821B821A824C
:1032A000DF91CF911F910F91FF90EF900895FC0156
:1032B00031E096858385981330E0CB0126E0969522
:1032C00087952A95E1F7282F23702687CB0144E0C4
:1032D000969587954A95E1F783708387AB0156955C
:1032E00047955695479543704487962F93709587D9
:1032F00091E06F3F710511F008F090E090834185F7
:103300005285452B51F091E0281390E0391729F0B0
:1033100062817381CF010C941F190895CF92DF92BF
:10332000EF92FF920F931F93CF93DF93CDB7DEB74A
:1033300029970FB6F894DEBF0FBECDBF8C01DC011C
:1033400019968D919C911A97892B09F48FC10E942F
:10335000F110F801C784D088E188F2886C157D05EA
:103360008E059F0520F46787708B818B928BF80107
:10337000C784D088E188F288DC01CB018C199D09D3
:10338000AE09BF098C329140A105B10500F3F89454
:10339000D80114968D919C9115979A8389831996DB
:1033A0000D90BC91A02D7D01EFEFEE1AFE0A8C91DD
:1033B0008987D8018C9153960D90BC91A02D8823BC
:1033C00009F41AC11D82AB32B10509F059C09BB195
:1033D000F8018589982B98879BB1809589238F83E5
:1033E0008F818E83898587FF02C088858E8358856B
:1033F0006F8149853E812D8189819A81D7015BB991
:10340000262F3BB900C046FD252F6BB900C05BB924
:10341000362F2BB900C045FD352F6BB900C05BB905
:10342000262F3BB900C044FD252F6BB900C05BB906
:10343000362F2BB900C043FD352F6BB900C05BB9E7
:10344000262F3BB900C042FD252F6BB900C05BB9E8
:10345000362F2BB900C041FD352F6BB900C05BB9C9
:10346000262F3BB900C040FD252F6BB901975BB9F2
:10347000362F2BB94D9147FD352F6BB901F6B8C0EA
:10348000A532B10509F059C095B1F8018589982B8D
:10349000988795B1809589238F838F818E838985C5
:1034A00087FF02C088858E8358856F8149853E815C
:1034B0002D8189819A81D70155B9262F35B900C050
:1034C00046FD252F65B900C055B9362F25B900C076
:1034D00045FD352F65B900C055B9262F35B900C057
:1034E00044FD252F65B900C055B9362F25B900C058
:1034F00043FD352F65B900C055B9262F35B900C039
:1035000042FD252F65B900C055B9362F25B900C039
:1035100041FD352F65B900C055B9262F35B900C01A
:1035200040FD252F65B9019755B9362F25B94D9125
:1035300047FD352F65B901F65BC0989709F08CC03F
:1035400098B1F8018589982B988798B1809589233F
:103550008F838F818E83898587FF02C088858E83C4
:1035600058856F8149853E812D8189819A81D70156
:1035700058B9262F38B900C046FD252F68B900C0BC
:1035800058B9362F28B900C045FD352F68B900C09D
:1035900058B9262F38B900C044FD252F68B900C09E
:1035A00058B9362F28B900C043FD352F68B900C07F
:1035B00058B9262F38B900C042FD252F68B900C080
:1035C00058B9362F28B900C041FD352F68B900C061
:1035D00058B9262F38B900C040FD252F68B901978A
:1035E00058B9362F28B94D9147FD352F68B901F6E6
:1035F00049873E832D832EC09C91F8018589982BA5
:1036000098879C91809589238F838F818C8388E014
:103610008B8358856F8149853B812C8189819A8173
:10362000F7015C9347FD252F2C93262F3A9531F017
:10363000441F6C9300C000C000C0F3CF6C93000027
:1036400038E04191019769F7F801B48BA38B498762
:103650003B832C839A83898378940E94F110D8014C
:103660001F966D937D938D939C93529729960FB6D9
:10367000F894DEBF0FBECDBFDF91CF911F910F91A8
:10368000FF90EF90DF90CF9008950F931F93CF930B
:10369000DF93EC01162F072F8981882339F08E8163
:1036A0009F8197FD03C060E00E94B6111E830F83C7
:1036B0008981882341F061E0812F0E94B61160E08A
:1036C000812F0E94F211812F902FFC01EC54FF4FAB
:1036D000E491F0E0EE0FFF1FEE52FF4F2591349181
:1036E0003C8B2B8BFC01E056FF4FE491ED8BDF917F
:1036F000CF911F910F910895EF92FF920F931F9317
:10370000CF93DF93EC017B018A01198218861A8618
:1037100019861F86188A198A1A8AB9010E945719B0
:10372000B701CE010E941F19B801CE01DF91CF91E0
:103730001F910F91FF90EF900C94451B7F928F92F9
:103740009F92AF92BF92CF92DF92EF92FF920F9330
:103750001F93CF93DF93FC018281938168177907D0
:1037600008F053C04A01AA24BB24782CC32ED42EBF
:10377000E52EFF24BC2DA22F8085882361F0889E32
:1037800040011124792C8C9D60011124BD2D829F54
:1037900070011124AF2D9685D385E184F2849D13A9
:1037A00008C0CB01880F991F680F791F6E0D7F1D10
:1037B0001CC0660F771F660F771F6E0D7F1D052FCC
:1037C0001127222733277B01E90EF11C811102C04A
:1037D000202F09C090E0809F6001819FD00C909FB6
:1037E000D00C11242D2DE701288383859B01280F00
:1037F000311DE90178828485EB01C80FD11DB883A2
:103800008585FB01E80FF11DA083DF91CF911F910A
:103810000F91FF90EF90DF90CF90BF90AF909F906F
:103820008F907F9008958F929F92AF92BF92CF9288
:10383000DF92EF92FF920F931F93CF93DF936C0170
:103840004A015B01E901FC01E280F3802E153F058E
:10385000A0F40115110531F0020F131F0E151F05FD
:1038600008F47801CE15DF0540F4A5019401BE01EE
:10387000C6010E949E1B2196F5CFDF91CF911F912B
:103880000F91FF90EF90DF90CF90BF90AF909F90FF
:103890008F900895FC014481558160E070E081853E
:1038A00092850C94922DFC0177FDB9C0808591859D
:1038B000681779070CF0B3C057FDB1C082859385B6
:1038C000481759070CF008958689823079F484816D
:1038D0009581DC01A61BB70BBD0161507109868182
:1038E0009781DC01A41BB50BAD010EC0833009F03C
:1038F00084C064277527CA018627972768277927F8
:1039000046815781481B590B4150510921303105DF
:1039100031F048F12230310509F44AC00895CA0156
:1039200057FD07969C01A3E035952795AA95E1F7E9
:10393000A481B5812A9FC0012B9F900D3A9F900DC5
:103940001124680F791F078CF0A1E02DE60FF71FF7
:103950004770552781E090E001C0880F4A95EAF74B
:103960009081892B48C0CA0157FD07969C0193E0BE
:10397000359527959A95E1F7A481B5812A9FC001D5
:103980002B9F900D3A9F900D1124680F791F078C83
:10399000F0A1E02DE60FF71F4770552781E090E07A
:1039A00001C0880F4A95EAF780959081892323C04A
:1039B000CA0157FD07969C0183E0359527958A95A6
:1039C000E1F7A481B5812A9FC0012B9F900D3A9FFA
:1039D000900D1124680F791F078CF0A1E02DE60FE0
:1039E000F71F4770552781E090E001C0880F4A9586
:1039F000EAF79081892780830895813009F086CF86
:103A00006427752746275727642775278481958162
:103A1000DC01A61BB70BBD016150710977CF08957A
:103A20002091CB03222399F04FB7F8942091CB0338
:103A3000213059F42DB32093C9033DB32091CA031B
:103A4000209523232DBB4FBF02C04093C9038CBDDB
:103A50009DBD08958EBD00000DB407FEFDCF8EB54F
:103A600008958091CB03882361F09FB7F89420914B
:103A7000CB038091C903213019F48DBB9FBF0895FA
:103A80008FBF08954F925F926F927F928F929F9215
:103A9000AF92BF92CF92DF92EF92FF920F93CF93AC
:103AA000DF93CDB7DEB73C01290150E070E00E9402
:103AB0001E158EE991E0F30191838083148E138E9D
:103AC0004114510411F0C20102C08DEC93E0F301E6
:103AD000968F858F10A2178E8FEF84A385A386A360
:103AE00087A300A7C5AAD6AAE7AAF0AE81AE92AE78
:103AF000A3AEB4AE80E586AF81E087AFDF91CF9112
:103B00000F91FF90EF90DF90CF90BF90AF909F907C
:103B10008F907F906F905F904F9008952EE931E0E5
:103B2000FC0131832083878D90A1009711F00C94C4
:103B3000622C08951F93CF93DF93FC01858D968DA2
:103B4000009719F1162FEF0161A1062E000C770BDB
:103B50000E9404278D8D9E8DDC01ED91FC910190DA
:103B6000F081E02D60E009958D8D9E8DDC01ED9159
:103B7000FC910190F081E02D612F09958D8D9E8D36
:103B8000DF91CF911F910C941927A5A5B6A59C9103
:103B900083A9809589238C93838D948D892B31F013
:103BA000862FDF91CF911F910C942A1D28E030E0E1
:103BB00080E8A1A5B2A591A9462F482319F04C9100
:103BC000942B03C04C91909594239C93A3A5B4A5EA
:103BD0004C9192A9942B9C93A3A5B4A54C9192A926
:103BE000909594239C9386952150310911F7DF918C
:103BF000CF911F9108951F93CF93DF93EC01162F60
:103C00008D8D9E8D009739F04DA95EA96FA978AD75
:103C10000E94F6260FC08B8D9C8D892B21F08EADD6
:103C20009FAD0E94101DEFA5F8A990818CA98095E9
:103C300089238083111102C066EA01C067EACE01C0
:103C40000E949A1D8D8D9E8D009749F049AD5AAD09
:103C50006BAD7CADDF91CF911F910C94F626EFA553
:103C6000F8A990818CA9892B80838B8D9C8D892BC1
:103C700029F0DF91CF911F910C94311DDF91CF91ED
:103C80001F910895BF92CF92DF92EF92FF920F9310
:103C90001F93CF93DF93EC01B62E072F142F8D8D3A
:103CA0009E8D009709F452C069A1062E000C770B77
:103CB0000E9404278D8D9E8DDC01ED91FC91019079
:103CC000F081E02D60E00995CB2CD02EEE24E3941A
:103CD000F12C8D8D9E8D112371F1B0E2EB16F10464
:103CE000B8F00E94192769A1062E000C770B8D8D64
:103CF0009E8D0E9404278D8D9E8DDC01ED91FC919F
:103D00000190F081E02D60E00995EE24E394F12C20
:103D10008D8D9E8DF6016491DC01ED91FC910190F9
:103D2000F081E02D0995BFEFEB1AFB0A1150F60167
:103D300031966F01CECFDF91CF911F910F91FF9000
:103D4000EF90DF90CF90BF900C941927EDA5FEA5C2
:103D500090818BA9809589238083E62EF72E1123ED
:103D600079F1F70184912B8D3C8D232B39F00E9442
:103D70002A1D1150C70101967C01F1CF28E030E0E7
:103D800040E8E9A5FAA599A9582F542319F05081C4
:103D9000952B03C05081909595239083EBA5FCA5AE
:103DA00050819AA9952B9083EBA5FCA550819AA9E7
:103DB00090959523908346952150310911F7D9CFDD
:103DC000DF91CF911F910F91FF90EF90DF90CF90F7
:103DD000BF900895FC01868197819C01295F3F4F28
:103DE00037FF02C0295F3F4F83E0359527958A95BD
:103DF000E1F784819581289FA001299F500D389F6C
:103E0000500D112460E070E0878D90A10C94922DEC
:103E10008F929F92AF92BF92CF92DF92EF92FF92DA
:103E20000F931F93CF93DF93EC01862EB42EA22E17
:103E3000902E8F8D98A1892BE9F42E813F81C901A5
:103E4000079697FD079623E0959587952A95E1F7C4
:103E50002C813D81AC01429FC001439F900D529F38
:103E6000900D11240E94CA2B98A38F8F892B11F4D7
:103E700080E092C1CE010E94EA1E8E819F816C81FA
:103E80007D8181329105E4F0AC014054510957FF26
:103E900002C04F5F5F4F559547956255710977FF97
:103EA00002C06F5F7F4F75956795CC24C394D12C6A
:103EB00080E4E82EF12C02E510E02DEE37E01BC087
:103EC000AC014052510957FF02C04F5F5F4F5595FB
:103ED00047956357710977FF02C06F5F7F4F7595F4
:103EE0006795CC24C394D12CA0E2EA2EF12C03E7F1
:103EF00010E02DE036E0CE010E9440158AA28D8DA3
:103F00009E8D009799F0B11007C02E813F8120321D
:103F1000310521F42CE303C02B2D01C02DE329A38F
:103F2000992009F436C10E94E42679C061E08EA18F
:103F30000E94B61161E08FA10E94B6118EA1082ED9
:103F4000000C990BFC01EC54FF4FE491F0E0EE0FF4
:103F5000FF1FEE52FF4F259134913EA72DA7FC0184
:103F6000E056FF4FE491EBAB8FA1082E000C990BAC
:103F7000FC01EC54FF4FE491F0E0EE0FFF1FEE5216
:103F8000FF4FA591B491B8ABAFA7FC01E056FF4F2E
:103F9000E491ECAB8C91E82BEC938B8D9C8D892B71
:103FA00031F0992009F43BC00E94E02538C061E05F
:103FB0008CA10E94B61161E08DA10E94B6118CA166
:103FC000082E000C990BFC01EC54FF4FE491F0E03B
:103FD000EE0FFF1FEE52FF4F259134913AA729A70C
:103FE000FC01E056FF4FE491E9AB8DA1082E000CD7
:103FF000990BFC01EC54FF4FE491F0E0EE0FFF1F32
:10400000EE52FF4FA591B491BCA7ABA7FC01E056BF
:10401000FF4FE491EAAB8C91E095E823EC93AA2062
:10402000F1F088A587FD1BC061E00E94B61161E038
:1040300088A50E94F21161E070E080E090E00E94AB
:10404000161160E088A50E94F2116AE070E080E03D
:1040500090E00E94161161E088A50E94F2118D8DFA
:104060009E8D009739F04DA95EA96FA978AD0E9489
:10407000F6260FC08B8D9C8D892B21F08EAD9FADC8
:104080000E94101DEFA5F8A990818CA98095892325
:10409000808344E069E076E0CE010E94421E6E819A
:1040A0006150CE010E949A1D44E065E076E0CE01A9
:1040B0000E94421E8AA1813011F460E101C064E1D6
:1040C000CE010E949A1D44E061E076E0CE010E949C
:1040D000421E8FE88DAF8C819D818038910571F4EF
:1040E0008E819F8180349105B9F48AA1813011F4C9
:1040F0008FE901C08FEC8DAF12E10FC080369105C2
:1041000059F48E819F81409739F48AA1813011F44E
:1041100080E101C08FEA8DAF12E06AEDCE010E940E
:104120009A1D612FCE010E949A1D61E8CE010E9466
:104130009A1D6DADCE010E949A1D69EDCE010E94BF
:104140009A1D8AA1813011F462E201C061EFCE01B3
:104150000E949A1D46E06BEF75E0CE010E94421E60
:104160008D8D9E8D009739F049AD5AAD6BAD7CAD0C
:104170000E94F6260CC0EFA5F8A990818CA9892B86
:1041800080838B8D9C8D892B11F00E94311D81E0E5
:1041900003C0A11046CF67CFDF91CF911F910F9140
:1041A000FF90EF90DF90CF90BF90AF909F908F9057
:1041B00008950F931F93CF93DF93DC0157FD64C0E5
:1041C00016968D919C911797481759070CF05CC073
:1041D00077FF04C0260F371F60E070E01496CD9182
:1041E000DC911597CB01820F931FC817D9071CF4D8
:1041F0009E01261B370B121613060CF045C0FA0160
:1042000057FD3796CF01E3E095958795EA95E1F75D
:104210008C9FF0018D9FF00D9C9FF00D11246E0F6F
:104220007F1F5F96ED91FC919097E60FF71F477007
:10423000552781E090E001C0880F4A95EAF7482FA2
:104240000130110539F078F002301105E9F42E0F34
:104250003F1F13C02E0F3F1FE217F307A9F0808105
:10426000842B8193F9CF80952E0F3F1FE217F30720
:1042700059F0908198239193F9CFE217F30721F039
:10428000808184278193F9CFDF91CF911F910F9186
:104290000895EF92FF920F931F93CF93DF93EC015A
:1042A00077FDA5C0EC80FD806E157F050CF09FC0EA
:1042B00057FF04C0240F351F40E050E08E819F81DE
:1042C000FA01E20FF31F8E179F071CF49C01241BB9
:1042D000350B121613060CF08AC0922F842F869588
:1042E000869586958E9DD0018F9DB00D11246A0F05
:1042F0007B1FAF8DB8A1A60FB71F4770B1F188E043
:10430000841B482F682F70E0FB01ED50FA4FE491B9
:10431000281798F4621B71092FEF30E002C0359521
:1043200027956A95E2F7E2230130110549F078F00C
:104330000230110509F05BC00EC00130110519F4FF
:104340008C91E82B0AC00130110508F049C0E095B6
:104350008C91E82302C08C91E827EC93941708F421
:1043600046C02C813D81A20FB31FE92FE41BE8302A
:10437000F8F00230110561F48E2F9C9190959C937A
:104380002C813D81A20FB31F88508830B0F70FC039
:1043900081E00115110509F480E081959E2F8C9331
:1043A0002C813D81A20FB31F98509830C0F7E77061
:1043B000EE23E9F0F0E0E551FA4FE4910130110508
:1043C00039F048F00230110591F48C91E82706C0CD
:1043D0008C91E82B03C0E0958C91E823EC9307C007
:1043E0000230110509F4B7CFAE0DBF1DBECFDF916E
:1043F000CF911F910F91FF90EF9008950F931F930E
:10440000DC015696EC915697E23061F0E33009F109
:10441000E13081F51496ED91FC911597E41BF50BB5
:10442000319723C0DC011496ED91FC911597DF01C3
:10443000A61BB70BBD01DC011696ED91FC911797F9
:10444000DF01A41BB50BAD0141505109621B730B79
:1044500011C0FA01DC0116964D915C911797DA01B3
:10446000A61BB70BBD01621B730BAB01BF010E9402
:10447000492102C00E94D9201F910F9108950F93E6
:104480001F93DC015696EC915697E23069F0E330C9
:1044900011F1E13089F51496ED91FC911597E41B2B
:1044A000F50BE21BF30B23C0DC011496ED91FC919C
:1044B0001597DF01A61BB70BBD0161507109DC0127
:1044C0001696ED91FC911797DF01A41BB50BAD017A
:1044D000421B530B11C0FA01DC0116964D915C9101
:1044E0001797DA01A61BB70BBD0161507109AB012B
:1044F000BF010E94D92002C00E9449211F910F9143
:104500000895CF92DF92EF92FF920F931F93CF9374
:10451000DF93EC018D8D9E8D009739F04DA95EA93A
:104520006FA978AD0E94F6260FC08B8D9C8D892BCC
:1045300021F08EAD9FAD0E94101DEFA5F8A99081CE
:104540008CA980958923808345E066EE75E0CE01D5
:104550000E94421E6C816150CE010E949A1D2E81E4
:104560003F81C901079697FD079623E095958795AA
:104570002A95E1F72C813D81829F7001839FF00C89
:10458000929FF00C11240F8D18A18D8D9E8DE00E41
:10459000F11E009709F443C069A1062E000C770BA9
:1045A0000E9404278D8D9E8DDC01ED91FC91019080
:1045B000F081E02D60E40995680101E010E08D8D47
:1045C0009E8DEC14FD0441F100321105B0F00E9403
:1045D000192769A1062E000C770B8D8D9E8D0E94E8
:1045E00004278D8D9E8DDC01ED91FC910190F08171
:1045F000E02D60E4099501E010E08D8D9E8DF601BF
:1046000061916F01DC01ED91FC910190F081E02D51
:1046100009950F5F1F4FD3CF0E94192735C0EDA515
:10462000FEA590818BA9892B80830E151F0561F152
:10463000F80181918F012B8D3C8D232B19F00E9465
:104640002A1DF3CF28E030E040E8E9A5FAA599A9B2
:10465000582F542319F05081952B03C05081909509
:1046600095239083EBA5FCA550819AA9952B908367
:10467000EBA5FCA550819AA990959523908346952A
:104680002150310911F7D1CF8D8D9E8D009771F09A
:1046900049AD5AAD6BAD7CADDF91CF911F910F91BC
:1046A000FF90EF90DF90CF900C94F626EFA5F8A93D
:1046B00090818CA9892B80838B8D9C8D892B51F0C7
:1046C000DF91CF911F910F91FF90EF90DF90CF90EE
:1046D0000C94311DDF91CF911F910F91FF90EF90BE
:1046E000DF90CF9008952091C7033091C803281719
:1046F0003907B9F49091850380918603981789F062
:10470000E0918503F0E0E957FC4F8081209185031B
:1047100030E02F5F3F4F2F7333272093850390E0C6
:1047200008958FEF9FEF08951F93CF93DF93DC01E0
:104730005C968D919C915D97009739F421E030E073
:1047400013963C932E9312973BC05196ED91FC919A
:10475000529750962C915097322F30951FB75E96F6
:104760004C915E97742F727041FD6095F894408172
:10477000772311F0422B01C043234083EC012197A2
:10478000F1F748E0508160FF02C0522B01C0532373
:104790005083EC012197F1F76695415099F780819C
:1047A000772319F08323808302C0282B20831FBF27
:1047B0005C968D919C915D970197F1F781E090E077
:1047C000DF91CF911F91089508952091C7033091F3
:1047D000C8032817390771F49091850380918603E7
:1047E000981741F0E0918503F0E0E957FC4F808194
:1047F00090E008958FEF9FEF08952091C7033091C7
:10480000C8032817390771F4809186032091850326
:1048100090E0805C9F4F821B910960E470E00E94F1
:10482000552B089580E090E00895E091C703F09142
:10483000C803E817F90769F4A389B4899C918589AD
:10484000809589238C931092C8031092C70381E04E
:10485000089580E00895CF93DF93EC018A8D9B8DBE
:10486000892BF1F08091C7039091C803C817D9072D
:10487000B9F0009711F00E9415248E8D8E7F8E8FD7
:104880001092860310928503D093C803C093C70388
:10489000EB89FC8990818D89892B808381E001C01F
:1048A00080E0DF91CF9108951F920F920FB60F9283
:1048B00011242F933F934F935F936F937F938F9325
:1048C0009F93AF93BF93EF93FF93E091C703F09152
:1048D000C803309709F451C0968DA685B7858585A4
:1048E00091FF04C09C91892329F447C09C9189239E
:1048F00009F043C0A389B4899C9185898095892357
:104900008C93868997890197F1F7608D718DA685C3
:10491000B785558538E020E0CB010197F1F7822F6C
:1049200090E095958795282F4C91452309F02068B4
:10493000315091F7868D81FD20958091860390E01E
:1049400001968F73992730918503381749F0A0910C
:104950008603B0E0A957BC4F2C938093860303C015
:10496000868D8160868F828D938D0197F1F7A38963
:10497000B4899C918589892B8C93FF91EF91BF918C
:10498000AF919F918F917F916F915F914F913F91E7
:104990002F910F900FBE0F901F9018952AEC31E0C9
:1049A000FC01318320830C9415241F93CF93DF9354
:1049B000EC01162F6E8D6695617081E06827812F5E
:1049C0000E94F21161E0812F0E94B611812F90E0C8
:1049D000FC01E056FF4FE491E88BFC01EC54FF4FE3
:1049E000E491F0E0EE0FFF1FEE52FF4F859194919E
:1049F0009A8B898BDF91CF911F9108951F93CF934D
:104A0000DF93EC01162F60E0812F0E94B6118E8D8E
:104A100081FD04C061E0812F0E94F2111C87812F6B
:104A200090E0FC01E056FF4FE491ED87FC01EC546F
:104A3000FF4FE491F0E0EE0FFF1FE853FF4F859129
:104A400094919F878E87DF91CF911F9108951F9337
:104A5000CF93DF93EC01162F1B821A8288EE93E02E
:104A6000A0E0B0E08C839D83AE83BF838AEC91E0AD
:104A7000998388831F8A1E8A198E188E1B8E1A8E20
:104A80001D8E1C8E8E8D8E7F20FB81F98E8F642F64
:104A9000CE010E94D524612FCE01DF91CF911F91CD
:104AA0000C94FE24CF93DF93EC019A01AB011B8E93
:104AB0001A8E198E188E1F8A1E8A60E874E88EE19D
:104AC00090E00E948B2BF9012430310518F0C901C8
:104AD000039702C081E090E09D8F8C8F6C856631DA
:104AE00008F069C0C901969587958431910510F049
:104AF000439702C081E090E09F8B8E8B369718F031
:104B0000C901059702C081E090E0998F888FC901A3
:104B1000880F991F280F391F3695279536952795A9
:104B20002D30310518F02C50310902C021E030E061
:104B30003B8F2A8F90916800683050F021E06E30F2
:104B400008F420E081E001C0880F2A95EAF701C04F
:104B500084E0892B809368009C85983038F09E30E3
:104B600040F0963148F020E030E008C02DE630E01B
:104B700005C02BE630E002C02CE630E03C8B2B8BEE
:104B8000983030F481E001C0880F9A95EAF70EC0A2
:104B9000292F30E09E3018F42850310902C02E50E1
:104BA000310981E001C0880F2A95EAF78D8B8C8D41
:104BB0009D8D0197F1F7CE01DF91CF910C942B24BD
:104BC000CF93CFB7F8948091CC03811127C0EEEB3F
:104BD000F0E08491EAEAF0E09491E82FF0E0EE0F43
:104BE000FF1FE452FF4FA591B491EC91E92321F40A
:104BF00061E08AE00E94F21161E08AE00E94B61151
:104C00008CB580618CBD8CB580648CBD61E08DE01D
:104C10000E94B61161E08BE00E94B6118091CC0336
:104C20008F5F8093CC03CFBFCF9108958091010413
:104C300090E020910204821B910908959091020452
:104C400080910104981750F4E92FF0E0ED5FFB4FDD
:104C5000208130E09F5F9093020402C02FEF3FEF6E
:104C6000C9010895E091020480910104E81730F42D
:104C7000F0E0ED5FFB4F808190E008958FEF9FEFB4
:104C800008950895CF93DF93EC01E091D903F0915B
:104C9000DA033097F1F090910204809101049817A3
:104CA000C0F090E0292F30E02617370754F4DE01DA
:104CB000A20FB31F4C91D901AD5FBB4F4C939F5FC7
:104CC000F1CF1092020460930104CB01DF91CF91E8
:104CD0000994DF91CF910895E091DB03F091DC031B
:104CE000309729F01092DF031092DE0309940895A3
:104CF000CF92DF92EF92FF920F931F93CF93DF93A8
:104D00007C01CB018A012091DD03222389F0EB0194
:104D10006B01C40ED51ECC15DD0569F06991D70174
:104D2000ED91FC910190F081E02DC7010995F3CF41
:104D3000642F0E946227C801DF91CF911F910F91CC
:104D4000FF90EF90DF90CF900895CF93DF931F9265
:104D5000CDB7DEB769832091DD032223D1F0209106
:104D6000DE03203240F021E030E0FC013383228377
:104D700080E090E015C08091DF03E82FF0E0E05282
:104D8000FC4F998190838F5F8093DF038093DE03D4
:104D900005C061E0CE0101960E94622781E090E0AB
:104DA0000F90DF91CF910895FC011382128288EE5B
:104DB00093E0A0E0B0E084839583A683B7838CED75
:104DC00091E091838083089510920204109201046F
:104DD0001092DF031092DE030E9423278CE696E2F6
:104DE0000E948F2782E496E20C948A27CB01BA01B5
:104DF0000C944E2781E08093DD03609300041092B1
:104E0000DF031092DE0308950C94FA260F93062F09
:104E100021E04091DE0360EE73E0809100040E9487
:104E2000B0271092DF031092DE031092DD030F9182
:104E3000089561E00C9406278DEC93E00C94D42641
:104E40000E948D2D08951092960481E08093940421
:104E50001092930461E082E10E94F21161E083E12B
:104E60000E94F211E9EBF0E080818E7F80838081E7
:104E70008D7F808380E28093B80085E48093BC00BE
:104E80000895ECEBF0E080818A7B808360E082E132
:104E90000E94F21160E083E10C94F2119B01AC01DD
:104EA00060E072E18AE790E00E94692BDA01C901B3
:104EB0004097A109B109B695A795979587958093D5
:104EC000B800089540914504262F30E0240F311D8D
:104ED00021323105DCF4209196042430C9F4FC0120
:104EE00080E090E0861758F4309145042191DC0170
:104EF000A95BBB4FA30FB11D2C930196F3CF8091FB
:104F00004504680F6093450480E0089581E00895AA
:104F100082E0089590938A04809389040895909381
:104F20008C0480938B04089585EC8093BC001092D0
:104F300096040895CF93DF9391E090938E04882395
:104F400061F0C091B800D091BA000E9441270E9440
:104F50002327D093BA00C093B800DF91CF91089572
:104F60004F925F926F927F928F929F92AF92BF9279
:104F7000CF92DF92EF92FF920F931F93CF93DF9325
:104F8000413208F0C6C0122FF42ED72EE62ED82FAD
:104F90000E94F1104B015C01C0919604CC2311F1E9
:104FA00080918F0490919004A0919104B09192040B
:104FB000892B8A2B8B2B81F30E94F11040908F0458
:104FC000509090046090910470909204DC01CB01A9
:104FD00088199909AA09BB09481659066A067B0669
:104FE000D8F683C082E080939604009394048FEFF8
:104FF0008093230410926804F09267049E2DA9E622
:10500000B4E0EE2DFD2D8E2F891B8F1518F48191A4
:105010008D93F9CF1092950490919504DD0FD92BC3
:10502000D093950480919304813089F51092930474
:105030000E94F1106B017C01809195048093BB006C
:1050400080918F0490919004A0919104B09192046A
:10505000892B8A2B8B2BA9F00E94F11080908F0452
:1050600090909004A0909104B0909204DC01CB0148
:105070008C199D09AE09BF0988169906AA06BB06B8
:10508000A0F18091BC0083FDD7CF85EC01C085EEF7
:105090008093BC000E94F1106B017C01112359F137
:1050A00080919604823039F580918F04909190041C
:1050B000A0919104B0919204892B8A2B8B2B71F3D0
:1050C0000E94F11080908F0490909004A090910421
:1050D000B0909204DC01CB018C199D09AE09BF0987
:1050E00088169906AA06BB06C8F680918D040E9410
:1050F0009A27C5E013C0809123048F3F79F08091F7
:105100002304803241F080912304803331F0C4E0E5
:1051100005C0C1E003C0C2E001C0C3E08C2FDF9135
:10512000CF911F910F91FF90EF90DF90CF90BF90A4
:10513000AF909F908F907F906F905F904F90089569
:1051400085ED8093BC0080918F0490919004A09194
:105150009104B09192040796A11DB11D23E0B6956C
:10516000A795979587952A95D1F72091BC0024FFA4
:105170001CC040918F0450919004609191047091F3
:105180009204452B462B472B81F30097A105B105CF
:1051900041F02AE12A95F1F700C00197A109B10970
:1051A000E4CF80918D040C949A2710929604089570
:1051B0001F920F920FB60F9211242F933F934F938C
:1051C0005F936F937F938F939F93AF93BF93EF936F
:1051D000FF938091B900887F803609F49EC078F5EE
:1051E000883209F45DC090F4803109F456C038F477
:1051F000882309F4F5C0883009F44FC0F5C0883120
:1052000009F44EC0803209F45FC0EEC0803409F466
:105210006AC058F4803309F457C0883309F0E4C0F9
:10522000809323040E949427DFC0803509F44FC087
:10523000883509F45DC0883409F0D6C0D3C08839F8
:1052400009F4C4C0A8F4883709F467C038F4883674
:1052500009F463C0803709F460C0C6C0883809F417
:10526000B5C0803909F45FC0803809F0BDC05BC0AB
:10527000803B09F483C038F4803A09F466C0883A68
:1052800009F47CC0B1C0803C09F4A4C0883C09F496
:10529000A1C0883B09F487C0A7C08091950410C0C5
:1052A0009091680480916704981770F5E091680404
:1052B00081E08E0F80936804F0E0E759FB4F808116
:1052C0008093BB0085EC83C0809323048BC0E09166
:1052D000680481E08E0F809368048091BB00F0E049
:1052E000E759FB4F808390916804809167046BC0FD
:1052F000E091680481E08E0F809368048091BB0088
:10530000F0E0E759FB4F80838091940481116AC0DB
:1053100081E08093930484EA5EC083E080939604E6
:1053200010922404CFCF80912404803208F04EC024
:10533000E091240481E08E0F809324048091BB00CF
:10534000F0E0EB5DFB4F8083BDCF0E9494278091FE
:105350002404803230F4E0912404F0E0EB5DFB4F54
:1053600010826091240470E0E0918904F0918A0435
:1053700085E294E009951092240436C084E080937D
:1053800096041092460410924504E0918B04F0912B
:105390008C04099580914504811105C081E08093BA
:1053A000450410924704E091460481E08E0F8093FB
:1053B0004604F0E0E95BFB4F80818093BB00909155
:1053C000460480914504981708F47CCF85E88093C3
:1053D000BC000AC085EC8093BC001092960404C007
:1053E000109223040E94A028FF91EF91BF91AF91EA
:1053F0009F918F917F916F915F914F913F912F91ED
:105400000F900FBE0F901F9018955058BB27AA27DA
:105410000E941D2A0C949C0C0E948E0C38F00E9455
:10542000950C20F039F49F3F19F426F40C948B0C62
:105430000EF4E095E7FB0C94850CE92F0E94AD0C6F
:1054400058F3BA17620773078407950720F079F4B9
:10545000A6F50C94CF0C0EF4E0950B2EBA2FA02DD0
:105460000B01B90190010C01CA01A0011124FF2711
:10547000591B99F0593F50F4503E68F11A16F0400C
:10548000A22F232F342F4427585FF3CF469537950B
:105490002795A795F0405395C9F77EF41F16BA0BD0
:1054A000620B730B840BBAF09150A1F0FF0FBB1F7E
:1054B000661F771F881FC2F70EC0BA0F621F731FC7
:1054C000841F48F4879577956795B795F7959E3F24
:1054D00008F0B0CF9395880F08F09927EE0F9795B5
:1054E000879508950E94A62A08F481E008950E94F5
:1054F000B50C88F09F5798F0B92F9927B751B0F0A5
:10550000E1F0660F771F881F991F1AF0BA95C9F747
:1055100014C0B13091F00E94CF0CB1E008950C940A
:10552000CF0C672F782F8827B85F39F0B93FCCF3BD
:10553000869577956795B395D9F73EF490958095C4
:10554000709561957F4F8F4F9F4F0895990F000879
:10555000550FAA0BE0E8FEEF16161706E807F90745
:10556000C0F012161306E407F50798F0621B730BE0
:10557000840B950B39F40A2661F0232B242B252B61
:1055800021F408950A2609F4A140A6958FEF811D04
:10559000811D08950E94A62A08F48FEF08950E94A5
:1055A000E22A0C949C0C0E948E0C38F00E94950C00
:1055B00020F0952311F00C94850C0C948B0C112485
:1055C0000C94D00C0E94AD0C70F3959FC1F3950F15
:1055D00050E0551F629FF001729FBB27F00DB11D77
:1055E000639FAA27F00DB11DAA1F649F6627B00D07
:1055F000A11D661F829F2227B00DA11D621F739FF0
:10560000B00DA11D621F839FA00D611D221F749FFD
:105610003327A00D611D231F849F600D211D822F44
:10562000762F6A2F11249F5750409AF0F1F088236B
:105630004AF0EE0FFF1FBB1F661F771F881F915098
:105640005040A9F79E3F510580F00C94850C0C94B6
:10565000D00C5F3FE4F3983ED4F386957795679539
:10566000B795F795E7959F5FC1F7FE2B880F911DC2
:105670009695879597F908950E94A62A880B990B0D
:105680000895AA1BBB1B51E107C0AA1FBB1FA61789
:10569000B70710F0A61BB70B881F991F5A95A9F7DB
:1056A00080959095BC01CD01089597FB072E16F4C7
:1056B000009407D077FD09D00E94412B07FC05D04C
:1056C0003EF4909581959F4F0895709561957F4F19
:1056D0000895A1E21A2EAA1BBB1BFD010DC0AA1F33
:1056E000BB1FEE1FFF1FA217B307E407F50720F04B
:1056F000A21BB30BE40BF50B661F771F881F991FC6
:105700001A9469F760957095809590959B01AC010E
:10571000BD01CF010895052E97FB1EF400940E9451
:10572000A22B57FD07D00E94692B07FC03D04EF433
:105730000C94A22B50954095309521953F4F4F4F9B
:105740005F4F089590958095709561957F4F8F4F2D
:105750009F4F0895A29FB001B39FC001A39F700DFA
:10576000811D1124911DB29F700D811D1124911D69
:1057700008950E94AA2BA59F900DB49F900DA49F01
:10578000800D911D11240895EE0FFF1F0590F491D7
:10579000E02D09940F931F93CF93DF9382309105EF
:1057A00010F482E090E0E0919904F0919A0420E0F6
:1057B00030E0A0E0B0E0309719F1408151810281E2
:1057C000138148175907C8F08417950769F4109793
:1057D00031F012960C93129713961C9327C00093E6
:1057E000990410939A0422C02115310519F042172B
:1057F000530718F49A01BD01EF01DF01F801DBCF77
:1058000021153105F9F0281B390B2430310580F4BE
:105810008A819B816115710521F0FB01938382834D
:1058200004C090939A0480939904FE01329644C078
:10583000FE01E20FF31F81939193225031093983C6
:1058400028833AC02091970430919804232B41F487
:105850002091020130910301309398042093970422
:1058600020910001309101012115310541F42DB73E
:105870003EB74091040150910501241B350BE09186
:105880009704F0919804E217F307A0F42E1B3F0B46
:105890002817390778F0AC014E5F5F4F24173507A2
:1058A00048F04E0F5F1F50939804409397048193E4
:1058B000919302C0E0E0F0E0CF01DF91CF911F9122
:1058C0000F910895CF93DF93009709F481C0FC01F5
:1058D000329713821282A0919904B0919A04109782
:1058E00081F420813181820F931F209197043091A0
:1058F00098042817390751F5F0939804E09397041A
:1059000067C0ED0120E030E0CE17DF0740F44A81A8
:105910005B819E0141155105F1F0EA01F5CFD3837A
:10592000C28340815181840F951FC817D90759F44C
:1059300088819981840F951F0296918380838A8143
:105940009B81938382832115310529F4F0939A0476
:10595000E09399043DC0E901FB83EA8349915991A1
:10596000C40FD51FEC17FD0761F480819181840F6E
:10597000951F0296E90199838883828193819B8395
:105980008A83E0E0F0E012968D919C911397009746
:1059900019F0FD01DC01F7CF8D919C9111979D01CC
:1059A0002E5F3F4F820F931F2091970430919804F0
:1059B0002817390769F4309729F410929A04109245
:1059C000990402C013821282B0939804A0939704A2
:1059D000DF91CF9108958F929F92AF92BF92CF9215
:1059E000DF92EF92FF92CF93DF93EC016881798190
:1059F0008A819B81611571058105910521F464E21D
:105A000079ED8BE597E02DE133EF41E050E00E9426
:105A10008B2B49015A019B01AC01A7EAB1E40E941A
:105A2000B92B6B017C01ACEEB4EFA50194010E948F
:105A30009C2DDC01CB018C0D9D1DAE1DBF1DB7FF44
:105A400003C00197A109B04888839983AA83BB83C7
:105A5000BC01CD019F77DF91CF91FF90EF90DF9058
:105A6000CF90BF90AF909F908F9008958F929F920C
:105A7000AF92BF92CF92DF92EF92FF9260910601B8
:105A800070910701809108019091090161157105DC
:105A90008105910521F464E279ED8BE597E02DE134
:105AA00033EF41E050E00E948B2B49015A019B01EA
:105AB000AC01A7EAB1E40E94B92B6B017C01ACEE0A
:105AC000B4EFA50194010E949C2DDC01CB018C0D4B
:105AD0009D1DAE1DBF1DB7FF03C00197A109B048B2
