:100000000C947F050C94A7050C94A7050C94A705E8
:100010000C94A7050C94A7050C94A7050C94A705B0
:100020000C94A7050C94A7050C94A7050C94A705A0
:100030000C94A7050C94A7050C94A7050C94A70590
:100040000C9472100C94A7050C94970D0C94C90D88
:100050000C94A7050C94A7050C94A7050C94A70570
:100060000C94AC2B0C94A7052064793A20002079DD
:100070003A2000783A20007363726F6C6C0030781D
:100080000048656C6C6F2C20776F726C6421005394
:1000900053443133303620616C6C6F636174696F27
:1000A0006E206661696C65640000C001C001C00318
:1000B000E0F3E0FEF87EFF339F1FFC0D701BA03FB6
:1000C000E03FF07CF07070003000000000003E5B0C
:1000D0004F5B3E3E6B4F6B3E1C3E7C3E1C183C7E95
:1000E0003C181C577D571C1C5E7F5E1C00183C187A
:1000F00000FFE7C3E7FF0018241800FFE7DBE7FF76
:1001000030483A060E2629792926407F0505074002
:100110007F05253F5A3CE73C5A7F3E1C1C08081CC3
:100120001C3E7F14227F22145F5F005F5F06097F01
:10013000017F006689956A606060606094A2FFA29A
:100140009408047E040810207E201008082A1C0849
:10015000081C2A08081E101010100C1E0C1E0C3053
:10016000383E3830060E3E0E06000000000000004B
:100170005F00000007000700147F147F14242A7F0B
:100180002A122313086462364956205000080703D8
:1001900000001C2241000041221C002A1C7F1C2A56
:1001A00008083E08080080703000080808080800A9
:1001B0000060600020100804023E5149453E0042A4
:1001C0007F400072494949462141494D3318141274
:1001D0007F1027454545393C4A494931412111099C
:1001E000073649494936464949291E00001400008E
:1001F00000403400000008142241141414141400A8
:100200004122140802015909063E415D594E7C12F3
:1002100011127C7F494949363E414141227F41418B
:10022000413E7F494949417F090909013E41415108
:10023000737F0808087F00417F41002040413F0153
:100240007F081422417F404040407F021C027F7F94
:100250000408107F3E4141413E7F090909063E41A5
:1002600051215E7F09192946264949493203017FF8
:1002700001033F4040403F1F2040201F3F40384087
:100280003F631408146303047804036159494D4320
:10029000007F4141410204081020004141417F0498
:1002A000020102044040404040000307080020547F
:1002B0005478407F284444383844444428384444DF
:1002C000287F385454541800087E090218A4A49CAE
:1002D000787F0804047800447D40002040403D00C1
:1002E0007F1028440000417F40007C047804787C23
:1002F000080404783844444438FC1824241818248A
:100300002418FC7C08040408485454542404043F72
:1003100044243C4040207C1C2040201C3C40304079
:100320003C44281028444C9090907C4464544C44A5
:100330000008364100000077000000413608000246
:10034000010204023C2623263C1EA1A161123A4070
:1003500040207A38545455592155557941225454E6
:100360007842215554784020545579400C1E5272E1
:1003700012395555555939545454593955545458BE
:100380000000457C410002457D420001457C407DE6
:100390001211127DF0282528F07C54554500205478
:1003A000547C547C0A097F4932494949323A4444D1
:1003B000443A324A4848303A4141217A3A42402050
:1003C00078009DA0A07D3D4242423D3D4040403DE1
:1003D0003C24FF2424487E4943662B2FFC2F2BFF0F
:1003E0000929F620C0887E09032054547941000071
:1003F000447D413048484A32384040227A007A0AE7
:100400000A727D0D19317D2629292F2826292929AF
:100410002630484D402038080808080808080838E1
:100420002F10C8ACBA2F102834FA00007B00000847
:10043000142A142222142A14085500550055AA55CE
:10044000AA55AAFF55FF55FF000000FF001010102D
:10045000FF00141414FF001010FF00FF1010F01024
:10046000F0141414FC001414F700FF0000FF00FF48
:100470001414F404FC141417101F10101F101F1470
:1004800014141F00101010F0000000001F101010B6
:10049000101F10101010F010000000FF10101010AE
:1004A0001010101010FF10000000FF140000FF00DB
:1004B000FF00001F10170000FC04F414141710179D
:1004C0001414F404F40000FF00F7141414141414AA
:1004D00014F700F7141414171410101F101F14141D
:1004E00014F4141010F010F000001F101F00000092
:1004F0001F14000000FC140000F010F01010FF109A
:10050000FF141414FF141010101F00000000F0104E
:10051000FFFFFFFFFFF0F0F0F0F0FFFFFF00000033
:100520000000FFFF0F0F0F0F0F3844443844FC4A00
:100530004A4A347E02020606027E027E0263554962
:1005400041633844443C04407E201E2006027E0263
:100550000299A5E7A5991C2A492A1C4C7201724CE4
:10056000304A4D4D303048784830BC625A463D3EA6
:10057000494949007E0101017E2A2A2A2A2A444447
:100580005F444440514A444040444A51400000FFC7
:100590000103E080FF000008086B6B083612362468
:1005A00036060F090F060000181800000010100092
:1005B0003040FF0101001F01011E00191D1712002C
:1005C0003C3C3C3C0000000000012F2A00A300013D
:1005D0002F2900A30000FF2F270000FF2F26002255
:1005E00000FF2100000103070F1F3F7F0080C0E0D4
:1005F000F0F8FCFEDB40A4A62EAF2000A1C8D3007B
:10060000408DAED580A80000600000000000000012
:1006100000000000000000E00000000000000000FA
:10062000000000000001E0000000000000000000E9
:100630000000000001F000000000000000000000C9
:1006400000000003F00000000000000000000000B7
:10065000000007F0000000000000000000000000A3
:100660000007F8000000000000000000000000008B
:100670000FF800000003C0007E000001E0007F0FC3
:10068000F800000003C000FE000001E000FFEFF8EA
:1006900000000003C000FE000001E000FFFFF800C2
:1006A000000003C000F00000000F007FFE7FC000CC
:1006B0000003C000F00000000F003FFE7FF83FF194
:1006C000FBCFFCFEF3BC3DEFE01FFE7FFF7FFBFF97
:1006D000DFFEFEFFBC3DEFE01FC6FFFF7FFBFFDF3D
:1006E000FEFEFFBC3DEFE00FE3C7FE787BC3DE1EDE
:1006F000F0FFBC3DEF0007FF87FC787BC3DE1EF0F8
:10070000F83C3DEF0001FFFFF0007BC3C01EF0F09E
:100710003C3DEF0001F37FE03FFBC3CFFEF0F03C38
:100720003DEF0003E33F807FFBC3DFFEF0F03C3D85
:10073000EF0007E73C00787BC3DE1EF0F03C3DEFA6
:100740000007FFBE00787BC3DE1EF0F03C3DEF00EB
:1007500007FFFE00787BC3DE1EF0F03C3DEF000F8C
:10076000FFFE007FFBFFDFFEF0F03FFDEFE00FFF3D
:10077000FF007FFBFFDFFEF0F03FFDEFE00FF9FF32
:10078000003E79F9CF9EF0F01F3DE7E01FF1FF003A
:1007900000000000000000000000001F80FF007F3C
:1007A000FFFFFFFFFFFFFFFFFFE01C007F007FFF59
:1007B000FFFFFEB46D888D18E000001F007FFFFF73
:1007C000FFFE95AD7DB577E000000F007FFFFFFFD6
:1007D000FEA5AD9D8D19E0000006007FFFFFFFFE26
:1007E000B5ADEDB57EE00000000000018000000026
:1007F0000000000000000380000000000000000076
:100800000007C000000000000000000007C000005A
:10081000000000000000000FC00000000000000009
:1008200000001FE00000000000000000001FE000CA
:1008300000000000000000003FE000000000000099
:100840000000003FF00000000000000000007FF00A
:10085000000000000000001FF87FF0000000000012
:1008600000003FFE7FF0000000000000003FFF7F1F
:10087000F0000000000000001FFFFBE0000000008F
:100880000000000FFFF9FFC00000000000000FFF94
:10089000F9FFF800000000000007FFF1FFFF000073
:1008A0000000000003FC73FFFF8000000000000157
:1008B000FE3FFFFF80000000000000FF1E0FFF0052
:1008C0000000000000007FFE1FFC00000000000090
:1008D000003FFFFFF8000000000000000FDFFFE016
:1008E000000000000000001F19FFC0000000000011
:1008F00000003F3CFF00000000000000007E7CF88C
:1009000000000000000000007FFE7C0000000000EE
:10091000000000FFFFFC0000000000000000FFFFDF
:10092000FE0000000000000000FFFFFE00000000CD
:1009300000000001FFEFFE0000000000000001FFCA
:10094000CFFE0000000000000003FF07FE000000D3
:100950000000000003FC07FE000000000000000390
:10096000F003FE00000000000000018000FE000017
:1009700000000000000000007E00000000000000F9
:100980000000003E000000000000000000000C001D
:100990000000000000078000FC000003C000000011
:1009A000078001FC000003C0000000078001FC007C
:1009B0000003C0000000078001E00000001E0000EE
:1009C00000078001E00000001E007FE3F79FF9FDB3
:1009D000E7787BDFC0FFF7FFBFFDFDFF787BDFC05F
:1009E000FFF7FFBFFDFDFF787BDFC0F0F787BC3D61
:1009F000E1FF787BDE00F0F787BC3DE1F0787BDE3D
:100A00000000F787803DE1E0787BDE007FF7879F7D
:100A1000FDE1E0787BDE00FFF787BFFDE1E0787B5A
:100A2000DE00F0F787BC3DE1E0787BDE00F0F78781
:100A3000BC3DE1E0787BDE00F0F787BC3DE1E0788B
:100A40007BDE00FFF7FFBFFDE1E07FFBDFC0FFF7CC
:100A5000FFBFFDE1E07FFBDFC07CF3F39F3DE1E002
:100A60003E7BCFC00000000000000000000000FF3F
:100A7000FFFFFFFFFFFFFFFFFFC0FFFFFFFFFD685E
:100A8000DB111A31C0FFFFFFFFFD2B5AFB6AEFC0DD
:100A9000FFFFFFFFFD4B5B3B1A33C0FFFFFFFFFD76
:100AA0006B5BDB6AFDC00000000800020100000370
:100AB00004070000000000000000010204081020EC
:100AC00040800102040810200102040810200404E0
:100AD00004040404040402020202020203030303E6
:100AE000030300000000250028002B000000000088
:100AF000240027002A007B09F90D5C29A50911248F
:100B00001FBECFEFD8E0DEBFCDBF11E0A0E0B1E067
:100B1000E2EDF2E602C005900D92A639B107D9F7D1
:100B200023E0A6E9B1E001C01D92AE34B207E1F7BF
:100B300015E0CEE7D5E004C02197FE010E947F2F8B
:100B4000CB37D107C9F70E94270E0C945C310C9467
:100B5000000008950F931F93CF93DF9386E991E0F0
:100B60000E94D521C0E0D0E060919E0170919F016C
:100B70004091A0015091A1014617570724F4CB01E1
:100B800077FF04C002C0CA0157FD0196959587956D
:100B9000C817D907FCF457FF02C04F5F5F4F559548
:100BA000479577FF02C06F5F7F4F7595679501E0AE
:100BB00010E09E0186E991E00E944E1486E991E0E2
:100BC0000E946C2561E070E080E090E00E94E110FE
:100BD0002296CACF60ED77E080E090E0DF91CF9180
:100BE0001F910F910C94E1100F931F93CF93DF93FC
:100BF00086E991E00E94D521C0919E01D0919F018C
:100C00008091A0019091A1018C179D070CF0EC013F
:100C1000D7FD2196D595C7951C161D063CF540912C
:100C2000A0015091A10157FF02C04F5F5F4F559542
:100C3000479560919E0170919F0177FF02C06F5FA1
:100C40007F4F7595679502E010E09E0186E991E07F
:100C50000E946A1786E991E00E946C2561E070E0CD
:100C600080E090E00E94E1102397D6CF60ED77E01E
:100C700080E090E0DF91CF911F910F910C94E110F3
:100C8000CF92DF92EF92FF920F931F93CF93DF9358
:100C900086E991E00E94D521C0E0D0E00091A0015A
:100CA0001091A101C80117FD0196959587950297AE
:100CB000C817D90754F5CE01880F991F780117FF7F
:100CC00003C023E0E20EF11CF594E794F594E79459
:100CD000081B190B20919E0130919F01281B390B95
:100CE000CC24C394D12CAE01BE0186E991E00E94D0
:100CF000B11786E991E00E946C2561E070E080E028
:100D000090E00E94E1102296C9CF60ED77E080E08C
:100D100090E0DF91CF911F910F91FF90EF90DF90C6
:100D2000CF900C94E110CF92DF92EF92FF920F934D
:100D30001F93CF93DF9386E991E00E94D521C0E015
:100D4000D0E00091A0011091A101C80117FD01960A
:100D5000959587950297C817D90754F5CE01880F46
:100D6000991F780117FF03C023E0E20EF11CF594F0
:100D7000E794F594E794081B190B20919E0130919C
:100D80009F01281B390B42E0C42ED12CAE01BE01BD
:100D900086E991E00E949C1886E991E00E946C250A
:100DA00061E070E080E090E00E94E1102296C9CFFF
:100DB00060ED77E080E090E0DF91CF911F910F919F
:100DC000FF90EF90DF90CF900C94E110AF92BF9224
:100DD000CF92DF92EF92FF920F931F93CF93DF9307
:100DE00086E991E00E94D521C0E0D0E060919E01AB
:100DF00070919F014091A0015091A10146175707A2
:100E000024F4CB0177FF04C002C0CA0157FD01964C
:100E100095958795C817D9075CF557FF02C04F5FB6
:100E20005F4F559547958E01040F151F77FF02C040
:100E30006F5F7F4F759567957E01E60EF71E9B01EC
:100E40002C1B3D0B4C1B5D0BAA24A394B12C6801F9
:100E500086E991E00E94481986E991E00E946C259C
:100E600061E070E080E090E00E94E1102596BECF46
:100E700060ED77E080E090E0DF91CF911F910F91DE
:100E8000FF90EF90DF90CF90BF90AF900C94E11067
:100E9000AF92BF92CF92DF92EF92FF920F931F9388
:100EA000CF93DF9386E991E00E94D52180919E0146
:100EB00090919F01C091A001D091A101C817D907BD
:100EC0000CF4EC01D7FD2196D595C7951C161D068F
:100ED0009CF54091A0015091A10157FF02C04F5FC6
:100EE0005F4F559547958E01040F151F60919E0128
:100EF00070919F0177FF02C06F5F7F4F7595679577
:100F00007E01E60EF71E9B012C1B3D0B4C1B5D0B5F
:100F100092E0A92EB12C680186E991E00E94A31904
:100F200086E991E00E946C2561E070E080E090E04D
:100F30000E94E1102597CACF60ED77E080E090E055
:100F4000DF91CF911F910F91FF90EF90DF90CF90A5
:100F5000BF90AF900C94E1100F931F93CF93DF934A
:100F600086E991E00E94D52161E086E991E00E9446
:100F70003B1FC6E9D1E001E010E01B8B0A8B198B07
:100F8000088B1D861C861F861E8661E870E0CE01D8
:100F90000E94A40E198A188A1B8B0A8B22E030E06B
:100FA00048ED5FE069E470E4CE010E94601062E009
:100FB000CE010E943B1F1B8B0A8B198B088B6EE79F
:100FC00070E0CE010E94750E20E130E04FEE5EEB46
:100FD0006DEA7EEDCE010E94120FCE010E946C25BB
:100FE00060ED77E080E090E0DF91CF911F910F916D
:100FF0000C94E11086E991E00E94D52162E086E937
:1010000091E00E943B1FE6E9F1E081E090E0938BE4
:10101000828B918B808B8AE090E0958784871786FE
:10102000168667E770E0CF010E94A40E86E991E082
:101030000E946C2564E670E080E090E00E94E11080
:101040004FE060E086E991E00E945E2660ED77E087
:1010500080E090E00E94E11086E991E00E94E227A2
:1010600068EE73E080E090E00E94E1104FE060E005
:1010700086E991E00E94BA2660ED77E080E090E09A
:101080000E94E11086E991E00E94E22768EE73E099
:1010900080E090E00E94E11047E060E086E991E0A6
:1010A0000E94162760ED77E080E090E00E94E1105A
:1010B00047E060E086E991E00E947C2760ED77E000
:1010C00080E090E00E94E11086E991E00E94E22732
:1010D00068EE73E080E090E00C94E110CF92DF9234
:1010E000EF92FF920F931F9386E991E00E94D52122
:1010F0008091A0019091A101AC014051510957FF8D
:1011000002C04F5F5F4F5595479580919E0190912A
:101110009F01BC016051710977FF02C06F5F7F4F73
:1011200075956795CC24C394D12C20E1E22EF12C47
:1011300000E110E029EA30E086E991E00E94851B99
:1011400086E991E00E946C2568EE73E080E090E013
:101150001F910F91FF90EF90DF90CF900C94E110D2
:10116000CF93DF93CDB7DEB76E970FB6F894DEBF9F
:101170000FBECDBF3C01462E242E4E018FE1880EBE
:10118000911CFE0131965F0110EF20919E0130917C
:101190009F01032E000C440B550B61EF7FEF8FEF87
:1011A0009FEF0E947211362EF5016083118326E0B5
:1011B00030E040E050E061E070E080E090E00E94CC
:1011C0007211562EF501628363E770E086ED91E0BF
:1011D0000E94750E632D330C770B4AE050E086EDCC
:1011E00091E00E946C0F6EE670E086ED91E00E9447
:1011F000750E4AE050E060EF7FEF86ED91E00E94CF
:101200006C0F68E670E086ED91E00E94750E652D2A
:10121000550C770B4AE050E086ED91E00E94730F89
:10122000F3E0AF0EB11CA814B90409F0AECF312C15
:10123000512C86E991E00E94D521CE0101965C01F6
:10124000F5014181042E000C550B6081062E000C27
:10125000770BCC24C394D12C71018201930186E9D0
:1012600091E00E94851BF3E0AF0EB11CA814B904F5
:1012700039F786E991E00E946C2568EC70E080E027
:1012800090E00E94E110CE0101965C01F501918190
:101290008281890F8183082E000C990B2091A00177
:1012A0003091A10182179307F4F020919E013091B3
:1012B0009F01032E000C440B550B61EF7FEF8FEF66
:1012C0009FEF0E947211F501608380EF818326E019
:1012D00030E040E050E061E070E080E090E00E94AB
:1012E0007211F5016283F3E0AF0EB11C8A149B0406
:1012F00009F49FCFCBCF8F929F92AF92BF92CF92A4
:10130000DF92EF92FF920F9380EA882E86E8982E64
:10131000AA24A394B12C90E8C92E9AE1D92E96E084
:10132000E92EF12C0FEF20E832E040E260E886E998
:1013300091E00E942D200F91FF90EF90DF90CF90D1
:10134000BF90AF909F908F90089586E991E00C94A4
:101350007920CF92DF92EF92FF920F931F93CF935A
:10136000DF9386E991E00E94D521C0E0D0E0809132
:101370009E0190919F01C817D9071CF0C0E0D0E0F2
:101380001EC00091A0011091A10101501109EE248D
:10139000E394F12C9E0140E050E060E070E086E9CB
:1013A00091E00E944A1386E991E00E946C2561E079
:1013B00070E080E090E00E94E1102496D8CF809108
:1013C000A0019091A101C817D907F4F420919E01C2
:1013D00030919F0121503109EE24E394F12C8E01CC
:1013E00040E050E060E070E086E991E00E944A133E
:1013F00086E991E00E946C2561E070E080E090E079
:101400000E94E1102496DBCF6AEF70E080E090E06C
:101410000E94E11086E991E00E94D521C12CD12CD7
:1014200080919E0190919F01C091A001D091A10156
:10143000C816D906ECF4AE0141505109EE24E394EC
:10144000F12C00E010E0960160E070E086E991E0A8
:101450000E944A1386E991E00E946C2561E070E0E9
:1014600080E090E00E94E11084E0C80ED11CD8CF4B
:101470002197D7FD22C020919E0130919F012150DC
:1014800031094091A0015091A10141505109EE2430
:10149000E394F12C8E0160E070E086E991E00E9417
:1014A0004A1386E991E00E946C2561E070E080E0DB
:1014B00090E00E94E1102497DCCF6AEF70E080E0BA
:1014C00090E00E94E11086E991E00E94D521C09051
:1014D0009E01D0909F0181E0C81AD108C091A0015F
:1014E000D091A101D7FC21C0AE01415051096091BA
:1014F0009E0170919F0161507109EE24E394F12CDB
:1015000000E010E0960186E991E00E944A1386E926
:1015100091E00E946C2561E070E080E090E00E9424
:10152000E11084E0C81AD108D9CF2197D7FD22C095
:101530004091A0015091A1014150510960919E013B
:1015400070919F0161507109EE24E394F12C8E019A
:1015500020E030E086E991E00E944A1386E991E0BC
:101560000E946C2561E070E080E090E00E94E11054
:101570002497DCCF6AEF70E080E090E00E94E110F9
:1015800086E991E00E94D521C0E0D0E08091A001E1
:101590009091A101C817D9071CF0C0E0D0E01EC08F
:1015A00060919E0170919F0161507109EE24E39456
:1015B000F12C8E0120E030E040E050E086E991E03F
:1015C0000E944A1386E991E00E946C2561E070E078
:1015D00080E090E00E94E1102496D8CF60919E01B7
:1015E00070919F01C617D707F4F40091A0011091E4
:1015F000A1010150110961507109EE24E394F12C0D
:101600009E0140E050E086E991E00E944A1386E99D
:1016100091E00E946C2561E070E080E090E00E9423
:10162000E1102496DBCF60ED77E080E090E0DF9181
:10163000CF911F910F91FF90EF90DF90CF900C947E
:10164000E110EF92FF920F931F93CF93DF9386E900
:1016500091E00E94D521C0E0D0E00091A00110915E
:10166000A101C80117FD019695958795C817D9075F
:1016700004F5CE01880F991F081B190B20919E01BC
:1016800030919F01281B390BEE24E394F12CAE011D
:10169000BE0186E991E00E94B71386E991E00E94BD
:1016A0006C2561E070E080E090E00E94E1102296FD
:1016B000D4CF60ED77E080E090E0DF91CF911F9193
:1016C0000F91FF90EF900C94E110EF92FF920F9327
:1016D0001F93CF93DF9386E991E00E94D521C0E06C
:1016E000D0E00091A0011091A101C80117FD019661
:1016F00095958795C817D90704F5CE01880F991FCE
:10170000081B190B20919E0130919F01281B390B5A
:1017100042E0E42EF12CAE01BE0186E991E00E9488
:10172000E81286E991E00E946C2561E070E080E0BB
:1017300090E00E94E1102396D4CF60ED77E080E046
:1017400090E0DF91CF911F910F91FF90EF900C945B
:10175000E110CF93DF9386E991E00E94D52161E00B
:1017600086E991E00E943B1F81E090E09093A901FF
:101770008093A8019093A7018093A6011092A301E2
:101780001092A2011092A5011092A4018093AE01C3
:10179000C0E0D0E0CA30D10511F460E201C06C2F86
:1017A00086E991E00E94581E2196C11581E0D80774
:1017B00089F786E991E00E946C2560ED77E080E092
:1017C00090E0DF91CF910C94E11026E040E855E2E3
:1017D00060E070E086ED91E00E94330D01E021E0D1
:1017E0004CE362E086E991E00E94F321811107C099
:1017F0006FE870E086ED91E00E94A40EFFCF86E9CD
:1018000091E00E946C2560ED77E080E090E00E941E
:10181000E11086E991E00E94D52121E030E04AE024
:1018200050E06AE070E086E991E00E943E1F86E9A0
:1018300091E00E946C2560ED77E080E090E00E94EE
:10184000E1100E94A9090E94210B0E94650B0E94D1
:10185000AA050E94F4050E9440060E9493060E9479
:10186000E6060E9448070E94A90B0E94AC070E944E
:10187000FA070E946E0861E086E991E00E94E62086
:1018800068EE73E080E090E00E94E11060E086E99D
:1018900091E00E94E62068EE73E080E090E00E9414
:1018A000E11040E160E189EA90E00E94B008FC01AB
:1018B000918D228D892F90E0805C9F4F821B910932
:1018C0008F7399270895FC01918D828D981731F0BF
:1018D000828DE80FF11D858D90E008958FEF9FEFC9
:1018E0000895FC01918D828D981761F0828DDF0142
:1018F000A80FB11D5D968C91928D9F5F9F73928F03
:1019000090E008958FEF9FEF0895FC01538D448D73
:10191000252F30E0842F90E0821B930B541710F09A
:10192000CF960895019708958FEE9DE0892B49F099
:1019300080E090E0892B29F00E94EF0D81110C943A
:1019400000000895FC01848DDF01A80FB11DA35A8A
:10195000BF4F2C91848D90E001968F739927848FCF
:10196000A689B7892C93A089B1898C9183708064F2
:101970008C93938D848D981306C00288F389E02D93
:1019800080818F7D80830895EF92FF920F931F9344
:10199000CF93DF93EC0181E0888F9B8D8C8D981322
:1019A00005C0E889F989808185FD26C0F62E0B8D5A
:1019B00010E00F5F1F4F0F731127E02E8C8DE81280
:1019C0000CC00FB607FCFACFE889F989808185FF42
:1019D000F5CFCE010E94A20CF1CF8B8DFE01E80F56
:1019E000F11DE35AFF4FF0829FB7F8940B8FEA89FD
:1019F000FB89808180620AC09FB7F894EE89FF89D5
:101A00006083E889F98980818370806480839FBFC7
:101A100081E090E0DF91CF911F910F91FF90EF90C7
:101A20000895CF93DF93EC01888D8823C9F0EA896C
:101A3000FB89808185FD05C0A889B9898C9186FDC7
:101A40000FC00FB607FCF5CF808185FFF2CFA889C4
:101A5000B9898C9185FFEDCFCE010E94A20CE7CF12
:101A6000DF91CF910895CF92DF92EF92FF921F9373
:101A7000CF93DF93EC016A017B01122F60E874E8D9
:101A80008EE190E0A70196010E94152FDA01C901AD
:101A90000197A109B109B695A795979587959C01DE
:101AA000E889F98982E08083211580E13807A8F070
:101AB000E889F989108260E472E48FE090E0A70180
:101AC00096010E94152FDA01C9010197A109B109F8
:101AD000B695A795979587959C01EC85FD853083F4
:101AE000EE85FF852083188EEC89FD891083EA89B5
:101AF000FB89808180618083EA89FB89808188609D
:101B00008083EA89FB89808180688083EA89FB89F8
:101B100080818F7D8083DF91CF911F91FF90EF9027
:101B2000DF90CF90089580E090E0089508951F928F
:101B30000F920FB60F9211242F938F939F93EF93D1
:101B4000FF93E091E601F091E7018081E091EC01E3
:101B5000F091ED0182FD12C090818091EF018F5FC5
:101B60008F732091F001821751F0E091EF01F0E0C6
:101B7000EA52FE4F958F8093EF0101C08081FF9163
:101B8000EF919F918F912F910F900FBE0F901F900B
:101B900018951F920F920FB60F9211242F933F9317
:101BA0004F935F936F937F938F939F93AF93BF9365
:101BB000EF93FF9386ED91E00E94A20CFF91EF91CD
:101BC000BF91AF919F918F917F916F915F914F9155
:101BD0003F912F910F900FBE0F901F90189586ED9B
:101BE00091E00E94570C21E0892B09F420E0822F1C
:101BF0000895E6EDF1E01382128288EE93E0A0E012
:101C0000B0E084839583A683B7838EE091E09183CF
:101C1000808385EC90E09587848784EC90E09787BB
:101C2000868780EC90E0918B808B81EC90E0938BA9
:101C3000828B82EC90E0958B848B86EC90E0978B86
:101C4000868B118E128E138E148E089508950E9425
:101C50001D110E94260E0E94E50BC4E9DCE00E94E3
:101C6000A9052097E1F30E94940CF9CFCF92DF925F
:101C7000EF92FF920F931F93CF93DF936C017A0142
:101C80008B01C0E0D0E0CE15DF0581F0D8016D9169
:101C90008D01D601ED91FC910190F081E02DC601FE
:101CA0000995892B11F02196EECF7E01C701DF91B6
:101CB000CF911F910F91FF90EF90DF90CF900895FB
:101CC0006115710579F0FB0101900020E9F731976A
:101CD000AF01461B570BDC01ED91FC910280F381B3
:101CE000E02D099480E090E00895EF92FF920F9329
:101CF0001F93CF93DF938C017B01C0E0D0E0F7010D
:101D0000EC0FFD1F6491662361F0D801ED91FC9109
:101D10000190F081E02DC8010995892B11F02196E1
:101D2000EECFCE01DF91CF911F910F91FF90EF90F9
:101D30000895DC01ED91FC910190F081E02D099472
:101D40006CE171E00C94600E0F931F93CF93DF93BF
:101D5000EC010E94750E8C01CE010E94A00E800F36
:101D6000911FDF91CF911F910F9108958F929F92B4
:101D7000AF92BF92EF92FF920F931F93CF93DF9397
:101D8000CDB7DEB7A1970FB6F894DEBF0FBECDBFBB
:101D90007C01FA01CB0119A2223008F42AE08E015D
:101DA0000F5D1F4F822E912CA12CB12CBF01A501DC
:101DB00094010E94152FF901CA01015011096A30DE
:101DC00010F4605D01C0695CD8016C93232B242B57
:101DD000252B61F7B801C7010E94600EA1960FB6CE
:101DE000F894DEBF0FBECDBFDF91CF911F910F9151
:101DF000FF90EF90BF90AF909F908F900895211526
:101E0000310541F4DC01ED91FC910190F081E02D70
:101E1000642F09940C94B60E9A01AB0160E070E057
:101E20000C94FF0E0F931F93CF93DF93EC010E944E
:101E3000FF0E8C01CE010E94A00E800F911FDF913A
:101E4000CF911F910F910895CF92DF92EF92FF9261
:101E50000F931F93CF93DF932115310581F4DC019C
:101E6000ED91FC910190F081E02D642FDF91CF91F5
:101E70001F910F91FF90EF90DF90CF9009942A303F
:101E8000310501F577FF1DC06A017B01EC016DE2B0
:101E90000E94990E8C0144275527BA014C195D09FF
:101EA0006E097F092AE0CE010E94B60E800F911FB5
:101EB000DF91CF911F910F91FF90EF90DF90CF9026
:101EC00008952AE0DF91CF911F910F91FF90EF903D
:101ED000DF90CF900C94B60E9A01AB01770F660B92
:101EE000770B0C94240F0F931F93CF93DF93EC0188
:101EF0000E946C0F8C01CE010E94A00E800F911FDA
:101F0000DF91CF911F910F9108957F928F929F92B1
:101F1000AF92BF92CF92DF92EF92FF920F931F93F7
:101F2000CF93DF938C016A017B01722E9A01AB0182
:101F3000C701B6010E94102F882319F06FE171E0EC
:101F400027C046015701E894B7F82FEF3FEF4FE75E
:101F50005FE7C501B4010E94102F81110DC02FEF62
:101F60003FEF4FE75FE7C501B4010E94462D181609
:101F70001CF463E271E00CC02FEF3FEF4FE75FE42A
:101F8000C701B6010E949E2E181694F467E271E014
:101F9000C801DF91CF911F910F91FF90EF90DF90DB
:101FA000CF90BF90AF909F908F907F900C94600ED9
:101FB0002FEF3FEF4FE75FECC701B6010E94462DC0
:101FC00087FDE4CF20E030E0A901C701B6010E94FF
:101FD000462D87FF0AC06DE2C8010E94990EEC01F0
:101FE000F7FAF094F7F8F09402C0C0E0D0E0B12C1A
:101FF00060E070E080E09FE37B1441F020E030E09F
:1020000040E251E40E944B2DB394F6CFA701960114
:102010000E94DA2C6B017C010E94BD2D4B015C01FA
:102020002AE0AB01BC01C8010E94B60EC80FD91F3F
:102030007720B9F1C501B4010E94EC2D9B01AC01E0
:10204000C701B6010E94D92C6B017C016EE2C80168
:102050000E94990EC80FD91F20E030E040E251E401
:10206000C701B6010E94A32E4B015C010E94BD2D49
:102070006B017C014AE050E0C8010E940C0FC80FC0
:10208000D91FB60180E090E00E94EC2D9B01AC01CD
:10209000C501B4010E94D92C6B017C017A947110A6
:1020A000DBCFCE01DF91CF911F910F91FF90EF9089
:1020B000DF90CF90BF90AF909F908F907F900895CA
:1020C0000F931F93CF93DF93EC010E94850F8C0138
:1020D000CE010E94A00E800F911FDF91CF911F9122
:1020E0000F9108951F920F920FB60F9211242F9304
:1020F0003F938F939F93AF93BF938091740290917E
:102100007502A0917602B09177023091730226E0B9
:10211000230F2D3720F40296A11DB11D05C029E81B
:10212000230F0396A11DB11D2093730280937402A7
:1021300090937502A0937602B09377028091780213
:1021400090917902A0917A02B0917B020196A11D33
:10215000B11D8093780290937902A0937A02B09394
:102160007B02BF91AF919F918F913F912F910F90E3
:102170000FBE0F901F9018953FB7F894809178028A
:1021800090917902A0917A02B0917B0226B5A89B2A
:1021900005C02F3F19F00196A11DB11D3FBFBA2FF9
:1021A000A92F982F8827820F911DA11DB11DBC0159
:1021B000CD0143E0660F771F881F991F4A95D1F71D
:1021C00008958F929F92AF92BF92CF92DF92EF923B
:1021D000FF926B017C010E94BC104B015C01C11499
:1021E000D104E104F10401F10E9462290E94BC10B3
:1021F000DC01CB0188199909AA09BB09883E9340E3
:10220000A105B10560F321E0C21AD108E108F10887
:1022100088EE880E83E0981EA11CB11CC114D10465
:10222000E104F10419F7DBCFFF90EF90DF90CF903E
:10223000BF90AF909F908F900895789484B58260FE
:1022400084BD84B5816084BD85B5826085BD85B55A
:10225000816085BDEEE6F0E0808181608083E1E809
:10226000F0E0108280818260808380818160808341
:10227000E0E8F0E0808181608083E1EBF0E0808144
:1022800084608083E0EBF0E0808181608083EAE716
:10229000F0E080818460808380818260808380819F
:1022A0008E7F80838081806880831092C100089532
:1022B000CF92DF92EF92FF92611571058105910532
:1022C00049F06B017C010E94F130A70196010E9448
:1022D000372F03C060E070E0CB01FF90EF90DF90FC
:1022E000CF900895CF92DF92EF92FF920F931F93BA
:1022F000621773078407950784F489019A016B01BB
:102300007C01C901B8016C197D098E099F090E94E1
:1023100058116C0D7D1D8E1D9F1D1F910F91FF90FB
:10232000EF90DF90CF9008952F923F924F925F925F
:102330006F927F928F929F92AF92BF92CF92DF92D5
:10234000EF92FF920F931F93CF93DF9300D000D0B3
:1023500000D0CDB7DEB72C017E836D836A015901B1
:10236000C801FC82EB824801841A950A97FE03C0DB
:1023700091948194910835012D813E81621A730AEE
:1023800077FE03C0719461947108681479045CF459
:102390003A2D2B2D5C01832F922F3D812E81DE82E1
:1023A000CD82C32ED22EAD81BE81AA16BB065CF4AF
:1023B0003C2D2D2D6C01832F922F3D812E81BE82CD
:1023C000AD82A32EB22E85012D813E81021B130BFF
:1023D0001C012C183D0837FE03C0319421943108AC
:1023E000780117FF03C03FEFE31AF30AF594E7946F
:1023F000C816D9062CF08FEF9FEF9A83898304C00B
:10240000A1E0B0E0BA83A9832D813E81A216B30674
:1024100024F1D201ED91FC910484F585E02D2B810E
:102420003C816814790424F44D815E81B60103C0B7
:10243000A6016D817E81C2010995E218F308F7FEBD
:1024400006C029813A81C20ED31EE00EF11E8D8195
:102450009E8101969E838D83D7CF26960FB6F894E2
:10246000DEBF0FBECDBFDF91CF911F910F91FF90C7
:10247000EF90DF90CF90BF90AF909F908F907F9024
:102480006F905F904F903F902F900895DC01ED91F9
:10249000FC910084F185E02D09940F931F93DC01DA
:1024A000ED91FC91048CF58DE02D09951F910F9114
:1024B00008950F931F93DC01ED91FC91068CF78D2D
:1024C000E02D09951F910F910895EF92FF920F93C0
:1024D0001F93DC01ED91FC9100A0F1A1E02D099585
:1024E0001F910F91FF90EF90089508958F929F9202
:1024F000AF92BF92CF92DF92EF92FF920F931F9312
:10250000CF93DF93EC015B014A0169017801E88117
:10251000F9810284F385E02D0995C80CD91C860148
:1025200001501109E881F9810488F589E02D9501B0
:10253000A401B501CE010995E881F9810688F789E2
:10254000E02DCE01DF91CF911F910F91FF90EF9081
:10255000DF90CF90BF90AF909F908F9009948F9213
:102560009F92AF92BF92CF92DF92EF92FF920F9322
:102570001F93CF93DF93EC015B014A016901E8816E
:10258000F9810284F385E02D099595012C0D3D1DFF
:1025900021503109E881F9810488F589E02D78011D
:1025A0008401A401B501CE010995E881F98106886D
:1025B000F789E02DCE01DF91CF911F910F91FF9010
:1025C000EF90DF90CF90BF90AF909F908F90099445
:1025D0004F925F926F927F928F929F92AF92BF9233
:1025E000CF92DF92EF92FF920F931F93CF93DF93DF
:1025F0006C012B015A0139014801DC01ED91FC917C
:102600000284F385E02D0995E201640C751CD60166
:10261000ED91FC91C615D7055CF40088F189E02D99
:1026200087019401A501BE01C60109952196EFCF4E
:102630000688F789E02DC601DF91CF911F910F9198
:10264000FF90EF90DF90CF90BF90AF909F908F90D2
:102650007F906F905F904F900994EF92FF920F934D
:102660001F93DC011A960D911C911B9718962D91C2
:102670003C911997ED91FC9100A0F1A1E02D7B0117
:1026800040E050E060E070E009951F910F91FF90ED
:10269000EF9008958F929F92AF92BF92CF92DF9268
:1026A000EF92FF920F931F93CF93DF934C016B0137
:1026B0005A01E901DC01ED91FC916217730781F485
:1026C0000417150724F48B2D5801042F182F0A190D
:1026D0001B0998012F5F3F4F048CF58DE02D12C030
:1026E0004017510709F52617370724F48D2D690186
:1026F000C62FD82F9E012C193D092F5F3F4F068C06
:10270000F78DE02D8701A501B601C4010995DF9180
:10271000CF911F910F91FF90EF90DF90CF90BF90DE
:10272000AF909F908F9008950284F385E02D0995D6
:10273000D401ED91FC910488F589E02D9E01A5015D
:10274000B601C4010995D401ED91FC910688F78981
:10275000E02DC401DF91CF911F910F91FF90EF9079
:10276000DF90CF90BF90AF909F908F9009946F9221
:102770007F928F929F92AF92BF92CF92DF92EF9211
:10278000FF920F931F93CF93DF93EC014B015A01FC
:1027900069013801E881F9810284F385E02D09950A
:1027A000E881F9810288F389E02D87019601A5016E
:1027B000B401CE010995A501460D571D415051099F
:1027C000E881F9810288F389E02D9601B401CE01F8
:1027D0000995E881F9810088F189E02D9301A5012F
:1027E000B401CE010995C80CD91CB601615071091C
:1027F000E881F9810088F189E02D9301A501CE01DE
:102800000995E881F9810688F789E02DCE01DF91ED
:10281000CF911F910F91FF90EF90DF90CF90BF90DD
:10282000AF909F908F907F906F9009940895FC01D6
:102830006370668B8481958126813781613039F0A0
:10284000633029F091878087338722870895318705
:102850002087938782870895FC01138212828FE27A
:1028600091E0918380837583648357834683718766
:10287000608753874287168A1586148617861686C0
:1028800081E0858B848B2FEF3FEF338B228B318B55
:10289000208B878B108E128E118E08952F923F926F
:1028A0004F925F926F927F928F929F92AF92BF9260
:1028B000CF92DF92EF92FF920F931F93CF93DF930C
:1028C00000D000D000D0CDB7DEB79E838D835B01F2
:1028D0006A01790181E090E03C01621A730A88275D
:1028E0009927821B930B9C01220F331F3C832B8360
:1028F000AD81BE81ED91FC9111970284F385E02DAD
:10290000CD010995A7014C0D5D1DAD81BE81ED91F5
:10291000FC9111970484F585E02D9801B501CD0156
:102920000995A6014E195F09AD81BE81ED91FC911B
:1029300011970484F585E02D9801B501CD01099525
:10294000B7016A0D7B1DAD81BE81ED91FC911197A0
:102950000484F585E02D9801A601CD010995B50106
:102960006E197F09AD81BE81ED91FC9111970484B0
:10297000F585E02D9801A601CD010995812C912CBA
:10298000AD81BE81ED91FC918E149F040CF099C035
:1029900077FC0BC0B1E0EB1AF1082B813C812E5F74
:1029A0003F4F3C832B83620E731E3FEF831A930AC3
:1029B000C401880F991F0196680E791E14012A0C14
:1029C0003B1C0484F585E02D980127014C0C5D1C0F
:1029D000A201B1018D819E810995C50188199909CE
:1029E0009A838983AD81BE81ED91FC911197048416
:1029F000F585E02D9801A201BC01CD010995AD81BD
:102A0000BE81ED91FC9111970484F585E02D98012C
:102A100026014E185F08A201B101CD010995AD81D3
:102A2000BE81ED91FC9111970484F585E02D98010C
:102A3000A20169817A81CD01099524014C0C5D1CAC
:102A4000AD81BE81ED91FC9111970484F585E02D57
:102A50009801A20117012A0C3B1CB101CD01099577
:102A6000AD81BE81ED91FC9111970484F585E02D37
:102A70009801A201C5018E199F099A838983BC011F
:102A8000CD010995260148185908AD81BE81ED9107
:102A9000FC9111970484F585E02D9801A201B10104
:102AA000CD010995AD81BE81ED91FC911197048412
:102AB000F585E02D9801A20169817A81CD01099502
:102AC0005FCF0688F789E02D8D819E8126960FB60F
:102AD000F894DEBF0FBECDBFDF91CF911F910F9154
:102AE000FF90EF90DF90CF90BF90AF909F908F902E
:102AF0007F906F905F904F903F902F9009942F920E
:102B00003F924F925F926F927F928F929F92AF927D
:102B1000BF92CF92DF92EF92FF920F931F93CF93CA
:102B2000DF9300D000D000D0CDB7DEB79E838D8379
:102B30004B013A016901802F21E030E029014C1856
:102B40005D08222433242C183D08220C331CAA24AF
:102B5000A394B12C01E010E0982F94709983A82FD2
:102B6000A270AA83B82FB870BB8381708C83C50113
:102B700001978C159D050CF0A7C057FC08C091E08B
:102B8000C91AD108A2E02A0E311C420C531C0E5F58
:102B90001F4F400E511EB981BB2311F1AD81BE8183
:102BA000ED91FC9111970484F585E02D9701A60124
:102BB000460D571DB4016A0D7B1DCD010995AD81F0
:102BC000BE81ED91FC9111970484F585E02D97016C
:102BD000A3014A0D5B1DB601680D791DCD01099554
:102BE000BA81BB2311F1AD81BE81ED91FC911197AA
:102BF0000484F585E02D9701A3014C195D09B4010A
:102C00006A0D7B1DCD010995AD81BE81ED91FC91D1
:102C100011970484F585E02D9701A3014A195B09FA
:102C2000B601680D791DCD010995BB81BB2311F15A
:102C3000AD81BE81ED91FC9111970484F585E02D65
:102C40009701A3014A0D5B1DB4016C197D09CD01EB
:102C50000995AD81BE81ED91FC9111970484F585B4
:102C6000E02D9701A601460D571DB4016A197B0995
:102C7000CD010995BC81B11104C08FEFA81AB80A23
:102C800076CFAD81BE81ED91FC9111970484F585DD
:102C9000E02D9701A3014A195B09B4016C197D0964
:102CA000CD010995AD81BE81ED91FC911197048410
:102CB000F585E02D9701A3014C195D09B4016A194E
:102CC0007B09CD010995D9CF26960FB6F894DEBFC2
:102CD0000FBECDBFDF91CF911F910F91FF90EF906D
:102CE000DF90CF90BF90AF909F908F907F906F902C
:102CF0005F904F903F902F9008952F923F924F9268
:102D00005F926F927F928F929F92AF92BF92CF927B
:102D1000DF92EF92FF920F931F93CF93DF93CDB784
:102D2000DEB72C970FB6F894DEBF0FBECDBF5C01A7
:102D30003B0158874F833C872B87260181E090E039
:102D40006C01C21AD30AC9019195819591099C0120
:102D5000220F331F3C832B83C70101969E838D83F3
:102D60001A019A8389838B849C84EE24E394F12C4A
:102D7000902F9170998702700A87C7010197AB85E0
:102D8000BC858A179B070CF08CC0D7FC0BC0119731
:102D9000BC87AB872B813C812E5F3F4F3C832B83CD
:102DA000C20ED31EC701880F991F0196C80ED91EE7
:102DB0008B859C858E159F05D4F199859923D1F03B
:102DC0002B853C85220F331FAD81BE812A0F3B1F0F
:102DD000D501ED91FC910088F189E02D82014F81B0
:102DE00058858B859C85481B590BB3016E0D7F1D43
:102DF000C50109959A859923D1F02B853C85220F31
:102E0000331FAD81BE812A0F3B1FD501ED91FC918F
:102E10000088F189E02D82014F8158858B859C8542
:102E2000481B590BB3016E197F09C5010995AB8584
:102E3000BC85A815B90569F4AFEFEA1AFA0AB1E042
:102E40002B1A310829813A812E5F3F4F3A8329831B
:102E500094CFB985BB2379F0D501ED91FC91008821
:102E6000F189E02D820129813A81A101B401660D29
:102E7000771DC5010995BA85B11103C08B849C8467
:102E8000DBCFB30168197909D501ED91FC91008878
:102E9000F189E02D820129813A81A101C5010995BD
:102EA000EDCF2C960FB6F894DEBF0FBECDBFDF91ED
:102EB000CF911F910F91FF90EF90DF90CF90BF9037
:102EC000AF909F908F907F906F905F904F903F90CA
:102ED0002F9008956F927F928F929F92AF92BF92A0
:102EE000CF92DF92EF92FF920F931F93CF93DF93D6
:102EF000EC014B013A0159016801E881F981028432
:102F0000F385E02D09959501220F331F2F5F3F4F69
:102F1000A3014A195B09E881F9810088F189E02D54
:102F2000B401CE010995E12CF12C03E09501A30138
:102F3000B401CE010E947D16E881F9810688F789E7
:102F4000E02DCE01DF91CF911F910F91FF90EF9077
:102F5000DF90CF90BF90AF909F908F907F906F90B9
:102F600009942F923F924F925F926F927F928F922D
:102F70009F92AF92BF92CF92DF92EF92FF920F9308
:102F80001F93CF93DF93CDB7DEB728970FB6F89492
:102F9000DEBF0FBECDBF5C017A8369832A01390190
:102FA00048012017310734F43C832B8337FF0AC0D4
:102FB000C90105C01C830B8317FF04C0C80101961B
:102FC0009C838B83AB81BC81B595A795BC83AB8378
:102FD0008B819C8198878F83E816F90614F4F88614
:102FE000EF82D501ED91FC910284F385E02DC501BE
:102FF00009958F819885880F991F9C838B83730116
:10300000E81AF90A29803A80AF81B8852A0E3B1E5A
:10301000D501ED91FC910288F389E02D860197019D
:10302000A201B101C5010995C401840D951D9E83BE
:103030008D83AC0141505109D501ED91FC9102887D
:10304000F389E02D9701B101C50109958B819C8120
:10305000881A990AAF81B8854A0E5B1ED501ED9199
:10306000FC910088F189E02D9401A20169817A81A7
:10307000C501099589819A81680E791EB301615055
:103080007109D501ED91FC910088F189E02D940141
:10309000A201C5010995760101E02F813885A201C1
:1030A000B101C5010E947F158F819885681A790A40
:1030B00091E0691A710802E02F813885A201B301FD
:1030C000C5010E947F158D809E80AF81B8858A1AC8
:1030D0009B0AB1E08B1A910804E02F813885A40186
:1030E000B301C5010E947F1508E02F813885A40136
:1030F000B101C5010E947F15D501ED91FC910688B3
:10310000F789E02DC50128960FB6F894DEBF0FBEF3
:10311000CDBFDF91CF911F910F91FF90EF90DF9086
:10312000CF90BF90AF909F908F907F906F905F9067
:103130004F903F902F9009942F923F924F925F9221
:103140006F927F928F929F92AF92BF92CF92DF92B7
:10315000EF92FF920F931F93CF93DF9300D000D095
:1031600000D0CDB7DEB74C017C836B833A012901D7
:1031700058011601201731077CF43A83298337FF61
:1031800004C02F5F3F4F3A83298389819A819595A7
:1031900087959A8389830EC01A83098317FF04C019
:1031A000D8011196BA83A98329813A81359527954B
:1031B0003A83298389819A819E838D83E816F90653
:1031C00014F4FE82ED82D401ED91FC910284F3852A
:1031D000E02DC4010995CD80DE80CC0CDD1C2B8157
:1031E0003C818D819E81280F391F3A83298392016A
:1031F0002C193D09D401ED91FC910684F785E02D51
:1032000071018501A30169817A81C4010995AC1816
:10321000BD08B1E0AB1AB1082D813E81620E731E6C
:103220006B817C81640D751D621B730B615071098C
:103230006101750101E0A301C4010E947D1602E055
:103240002D813E81A30169817A81C4010E947D168E
:10325000D401ED91FC910688F789E02DC4012696F2
:103260000FB6F894DEBF0FBECDBFDF91CF911F9197
:103270000F91FF90EF90DF90CF90BF90AF909F9015
:103280008F907F906F905F904F903F902F90099418
:103290002F923F924F925F926F927F928F929F9266
:1032A000AF92BF92CF92DF92EF92FF920F931F9354
:1032B000CF93DF9300D000D0CDB7DEB79C838B8354
:1032C0001B012A0149013801FA82E982DC01ED91F2
:1032D000FC9104A0F5A1E02D75010995AB81BC819D
:1032E000ED91FC91119704A0F5A1E02D86012981B3
:1032F0003A81A301B401CD010995AB81BC81ED9167
:10330000FC91119704A0F5A1E02D82019101A60185
:1033100069817A81CD0109950F900F900F900F90E0
:10332000DF91CF911F910F91FF90EF90DF90CF90A1
:10333000BF90AF909F908F907F906F905F904F90D5
:103340003F902F9008952F923F924F925F926F92ED
:103350007F928F929F92AF92BF92CF92DF92EF9225
:10336000FF920F931F93CF93DF93CDB7DEB7AA974A
:103370000FB6F894DEBF0FBECDBF9A8389837AA7BC
:1033800069A74A0119013801BA8AA98A04171507E1
:1033900054F4C416D506A4F45C834B8348015B0146
:1033A0003AA729A707C0C016D1060CF0AAC17C8293
:1033B0006B825101C814D90484F03601170113C07F
:1033C000DC82CB825701872D3A01802E982E832DE7
:1033D00029A43AA429A78AA706C0340129A43AA49B
:1033E0004601E9A6FAA6A981BA81ED91FC9111974F
:1033F0000284F385E02DCD0109952B813C81821655
:10340000930681F549A55AA5241635065CF099A5C1
:103410008AA54215530514F4922D832D29A43AA4AC
:1034200099A78AA7A214B30444F069A57AA56A15DE
:103430007B0514F4BAA6A9A6510129A53AA52A1913
:103440003B092F5F3F4FA981BA81ED91FC91119704
:103450000288F389E02D09891A89A401B501CD01FB
:1034600009952DC1C10129A53AA5821B930B930192
:1034700028193909650149A55AA5C41AD50A6B81CD
:103480007C81681979097A87698725014218530870
:10349000AB81BC81A619B709BC8BAB8B4B815C811E
:1034A0006416750631F0B30161507109788F6F8B26
:1034B00002C0788E6F8A54011D861E861F86188A68
:1034C0001D821E821F821886A6010D2C000C660B21
:1034D000770B498F5A8F6B8F7C8FA901330F660B47
:1034E000770B4D8F5E8F6F8F78A329853A85032EDA
:1034F000000C440B550B29A33AA34BA35CA3AC01CE
:10350000990F660B770B4DA35EA36FA378A76F8906
:10351000788D6A157B050CF45AC06D817E818F8190
:1035200098852D8D3E8D4F8D58A10E94372FE9A48F
:10353000FAA4E20EF31E6D857E858F85988929A1F8
:103540003AA14BA15CA10E94372F89A59AA5280F0B
:10355000391F4D815E816F8178858DA19EA1AFA1BC
:10356000B8A5480F591F6A1F7B1F4D835E836F8369
:1035700078874D855E856F857889898D9A8DAB8D2D
:10358000BC8D480F591F6A1F7B1F4D875E876F8751
:10359000788B2E153F052CF49E2D8F2D7901292F28
:1035A000382F2E193F092F5F3F4FA981BA81ED9126
:1035B000FC9111970288F389E02D09891A89A501E8
:1035C000B701CD010995BFEFAB1ABB0AA0CF92019D
:1035D000052C000C440B550B2D833E834F835887DD
:1035E000D501A619B70992010E94562F2B013C0163
:1035F000D501A819B90996010E94562F6B017C01CB
:103600004B895C89052E000C660B770B4B8B5C8B12
:103610006D8B7E8B69857A85072E000C880B990B44
:1036200069877A878B879C878B819C818A159B050C
:103630000CF445C0C301B2012B893C894D895E89D8
:103640000E94372F4101820E931EC701B6012985C2
:103650003A854B855C850E94372FA9A5BAA52A0F0C
:103660003B1F4D815E816F817885440E551E661E1D
:10367000771E698D7A8D8B8D9C8DC60ED71EE81EA8
:10368000F91E281539052CF4982D892D4901292F6B
:10369000382F281939092F5F3F4FA981BA81ED9141
:1036A000FC9111970288F389E02D09891A89A501F7
:1036B000B401CD010995BFEFAB1ABB0AB5CFA98103
:1036C000BA81ED91FC9111970688F789E02DCD0123
:1036D000AA960FB6F894DEBF0FBECDBFDF91CF9193
:1036E0001F910F91FF90EF90DF90CF90BF90AF9020
:1036F0009F908F907F906F905F904F903F902F9012
:103700000994DC82CB8257016ECE3F924F925F923A
:103710006F927F928F929F92AF92BF92CF92DF92E1
:10372000EF92FF920F931F93CF93DF93CDB7DEB746
:103730002A970FB6F894DEBF0FBECDBF5C017E8323
:103740006D8358874F8329013701DC01ED91FC918E
:103750000284F385E02D0995C801079697FD079629
:103760009C0193E0359527959A95E1F73A83298353
:10377000812C912CE12CF12C312C8F8198858E0D90
:103780009F1D9C838B83E614F7040CF03DC01A86C2
:103790001986A985BA85A017B10774F5CD01877080
:1037A0009927892B11F0330C0EC0E985FA85F7FDB6
:1037B000379683E0F595E7958A95E1F7E80DF91DD1
:1037C000E40DF51D349037FE11C0D501ED91FC914B
:1037D0000484F585E02D96014B815C816D817E81AD
:1037E00089859A85680F791FC5010995A985BA85CC
:1037F0001196BA87A987CDCFBFEFEB1AFB0A2981B3
:103800003A81820E931EB9CFD501ED91FC910688C5
:10381000F789E02DC5012A960FB6F894DEBF0FBEDA
:10382000CDBFDF91CF911F910F91FF90EF90DF906F
:10383000CF90BF90AF909F908F907F906F905F9050
:103840004F903F9009942F923F924F925F926F92C8
:103850007F928F929F92AF92BF92CF92DF92EF9220
:10386000FF920F931F93CF93DF93CDB7DEB76B9784
:103870000FB6F894DEBF0FBECDBF9B8F8A8F2B0192
:103880005A834983D22E198708874701AB82DC010E
:1038900059962D913C915A972115310509F000C197
:1038A00018968D919C911997681779070CF0E7C1CC
:1038B0001A968D919C911B97481759070CF0DFC100
:1038C0002C2C312CFB0126E0C29EE00DF11D1124B1
:1038D000FD87EC871E161F060CF0D1C14A2D50E063
:1038E0005B874A8783E0440F551F8A95E1F75F871E
:1038F0004E8789819A81840F951F181619060CF03E
:10390000BEC158968C91811104C06FEA6D1508F400
:10391000D394AA8DBB8DED91FC9111970284F38510
:10392000E02DCD010995B5E0DB9EC0011124EC2D01
:10393000F0E0F98BE88B92012B5F3F4F3B8B2A8B9A
:1039400032015D824C82AC01441955095D8B4C8B70
:103950007B81672F70E07F8B6E8B89819A810896BF
:10396000998F888FEC89FD89E60DF71DE753FF4F8E
:10397000D490A981BA81BF83AE835D01D0FE16C009
:10398000AA8DBB8DED91FC91B1E0CB1209C02B81CA
:10399000213031F40484F585E02D2885398519C05E
:1039A0000684F785E02DE884F9841DC04885598593
:1039B0004815590511F1AA8DBB8DED91FC91B1E02F
:1039C000CB120DC02B81213051F40484F585E02DFC
:1039D0009401A501B3018A8D9B8D09950EC00684C3
:1039E000F785E02D74010A851B8591014E815F8169
:1039F0006C817D818A8D9B8D0995D6944E815F81E6
:103A00006E897F89460F571F5F834E837FEFA71A0A
:103A1000B70A888D998DA816B90609F0AFCFAC8189
:103A2000BD81E889F989AE0FBF1FBD83AC83FFEF6D
:103A30006F1A7F0A2A893B896216730609F092CFB2
:103A4000488559854815590509F4F7C0AA8DBB8DDD
:103A5000ED91FC91B1E0CB1212C02B81213079F4B1
:103A6000B2016B5F7F4F0088F189E02D840128E06F
:103A700030E049815A818A8D9B8D0995DEC06C8525
:103A80007D85621973090684F785E02D74010E8522
:103A90001F85910149815A818A8D9B8D0995CDC0E1
:103AA000F9013496E491DE1AF901329685919491E8
:103AB000B7E0DB9E800D911D1124F9012591349111
:103AC000398B288BFC0125903490FC013296749040
:103AD0003196A490329694903196B49031E03C1592
:103AE00018F04B81423068F0692D092C000C770BDF
:103AF0007D836C838B2D0B2C000C990B9F838E8305
:103B000004C01F821E821D821C82AA8DBB8DED9176
:103B1000FC9111970284F385E02DCD010995612C6C
:103B2000D12C812CFB81EF2FF0E0FB87EA872C2D35
:103B300030E03D872C8749815A814B0D511DB7FCE0
:103B40005A955D8B4C8BB201690D711D97FC7A956E
:103B50007F8B6E8B8A1408F070C0282D30E04E8168
:103B60005F81420F531FAA85BB85A49FC001A59FFB
:103B7000900DB49F900D1124E981FA81E80FF91F8F
:103B8000FF87EE87862D912C4C895D89420F531F4C
:103B90005B8B4A8B971408F04DC0BB24B394B80ECE
:103BA000877041F4C1010196E889F989E20DF31D9E
:103BB000D4901C01D7FE3AC051E0C51216C06B81EB
:103BC000613099F4AA8DBB8DED91FC91119704841D
:103BD000F585E02D288539854A895B896E897F893D
:103BE000690D711DCD01099521C08C819D81890DC3
:103BF000911DEC85FD858E9FB0018F9F700D9E9F5E
:103C0000700D1124640D751DAA8DBB8DED91FC9175
:103C100011970684F785E02DE884F9840A851B85D1
:103C20002C853D854E855F85CD010995DD0C9394EE
:103C30008B2DB0CF670C83948DCFAA8DBB8DED916A
:103C4000FC9111970688F789E02DCD016B960FB690
:103C5000F894DEBF0FBECDBFDF91CF911F910F91C2
:103C6000FF90EF90DF90CF90BF90AF909F908F909C
:103C70007F906F905F904F903F902F9009946B963C
:103C80000FB6F894DEBF0FBECDBFDF91CF911F916D
:103C90000F91FF90EF90DF90CF90BF90AF909F90EB
:103CA0008F907F906F905F904F903F902F900895EE
:103CB0008F929F92AF92CF92EF92FF920F931F93AA
:103CC000CF93DF93EC01262F898D9A8D009709F011
:103CD00042C06A3059F41D861C862D898E859F85C9
:103CE00038E0239F800D911D112443C06D3009F4ED
:103CF000AAC08F898823C9F03C898C859D8546E0C0
:103D0000349F800D911D1124488559854817590706
:103D100064F41D861C863D898E859F8548E0349F0E
:103D2000800D911D11249F878E87EA88FB88088962
:103D300019894E855F856C857D85AD88CC88CE01DF
:103D40000E94231C2C898C859D8536E0239F800D45
:103D5000911D11243EC06A3079F41D861C862D8980
:103D6000FC013896E4918E859F852E9F800D911DD4
:103D700011249F878E8767C06D3009F464C0FC01F1
:103D800034963491631708F45EC03296E491E617D6
:103D900008F459C0462F431B342FFC0132968590FE
:103DA000949047E0349F800C911C1124F4013296CA
:103DB00034913196E491332311F0E1110DC0F401F7
:103DC0003496E4912C898C859D85E29F800D911D10
:103DD00011249D878C8737C0F401359644915F8903
:103DE000552319F15C89E32FF0E0E40FF11D47FD45
:103DF000FA955E9FB0015F9F700D11244C855D8523
:103E0000460F571F688579856417750774F41D86FA
:103E10001C863D89FC013896E4918E859F853E9FE6
:103E2000800D911D11249F878E87EA88FB88088961
:103E300019894E855F856C857D85AD88CC88CE01DE
:103E40000E94231CBCCF81E090E0DF91CF911F91B5
:103E50000F91FF90EF90CF90AF909F908F9008952B
:103E6000611101C061E0FC01648B411101C041E0BE
:103E7000FC01458B0895462F0C94301FFC0177FD03
:103E8000B9C080859185681779070CF0B3C057FDDC
:103E9000B1C082859385481759070CF0089586892B
:103EA000823079F484819581DC01A61BB70BBD01BA
:103EB0006150710986819781DC01A41BB50BAD01AE
:103EC0000EC0833009F084C064277527CA01862795
:103ED00097276827792746815781481B590B4150FE
:103EE00051092130310531F048F12230310509F412
:103EF0004AC00895CA0157FD07969C01A3E0359575
:103F00002795AA95E1F7A481B5812A9FC0012B9F2F
:103F1000900D3A9F900D1124680F791F078CF0A126
:103F2000E02DE60FF71F4770552781E090E001C0B4
:103F3000880F4A95EAF79081892B48C0CA0157FD3E
:103F400007969C0193E0359527959A95E1F7A48112
:103F5000B5812A9FC0012B9F900D3A9F900D11248F
:103F6000680F791F078CF0A1E02DE60FF71F47704F
:103F7000552781E090E001C0880F4A95EAF78095C7
:103F80009081892323C0CA0157FD07969C0183E0D5
:103F9000359527958A95E1F7A481B5812A9FC001BF
:103FA0002B9F900D3A9F900D1124680F791F078C5D
:103FB000F0A1E02DE60FF71F4770552781E090E054
:103FC00001C0880F4A95EAF7908189278083089578
:103FD000813009F086CF6427752746275727642745
:103FE000752784819581DC01A61BB70BBD0161504B
:103FF000710977CF089520917E02222399F04FB75F
:10400000F89420917E02213059F42DB320937C0244
:104010003DB320917D02209523232DBB4FBF02C0CD
:1040200040937C028CBD9DBD08958EBD00000DB4F3
:1040300007FEFDCF8EB5089580917E02882361F042
:104040009FB7F89420917E0280917C02213019F470
:104050008DBB9FBF08958FBF08954F925F926F925F
:104060007F928F929F92AF92BF92CF92DF92EF9208
:10407000FF920F93CF93DF93CDB7DEB73C012901B9
:1040800050E070E00E942C148BE591E0F3019183E5
:104090008083148E138E4114510411F0C20102C0AA
:1040A00080E892E0F301968F858F10A2178E8FEF34
:1040B00084A385A386A387A300A7C5AAD6AAE7AA37
:1040C000F0AE81AE92AEA3AEB4AE80E586AF81E035
:1040D00087AFDF91CF910F91FF90EF90DF90CF905E
:1040E000BF90AF909F908F907F906F905F904F9018
:1040F00008952BE531E0FC0131832083878D90A169
:10410000009711F00C941D3008951F93CF93DF9307
:10411000FC01858D968D009719F1162FEF0161A195
:10412000062E000C770B0E9444298D8D9E8DDC019C
:10413000ED91FC910190F081E02D60E009958D8D6D
:104140009E8DDC01ED91FC910190F081E02D612FBD
:1041500009958D8D9E8DDF91CF911F910C945929DA
:10416000A5A5B6A59C9183A9809589238C93838D61
:10417000948D892B31F0862FDF91CF911F910C9474
:10418000152028E030E080E8A1A5B2A591A9462F2E
:10419000482319F04C91942B03C04C919095942393
:1041A0009C93A3A5B4A54C9192A9942B9C93A3A5F1
:1041B000B4A54C9192A9909594239C9386952150F7
:1041C000310911F7DF91CF911F9108951F93CF937C
:1041D000DF93EC01162F8D8D9E8D009739F04DA940
:1041E0005EA96FA978AD0E9436290FC08B8D9C8D7A
:1041F000892B21F08EAD9FAD0E94FB1FEFA5F8A982
:1042000090818CA9809589238083111102C066EA70
:1042100001C067EACE010E9485208D8D9E8D00979A
:1042200049F049AD5AAD6BAD7CADDF91CF911F9197
:104230000C943629EFA5F8A990818CA9892B80834D
:104240008B8D9C8D892B29F0DF91CF911F910C9440
:104250001C20DF91CF911F910895BF92CF92DF92E2
:10426000EF92FF920F931F93CF93DF93EC01B62E43
:10427000072F142F8D8D9E8D009709F452C069A1D0
:10428000062E000C770B0E9444298D8D9E8DDC013B
:10429000ED91FC910190F081E02D60E00995CB2C2F
:1042A000D02EEE24E394F12C8D8D9E8D112371F18F
:1042B000B0E2EB16F104B8F00E94592969A1062E6C
:1042C000000C770B8D8D9E8D0E9444298D8D9E8DC7
:1042D000DC01ED91FC910190F081E02D60E0099509
:1042E000EE24E394F12C8D8D9E8DF6016491DC011A
:1042F000ED91FC910190F081E02D0995BFEFEB1A53
:10430000FB0A1150F60131966F01CECFDF91CF91AC
:104310001F910F91FF90EF90DF90CF90BF900C9482
:104320005929EDA5FEA590818BA9809589238083CD
:10433000E62EF72E112379F1F70184912B8D3C8D18
:10434000232B39F00E9415201150C70101967C01E2
:10435000F1CF28E030E040E8E9A5FAA599A9582F67
:10436000542319F05081952B03C0508190959523CB
:104370009083EBA5FCA550819AA9952B9083EBA582
:10438000FCA550819AA9909595239083469521503C
:10439000310911F7D9CFDF91CF911F910F91FF9084
:1043A000EF90DF90CF90BF900895FC0186819781B8
:1043B0009C01295F3F4F37FF02C0295F3F4F83E0D9
:1043C000359527958A95E1F784819581289FA001ED
:1043D000299F500D389F500D112460E070E0878DAB
:1043E00090A10C944D318F929F92AF92BF92CF9239
:1043F000DF92EF92FF920F931F93CF93DF93EC0125
:10440000862EB42EA22E902E8F8D98A1892BE9F4A2
:104410002E813F81C901079697FD079623E0959568
:1044200087952A95E1F72C813D81AC01429FC0011F
:10443000439F900D529F900D11240E94852F98A3A9
:104440008F8F892B11F480E092C1CE010E94D5217B
:104450008E819F816C817D8181329105E4F0AC0178
:104460004054510957FF02C04F5F5F4F5595479524
:104470006255710977FF02C06F5F7F4F7595679531
:10448000CC24C394D12C80E4E82EF12C02E510E07A
:1044900026EE37E01BC0AC014052510957FF02C065
:1044A0004F5F5F4F559547956357710977FF02C07E
:1044B0006F5F7F4F75956795CC24C394D12CA0E294
:1044C000EA2EF12C03E710E026E036E0CE010E9450
:1044D000851B8AA28D8D9E8D009799F0B11007C023
:1044E0002E813F812032310521F42CE303C02B2D96
:1044F00001C02DE329A3992009F436C10E94242983
:1045000079C061E08EA10E948C2961E08FA10E9498
:104510008C298EA1082E000C990BFC01E253F54F5B
:10452000E491F0E0EE0FFF1FEE51F54F259134912D
:104530003EA72DA7FC01E654F54FE491EBAB8FA10C
:10454000082E000C990BFC01E253F54FE491F0E0CA
:10455000EE0FFF1FEE51F54FA591B491B8ABAFA789
:10456000FC01E654F54FE491ECAB8C91E82BEC9315
:104570008B8D9C8D892B31F0992009F43BC00E94D2
:10458000202838C061E08CA10E948C2961E08DA1B7
:104590000E948C298CA1082E000C990BFC01E2537F
:1045A000F54FE491F0E0EE0FFF1FEE51F54F25912E
:1045B00034913AA729A7FC01E654F54FE491E9AB01
:1045C0008DA1082E000C990BFC01E253F54FE491EC
:1045D000F0E0EE0FFF1FEE51F54FA591B491BCA78F
:1045E000ABA7FC01E654F54FE491EAAB8C91E09562
:1045F000E823EC93AA20F1F088A587FD1BC061E0B9
:104600000E948C2961E088A50E94C82961E070E0C1
:1046100080E090E00E94E11060E088A50E94C82937
:104620006AE070E080E090E00E94E11061E088A51F
:104630000E94C8298D8D9E8D009739F04DA95EA9E5
:104640006FA978AD0E9436290FC08B8D9C8D892B68
:1046500021F08EAD9FAD0E94FB1FEFA5F8A99081C0
:104660008CA980958923808344E062E076E0CE01C6
:104670000E942D216E816150CE010E94852044E070
:104680006EEF75E0CE010E942D218AA1813011F4D8
:1046900060E101C064E1CE010E94852044E06AEF40
:1046A00075E0CE010E942D218FE88DAF8C819D8118
:1046B0008038910571F48E819F8180349105B9F421
:1046C0008AA1813011F48FE901C08FEC8DAF12E126
:1046D0000FC08036910559F48E819F81409739F43F
:1046E0008AA1813011F480E101C08FEA8DAF12E020
:1046F0006AEDCE010E948520612FCE010E948520A7
:1047000061E8CE010E9485206DADCE010E9485201A
:1047100069EDCE010E9485208AA1813011F462E208
:1047200001C061EFCE010E94852046E064EF75E094
:10473000CE010E942D218D8D9E8D009739F049ADBF
:104740005AAD6BAD7CAD0E9436290CC0EFA5F8A91F
:1047500090818CA9892B80838B8D9C8D892B11F066
:104760000E941C2081E003C0A11046CF67CFDF91DB
:10477000CF911F910F91FF90EF90DF90CF90BF905E
:10478000AF909F908F9008950F931F93CF93DF93D7
:10479000DC0157FD64C016968D919C9117974817C0
:1047A00059070CF05CC077FF04C0260F371F60E08C
:1047B00070E01496CD91DC911597CB01820F931F79
:1047C000C817D9071CF49E01261B370B12161306B7
:1047D0000CF045C0FA0157FD3796CF01E3E09595FF
:1047E0008795EA95E1F78C9FF0018D9FF00D9C9FD6
:1047F000F00D11246E0F7F1F5F96ED91FC91909745
:10480000E60FF71F4770552781E090E001C0880F41
:104810004A95EAF7482F0130110539F078F0023057
:104820001105E9F42E0F3F1F13C02E0F3F1FE21793
:10483000F307A9F08081842B8193F9CF80952E0F07
:104840003F1FE217F30759F0908198239193F9CF16
:10485000E217F30721F0808184278193F9CFDF915C
:10486000CF911F910F910895EF92FF920F931F9395
:10487000CF93DF93EC0177FDA5C0EC80FD806E1532
:104880007F050CF09FC057FF04C0240F351F40E088
:1048900050E08E819F81FA01E20FF31F8E179F0770
:1048A0001CF49C01241B350B121613060CF08AC055
:1048B000922F842F8695869586958E9DD0018F9D0B
:1048C000B00D11246A0F7B1FAF8DB8A1A60FB71FC3
:1048D0004770B1F188E0841B482F682F70E0FB011E
:1048E000E451FA4FE491281798F4621B71092FEFF5
:1048F00030E002C0359527956A95E2F7E223013052
:10490000110549F078F00230110509F05BC00EC0C6
:104910000130110519F48C91E82B0AC00130110502
:1049200008F049C0E0958C91E82302C08C91E827FB
:10493000EC93941708F446C02C813D81A20FB31F5D
:10494000E92FE41BE830F8F00230110561F48E2FF6
:104950009C9190959C932C813D81A20FB31F885010
:104960008830B0F70FC081E00115110509F480E02F
:1049700081959E2F8C932C813D81A20FB31F98505F
:104980009830C0F7E770EE23E9F0F0E0EC51FA4F11
:10499000E4910130110539F048F00230110591F42D
:1049A0008C91E82706C08C91E82B03C0E0958C9190
:1049B000E823EC9307C00230110509F4B7CFAE0D20
:1049C000BF1DBECFDF91CF911F910F91FF90EF9050
:1049D00008950F931F93DC015696EC915697E230A1
:1049E00061F0E33009F1E13081F51496ED91FC912D
:1049F0001597E41BF50B319723C0DC011496ED915C
:104A0000FC911597DF01A61BB70BBD01DC011696C3
:104A1000ED91FC911797DF01A41BB50BAD0141503F
:104A20005109621B730B11C0FA01DC0116964D91FE
:104A30005C911797DA01A61BB70BBD01621B730BC4
:104A4000AB01BF010E94342402C00E94C4231F9105
:104A50000F9108950F931F93DC015696EC91569792
:104A6000E23069F0E33011F1E13089F51496ED910F
:104A7000FC911597E41BF50BE21BF30B23C0DC0143
:104A80001496ED91FC911597DF01A61BB70BBD01A4
:104A900061507109DC011696ED91FC911797DF01C9
:104AA000A41BB50BAD01421B530B11C0FA01DC0175
:104AB00016964D915C911797DA01A61BB70BBD01B5
:104AC00061507109AB01BF010E94C42302C00E9462
:104AD00034241F910F910895CF92DF92EF92FF92AD
:104AE0000F931F93CF93DF93EC018D8D9E8D0097D5
:104AF00039F04DA95EA96FA978AD0E9436290FC083
:104B00008B8D9C8D892B21F08EAD9FAD0E94FB1F5C
:104B1000EFA5F8A990818CA980958923808345E031
:104B20006FED75E0CE010E942D216C816150CE01A8
:104B30000E9485202E813F81C901079697FD079627
:104B400023E0959587952A95E1F72C813D81829FF9
:104B50007001839FF00C929FF00C11240F8D18A10F
:104B60008D8D9E8DE00EF11E009709F443C069A162
:104B7000062E000C770B0E9444298D8D9E8DDC0142
:104B8000ED91FC910190F081E02D60E409956801C0
:104B900001E010E08D8D9E8DEC14FD0441F100329A
:104BA0001105B0F00E94592969A1062E000C770B5F
:104BB0008D8D9E8D0E9444298D8D9E8DDC01ED9101
:104BC000FC910190F081E02D60E4099501E010E096
:104BD0008D8D9E8DF60161916F01DC01ED91FC914F
:104BE0000190F081E02D09950F5F1F4FD3CF0E94F8
:104BF000592935C0EDA5FEA590818BA9892B80830D
:104C00000E151F0561F1F80181918F012B8D3C8DEF
:104C1000232B19F00E941520F3CF28E030E040E864
:104C2000E9A5FAA599A9582F542319F05081952B7D
:104C300003C05081909595239083EBA5FCA55081EE
:104C40009AA9952B9083EBA5FCA550819AA99095E4
:104C50009523908346952150310911F7D1CF8D8D41
:104C60009E8D009771F049AD5AAD6BAD7CADDF9173
:104C7000CF911F910F91FF90EF90DF90CF900C9408
:104C80003629EFA5F8A990818CA9892B80838B8D7B
:104C90009C8D892B51F0DF91CF911F910F91FF9047
:104CA000EF90DF90CF900C941C20DF91CF911F915B
:104CB0000F91FF90EF90DF90CF9008950F931F9387
:104CC000CF93DF93EC01062F142F8D8D9E8D0097CF
:104CD00039F04DA95EA96FA978AD0E9436290FC0A1
:104CE0008B8D9C8D892B21F08EAD9FAD0E94FB1F7B
:104CF000EFA5F8A990818CA980958923808342E053
:104D00006DED75E0CE010E942D21602FCE010E9435
:104D1000852060E0CE010E948520612FCE010E9497
:104D2000852043E06AED75E0CE010E942D218D8D36
:104D30009E8D009751F049AD5AAD6BAD7CADDF91C2
:104D4000CF911F910F910C943629EFA5F8A990816E
:104D50008CA9892B80838B8D9C8D892B31F0DF91E1
:104D6000CF911F910F910C941C20DF91CF911F9137
:104D70000F9108950F931F93CF93DF93EC01062FAC
:104D8000142F8D8D9E8D009739F04DA95EA96FA9C6
:104D900078AD0E9436290FC08B8D9C8D892B21F018
:104DA0008EAD9FAD0E94FB1FEFA5F8A990818CA945
:104DB00080958923808342E068ED75E0CE010E94F2
:104DC0002D21602FCE010E94852060E0CE010E943F
:104DD0008520612FCE010E94852043E065ED75E0BE
:104DE000CE010E942D218D8D9E8D009751F049ADF1
:104DF0005AAD6BAD7CADDF91CF911F910F910C94AB
:104E00003629EFA5F8A990818CA9892B80838B8DF9
:104E10009C8D892B31F0DF91CF911F910F910C94D4
:104E20001C20DF91CF911F910F9108950F931F9335
:104E3000CF93DF93EC01062F142F8D8D9E8D00975D
:104E400039F04DA95EA96FA978AD0E9436290FC02F
:104E50008B8D9C8D892B21F08EAD9FAD0E94FB1F09
:104E6000EFA5F8A990818CA980958923808342E0E1
:104E700063ED75E0CE010E942D216E81CE010E946E
:104E8000852042E061ED75E0CE010E942D21602F6A
:104E9000CE010E94852060E0CE010E948520612F16
:104EA000CE010E94852042E06FEC75E0CE010E94A9
:104EB0002D218D8D9E8D009751F049AD5AAD6BAD72
:104EC0007CADDF91CF911F910F910C943629EFA506
:104ED000F8A990818CA9892B80838B8D9C8D892B3F
:104EE00031F0DF91CF911F910F910C941C20DF9135
:104EF000CF911F910F9108950F931F93CF93DF933D
:104F0000EC01062F142F8D8D9E8D009739F04DA941
:104F10005EA96FA978AD0E9436290FC08B8D9C8D3C
:104F2000892B21F08EAD9FAD0E94FB1FEFA5F8A944
:104F300090818CA980958923808342E06DEC75E097
:104F4000CE010E942D216E81CE010E94852042E07B
:104F50006BEC75E0CE010E942D21602FCE010E94E6
:104F6000852060E0CE010E948520612FCE010E9445
:104F7000852042E069EC75E0CE010E942D218D8DE7
:104F80009E8D009751F049AD5AAD6BAD7CADDF9170
:104F9000CF911F910F910C943629EFA5F8A990811C
:104FA0008CA9892B80838B8D9C8D892B31F0DF918F
:104FB000CF911F910F910C941C20DF91CF911F91E5
:104FC0000F910895CF93DF93EC018D8D9E8D009707
:104FD00039F04DA95EA96FA978AD0E9436290FC09E
:104FE0008B8D9C8D892B21F08EAD9FAD0E94FB1F78
:104FF000EFA5F8A990818CA98095892380836EE222
:10500000CE010E9485208D8D9E8D009741F049AD87
:105010005AAD6BAD7CADDF91CF910C943629EFA5E5
:10502000F8A990818CA9892B80838B8D9C8D892BED
:1050300021F0DF91CF910C941C20DF91CF91089546
:10504000CF93CFB7F89480917F02811127C0E8ED0C
:10505000FAE08491E4ECFAE09491E82FF0E0EE0FAE
:10506000FF1FE451F54FA591B491EC91E92321F490
:1050700061E08AE00E94C82961E08AE00E948C29F0
:105080008CB580618CBD8CB580648CBD61E08DE099
:105090000E948C2961E08BE00E948C2980917F0224
:1050A0008F5F80937F02CFBFCF9108958091B4022C
:1050B00090E02091B502821B910908959091B5026C
:1050C0008091B402981750F4E92FF0E0EA54FD4FB4
:1050D000208130E09F5F9093B50202C02FEF3FEF39
:1050E000C9010895E091B5028091B402E81730F447
:1050F000F0E0EA54FD4F808190E008958FEF9FEF3C
:1051000008950895CF93DF93EC01E0918C02F09124
:105110008D023097F1F09091B5028091B40298170A
:10512000C0F090E0292F30E02617370754F4DE0155
:10513000A20FB31F4C91D901AA54BD4F4C939F5F4E
:10514000F1CF1092B5026093B402CB01DF91CF9101
:105150000994DF91CF910895E0918E02F0918F0232
:10516000309729F0109292021092910209940895BA
:10517000CF92DF92EF92FF920F931F93CF93DF9323
:105180007C01CB018A0120919002222389F0EB015E
:105190006B01C40ED51ECC15DD0569F06991D701F0
:1051A000ED91FC910190F081E02DC7010995F3CFBD
:1051B000642F0E94362AC801DF91CF911F910F9171
:1051C000FF90EF90DF90CF900895CF93DF931F92E1
:1051D000CDB7DEB76983209190022223D1F02091D0
:1051E0009102203240F021E030E0FC013383228341
:1051F00080E090E015C080919202E82FF0E0ED563B
:10520000FD4F998190838F5F8093920280939102EA
:1052100005C061E0CE0101960E94362A81E090E04F
:105220000F90DF91CF910895FC011382128288EED6
:1052300093E0A0E0B0E084839583A683B78387E8FA
:1052400091E09183808308951092B5021092B40288
:1052500010929202109291020E94F7298CEA98E231
:105260000E94632A82E898E20C945E2ACB01BA017C
:105270000C94222A81E0809390026093B3021092F2
:1052800092021092910208950C943A290F93062FDE
:1052900021E04091910263E972E08091B3020E94A3
:1052A000842A1092920210929102109290020F9111
:1052B000089561E00C94462980E892E00C9414294A
:1052C0000E9448310895833081F028F4813099F0AC
:1052D0008230A1F008958730A9F08830B9F0843089
:1052E000D1F4809180008F7D03C0809180008F7702
:1052F00080938000089584B58F7702C084B58F7D38
:1053000084BD08958091B0008F7703C08091B00074
:105310008F7D8093B0000895CF93DF9390E0FC01E0
:10532000E654F54F2491FC01E253F54F8491882314
:1053300061F190E0880F991FFC01E451F54FC59190
:10534000D491FC01EE51F54FA591B491611109C0C2
:105350009FB7F8948881209582238883EC912E232F
:105360000BC0623061F49FB7F8948881322F30957A
:1053700083238883EC912E2B2C939FBF06C08FB77D
:10538000F894E8812E2B28838FBFDF91CF91089569
:105390001F93CF93DF93282F30E0F901EA55F54FA3
:1053A0008491F901E654F54FD491F901E253F54F98
:1053B000C491CC23C1F0162F81110E946329EC2FD8
:1053C000F0E0EE0FFF1FEE51F54FA591B4919FB79E
:1053D000F894111104C08C91D095D82302C0EC919F
:1053E000DE2BDC939FBFDF91CF911F910895109228
:1053F000490381E0809347031092460361E082E114
:105400000E94C82961E083E10E94C829E9EBF0E02D
:1054100080818E7F808380818D7F808380E28093F6
:10542000B80085E48093BC000895ECEBF0E0808147
:105430008A7B808360E082E10E94C82960E083E18A
:105440000C94C8299B01AC0160E072E18AE790E00E
:105450000E94152FDA01C9014097A109B109B6953B
:10546000A795979587958093B80008954091F80285
:10547000262F30E0240F311D21323105DCF420913C
:1054800049032430C9F4FC0180E090E0861758F409
:105490003091F8022191DC01A650BD4FA30FB11D40
:1054A0002C930196F3CF8091F802680F6093F80275
:1054B00080E0089581E0089582E0089590933D038F
:1054C00080933C03089590933F0380933E03089597
:1054D00085EC8093BC00109249030895CF93DF932D
:1054E00091E090934103882361F0C091B800D0917E
:1054F000BA000E94152A0E94F729D093BA00C093DF
:10550000B800DF91CF9108954F925F926F927F9292
:105510008F929F92AF92BF92CF92DF92EF92FF92C3
:105520000F931F93CF93DF93413208F0C6C0122F21
:10553000F42ED72EE62ED82F0E94BC104B015C0112
:10554000C0914903CC2311F1809142039091430310
:10555000A0914403B0914503892B8A2B8B2B81F3B7
:105560000E94BC104090420350904303609044035B
:1055700070904503DC01CB0188199909AA09BB0980
:10558000481659066A067B06D8F683C082E08093E7
:105590004903009347038FEF8093D60210921B03B9
:1055A000F0921A039E2DACE1B3E0EE2DFD2D8E2F6F
:1055B000891B8F1518F481918D93F9CF10924803B0
:1055C00090914803DD0FD92BD09348038091460377
:1055D000813089F5109246030E94BC106B017C015A
:1055E000809148038093BB008091420390914303D4
:1055F000A0914403B0914503892B8A2B8B2BA9F0F2
:105600000E94BC108090420390904303A0904403FA
:10561000B0904503DC01CB018C199D09AE09BF098F
:1056200088169906AA06BB06A0F18091BC0083FDEE
:10563000D7CF85EC01C085EE8093BC000E94BC10E2
:105640006B017C01112359F180914903823039F5B6
:105650008091420390914303A0914403B09145038C
:10566000892B8A2B8B2B71F30E94BC1080904203F4
:1056700090904303A0904403B0904503DC01CB011C
:105680008C199D09AE09BF0988169906AA06BB06A2
:10569000C8F6809140030E946E2AC5E013C0809135
:1056A000D6028F3F79F08091D602803241F080910E
:1056B000D602803331F0C4E005C0C1E003C0C2E0CF
:1056C00001C0C3E08C2FDF91CF911F910F91FF900C
:1056D000EF90DF90CF90BF90AF909F908F907F9092
:1056E0006F905F904F90089585ED8093BC008091FE
:1056F000420390914303A0914403B0914503079660
:10570000A11DB11D23E0B695A795979587952A957C
:10571000D1F72091BC0024FF1CC04091420350915E
:1057200043036091440370914503452B462B472B5F
:1057300081F30097A105B10541F02AE12A95F1F71F
:1057400000C00197A109B109E4CF809140030C94F6
:105750006E2A1092490308951F920F920FB60F926E
:1057600011242F933F934F935F936F937F938F9366
:105770009F93AF93BF93EF93FF938091B900887F7E
:10578000803609F49EC078F5883209F45DC090F443
:10579000803109F456C038F4882309F4F5C0883004
:1057A00009F44FC0F5C0883109F44EC0803209F4C5
:1057B0005FC0EEC0803409F46AC058F4803309F445
:1057C00057C0883309F0E4C08093D6020E94682A4B
:1057D000DFC0803509F44FC0883509F45DC08834D6
:1057E00009F0D6C0D3C0883909F4C4C0A8F48837FA
:1057F00009F467C038F4883609F463C0803709F4C7
:1058000060C0C6C0883809F4B5C0803909F45FC0EB
:10581000803809F0BDC05BC0803B09F483C038F418
:10582000803A09F466C0883A09F47CC0B1C0803C73
:1058300009F4A4C0883C09F4A1C0883B09F487C0DE
:10584000A7C08091480310C090911B0380911A0358
:10585000981770F5E0911B0381E08E0F80931B0376
:10586000F0E0E45EFC4F80818093BB0085EC83C058
:105870008093D6028BC0E0911B0381E08E0F809352
:105880001B038091BB00F0E0E45EFC4F80839091AD
:105890001B0380911A036BC0E0911B0381E08E0F04
:1058A00080931B038091BB00F0E0E45EFC4F80839B
:1058B0008091470381116AC081E08093460384EAA6
:1058C0005EC083E0809349031092D702CFCF8091CE
:1058D000D702803208F04EC0E091D70281E08E0FEF
:1058E0008093D7028091BB00F0E0E852FD4F8083A7
:1058F000BDCF0E94682A8091D702803230F4E091B7
:10590000D702F0E0E852FD4F10826091D70270E0BC
:10591000E0913C03F0913D0388ED92E009951092EF
:10592000D70236C084E0809349031092F9021092A6
:10593000F802E0913E03F0913F0309958091F8024F
:10594000811105C081E08093F8021092FA02E09183
:10595000F90281E08E0F8093F902F0E0E650FD4FEE
:1059600080818093BB009091F9028091F802981792
:1059700008F47CCF85E88093BC000AC085EC809356
:10598000BC001092490304C01092D6020E94742BEE
:10599000FF91EF91BF91AF919F918F917F916F9107
:1059A0005F914F913F912F910F900FBE0F901F90DD
:1059B00018955058BB27AA270E94F12C0C94642EEE
:1059C0000E94562E38F00E945D2E20F039F49F3F41
:1059D00019F426F40C94532E0EF4E095E7FB0C9486
:1059E0004D2EE92F0E94752E58F3BA1762077307E0
:1059F0008407950720F079F4A6F50C94972E0EF401
:105A0000E0950B2EBA2FA02D0B01B90190010C01CE
:105A1000CA01A0011124FF27591B99F0593F50F4E6
:105A2000503E68F11A16F040A22F232F342F44273E
:105A3000585FF3CF469537952795A795F040539536
:105A4000C9F77EF41F16BA0B620B730B840BBAF006
:105A50009150A1F0FF0FBB1F661F771F881FC2F771
:105A60000EC0BA0F621F731F841F48F48795779585
:105A70006795B795F7959E3F08F0B0CF9395880F3F
:105A800008F09927EE0F9795879508950E94292E83
:105A900008F481E008950E945F2D0C94642E0E940A
:105AA0005D2E58F00E94562E40F029F45F3F29F0F9
:105AB0000C944D2E51110C94982E0C94532E0E9440
:105AC000752E68F39923B1F3552391F3951B550B6C
:105AD000BB27AA2762177307840738F09F5F5F4FC1
