S012000070696E6F7574546573742E73726563D3
S11300000C9464000C948C000C948C000C948C0064
S11300100C948C000C948C000C948C000C948C002C
S11300200C948C000C948C000C948C000C948C001C
S11300300C948C000C948C000C948C000C948C000C
S11300400C949C040C948C000C94FA020C942C03D5
S11300500C948C000C948C000C948C000C948C00EC
S11300600C948C000C948C00000000080002010029
S1130070000304070000000000000000010204085F
S113008010204080010204081020010204081020FE
S1130090040404040404040402020202020203032A
S11300A003030303000000002300260029000000CE
S11300B00000250028002B00000000002400270079
S11300C02A00B0015C03BA0111241FBECFEFD8E0AF
S11300D0DEBFCDBF11E0A0E0B1E0E6EDF7E102C084
S11300E005900D92AE32B107D9F721E0AEE2B1E04E
S11300F001C01D92A33FB207E1F710E0C3E6D0E0D0
S113010004C02197FE010E94060AC136D107C9F72F
S11301100E948A030C94DE0B0C94000062E08EE0D3
S11301200E94B70562E08FE00E94B70562E080E1BB
S11301300E94B70562E081E10E94B70562E084E1B4
S11301400E94B70562E085E10E94B70561E08DE099
S11301500E94B705609132018DE00E94F30526E00C
S113016040E855E260E070E089E491E00E949A0280
S113017083E391E00C949A06CF92DF92EF92FF9280
S11301801F93CF93DF936091320181E068276093DE
S113019032018DE00E94F3050E94E604C0902E0116
S11301A0D0902F01E0903001F0903101DC01CB01BF
S11301B08C199D09AE09BF098B3F9105A105B105B5
S11301C008F47AC00E94E60460932E0170932F0114
S11301D080933001909331010E94E604AB01BC018D
S11301E02AE030E089E491E00E9440046AE071E092
S11301F089E491E00E94D8038EE00E9422064AE03E
S113020050E0BC0189E491E00E9495046AE071E049
S113021089E491E00E94D8038FE00E9422064AE01C
S113022050E0BC0189E491E00E9495046AE071E029
S113023089E491E00E94D80380E10E9422064AE00A
S113024050E0BC0189E491E00E9495046AE071E009
S113025089E491E00E94D80381E10E9422064AE0E9
S113026050E0BC0189E491E00E9495046AE071E0E9
S113027089E491E00E94D80384E10E9422064AE0C6
S113028050E0BC0189E491E00E9495046AE071E0C9
S113029089E491E00E94D80385E10E9422064AE0A5
S11302A050E0BC0189E491E00E9495046AE071E0A9
S11302B089E491E00E94E50383E391E00E94A109AF
S11302C0C0E0D0E02AE030E040E050E060E070E0E0
S11302D0CB010E946506162F2AE030E040E050E092
S11302E060E070E0CB010E9465066B017C012AE0AE
S11302F030E040E050E060E070E0CB010E94650631
S1130300DC01CB019927AA27BB27DC019927882781
S1130310DD24EE24FF24FE2CED2CDC2CCC248C29B3
S11303209D29AE29BF299C01AD01212BBE0183E388
S113033091E00E942C092196C031D10519F683E37E
S113034091E00E941C0764E170E080E090E0DF919E
S1130350CF911F91FF90EF90DF90CF900C941705F1
S113036022E530E049E050E060E170E083E391E0B1
S11303700C940A0983E391E00C948706FC01918DA7
S1130380228D892F90E0805C9F4F821B91098F738F
S113039099270895FC01918D828D981731F0828DF3
S11303A0E80FF11D858D90E008958FEF9FEF08957C
S11303B0FC01918D828D981761F0828DDF01A80F69
S11303C0B11D5D968C91928D9F5F9F73928F90E08B
S11303D008958FEF9FEF0895FC01538D448D252FD1
S11303E030E0842F90E0821B930B541710F0CF96CB
S11303F008950197089582E593E0892B49F080E000
S113040090E0892B29F00E94520381110C94000082
S11304100895FC01848DDF01A80FB11DA35ABF4FBD
S11304202C91848D90E001968F739927848FA689EF
S1130430B7892C93A089B1898C91837080648C9343
S1130440938D848D981306C00288F389E02D8081F2
S11304508F7D80830895EF92FF920F931F93CF9324
S1130460DF93EC0181E0888F9B8D8C8D981305C000
S1130470E889F989808185FD26C0F62E0B8D10E070
S11304800F5F1F4F0F731127E02E8C8DE8120CC0E5
S11304900FB607FCFACFE889F989808185FFF5CF8B
S11304A0CE010E940902F1CF8B8DFE01E80FF11DF0
S11304B0E35AFF4FF0829FB7F8940B8FEA89FB89C8
S11304C0808180620AC09FB7F894EE89FF896083B7
S11304D0E889F98980818370806480839FBF81E08B
S11304E090E0DF91CF911F910F91FF90EF900895CD
S11304F0CF93DF93EC01888D8823C9F0EA89FB89C7
S1130500808185FD05C0A889B9898C9186FD0FC0BD
S11305100FB607FCF5CF808185FFF2CFA889B98992
S11305208C9185FFEDCFCE010E940902E7CFDF91C8
S1130530CF910895CF92DF92EF92FF921F93CF93C2
S1130540DF93EC016A017B01122F60E874E88EE10D
S113055090E0A70196010E94AB09DA01C901019755
S1130560A109B109B695A795979587959C01E88946
S1130570F98982E08083211580E13807A8F0E889B1
S1130580F989108260E472E48FE090E0A70196019B
S11305900E94AB09DA01C9010197A109B109B69515
S11305A0A795979587959C01EC85FD853083EE850D
S11305B0FF852083188EEC89FD891083EA89FB89E5
S11305C0808180618083EA89FB898081886080835F
S11305D0EA89FB89808180688083EA89FB8980813C
S11305E08F7D8083DF91CF911F91FF90EF90DF90FB
S11305F0CF9008951F920F920FB60F9211242F934C
S11306008F939F93EF93FF93E0915901F0915A01D7
S11306108081E0915F01F091600182FD12C09081C0
S1130620809162018F5F8F7320916301821751F073
S1130630E0916201F0E0E75BFE4F958F80936201E9
S113064001C08081FF91EF919F918F912F910F9025
S11306500FBE0F901F9018951F920F920FB60F9216
S113066011242F933F934F935F936F937F938F93B3
S11306709F93AF93BF93EF93FF9389E491E00E941C
S11306800902FF91EF91BF91AF919F918F917F915B
S11306906F915F914F913F912F910F900FBE0F90EB
S11306A01F90189589E491E00E94BE0121E0892BF6
S11306B009F420E0822F0895E9E4F1E01382128224
S11306C088EE93E0A0E0B0E084839583A683B783AB
S11306D080E191E09183808385EC90E09587848725
S11306E084EC90E09787868780EC90E0918B808BF8
S11306F081EC90E0938B828B82EC90E0958B848BE1
S113070086EC90E0978B868B118E128E138E148E4E
S1130710089508950E9453050E9489030E948E0043
S1130720CBEFD1E00E94BC002097E1F30E94FB01D3
S1130730F9CFCF92DF92EF92FF920F931F93CF9353
S1130740DF936C017A018B01C0E0D0E0CE15DF05A8
S113075081F0D8016D918D01D601ED91FC9101904C
S1130760F081E02DC6010995892B11F02196EECF79
S11307707E01C701DF91CF911F910F91FF90EF9000
S1130780DF90CF9008956115710579F0FB01019018
S11307900020E9F73197AF01461B570BDC01ED91BF
S11307A0FC910280F381E02D099480E090E00895AB
S11307B00C94C303DC01ED91FC910190F081E02DD8
S11307C009946EE171E00C94C3030F931F93CF93CC
S11307D0DF93EC010E94C3038C01CE010E94E1036C
S11307E0800F911FDF91CF911F910F9108958F92E8
S11307F09F92AF92BF92EF92FF920F931F93CF936A
S1130800DF93CDB7DEB7A1970FB6F894DEBF0FBE66
S1130810CDBF7C01FA01CB0119A2223008F42AE0F1
S11308208E010F5D1F4F822E912CA12CB12CBF0184
S1130830A50194010E94AB09F901CA0101501109F3
S11308406A3010F4605D01C0695CD8016C93232B9D
S1130850242B252B61F7B801C7010E94C303A1967D
S11308600FB6F894DEBF0FBECDBFDF91CF911F91BD
S11308700F91FF90EF90BF90AF909F908F9008954D
S11308802115310541F4DC01ED91FC910190F081D9
S1130890E02D642F09940C94F703CF92DF92EF922A
S11308A0FF920F931F93CF93DF932115310581F4AA
S11308B0DC01ED91FC910190F081E02D642FDF913A
S11308C0CF911F910F91FF90EF90DF90CF900994FB
S11308D02A30310501F577FF1DC06A017B01EC0167
S11308E06DE20E94DA038C0144275527BA014C19A2
S11308F05D096E097F092AE0CE010E94F703800F8B
S1130900911FDF91CF911F910F91FF90EF90DF9096
S1130910CF9008952AE0DF91CF911F910F91FF901E
S1130920EF90DF90CF900C94F7039A01AB01770F0F
S1130930660B770B0C944D041F920F920FB60F9217
S113094011242F933F938F939F93AF93BF938091E1
S1130950E7019091E801A091E901B091EA01309199
S1130960E60126E0230F2D3720F40296A11DB11DC8
S113097005C029E8230F0396A11DB11D2093E601AC
S11309808093E7019093E801A093E901B093EA0111
S11309908091EB019091EC01A091ED01B091EE01F9
S11309A00196A11DB11D8093EB019093EC01A093DE
S11309B0ED01B093EE01BF91AF919F918F913F9163
S11309C02F910F900FBE0F901F9018952FB7F8948A
S11309D06091E7017091E8018091E9019091EA0149
S11309E02FBF08953FB7F8948091EB019091EC01EB
S11309F0A091ED01B091EE0126B5A89B05C02F3F53
S1130A0019F00196A11DB11D3FBFBA2FA92F982F30
S1130A108827820F911DA11DB11DBC01CD0143E0AA
S1130A20660F771F881F991F4A95D1F708958F92F3
S1130A309F92AF92BF92CF92DF92EF92FF926B019F
S1130A407C010E94F2044B015C01C114D104E10455
S1130A50F10401F10E94AA090E94F204DC01CB0115
S1130A6088199909AA09BB09883E9340A105B105D3
S1130A7060F321E0C21AD108E108F10888EE880E7B
S1130A8083E0981EA11CB11CC114D104E104F1043B
S1130A9019F7DBCFFF90EF90DF90CF90BF90AF902E
S1130AA09F908F900895789484B5826084BD84B5B6
S1130AB0816084BD85B5826085BD85B5816085BD55
S1130AC0EEE6F0E0808181608083E1E8F0E010826E
S1130AD0808182608083808181608083E0E8F0E0AF
S1130AE0808181608083E1EBF0E080818460808399
S1130AF0E0EBF0E0808181608083EAE7F0E08081D0
S1130B008460808380818260808380818E7F808303
S1130B108081806880831092C1000895833081F0C1
S1130B2028F4813099F08230A1F008958730A9F03B
S1130B308830B9F08430D1F4809180008F7D03C077
S1130B40809180008F7780938000089584B58F779B
S1130B5002C084B58F7D84BD08958091B0008F77E5
S1130B6003C08091B0008F7D8093B0000895CF932F
S1130B70DF9390E0FC01E458FF4F2491FC01E0571F
S1130B80FF4F8491882361F190E0880F991FFC0145
S1130B90E854FF4FC591D491FC01E255FF4FA59154
S1130BA0B491611109C09FB7F8948881209582237C
S1130BB08883EC912E230BC0623061F49FB7F894C4
S1130BC08881322F309583238883EC912E2B2C93AC
S1130BD09FBF06C08FB7F894E8812E2B28838FBF60
S1130BE0DF91CF9108951F93CF93DF93282F30E0A7
S1130BF0F901E859FF4F8491F901E458FF4FD4916A
S1130C00F901E057FF4FC491CC23C1F0162F811195
S1130C100E948E05EC2FF0E0EE0FFF1FE255FF4F10
S1130C20A591B4919FB7F894111104C08C91D095FB
S1130C30D82302C0EC91DE2BDC939FBFDF91CF91D0
S1130C401F910895CF93DF93282F30E0F901E859DD
S1130C50FF4F8491F901E458FF4FD491F901E05713
S1130C60FF4FC491CC2391F081110E948E05EC2F8B
S1130C70F0E0EE0FFF1FEC55FF4FA591B491EC91FE
S1130C80ED2381E090E021F480E002C080E090E078
S1130C90DF91CF910895CF92DF92EF92FF92611589
S1130CA071058105910549F06B017C010E94780B67
S1130CB0A70196010E94CD0903C060E070E0CB015A
S1130CC0FF90EF90DF90CF900895CF92DF92EF9254
S1130CD0FF920F931F93621773078407950784F499
S1130CE089019A016B017C01C901B8016C197D0964
S1130CF08E099F090E944B066C0D7D1D8E1D9F1D44
S1130D001F910F91FF90EF90DF90CF900895CF93B4
S1130D10DF93EC0189859A850E94A40A8E819F81C4
S1130D2097FD05C060E0DF91CF910C94B705DF918A
S1130D30CF910895CF93DF93EC018E819F8197FD2E
S1130D4007C061E00E94B70560E08E810E94F30550
S1130D5081E08983DF91CF910895EF92FF920F9301
S1130D601F93CF93DF93EC017B0189859A850E94C1
S1130D70A40A9E858B85981719F084E090E002C040
S1130D8083E090E08E9D80018F9D100D9E9D100D3F
S1130D9011241D830C83C8010E940C0A9A87898739
S1130DA0009741F0A80160E070E00E94CF0BFB8245
S1130DB0EA8204C01D821C821B821A82DF91CF91B9
S1130DC01F910F91FF90EF900895FC0131E09685FB
S1130DD08385981330E0CB0126E0969587952A9574
S1130DE0E1F7282F23702687CB0144E09695879559
S1130DF04A95E1F783708387AB01569547955695DD
S1130E00479543704487962F9370958791E06F3F81
S1130E10710511F008F090E0908341855285452BCF
S1130E2051F091E0281390E0391729F06281738121
S1130E30CF010C94AD060895CF92DF92EF92FF920A
S1130E400F931F93CF93DF93CDB7DEB729970FB6D8
S1130E50F894DEBF0FBECDBF8C01DC0119968D91D5
S1130E609C911A97892B09F48FC10E94F204F8010E
S1130E70C784D088E188F2886C157D058E059F05AE
S1130E8020F46787708B818B928BF801C784D0889C
S1130E90E188F288DC01CB018C199D09AE09BF09F8
S1130EA08C329140A105B10500F3F894D801149651
S1130EB08D919C9115979A83898319960D90BC9175
S1130EC0A02D7D01EFEFEE1AFE0A8C918987D801DF
S1130ED08C9153960D90BC91A02D882309F41AC1CE
S1130EE01D82AB32B10509F059C09BB1F801858967
S1130EF0982B98879BB1809589238F838F818E83CC
S1130F00898587FF02C088858E8358856F814985CE
S1130F103E812D8189819A81D7015BB9262F3BB906
S1130F2000C046FD252F6BB900C05BB9362F2BB925
S1130F3000C045FD352F6BB900C05BB9262F3BB906
S1130F4000C044FD252F6BB900C05BB9362F2BB907
S1130F5000C043FD352F6BB900C05BB9262F3BB9E8
S1130F6000C042FD252F6BB900C05BB9362F2BB9E9
S1130F7000C041FD352F6BB900C05BB9262F3BB9CA
S1130F8000C040FD252F6BB901975BB9362F2BB9F3
S1130F904D9147FD352F6BB901F6B8C0A532B105A7
S1130FA009F059C095B1F8018589982B988795B1B6
S1130FB0809589238F838F818E83898587FF02C0E3
S1130FC088858E8358856F8149853E812D818981ED
S1130FD09A81D70155B9262F35B900C046FD252F72
S1130FE065B900C055B9362F25B900C045FD352F68
S1130FF065B900C055B9262F35B900C044FD252F69
S113100065B900C055B9362F25B900C043FD352F49
S113101065B900C055B9262F35B900C042FD252F4A
S113102065B900C055B9362F25B900C041FD352F2B
S113103065B900C055B9262F35B900C040FD252F2C
S113104065B9019755B9362F25B94D9147FD352F0F
S113105065B901F65BC0989709F08CC098B1F801A6
S11310608589982B988798B1809589238F838F8160
S11310708E83898587FF02C088858E8358856F811A
S113108049853E812D8189819A81D70158B9262FBE
S113109038B900C046FD252F68B900C058B9362FAD
S11310A028B900C045FD352F68B900C058B9262FAE
S11310B038B900C044FD252F68B900C058B9362F8F
S11310C028B900C043FD352F68B900C058B9262F90
S11310D038B900C042FD252F68B900C058B9362F71
S11310E028B900C041FD352F68B900C058B9262F72
S11310F038B900C040FD252F68B9019758B9362F7B
S113110028B94D9147FD352F68B901F649873E83CB
S11311102D832EC09C91F8018589982B98879C91EA
S1131120809589238F838F818C8388E08B83588576
S11311306F8149853B812C8189819A81F7015C9378
S113114047FD252F2C93262F3A9531F0441F6C939D
S113115000C000C000C0F3CF6C93000038E04191A0
S1131160019769F7F801B48BA38B49873B832C83E0
S11311709A83898378940E94F204D8011F966D9310
S11311807D938D939C93529729960FB6F894DEBF66
S11311900FBECDBFDF91CF911F910F91FF90EF90C4
S11311A0DF90CF9008950F931F93CF93DF93EC01BB
S11311B0162F072F8981882339F08E819F8197FD0F
S11311C003C060E00E94B7051E830F8389818823D2
S11311D041F061E0812F0E94B70560E0812F0E94F9
S11311E0F305812F902FFC01E057FF4FE491F0E0CD
S11311F0EE0FFF1FE255FF4F259134913C8B2B8B53
S1131200FC01E458FF4FE491ED8BDF91CF911F91E6
S11312100F910895EF92FF920F931F93CF93DF9353
S1131220EC017B018A01198218861A8619861F86A9
S1131230188A198A1A8AB9010E94E506B701CE01F3
S11312400E94AD06B801CE01DF91CF911F910F919D
S1131250FF90EF900C94D3087F928F929F92AF925D
S1131260BF92CF92DF92EF92FF920F931F93CF938F
S1131270DF93FC01828193816817790708F053C0DA
S11312804A01AA24BB24782CC32ED42EE52EFF2495
S1131290BC2DA22F8085882361F0889E40011124F3
S11312A0792C8C9D60011124BD2D829F7001112425
S11312B0AF2D9685D385E184F2849D1308C0CB01BC
S11312C0880F991F680F791F6E0D7F1D1CC0660F54
S11312D0771F660F771F6E0D7F1D052F112722279D
S11312E033277B01E90EF11C811102C0202F09C0B4
S11312F090E0809F6001819FD00C909FD00C1124BE
S11313002D2DE701288383859B01280F311DE901D9
S113131078828485EB01C80FD11DB8838585FB01D4
S1131320E80FF11DA083DF91CF911F910F91FF90E2
S1131330EF90DF90CF90BF90AF909F908F907F9071
S11313400895FC014481558160E070E081859285B7
S11313500C94CF0B0895A1E21A2EAA1BBB1BFD010E
S11313600DC0AA1FBB1FEE1FFF1FA217B307E40780
S1131370F50720F0A21BB30BE40BF50B661F771FD8
S1131380881F991F1A9469F76095709580959095B8
S11313909B01AC01BD01CF010895052E97FB1EF4FE
S11313A000940E94E40957FD07D00E94AB0907FC92
S11313B003D04EF40C94E409509540953095219552
S11313C03F4F4F4F5F4F089590958095709561956D
S11313D07F4F8F4F9F4F0895A29FB001B39FC001CD
S11313E0A39F700D811D1124911DB29F700D811D4D
S11313F01124911D08950E94EC09A59F900DB49F9E
S1131400900DA49F800D911D11240895EE0FFF1FD0
S11314100590F491E02D09940F931F93CF93DF93DC
S11314208230910510F482E090E0E091F101F091B6
S1131430F20120E030E0A0E0B0E0309719F1408103
S113144051810281138148175907C8F08417950701
S113145069F4109731F012960C93129713961C931B
S113146027C00093F1011093F20122C02115310528
S113147019F04217530718F49A01BD01EF01DF0177
S1131480F801DBCF21153105F9F0281B390B243085
S1131490310580F48A819B816115710521F0FB017E
S11314A09383828304C09093F2018093F101FE013F
S11314B0329644C0FE01E20FF31F819391932250B0
S11314C03109398328833AC02091EF013091F0012A
S11314D0232B41F420910201309103013093F00158
S11314E02093EF0120910001309101012115310574
S11314F041F42DB73EB74091040150910501241BDE
S1131500350BE091EF01F091F001E217F307A0F43D
S11315102E1B3F0B2817390778F0AC014E5F5F4F45
S11315202417350748F04E0F5F1F5093F001409386
S1131530EF018193919302C0E0E0F0E0CF01DF91ED
S1131540CF911F910F910895CF93DF93009709F4E2
S113155081C0FC01329713821282A091F101B091F3
S1131560F201109781F420813181820F931F209121
S1131570EF013091F0012817390751F5F093F0018C
S1131580E093EF0167C0ED0120E030E0CE17DF0704
S113159040F44A815B819E0141155105F1F0EA0155
S11315A0F5CFD383C28340815181840F951FC8171F
S11315B0D90759F488819981840F951F02969183E4
S11315C080838A819B81938382832115310529F449
S11315D0F093F201E093F1013DC0E901FB83EA835A
S11315E049915991C40FD51FEC17FD0761F480810F
S11315F09181840F951F0296E901998388838281E2
S113160093819B838A83E0E0F0E012968D919C9114
S11316101397009719F0FD01DC01F7CF8D919C9190
S113162011979D012E5F3F4F820F931F2091EF0171
S11316303091F0012817390769F4309729F4109292
S1131640F2011092F10102C013821282B093F001F0
S1131650A093EF01DF91CF9108958F929F92AF9263
S1131660BF92CF92DF92EF92FF92CF93DF93EC0180
S1131670688179818A819B81611571058105910554
S113168021F464E279ED8BE597E02DE133EF41E05D
S113169050E00E94CD0949015A019B01AC01A7EA1F
S11316A0B1E40E94FB096B017C01ACEEB4EFA5012F
S11316B094010E94D90BDC01CB018C0D9D1DAE1D44
S11316C0BF1DB7FF03C00197A109B0488883998360
S11316D0AA83BB83BC01CD019F77DF91CF91FF909B
S11316E0EF90DF90CF90BF90AF909F908F90089530
S11316F08F929F92AF92BF92CF92DF92EF92FF921E
S1131700609106017091070180910801909109018F
S1131710611571058105910521F464E279ED8BE58C
S113172097E02DE133EF41E050E00E94CD094901FB
S11317305A019B01AC01A7EAB1E40E94FB096B01C9
S11317407C01ACEEB4EFA50194010E94D90BDC013D
S1131750CB018C0D9D1DAE1DBF1DB7FF03C00197AE
S1131760A109B0488093060190930701A093080152
S1131770B0930901BC01CD019F77FF90EF90DF90FA
S1131780CF90BF90AF909F908F9008956093060183
S11317907093070180930801909309010895DC0177
S11317A001C06D9341505040E0F70895B7FF0C9489
S11317B0FB090E94FB09821B930B089510E0C3E60A
S11317C0D0E004C0FE010E94060A2196C436D10767
S10917D0C9F7F894FFCFF5
S11317D60000F301200001000000090000000000E1
S11317E62B029903EC017802BE01D801CA010D0A45
S11117F6006E616E00696E66006F766600001C
S9030000FC
