:100000000C949C050C94C4050C94C4050C94AD2967
:100010000C94AD290C94AD290C94C4050C94C40522
:100020000C94C4050C94C4050C94C4050C94C4052C
:100030000C94C4050C94C4050C94C4050C94C4051C
:100040000C94F4150C94C4050C9420130C945213C6
:100050000C94C4050C94C4050C94C4050C94C405FC
:100060000C94312E0C94C40507634236B79BD8A775
:100070001A39685618AEBAAB558C1D3CB7CC5763CD
:10008000BD6DEDFD753EF6177231BF000000803F7B
:1000900008000000BE922449123EABAAAA2ABECD97
:1000A000CCCC4C3E00000080BEABAAAAAA3E000009
:1000B0000000BF000000803F000000000008417801
:1000C000D3BB4387D1133D190E3CC3BD4282AD2B38
:1000D0003E68EC8276BED98FE1A93E4C80EFFFBE30
:1000E00001C4FF7F3F000000000053534431333010
:1000F0003620616C6C6F636174696F6E2066616934
:100100006C656400000000080002010000030407A1
:1001100000000000000000000102040810204080E0
:100120000102040810200102040810200404040441
:100130000404040402020202020203030303030391
:100140000000000023002600290000000000250018
:1001500028002B0000000000240027002A000000D7
:100160000000003E5B4F5B3E3E6B4F6B3E1C3E7C97
:100170003E1C183C7E3C181C577D571C1C5E7F5E45
:100180001C00183C1800FFE7C3E7FF001824180004
:10019000FFE7DBE7FF30483A060E2629792926409B
:1001A0007F050507407F05253F5A3CE73C5A7F3EC7
:1001B0001C1C08081C1C3E7F14227F22145F5F0059
:1001C0005F5F06097F017F006689956A60606060F5
:1001D0006094A2FFA29408047E040810207E2010E0
:1001E00008082A1C08081C2A08081E101010100CE9
:1001F0001E0C1E0C30383E3830060E3E0E06000037
:1002000000000000005F00000007000700147F14DA
:100210007F14242A7F2A1223130864623649562049
:10022000500008070300001C2241000041221C006E
:100230002A1C7F1C2A08083E08080080703000082D
:1002400008080808000060600020100804023E5101
:1002500049453E00427F4000724949494621414993
:100260004D331814127F1027454545393C4A4949FA
:100270003141211109073649494936464949291E64
:100280000000140000004034000000081422411453
:1002900014141414004122140802015909063E41A5
:1002A0005D594E7C1211127C7F494949363E4141CD
:1002B00041227F4141413E7F494949417F09090926
:1002C000013E414151737F0808087F00417F410092
:1002D0002040413F017F081422417F404040407F41
:1002E000021C027F7F0408107F3E4141413E7F098E
:1002F0000909063E4151215E7F09192946264949CF
:10030000493203017F01033F4040403F1F2040200E
:100310001F3F4038403F631408146303047804030C
:100320006159494D43007F414141020408102000BA
:100330004141417F0402010204404040404000032B
:1003400007080020545478407F28444438384444F7
:100350004428384444287F385454541800087E09EF
:100360000218A4A49C787F0804047800447D40000F
:100370002040403D007F1028440000417F40007C29
:10038000047804787C080404783844444438FC1821
:1003900024241818242418FC7C0804040848545405
:1003A000542404043F44243C4040207C1C20402032
:1003B0001C3C4030403C44281028444C9090907C99
:1003C0004464544C440008364100000077000000AB
:1003D0004136080002010204023C2623263C1EA1ED
:1003E000A161123A4040207A38545455592155554C
:1003F00079412254547842215554784020545579FB
:10040000400C1E527212395555555939545454598D
:1004100039555454580000457C410002457D420046
:1004200001457C407D1211127DF0282528F07C5476
:100430005545002054547C547C0A097F493249496F
:1004400049323A4444443A324A4848303A414121D8
:100450007A3A42402078009DA0A07D3D4242423D34
:100460003D4040403D3C24FF2424487E4943662BC8
:100470002FFC2F2BFF0929F620C0887E090320546A
:100480005479410000447D413048484A3238404068
:10049000227A007A0A0A727D0D19317D2629292FC8
:1004A00028262929292630484D40203808080808E0
:1004B00008080808382F10C8ACBA2F102834FA00E2
:1004C000007B000008142A142222142A1408550064
:1004D000550055AA55AA55AAFF55FF55FF00000023
:1004E000FF00101010FF00141414FF001010FF0084
:1004F000FF1010F010F0141414FC001414F700FF97
:100500000000FF00FF1414F404FC141417101F1053
:10051000101F101F1414141F00101010F000000002
:10052000001F101010101F10101010F0100000000D
:10053000FF101010101010101010FF10000000FF1E
:10054000140000FF00FF00001F10170000FC04F45F
:1005500014141710171414F404F40000FF00F71417
:10056000141414141414F700F7141414171410109E
:100570001F101F141414F4141010F010F000001FBA
:10058000101F0000001F14000000FC140000F010F9
:10059000F01010FF10FF141414FF141010101F009F
:1005A000000000F010FFFFFFFFFFF0F0F0F0F0FFA1
:1005B000FFFF0000000000FFFF0F0F0F0F0F384478
:1005C000443844FC4A4A4A347E02020606027E024D
:1005D0007E0263554941633844443C04407E201EFA
:1005E0002006027E020299A5E7A5991C2A492A1C29
:1005F0004C7201724C304A4D4D303048784830BC16
:10060000625A463D3E494949007E0101017E2A2A3F
:100610002A2A2A44445F444440514A444040444AC0
:1006200051400000FF0103E080FF000008086B6BF1
:10063000083612362436060F090F06000018180077
:1006400000001010003040FF0101001F01011E00DA
:10065000191D1712003C3C3C3C0000000000220029
:10066000FF2100000103070F1F3F7F0080C0E0F063
:10067000F8FCFEDB40A4A62EAF2000A1C8D30040AA
:100680008DAED580A80000600000000000000000D2
:10069000000000000000E00000000000000000007A
:1006A0000000000001E00000000000000000000069
:1006B00000000001F0000000000000000000000049
:1006C000000003F000000000000000000000000037
:1006D0000007F00000000000000000000000000023
:1006E00007F8000000000000000000000000000FFC
:1006F000F800000003C0007E000001E0007F0FF85A
:1007000000000003C000FE000001E000FFEFF80061
:10071000000003C000FE000001E000FFFFF8000041
:100720000003C000F00000000F007FFE7FC000004B
:1007300003C000F00000000F003FFE7FF83FF1FB18
:10074000CFFCFEF3BC3DEFE01FFE7FFF7FFBFFDF32
:10075000FEFEFFBC3DEFE01FC6FFFF7FFBFFDFFE9D
:10076000FEFFBC3DEFE00FE3C7FE787BC3DE1EF06B
:10077000FFBC3DEF0007FF87FC787BC3DE1EF0F86F
:100780003C3DEF0001FFFFF0007BC3C01EF0F03CDA
:100790003DEF0001F37FE03FFBC3CFFEF0F03C3DB7
:1007A000EF0003E33F807FFBC3DFFEF0F03C3DEF53
:1007B0000007E73C00787BC3DE1EF0F03C3DEF0015
:1007C00007FFBE00787BC3DE1EF0F03C3DEF000764
:1007D000FFFE00787BC3DE1EF0F03C3DEF000FFF14
:1007E000FE007FFBFFDFFEF0F03FFDEFE00FFFFFBD
:1007F000007FFBFFDFFEF0F03FFDEFE00FF9FF00B1
:100800003E79F9CF9EF0F01F3DE7E01FF1FF0000B9
:10081000000000000000000000001F80FF007FFFBC
:10082000FFFFFFFFFFFFFFFFE01C007F007FFFFFD8
:10083000FFFEB46D888D18E000001F007FFFFFFFF2
:10084000FE95AD7DB577E000000F007FFFFFFFFE56
:10085000A5AD9D8D19E0000006007FFFFFFFFEB5EE
:10086000ADEDB57EE000000000000180000000005A
:1008700000000000000380000000000000000000F5
:1008800007C000000000000000000007C0000000DA
:100890000000000000000FC0000000000000000089
:1008A000001FE00000000000000000001FE000004A
:1008B000000000000000003FE00000000000000019
:1008C00000003FF00000000000000000007FF0008A
:1008D0000000000000001FF87FF000000000000092
:1008E000003FFE7FF0000000000000003FFF7FF0AF
:1008F000000000000000001FFFFBE00000000000FF
:1009000000000FFFF9FFC00000000000000FFFF91A
:10091000FFF800000000000007FFF1FFFF000000EB
:1009200000000003FC73FFFF80000000000001FED8
:100930003FFFFF80000000000000FF1E0FFF0000CF
:1009400000000000007FFE1FFC000000000000000F
:100950003FFFFFF8000000000000000FDFFFE00095
:100960000000000000001F19FFC000000000000090
:10097000003F3CFF00000000000000007E7CF8000B
:10098000000000000000007FFE7C0000000000006E
:100990000000FFFFFC0000000000000000FFFFFE61
:1009A0000000000000000000FFFFFE00000000004B
:1009B000000001FFEFFE0000000000000001FFCF7B
:1009C000FE0000000000000003FF07FE0000000022
:1009D00000000003FC07FE0000000000000003F020
:1009E00003FE00000000000000018000FE00000087
:1009F000000000000000007E000000000000000079
:100A000000003E000000000000000000000C00009C
:100A100000000000078000FC000003C00000000789
:100A20008001FC000003C0000000078001FC000002
:100A300003C0000000078001E00000001E0000006D
:100A4000078001E00000001E007FE3F79FF9FDE74B
:100A5000787BDFC0FFF7FFBFFDFDFF787BDFC0FFC6
:100A6000F7FFBFFDFDFF787BDFC0F0F787BC3DE1FE
:100A7000FF787BDE00F0F787BC3DE1F0787BDE009D
:100A800000F787803DE1E0787BDE007FF7879FFD00
:100A9000E1E0787BDE00FFF787BFFDE1E0787BDEF9
:100AA00000F0F787BC3DE1E0787BDE00F0F787BC23
:100AB0003DE1E0787BDE00F0F787BC3DE1E0787B4C
:100AC000DE00FFF7FFBFFDE1E07FFBDFC0FFF7FFC8
:100AD000BFFDE1E07FFBDFC07CF3F39F3DE1E03E43
:100AE0007BCFC00000000000000000000000FFFFFE
:100AF000FFFFFFFFFFFFFFFFC0FFFFFFFFFD68DB02
:100B0000111A31C0FFFFFFFFFD2B5AFB6AEFC0FF38
:100B1000FFFFFFFD4B5B3B1A33C0FFFFFFFFFD6B89
:100B20005BDB6AFDC000250BE60B3E0D4E0E82130B
:100B3000752C2F0B100C4C0D11241FBECFEFD8E0DD
:100B4000DEBFCDBF11E0A0E0B1E0ECEFF3E602C004
:100B500005900D92A63EB107D9F724E0A6EEB1E0CC
:100B600001C01D92A939B207E1F715E0C9E9D5E046
:100B700004C02197FE010E941430C339D107C9F780
:100B80000E94B0130C94F1310C9400002F923F920C
:100B90004F925F926F927F928F929F92AF92BF928D
:100BA000CF92DF92EF92FF92CF93DF9300D000D0ED
:100BB000CDB7DEB761E070E080E090E00E94A3175F
:100BC0006093ED0126E030E040E050E061E070E04D
:100BD00080E090E00E94BD176093EC0125E030E0DA
:100BE00040E050E061E070E080E090E00E94BD17DE
:100BF0006093EB0123E030E040E050E061E070E022
:100C000080E090E00E94BD17762E6093EA0160912B
:100C1000ED0170E080E090E00E94600F6B017C01CC
:100C2000609116017091170180911801909119013E
:100C30000E94600FA70196010E945B106B017C016E
:100C40006091EC0170E080E090E00E94600F4B0149
:100C50005C016091120170911301809114019091D7
:100C600015010E94600FA50194010E945B104B01C9
:100C70005C016091EB0170E080E090E00E94600F09
:100C80001B012C0160910E0170910F0180911001E8
:100C9000909111010E94600FA20191010E945B10CE
:100CA00069837A838B839C83672D70E080E090E07A
:100CB0000E94600F2B013C0160910A0170910B01B1
:100CC00080910C0190910D010E94600FA30192018F
:100CD0000E945B102B013C01A5019401C701B601E4
:100CE0000E94EE0F29813A814B815C810E94530E54
:100CF000A30192010E94520E0E94310F0F900F909B
:100D00000F900F90DF91CF91FF90EF90DF90CF90F9
:100D1000BF90AF909F908F907F906F905F904F901B
:100D20003F902F900895FC018091ED018083809188
:100D3000EC0181838091EB0182838091EA018383BE
:100D400008952F923F924F925F926F927F928F926F
:100D50009F92AF92BF92CF92DF92EF92FF920F934A
:100D60001F93CF93DF93CDB7DEB766970FB6F89496
:100D7000DEBF0FBECDBF2B013C011092E9011092E6
:100D8000E8011092E7011092E6016091160170915E
:100D9000170180911801909119010E94600F6983D9
:100DA0007A838B839C8360911201709113018091EF
:100DB0001401909115010E94600F6D837E838F83D3
:100DC000988760910E0170910F01809110019091B0
:100DD00011010E94600F6D877E878F87988B6091CD
:100DE0000A0170910B0180910C0190910D010E94FC
:100DF000600F6B017C0122242394312CB101032C60
:100E0000000C880B990B0E94620F9B01AC01698159
:100E10007A818B819C810E945B10698B7A8B8B8B92
:100E20009C8B01E010E0B801012E000C880B990B9F
:100E30000E94620F9B01AC016D817E818F8198853C
:100E40000E945B109B01AC0169897A898B899C891E
:100E50000E94EE0F69877A878B879C8721E030E0BC
:100E60003E8B2D8B2D893E89B901330F880B990B51
:100E70000E94620F9B01AC016D857E858F859889EC
:100E80000E945B109B01AC0169857A858B859C85EE
:100E90000E94530E4B015C01A70196010E94520E65
:100EA0000E94310F4616570668067906B9F020E011
:100EB00030E040E050E4C701B6010E945B109B01A6
:100EC000AC01C501B4010E94520E0E94310F64159D
:100ED00075058605970571F482E001C081E02092D6
:100EE000E9010093E8013D893093E7018093E60131
:100EF00081E017C08D899E8901969E8B8D8B059709
:100F000009F0B0CF0F5F1F4F0630110509F08BCFEE
:100F10009FEF291A390A29E02216310409F06ECF11
:100F200080E066960FB6F894DEBF0FBECDBFDF91AE
:100F3000CF911F910F91FF90EF90DF90CF90BF90D6
:100F4000AF909F908F907F906F905F904F903F9069
:100F50002F900895FC018091E90180838091E80140
:100F600081838091E70182838091E60183830895E4
:100F70008091EE0108958091EE0181508093EE0101
:100F800008958091EE018F5F8093EE01089581E0D6
:100F90008093F00108951092F00108958091F0017E
:100FA00008951092EF01089581E08093EF01089574
:100FB0008091EF0108958FE092E00C94651E2F92CE
:100FC0003F924F925F926F927F928F929F92AF92D9
:100FD000BF92CF92DF92EF92FF920F931F93CF9326
:100FE000DF930E943E1600910202109103022091AD
:100FF000040230910502DC01CB01801B910BA20B96
:10100000B30B00911A0110911B0120911C0130912A
:101010001D01081719072A073B0708F04DC10E9458
:101020003E16609302027093030280930402909331
:101030000502809101028F5F803118F480930102D4
:1010400002C0109201028FE092E00E94A32100E012
:1010500010E039E1C32ED12CE12CF12C42E3842E97
:10106000912CA12CB12C54E6452E512C612C712CC5
:101070000E94B80790E0081719070CF007C180918B
:1010800001021801280E311C8FE028223324003180
:1010900011050CF4DDC0C80140978031910508F4BA
:1010A000D9C040978031910508F4D6C0409780316F
:1010B000910508F4D4C04097409748F440921A0133
:1010C00050921B0160921C0170921D01C3C0C801A7
:1010D00080559109409758F480921A0190921B0113
:1010E000A0921C01B0921D01C0E0DAE0BAC0C801B4
:1010F00080569109409760F4C0921A01D0921B016A
:10110000E0921C01F0921D01C0E0DAE06AE0AAC0A2
:10111000C801805791094097D0F48CE090E0A0E09E
:10112000B0E080931A0190931B01A0931C01B0932F
:101130001D012AE030E040E050E061E070E080E036
:1011400090E00E94BD17D62FC0E060E08BC0C801C0
:1011500080589109409718F586E090E0A0E0B0E053
:1011600080931A0190931B01A0931C01B0931D0161
:101170002AE030E040E050E061E070E080E090E0A4
:101180000E94BD17D62F2AE030E040E050E061E039
:1011900070E080E090E00E94BD17C0E063C0C8012D
:1011A00080599109409738F583E090E0A0E0B0E0E5
:1011B00080931A0190931B01A0931C01B0931D0111
:1011C0002AE030E040E050E061E070E080E090E054
:1011D0000E94BD17D62F2AE030E040E050E061E0E9
:1011E00070E080E090E00E94BD17C62F2AE030E05A
:1011F00040E050E026C081E090E0A0E0B0E08093C5
:101200001A0190931B01A0931C01B0931D012FE0C4
:1012100030E040E050E061E070E080E090E00E946B
:10122000BD17D62F2FE030E040E050E061E070E0E5
:1012300080E090E00E94BD17C62F2FE030E040E034
:1012400050E061E070E080E090E00E94BD170AC0CD
:10125000C0E003C0C0E004C0C5E0D0E002C0C5E00B
:10126000D5E065E08C2F90E0A0E0B0E0BA2FA92F88
:10127000982F8827AD2B9C01AD01262BB1018FE063
:1012800092E00E94F7200F5F1F4FF2CE8FE092E0B6
:10129000DF91CF911F910F91FF90EF90DF90CF9052
:1012A000BF90AF909F908F907F906F905F904F9086
:1012B0003F902F900C94E71EDF91CF911F910F91DB
:1012C000FF90EF90DF90CF90BF90AF909F908F9066
:1012D0007F906F905F904F903F902F900895CF92A6
:1012E000DF92EF92FF921F93CF93DF930E943E16FF
:1012F000C090FD01D090FE01E090FF01F09000024F
:10130000DC01CB018C199D09AE09BF090B97A10522
:10131000B10508F458C00E943E166093FD01709319
:10132000FE018093FF01909300028FE092E00E9403
:10133000A321C0E0D0E02AE030E040E050E060E0EF
:1013400070E0CB010E94BD17162F2AE030E040E08C
:1013500050E060E070E0CB010E94BD176B017C01A2
:101360002AE030E040E050E060E070E0CB010E9415
:10137000BD17DC01CB019927AA27BB27DC019927E0
:101380008827DD24EE24FF24FE2CED2CDC2CCC243D
:101390008C299D29AE29BF299C01AD01212BBE01BD
:1013A0008FE092E00E94F7202196C031D10519F616
:1013B0008FE092E0DF91CF911F91FF90EF90DF904F
:1013C000CF900C94E71EDF91CF911F91FF90EF908B
:1013D000DF90CF9008950F931F930E943E160091C7
:1013E000F9011091FA012091FB013091FC01DC011F
:1013F000CB01801B910BA20BB30B4A97A105B10542
:10140000C0F10E943E166093F9017093FA01809337
:10141000FB019093FC018091F7019091F8010196F6
:101420008730910529F09093F8018093F70104C06B
:101430001092F8011092F70108E010E020E030E08F
:1014400040E050E0BA018FE092E00E946C21609190
:10145000F7017091F80120E030E04AE050E08FE0C1
:1014600092E00E94F7208FE092E01F910F910C9480
:10147000E71E1F910F9108950F931F930E943E1630
:101480000091F3011091F4012091F5013091F601E2
:10149000DC01CB01801B910BA20BB30B4A97A1057A
:1014A000B105E0F10E943E166093F3017093F401E0
:1014B0008093F5019093F6018091F1019091F201F2
:1014C00001968730910529F09093F2018093F10104
:1014D00004C01092F2011092F10108E010E020E047
:1014E00030E040E050E0BA018FE092E00E946C21D1
:1014F0008091F1019091F20167E070E0681B790B37
:1015000020E030E04AE050E08FE092E00E94F720D7
:101510008FE092E01F910F910C94E71E1F910F91A5
:1015200008950F931F930E94CE07811132C00E942D
:10153000C7070E943E1660930A0270930B028093C5
:101540000C0290930D02DC01CB0188519C4FAF4FF0
:10155000BF4F8093060290930702A0930802B093B6
:1015600009020FE010E028E030E040E050E0BA016E
:101570008FE092E00E946C212EE130E0A9016FE043
:1015800070E08FE092E00E94F7208FE092E00E94EE
:10159000E71E0E943E16009106021091070220915C
:1015A000080230910902061717072807390708F0C3
:1015B00046C00E94D807811142C080910E02883037
:1015C000A0F50E943E16DC01CB0188519C4FAF4F25
:1015D000BF4F8093060290930702A0930802B09336
:1015E000090280910E028F5F80930E020FE010E0DF
:1015F00028E030E040E050E0BA018FE092E00E9445
:101600006C2100910E0210E020E130E0201B310B34
:101610004EE150E0BA018FE092E00E946C218FE031
:1016200092E01F910F910C94E71E0E94B807873C2F
:1016300010F40E94C1071F910F910C94D4071F91C1
:101640000F91089510920E02089522E530E049E0CE
:1016500050E060E170E08FE092E00C94D5208FE0E4
:1016600092E00C94521E0F9301E021E04CE362E003
:1016700085E292E00E946124811106C06AEE70E06A
:101680008DED92E00E942F1481E090E0909338025B
:1016900080933702909336028093350285E292E080
:1016A0000E94432461E085E292E00E944F1E85E2A1
:1016B00092E00F910C94DA278F929F92AF92BF9293
:1016C000CF92DF92EF92FF920F931F93CF93DF930E
:1016D000CDB7DEB728970FB6F894DEBF0FBECDBFEB
:1016E00085E292E00E94432410923202109231026D
:1016F00010923402109233020E94C6054B015C0125
:101700002AE030E0AB01BC0185E292E00E94A41423
:101710007E0185E0E80EF11CC7010E949306870157
:101720006E01E9E0CE0ED11CF80161918F014AE013
:1017300050E085E292E00E94971460E271E085E259
:1017400092E00E9422140C151D0571F785E292E0CB
:101750000E942B14C501B4010E94A106682F70E0FD
:101760004AE050E085E292E00E940515CE01019624
:101770000E94AA078E010F5F1F4FF80161918F0130
:101780004AE050E085E292E00E94971460E271E046
:1017900085E292E00E9422140E151F0571F785E282
:1017A00092E00E94DA2728960FB6F894DEBF0FBEAB
:1017B000CDBFDF91CF911F910F91FF90EF90DF9000
:1017C000CF90BF90AF909F908F9008958F929F92EF
:1017D000AF92BF92CF92DF92EF92FF920F9380EA87
:1017E000882E86E8982EAA24A394B12C90E8C92EBE
:1017F0009AE1D92E96E0E92EF12C0FEF2BEC33E095
:1018000040E260E885E292E00E949B220F91FF9007
:10181000EF90DF90CF90BF90AF909F908F90089502
:1018200085E292E00C94E72261E08DE00E940F17C0
:1018300062E08EE00E940F1762E08FE00E940F17B7
:1018400062E080E10E940F1762E081E10E940F17C1
:1018500062E086E00E940F1761E087E00E940F17A8
:1018600060E087E00E944B1761E083E00E940F1761
:1018700060E083E00E944B1762E084E00E940F1753
:1018800026E040E855E260E070E08DED92E00E94D5
:10189000BC120E942E0D0E94DB070C94330BCF92DA
:1018A000DF92EF92FF920F931F93CF93DF930E94EB
:1018B000540D84E00E947A178C0186E00E947A170A
:1018C000EC010E943E16C0906D02D0906E02E09036
:1018D0006F02F0907002DC01CB018C199D09AE09FA
:1018E000BF0985369105A105B10508F446C00E94DF
:1018F0003E1660936D0270936E0280936F02909318
:1019000070020E943E160E94600F20E030E04AE71D
:1019100054E40E94BF0EAB01BC0122E030E08DED2B
:1019200092E00E94F21561E471E08DED92E00E9478
:1019300022140E94B8074AE050E0682F8DED92E033
:101940000E9497148FE00E947A17892B39F40E9425
:10195000B807873C70F40E94C1070BC080E10E9469
:101960007A17892B31F40E94B807823010F00E9458
:10197000BB078DED92E00E942B140E943E16C09092
:101980006902D0906A02E0906B02F0906C02DC0178
:10199000CB018C199D09AE09BF090297A105B105BC
:1019A00058F10E943E166093690270936A02809318
:1019B0006B0290936C02012B61F40E94D807811195
:1019C00005C00E94910A0E943C0A16C00E946F093D
:1019D00013C0CD2B49F40E94D8078111F7CF0E9484
:1019E000EB090E94910A08C00E94DF070E94D107FC
:1019F0000E94CB070E94220B0E943E1600916502B6
:101A0000109166022091670230916802DC01CB01DF
:101A1000801B910BA20BB30B893E9340A105B1052E
:101A2000A0F00E943E166093650270936602809358
:101A3000670290936802DF91CF911F910F91FF9001
:101A4000EF90DF90CF900C945C0BDF91CF911F91C2
:101A50000F91FF90EF90DF90CF90089540EC52E10E
:101A600060E070E085EB92E00E94AB2A40EC52E12E
:101A700060E070E086E992E00C94AB2A20E045E05B
:101A800066E085EB92E00E94802A20E043E062E07D
:101A900086E992E00C94802A86E992E00E94272A47
:101AA00085EB92E00C94272A0F931F930E943E1619
:101AB000009192021091930220919402309195022C
:101AC000DC01CB01801B910BA20BB30B893E934031
:101AD000A105B10550F10E943E16609392027093E9
:101AE000930280939402909395020E943E16AB015C
:101AF000BC0140938E0250938F02609390027093CA
:101B000091022AE030E086E992E00E94A41440911C
:101B10008E0250918F0260919002709191022AE0A2
:101B200030E085EB92E00E94A4140E943E160091E2
:101B30008A0210918B0220918C0230918D02DC017F
:101B4000CB01801B910BA20BB30B893C9105A10526
:101B5000B10580F00E943E1660938A0270938B025A
:101B600080938C0290938D029091890281E0892765
:101B7000809389020E943E16009185021091860290
:101B80002091870230918802DC01CB01801B910BF0
:101B9000A20BB30B85369105A105B10550F00E944B
:101BA0003E1660938502709386028093870290931D
:101BB00088028091890281112AC085EB92E00E94FF
:101BC000842985EB92E00E945629181619060CF01C
:101BD00047C085EB92E00E94CC282091830230918F
:101BE0008402F901E558FD4F8A3059F0273031055C
:101BF00040F480832F5F3F4F309384022093830211
:101C0000E0CF10821092840210928302DACF86E92C
:101C100092E00E94842986E992E00E9456291816D3
:101C20001906F4F486E992E00E94CC28209179020A
:101C300030917A02F901EF58FD4F8A3059F0273080
:101C4000310540F480832F5F3F4F30937A02209319
:101C50007902E1CF108210927A0210927902DBCFE2
:101C60001F910F91089520E030E041E2B901625FD9
:101C70007F4FE1E0F0E02630310510F4E0E0F0E0E5
:101C8000E60FF71F40935700E491DC01ED93CD017F
:101C90002F5F3F4F2930310549F7089584ED92E0D9
:101CA0000C94330E5058BB27AA270E946A0E0C943E
:101CB000B40F0E94A60F38F00E94AD0F20F039F447
:101CC0009F3F19F426F40C94A30F0EF4E095E7FB64
:101CD0000C949D0FE92F0E94C50F58F3BA176207A5
:101CE00073078407950720F079F4A6F50C94E70FA5
:101CF0000EF4E0950B2EBA2FA02D0B01B901900127
:101D00000C01CA01A0011124FF27591B99F0593F6A
:101D100050F4503E68F11A16F040A22F232F342FB2
:101D20004427585FF3CF469537952795A795F04000
:101D30005395C9F77EF41F16BA0B620B730B840B15
:101D4000BAF09150A1F0FF0FBB1F661F771F881FCD
:101D5000C2F70EC0BA0F621F731F841F48F4879525
:101D600077956795B795F7959E3F08F0B0CF939517
:101D7000880F08F09927EE0F9795879508950E9490
:101D8000D30E0C94B40F0E94AD0F58F00E94A60F12
:101D900040F029F45F3F29F00C949D0F51110C94F1
:101DA000E80F0C94A30F0E94C50F68F39923B1F3B9
:101DB000552391F3951B550BBB27AA276217730771
:101DC000840738F09F5F5F4F220F331F441FAA1F05
:101DD000A9F335D00E2E3AF0E0E832D091505040C1
:101DE000E695001CCAF72BD0FE2F29D0660F771F6F
:101DF000881FBB1F261737074807AB07B0E809F055
:101E0000BB0B802DBF01FF2793585F4F3AF09E3FD9
:101E1000510578F00C949D0F0C94E80F5F3FE4F3AC
:101E2000983ED4F3869577956795B795F7959F5F1C
:101E3000C9F7880F911D9695879597F90895E1E068
:101E4000660F771F881FBB1F621773078407BA07C7
:101E500020F0621B730B840BBA0BEE1F88F7E09522
:101E600008950E94CD0F88F09F5798F0B92F9927B9
:101E7000B751B0F0E1F0660F771F881F991F1AF075
:101E8000BA95C9F714C0B13091F00E94E70FB1E0E4
:101E900008950C94E70F672F782F8827B85F39F0E3
:101EA000B93FCCF3869577956795B395D9F73EF40E
:101EB00090958095709561957F4F8F4F9F4F0895B6
:101EC000E89409C097FB3EF49095809570956195D4
:101ED0007F4F8F4F9F4F9923A9F0F92F96E9BB278A
:101EE0009395F695879577956795B795F111F8CF06
:101EF000FAF4BB0F11F460FF1BC06F5F7F4F8F4F71
:101F00009F4F16C0882311F096E911C0772321F066
:101F10009EE8872F762F05C0662371F096E8862FFE
:101F200070E060E02AF09A95660F771F881FDAF755
:101F3000880F9695879597F9089597F99F6780E898
:101F400070E060E008959FEF80EC089500240A940B
:101F50001616170618060906089500240A94121684
:101F60001306140605060895092E0394000C11F4B7
:101F7000882352F0BB0F40F4BF2B11F460FF04C064
:101F80006F5F7F4F8F4F9F4F089557FD9058440FBD
:101F9000551F59F05F3F71F04795880F97FB991FC8
:101FA00061F09F3F79F08795089512161306140685
:101FB000551FF2CF4695F1DF08C016161706180612
:101FC000991FF1CF86957105610508940895E894ED
:101FD000BB2766277727CB0197F908950E94011048
:101FE0000C94B40F0E94A60F38F00E94AD0F20F0A1
:101FF000952311F00C949D0F0C94A30F11240C94B5
:10200000E80F0E94C50F70F3959FC1F3950F50E044
:10201000551F629FF001729FBB27F00DB11D639F9A
:10202000AA27F00DB11DAA1F649F6627B00DA11D40
:10203000661F829F2227B00DA11D621F739FB00DE6
:10204000A11D621F839FA00D611D221F749F332756
:10205000A00D611D231F849F600D211D822F762FEF
:102060006A2F11249F5750409AF0F1F088234AF0CC
:10207000EE0FFF1FBB1F661F771F881F9150504038
:10208000A9F79E3F510580F00C949D0F0C94E80F2A
:102090005F3FE4F3983ED4F3869577956795B795BF
:1020A000F795E7959F5FC1F7FE2B880F911D9695D9
:1020B000879597F90895FA01EE0FFF1F30962105D5
:1020C0003105A1F16115710561F48038BFE39B070B
:1020D00049F168949038810561F08038BFEF9B0723
:1020E00041F099234AF5FF3FE1053105210519F13A
:1020F000E8940894E795D901AA2329F4AB2FBE2FC1
:10210000F85FD0F310C0FF5F70F4A695E0F7F739E1
:1021100050F019F0FF3A38F49F779F930DD00F904D
:1021200007FC9058089546F00C94A30F60E070E00F
:1021300080E89FE308954FE79F775F934F933F9326
:102140002F930E9456112F913F914F915F910E94C2
:10215000EE0F0C94B31029F416F00C949D0F0C9410
:10216000E70F0C94A30F0E94CD0FA8F39638A0F7A9
:1021700007F80F92E8942BE33AEA48EB5FE70E94F6
:1021800004100F920F920F924DB75EB70F920E94FC
:102190009E11E8E6F0E00E94E5104F915F91EF910B
:1021A000FF91E595EE1FFF1F49F0FE57E0684427B9
:1021B000EE0F441FFA95E1F74195550B0E94181157
:1021C0000F9007FE0C940C110895DF93CF931F938B
:1021D0000F93FF92EF92DF927B018C01689406C00F
:1021E000DA2EEF010E940110FE01E894A5912591DD
:1021F000359145915591A6F3EF010E946A0EFE01BB
:102200009701A801DA9469F7DF90EF90FF900F91A2
:102210001F91CF91DF9108959B01AC0160E070E0C8
:1022200080E89FE30C94BF0E0C949D0F0C94D21188
:102230000E94CD0FD8F39923C9F3940F511DA3F336
:102240009150504094F059F0882332F0660F771F78
:10225000881F91505040C1F79E3F51052CF7880FC1
:10226000911D9695879597F908955F3FACF0983E3C
:102270009CF0BB27869577956795B79508F4B16074
:102280009395C1F7BB0F58F711F460FFE8CF6F5F6C
:102290007F4F8F4F9F4FE3CF0C94E80F16F00C94B5
:1022A000D2110C94A30F68940C949D0F0E94CD0F33
:1022B000A8F39923C1F3AEF3DF93CF931F930F934A
:1022C000FF92C92FDD2788232AF02197660F771FF9
:1022D000881FDAF720E030E040E85FEB9FE38839C1
:1022E00020F0803E38F021968F770E94530EE0E96F
:1022F000F0E004C00E94530EEDEBF0E00E94E51008
:102300008B01BE01EC01FB2E6F5771097595771F8C
:10231000880B990B0E94620F28E132E741E35FE3EB
:102320000E940110AF2D9801AE01FF900F911F91F7
:10233000CF91DF910E946A0E0C94B40FFA01DC0178
:10234000AA0FBB1F9B01AC01BF5728F422273327DC
:102350004427507820C0B75190F4AB2F0024469505
:1023600037952795011CA395D2F3002071F0220F19
:10237000331F441FB395DAF30ED00C94520E613024
:102380007105A0E88A07B94630F49B01AC016627C5
:10239000772788279078309621F0208331834283F5
:1023A000538308959F3F31F0915020F4879577959E
:1023B0006795B795880F911D9695879597F908951C
:1023C000FC01918D228D892F90E0805C9F4F821BB4
:1023D00091098F7399270895FC01918D828D98172B
:1023E00031F0828DE80FF11D858D90E008958FEF1B
:1023F0009FEF0895FC01918D828D981761F0828D79
:10240000DF01A80FB11D5D968C91928D9F5F9F7328
:10241000928F90E008958FEF9FEF0895FC01538D08
:10242000448D252F30E0842F90E0821B930B5417AE
:1024300010F0CF9608950197089588E793E1892BCE
:1024400049F080E090E0892B29F00E9478138111F7
:102450000C9400000895FC01848DDF01A80FB11DCC
:10246000A35ABF4F2C91848D90E001968F739927CA
:10247000848FA689B7892C93A089B1898C918370A8
:1024800080648C93938D848D981306C00288F389A1
:10249000E02D80818F7D80830895EF92FF920F93CE
:1024A0001F93CF93DF93EC0181E0888F9B8D8C8D00
:1024B000981305C0E889F989808185FD26C0F62E2C
:1024C0000B8D10E00F5F1F4F0F731127E02E8C8DC7
:1024D000E8120CC00FB607FCFACFE889F9898081B1
:1024E00085FFF5CFCE010E942B12F1CF8B8DFE011F
:1024F000E80FF11DE35AFF4FF0829FB7F8940B8F5E
:10250000EA89FB89808180620AC09FB7F894EE89CE
:10251000FF896083E889F989808183708064808382
:102520009FBF81E090E0DF91CF911F910F91FF90CD
:10253000EF900895CF93DF93EC01888D8823C9F045
:10254000EA89FB89808185FD05C0A889B9898C91BC
:1025500086FD0FC00FB607FCF5CF808185FFF2CF57
:10256000A889B9898C9185FFEDCFCE010E942B12ED
:10257000E7CFDF91CF910895CF92DF92EF92FF9254
:102580001F93CF93DF93EC016A017B01122F60E868
:1025900074E88EE190E0A70196010E94B92FDA015C
:1025A000C9010197A109B109B695A7959795879596
:1025B0009C01E889F98982E08083211580E1380750
:1025C000A8F0E889F989108260E472E48FE090E075
:1025D000A70196010E94B92FDA01C9010197A1094B
:1025E000B109B695A795979587959C01EC85FD85D2
:1025F0003083EE85FF852083188EEC89FD8910835A
:10260000EA89FB89808180618083EA89FB898081F6
:1026100088608083EA89FB89808180688083EA8979
:10262000FB8980818F7D8083DF91CF911F91FF9007
:10263000EF90DF90CF90089580E090E008950895A6
:102640001F920F920FB60F9211242F938F939F9387
:10265000EF93FF93E091ED02F091EE028081E09123
:10266000F302F091F40282FD12C090818091F60293
:102670008F5F8F732091F702821751F0E091F6027D
:10268000F0E0E352FD4F958F8093F60201C0808108
:10269000FF91EF919F918F912F910F900FBE0F900F
:1026A0001F9018951F920F920FB60F9211242F931F
:1026B0003F934F935F936F937F938F939F93AF93CA
:1026C000BF93EF93FF938DED92E00E942B12FF9149
:1026D000EF91BF91AF919F918F917F916F915F919A
:1026E0004F913F912F910F900FBE0F901F90189513
:1026F0008DED92E00E94E01121E0892B09F420E0A9
:10270000822F0895EDEDF2E01382128288EE93E0BD
:10271000A0E0B0E084839583A683B7838CE491E046
:102720009183808385EC90E09587848784EC90E0AA
:102730009787868780EC90E0918B808B81EC90E08E
:10274000938B828B82EC90E0958B848B86EC90E06F
:10275000978B868B118E128E138E148E089508958A
:102760000E94AB160E94AF130E94140CCDE1D2E17F
:102770000E944F0C2097E1F30E941D12F9CFCF92D7
:10278000DF92EF92FF920F931F93CF93DF936C0131
:102790007A018B01C0E0D0E0CE15DF0581F0D801D1
:1027A0006D918D01D601ED91FC910190F081E02DAC
:1027B000C6010995892B11F02196EECF7E01C70144
:1027C000DF91CF911F910F91FF90EF90DF90CF900D
:1027D00008956115710579F0FB0101900020E9F77A
:1027E0003197AF01461B570BDC01ED91FC91028044
:1027F000F381E02D099480E090E00895EF92FF923C
:102800000F931F93CF93DF938C017B01C0E0D0E047
:10281000F701EC0FFD1F6491662361F0D801ED9183
:10282000FC910190F081E02DC8010995892B11F0F0
:102830002196EECFCE01DF91CF911F910F91FF90A6
:10284000EF9008950C94E913DC01ED91FC91019057
:10285000F081E02D09946AE571E00C94E9130F937F
:102860001F93CF93DF93EC010E94FE138C01CE01E6
:102870000E942B14800F911FDF91CF911F910F9118
:1028800008958F929F92AF92BF92EF92FF920F9313
:102890001F93CF93DF93CDB7DEB7A1970FB6F89410
:1028A000DEBF0FBECDBF7C01FA01CB0119A22230E1
:1028B00008F42AE08E010F5D1F4F822E912CA12C6F
:1028C000B12CBF01A50194010E94B92FF901CA01E1
:1028D000015011096A3010F4605D01C0695CD801D3
:1028E0006C93232B242B252B61F7B801C7010E9481
:1028F000E913A1960FB6F894DEBF0FBECDBFDF91EE
:10290000CF911F910F91FF90EF90BF90AF909F904C
:102910008F9008952115310541F4DC01ED91FC9172
:102920000190F081E02D642F09940C9441149A01D8
:10293000462F50E060E070E00C948A149A01AB01DD
:1029400060E070E00C948A140F931F93CF93DF9391
:10295000EC010E948A148C01CE010E942B14800F7E
:10296000911FDF91CF911F910F910895CF92DF9228
:10297000EF92FF920F931F93CF93DF9321153105B1
:1029800081F4DC01ED91FC910190F081E02D642F48
:10299000DF91CF911F910F91FF90EF90DF90CF903B
:1029A00009942A30310501F577FF1DC06A017B01CA
:1029B000EC016DE20E9424148C0144275527BA01D2
:1029C0004C195D096E097F092AE0CE010E9441146D
:1029D000800F911FDF91CF911F910F91FF90EF908A
:1029E000DF90CF9008952AE0DF91CF911F910F9152
:1029F000FF90EF90DF90CF900C9441149A01AB01BF
:102A0000770F660B770B0C94B6140F931F93CF932D
:102A1000DF93EC010E94FE148C01CE010E942B1466
:102A2000800F911FDF91CF911F910F9108957F9299
:102A30008F929F92AF92BF92CF92DF92EF92FF92CE
:102A40000F931F93CF93DF938C016A017B01722E4A
:102A50009A01AB01C701B6010E948C2F882319F09F
:102A60006DE571E027C046015701E894B7F82FEFF4
:102A70003FEF4FE75FE7C501B4010E948C2F811142
:102A80000DC02FEF3FEF4FE75FE7C501B4010E9494
:102A90005E2F18161CF461E671E00CC02FEF3FEFBB
:102AA0004FE75FE4C701B6010E94872F181694F420
:102AB00065E671E0C801DF91CF911F910F91FF9002
:102AC000EF90DF90CF90BF90AF909F908F907F90CE
:102AD0000C94E9132FEF3FEF4FE75FECC701B6010E
:102AE0000E945E2F87FDE4CF20E030E0A901C701FE
:102AF000B6010E945E2F87FF0AC06DE2C8010E94E6
:102B00002414EC01F7FAF094F7F8F09402C0C0E056
:102B1000D0E0B12C60E070E080E09FE37B1441F0F6
:102B200020E030E040E251E40E94BF0EB394F6CFC3
:102B3000A70196010E94530E6B017C010E94310F88
:102B40004B015C012AE0AB01BC01C8010E944114A9
:102B5000C80FD91F7720B9F1C501B4010E94600FD9
:102B60009B01AC01C701B6010E94520E6B017C01B2
:102B70006EE2C8010E942414C80FD91F20E030E083
:102B800040E251E4C701B6010E94EE0F4B015C0127
:102B90000E94310F6B017C014AE050E0C8010E94A5
:102BA0009E14C80FD91FB60180E090E00E94600F0C
:102BB0009B01AC01C501B4010E94520E6B017C0166
:102BC0007A947110DBCFCE01DF91CF911F910F91DD
:102BD000FF90EF90DF90CF90BF90AF909F908F903D
:102BE0007F9008950C9417151F920F920FB60F92B5
:102BF00011242F933F938F939F93AF93BF93809113
:102C00007B0390917C03A0917D03B0917E03309172
:102C10007A0326E0230F2D3720F40296A11DB11D63
:102C200005C029E8230F0396A11DB11D20937A0347
:102C300080937B0390937C03A0937D03B0937E03EA
:102C400080917F0390918003A0918103B0918203D2
:102C50000196A11DB11D80937F0390938003A093E3
:102C60008103B0938203BF91AF919F918F913F9168
:102C70002F910F900FBE0F901F9018952FB7F894BB
:102C800060917B0370917C0380917D0390917E0322
:102C90002FBF08953FB7F89480917F0390918003F0
:102CA000A0918103B091820326B5A89B05C02F3F58
:102CB00019F00196A11DB11D3FBFBA2FA92F982F62
:102CC0008827820F911DA11DB11DBC01CD0143E0DC
:102CD000660F771F881F991F4A95D1F708958F9225
:102CE0009F92AF92BF92CF92DF92EF92FF926B01D1
:102CF0007C010E944A164B015C01C114D104E1041D
:102D0000F10401F10E947B2C0E944A16DC01CB01E8
:102D100088199909AA09BB09883E9340A105B10504
:102D200060F321E0C21AD108E108F10888EE880EAC
:102D300083E0981EA11CB11CC114D104E104F1046C
:102D400019F7DBCFFF90EF90DF90CF90BF90AF905F
:102D50009F908F900895789484B5826084BD84B5E7
:102D6000816084BD85B5826085BD85B5816085BD86
:102D7000EEE6F0E0808181608083E1E8F0E010829F
:102D8000808182608083808181608083E0E8F0E0E0
:102D9000808181608083E1EBF0E0808184608083CA
:102DA000E0EBF0E0808181608083EAE7F0E0808101
:102DB0008460808380818260808380818E7F808335
:102DC0008081806880831092C1000895833081F0F3
:102DD00028F4813099F08230A1F008958730A9F06D
:102DE0008830B9F08430D1F4809180008F7D03C0A9
:102DF000809180008F7780938000089584B58F77CD
:102E000002C084B58F7D84BD08958091B0008F7716
:102E100003C08091B0008F7D8093B0000895CF9360
:102E2000DF9390E0FC01E85EFE4F2491FC01E45D3D
:102E3000FE4F8491882361F190E0880F991FFC0177
:102E4000EC5AFE4FC591D491FC01E65BFE4FA59173
:102E5000B491611109C09FB7F894888120958223AD
:102E60008883EC912E230BC0623061F49FB7F894F5
:102E70008881322F309583238883EC912E2B2C93DD
:102E80009FBF06C08FB7F894E8812E2B28838FBF91
:102E9000DF91CF9108951F93CF93DF93282F30E0D8
:102EA000F901EC5FFE4F8491F901E85EFE4FD49189
:102EB000F901E45DFE4FC491CC23C1F0162F8111BE
:102EC0000E94E616EC2FF0E0EE0FFF1FE65BFE4FD0
:102ED000A591B4919FB7F894111104C08C91D0952D
:102EE000D82302C0EC91DE2BDC939FBFDF91CF9102
:102EF0001F910895CF93DF93282F30E0F901EC5F05
:102F0000FE4F8491F901E85EFE4FD491F901E45D32
:102F1000FE4FC491CC2391F081110E94E616EC2F54
:102F2000F0E0EE0FFF1FE05CFE4FA591B491EC9135
:102F3000ED2381E090E021F480E002C080E090E0A9
:102F4000DF91CF910895CF92DF92EF92FF926115BA
:102F500071058105910549F06B017C010E94863164
:102F6000A70196010E94DB2F03C060E070E0CB0157
:102F7000FF90EF90DF90CF900895CF92DF92EF9285
:102F8000FF920F931F93621773078407950784F4CA
:102F900089019A016B017C01C901B8016C197D0995
:102FA0008E099F090E94A3176C0D7D1D8E1D9F1D0C
:102FB0001F910F91FF90EF90DF90CF9008952F9287
:102FC0003F924F925F926F927F928F929F92AF92B9
:102FD000BF92CF92DF92EF92FF920F931F93CF9306
:102FE000DF9300D000D000D0CDB7DEB72C017E83B8
:102FF0006D836A015901C801FC82EB824801841A81
:10300000950A97FE03C091948194910835012D8112
:103010003E81621A730A77FE03C07194619471084D
:10302000681479045CF43A2D2B2D5C01832F922FC8
:103030003D812E81DE82CD82C32ED22EAD81BE8116
:10304000AA16BB065CF43C2D2D2D6C01832F922F0C
:103050003D812E81BE82AD82A32EB22E85012D81AF
:103060003E81021B130B1C012C183D0837FE03C0C8
:10307000319421943108780117FF03C03FEFE31A20
:10308000F30AF594E794C816D9062CF08FEF9FEF5A
:103090009A83898304C0A1E0B0E0BA83A9832D811B
:1030A0003E81A216B30624F1D201ED91FC91048475
:1030B000F585E02D2B813C816814790424F44D8141
:1030C0005E81B60103C0A6016D817E81C2010995B2
:1030D000E218F308F7FE06C029813A81C20ED31E1A
:1030E000E00EF11E8D819E8101969E838D83D7CF48
:1030F00026960FB6F894DEBF0FBECDBFDF91CF91FD
:103100001F910F91FF90EF90DF90CF90BF90AF9005
:103110009F908F907F906F905F904F903F902F90F7
:103120000895DC01ED91FC910084F185E02D099476
:103130000F931F93DC01ED91FC91048CF58DE02D34
:1031400009951F910F9108950F931F93DC01ED9145
:10315000FC91068CF78DE02D09951F910F91089534
:10316000EF92FF920F931F93DC01ED91FC9100A071
:10317000F1A1E02D09951F910F91FF90EF90089517
:1031800008958F929F92AF92BF92CF92DF92EF926B
:10319000FF920F931F93CF93DF93EC015B014A01E2
:1031A00069017801E881F9810284F385E02D0995B0
:1031B000C80CD91C860101501109E881F9810488E5
:1031C000F589E02D9501A401B501CE010995E881AD
:1031D000F9810688F789E02DCE01DF91CF911F910B
:1031E0000F91FF90EF90DF90CF90BF90AF909F90A6
:1031F0008F9009948F929F92AF92BF92CF92DF925D
:10320000EF92FF920F931F93CF93DF93EC015B013B
:103210004A016901E881F9810284F385E02D09956D
:1032200095012C0D3D1D21503109E881F98104885B
:10323000F589E02D78018401A401B501CE0109953D
:10324000E881F9810688F789E02DCE01DF91CF91E1
:103250001F910F91FF90EF90DF90CF90BF90AF90B4
:103260009F908F9009944F925F926F927F928F926E
:103270009F92AF92BF92CF92DF92EF92FF920F9305
:103280001F93CF93DF936C012B015A013901480141
:10329000DC01ED91FC910284F385E02D0995E201BA
:1032A000640C751CD601ED91FC91C615D7055CF434
:1032B0000088F189E02D87019401A501BE01C601B6
:1032C00009952196EFCF0688F789E02DC601DF9199
:1032D000CF911F910F91FF90EF90DF90CF90BF9013
:1032E000AF909F908F907F906F905F904F900994D8
:1032F000EF92FF920F931F93DC011A960D911C9190
:103300001B9718962D913C911997ED91FC9100A077
:10331000F1A1E02D7B0140E050E060E070E0099514
:103320001F910F91FF90EF9008958F929F92AF920F
:10333000BF92CF92DF92EF92FF920F931F93CF93A2
:10334000DF934C016B015A01E901DC01ED91FC9125
:103350006217730781F40417150724F48B2D5801A5
:10336000042F182F0A191B0998012F5F3F4F048C57
:10337000F58DE02D12C04017510709F526173707C4
:1033800024F48D2D6901C62FD82F9E012C193D09DB
:103390002F5F3F4F068CF78DE02D8701A501B60109
:1033A000C4010995DF91CF911F910F91FF90EF908C
:1033B000DF90CF90BF90AF909F908F900895028440
:1033C000F385E02D0995D401ED91FC910488F589F0
:1033D000E02D9E01A501B601C4010995D401ED912E
:1033E000FC910688F789E02DC401DF91CF911F91F0
:1033F0000F91FF90EF90DF90CF90BF90AF909F9094
:103400008F9009946F927F928F929F92AF92BF920A
:10341000CF92DF92EF92FF920F931F93CF93DF93A0
:10342000EC014B015A0169013801E881F9810284FC
:10343000F385E02D0995E881F9810288F389E02D73
:1034400087019601A501B401CE010995A501460D9C
:10345000571D41505109E881F9810288F389E02D17
:103460009601B401CE010995E881F9810088F189BE
:10347000E02D9301A501B401CE010995C80CD91C1A
:10348000B60161507109E881F9810088F189E02D68
:103490009301A501CE010995E881F9810688F78994
:1034A000E02DCE01DF91CF911F910F91FF90EF9012
:1034B000DF90CF90BF90AF909F908F907F906F9054
:1034C00009940895FC016370668B8481958126813F
:1034D0003781613039F0633029F0918780873387F5
:1034E0002287089531872087938782870895FC017A
:1034F000138212828DE691E09183808375836483C9
:10350000578346837187608753874287168A15865B
:1035100014861786168681E0858B848B2FEF3FEF0C
:10352000338B228B318B208B878B108E128E118EDA
:1035300008953F924F925F926F927F928F929F92E7
:10354000AF92BF92CF92DF92EF92FF920F931F93B1
:10355000CF93DF93CDB7DEB72A970FB6F894DEBFCF
:103560000FBECDBF5C017E836D8358874F832901D9
:103570003701DC01ED91FC910284F385E02D099582
:10358000C801079697FD07969C0193E0359527950E
:103590009A95E1F73A832983812C912CE12CF12C27
:1035A000312C8F8198858E0D9F1D9C838B83E61413
:1035B000F7040CF03DC01A861986A985BA85A017B4
:1035C000B10774F5CD0187709927892B11F0330C61
:1035D0000EC0E985FA85F7FD379683E0F595E79506
:1035E0008A95E1F7E80DF91DE40DF51D349037FEDD
:1035F00011C0D501ED91FC910484F585E02D960173
:103600004B815C816D817E8189859A85680F791FE8
:10361000C5010995A985BA851196BA87A987CDCF25
:10362000BFEFEB1AFB0A29813A81820E931EB9CFB4
:10363000D501ED91FC910688F789E02DC5012A9608
:103640000FB6F894DEBF0FBECDBFDF91CF911F91B3
:103650000F91FF90EF90DF90CF90BF90AF909F9031
:103660008F907F906F905F904F903F9009942F9232
:103670003F924F925F926F927F928F929F92AF9202
:10368000BF92CF92DF92EF92FF920F931F93CF934F
:10369000DF93CDB7DEB76B970FB6F894DEBF0FBEE2
:1036A000CDBF9B8F8A8F2B015A834983D22E1987D6
:1036B00008874701AB82DC0159962D913C915A97BE
:1036C0002115310509F000C118968D919C9119972B
:1036D000681779070CF0E7C11A968D919C911B979A
:1036E000481759070CF0DFC12C2C312CFB0126E0C8
:1036F000C29EE00DF11D1124FD87EC871E161F06EA
:103700000CF0D1C14A2D50E05B874A8783E0440F1B
:10371000551F8A95E1F75F874E8789819A81840FCB
:10372000951F181619060CF0BEC158968C91811180
:1037300004C06FEA6D1508F4D394AA8DBB8DED918A
:10374000FC9111970284F385E02DCD010995B5E038
:10375000DB9EC0011124EC2DF0E0F98BE88B920187
:103760002B5F3F4F3B8B2A8B32015D824C82AC0139
:10377000441955095D8B4C8B7B81672F70E07F8BE3
:103780006E8B89819A810896998F888FEC89FD8943
:10379000E60DF71DE25AFE4FD490A981BA81BF838E
:1037A000AE835D01D0FE16C0AA8DBB8DED91FC915C
:1037B000B1E0CB1209C02B81213031F40484F585AE
:1037C000E02D2885398519C00684F785E02DE88429
:1037D000F9841DC0488559854815590511F1AA8DF0
:1037E000BB8DED91FC91B1E0CB120DC02B8121304E
:1037F00051F40484F585E02D9401A501B3018A8D6F
:103800009B8D09950EC00684F785E02D74010A850D
:103810001B8591014E815F816C817D818A8D9B8D9D
:103820000995D6944E815F816E897F89460F571F17
:103830005F834E837FEFA71AB70A888D998DA816EC
:10384000B90609F0AFCFAC81BD81E889F989AE0F27
:10385000BF1FBD83AC83FFEF6F1A7F0A2A893B89A4
:103860006216730609F092CF4885598548155905A7
:1038700009F4F7C0AA8DBB8DED91FC91B1E0CB129C
:1038800012C02B81213079F4B2016B5F7F4F008829
:10389000F189E02D840128E030E049815A818A8D48
:1038A0009B8D0995DEC06C857D8562197309068440
:1038B000F785E02D74010E851F85910149815A819C
:1038C0008A8D9B8D0995CDC0F9013496E491DE1A5D
:1038D000F901329685919491B7E0DB9E800D911DA0
:1038E0001124F90125913491398B288BFC01259005
:1038F0003490FC01329674903196A4903296949054
:103900003196B49031E03C1518F04B81423068F0AC
:10391000692D092C000C770B7D836C838B2D0B2C70
:10392000000C990B9F838E8304C01F821E821D8210
:103930001C82AA8DBB8DED91FC9111970284F385B9
:10394000E02DCD010995612CD12C812CFB81EF2F2D
:10395000F0E0FB87EA872C2D30E03D872C874981FA
:103960005A814B0D511DB7FC5A955D8B4C8BB201A2
:10397000690D711D97FC7A957F8B6E8B8A1408F008
:1039800070C0282D30E04E815F81420F531FAA8501
:10399000BB85A49FC001A59F900DB49F900D1124DD
:1039A000E981FA81E80FF91FFF87EE87862D912CB8
:1039B0004C895D89420F531F5B8B4A8B971408F02B
:1039C0004DC0BB24B394B80E877041F4C101019679
:1039D000E889F989E20DF31DD4901C01D7FE3AC0A5
:1039E00051E0C51216C06B81613099F4AA8DBB8D70
:1039F000ED91FC9111970484F585E02D288539859A
:103A00004A895B896E897F89690D711DCD01099590
:103A100021C08C819D81890D911DEC85FD858E9F36
:103A2000B0018F9F700D9E9F700D1124640D751D48
:103A3000AA8DBB8DED91FC9111970684F785E02D41
:103A4000E884F9840A851B852C853D854E855F8534
:103A5000CD010995DD0C93948B2DB0CF670C839429
:103A60008DCFAA8DBB8DED91FC9111970688F789BA
:103A7000E02DCD016B960FB6F894DEBF0FBECDBF23
:103A8000DF91CF911F910F91FF90EF90DF90CF903A
:103A9000BF90AF909F908F907F906F905F904F906E
:103AA0003F902F9009946B960FB6F894DEBF0FBE2F
:103AB000CDBFDF91CF911F910F91FF90EF90DF90DD
:103AC000CF90BF90AF909F908F907F906F905F90BE
:103AD0004F903F902F9008958F929F92AF92CF92E8
:103AE000EF92FF920F931F93CF93DF93EC01262F5A
:103AF000898D9A8D009709F042C06A3059F41D866D
:103B00001C862D898E859F8538E0239F800D911D11
:103B1000112443C06D3009F4AAC08F898823C9F0ED
:103B20003C898C859D8546E0349F800D911D112434
:103B3000488559854817590764F41D861C863D89B8
:103B40008E859F8548E0349F800D911D11249F87AD
:103B50008E87EA88FB88088919894E855F856C8580
:103B60007D85AD88CC88CE010E94371B2C898C8541
:103B70009D8536E0239F800D911D11243EC06A3043
:103B800079F41D861C862D89FC013896E4918E857A
:103B90009F852E9F800D911D11249F878E8767C062
:103BA0006D3009F464C0FC0134963491631708F455
:103BB0005EC03296E491E61708F459C0462F431BC5
:103BC000342FFC0132968590949047E0349F800C0E
:103BD000911C1124F401329634913196E4913323EF
:103BE00011F0E1110DC0F4013496E4912C898C851B
:103BF0009D85E29F800D911D11249D878C8737C084
:103C0000F401359644915F89552319F15C89E32FBE
:103C1000F0E0E40FF11D47FDFA955E9FB0015F9F54
:103C2000700D11244C855D85460F571F6885798579
:103C30006417750774F41D861C863D89FC0138964F
:103C4000E4918E859F853E9F800D911D11249F8755
:103C50008E87EA88FB88088919894E855F856C857F
:103C60007D85AD88CC88CE010E94371BBCCF81E01A
:103C700090E0DF91CF911F910F91FF90EF90CF9047
:103C8000AF909F908F900895611101C061E0FC0199
:103C9000648B411101C041E0FC01458B0895462F22
:103CA0000C94441ECF93DF93EC0189859A850E9482
:103CB000B2308E819F8197FD05C060E0DF91CF918A
:103CC0000C940F17DF91CF910895CF93DF93EC0100
:103CD0008E819F8197FD07C061E00E940F1760E011
:103CE0008E810E944B1781E08983DF91CF910895E7
:103CF000EF92FF920F931F93CF93DF93EC017B0121
:103D000089859A850E94B2309E858B85981719F017
:103D100084E090E002C083E090E08E9D80018F9D62
:103D2000100D9E9D100D11241D830C83C8010E944F
:103D30001A309A878987009741F0A80160E070E007
:103D40000E94E231FB82EA8204C01D821C821B8237
:103D50001A82DF91CF911F910F91FF90EF900895FC
:103D6000FC0131E096858385981330E0CB0126E095
:103D7000969587952A95E1F7282F23702687CB0102
:103D800044E0969587954A95E1F783708387AB0168
:103D9000569547955695479543704487962F93704F
:103DA000958791E06F3F710511F008F090E09083E6
:103DB00041855285452B51F091E0281390E0391749
:103DC00029F062817381CF010C94781E0895CF92FF
:103DD000DF92EF92FF920F931F93CF93DF93CDB7B4
:103DE000DEB729970FB6F894DEBF0FBECDBF8C01AA
:103DF000DC0119968D919C911A97892B09F48FC13A
:103E00000E944A16F801C784D088E188F2886C15B0
:103E10007D058E059F0520F46787708B818B928BC3
:103E2000F801C784D088E188F288DC01CB018C19C5
:103E30009D09AE09BF098C329140A105B10500F37F
:103E4000F894D80114968D919C9115979A83898343
:103E500019960D90BC91A02D7D01EFEFEE1AFE0A90
:103E60008C918987D8018C9153960D90BC91A02D8F
:103E7000882309F41AC11D82AB32B10509F059C07B
:103E80009BB1F8018589982B98879BB180958923F0
:103E90008F838F818E83898587FF02C088858E837B
:103EA00058856F8149853E812D8189819A81D7010D
:103EB0005BB9262F3BB900C046FD252F6BB900C06A
:103EC0005BB9362F2BB900C045FD352F6BB900C04B
:103ED0005BB9262F3BB900C044FD252F6BB900C04C
:103EE0005BB9362F2BB900C043FD352F6BB900C02D
:103EF0005BB9262F3BB900C042FD252F6BB900C02E
:103F00005BB9362F2BB900C041FD352F6BB900C00E
:103F10005BB9262F3BB900C040FD252F6BB9019737
:103F20005BB9362F2BB94D9147FD352F6BB901F693
:103F3000B8C0A532B10509F059C095B1F80185891D
:103F4000982B988795B1809589238F838F818E8355
:103F5000898587FF02C088858E8358856F81498552
:103F60003E812D8189819A81D70155B9262F35B996
:103F700000C046FD252F65B900C055B9362F25B9BB
:103F800000C045FD352F65B900C055B9262F35B99C
:103F900000C044FD252F65B900C055B9362F25B99D
:103FA00000C043FD352F65B900C055B9262F35B97E
:103FB00000C042FD252F65B900C055B9362F25B97F
:103FC00000C041FD352F65B900C055B9262F35B960
:103FD00000C040FD252F65B9019755B9362F25B989
:103FE0004D9147FD352F65B901F65BC0989709F0F3
:103FF0008CC098B1F8018589982B988798B18095E5
:1040000089238F838F818E83898587FF02C088856E
:104010008E8358856F8149853E812D8189819A8162
:10402000D70158B9262F38B900C046FD252F68B9E9
:1040300000C058B9362F28B900C045FD352F68B9E2
:1040400000C058B9262F38B900C044FD252F68B9E3
:1040500000C058B9362F28B900C043FD352F68B9C4
:1040600000C058B9262F38B900C042FD252F68B9C5
:1040700000C058B9362F28B900C041FD352F68B9A6
:1040800000C058B9262F38B900C040FD252F68B9A7
:10409000019758B9362F28B94D9147FD352F68B98A
:1040A00001F649873E832D832EC09C91F8018589B6
:1040B000982B98879C91809589238F838F818C83FF
:1040C00088E08B8358856F8149853B812C8189816C
:1040D0009A81F7015C9347FD252F2C93262F3A9563
:1040E00031F0441F6C9300C000C000C0F3CF6C934C
:1040F000000038E04191019769F7F801B48BA38B78
:1041000049873B832C839A83898378940E944A163B
:10411000D8011F966D937D938D939C93529729960A
:104120000FB6F894DEBF0FBECDBFDF91CF911F91C8
:104130000F91FF90EF90DF90CF9008950F931F9312
:10414000CF93DF93EC01162F072F8981882339F055
:104150008E819F8197FD03C060E00E940F171E8330
:104160000F838981882341F061E0812F0E940F171E
:1041700060E0812F0E944B17812F902FFC01E45D9E
:10418000FE4FE491F0E0EE0FFF1FE65BFE4F25913E
:1041900034913C8B2B8BFC01E85EFE4FE491ED8B60
:1041A000DF91CF911F910F910895EF92FF920F939E
:1041B0001F93CF93DF93EC017B018A01198218864C
:1041C0001A8619861F86188A198A1A8AB9010E94C6
:1041D000B01EB701CE010E94781EB801CE01DF915A
:1041E000CF911F910F91FF90EF900C949E207F92A2
:1041F0008F929F92AF92BF92CF92DF92EF92FF92F7
:104200000F931F93CF93DF93FC01828193816817F3
:10421000790708F053C04A01AA24BB24782CC32E86
:10422000D42EE52EFF24BC2DA22F8085882361F09B
:10423000889E40011124792C8C9D60011124BD2D94
:10424000829F70011124AF2D9685D385E184F2847D
:104250009D1308C0CB01880F991F680F791F6E0D41
:104260007F1D1CC0660F771F660F771F6E0D7F1DA9
:10427000052F1127222733277B01E90EF11C81111D
:1042800002C0202F09C090E0809F6001819FD00C68
:10429000909FD00C11242D2DE701288383859B014D
:1042A000280F311DE90178828485EB01C80FD11DEB
:1042B000B8838585FB01E80FF11DA083DF91CF91C5
:1042C0001F910F91FF90EF90DF90CF90BF90AF9034
:1042D0009F908F907F9008958F929F92AF92BF9200
:1042E000CF92DF92EF92FF920F931F93CF93DF93C2
:1042F0006C014A015B01E901FC01E280F3802E15AB
:104300003F05A0F40115110531F0020F131F0E1522
:104310001F0508F47801CE15DF0540F4A5019401CE
:10432000BE01C6010E94F7202196F5CFDF91CF9103
:104330001F910F91FF90EF90DF90CF90BF90AF90C3
:104340009F908F900895FC014481558160E070E05A
:10435000818592850C94E231FC0177FDB9C080859E
:104360009185681779070CF0B3C057FDB1C08285FD
:104370009385481759070CF008958689823079F49F
:1043800084819581DC01A61BB70BBD0161507109C9
:1043900086819781DC01A41BB50BAD010EC0833073
:1043A00009F084C064277527CA01862797276827E4
:1043B000792746815781481B590B415051092130BB
:1043C000310531F048F12230310509F44AC0089531
:1043D000CA0157FD07969C01A3E035952795AA953C
:1043E000E1F7A481B5812A9FC0012B9F900D3A9FD0
:1043F000900D1124680F791F078CF0A1E02DE60FB6
:10440000F71F4770552781E090E001C0880F4A955B
:10441000EAF79081892B48C0CA0157FD07969C0195
:1044200093E0359527959A95E1F7A481B5812A9F68
:10443000C0012B9F900D3A9F900D1124680F791F9A
:10444000078CF0A1E02DE60FF71F4770552781E09C
:1044500090E001C0880F4A95EAF780959081892302
:1044600023C0CA0157FD07969C0183E03595279527
:104470008A95E1F7A481B5812A9FC0012B9F900DF9
:104480003A9F900D1124680F791F078CF0A1E02D41
:10449000E60FF71F4770552781E090E001C0880FB5
:1044A0004A95EAF79081892780830895813009F041
:1044B00086CF642775274627572764277527848169
:1044C0009581DC01A61BB70BBD016150710977CF47
:1044D00008952091C903222399F04FB7F8942091B1
:1044E000C903213059F42DB32093C7033DB3209164
:1044F000C803209523232DBB4FBF02C04093C703A1
:104500008CBD9DBD08958EBD00000DB407FEFDCF8E
:104510008EB508958091C903882361F09FB7F89400
:104520002091C9038091C703213019F48DBB9FBF2F
:1045300008958FBF08954F925F926F927F928F92EE
:104540009F92AF92BF92CF92DF92EF92FF920F9322
:10455000CF93DF93CDB7DEB73C01290150E070E087
:104560000E94771A89E991E0F30191838083148E88
:10457000138E4114510411F0C20102C08BEC93E080
:10458000F301968F858F10A2178E8FEF84A385A3DA
:1045900086A387A300A7C5AAD6AAE7AAF0AE81AED4
:1045A00092AEA3AEB4AE80E586AF81E087AFDF9177
:1045B000CF910F91FF90EF90DF90CF90BF90AF9091
:1045C0009F908F907F906F905F904F90089529E912
:1045D00031E0FC0131832083878D90A1009711F099
:1045E0000C94B23008951F93CF93DF93FC01858D17
:1045F000968D009719F1162FEF0161A1062E000C80
:10460000770B0E945D2C8D8D9E8DDC01ED91FC91D0
:104610000190F081E02D60E009958D8D9E8DDC018B
:10462000ED91FC910190F081E02D612F09958D8D28
:104630009E8DDF91CF911F910C94722CA5A5B6A5EC
:104640009C9183A9809589238C93838D948D892B4C
:1046500031F0862FDF91CF911F910C94832228E0B7
:1046600030E080E8A1A5B2A591A9462F482319F012
:104670004C91942B03C04C91909594239C93A3A5AB
:10468000B4A54C9192A9942B9C93A3A5B4A54C914D
:1046900092A9909594239C9386952150310911F706
:1046A000DF91CF911F9108951F93CF93DF93EC017A
:1046B000162F8D8D9E8D009739F04DA95EA96FA99B
:1046C00078AD0E944F2C0FC08B8D9C8D892B21F0D3
:1046D0008EAD9FAD0E946922EFA5F8A990818CA9AB
:1046E000809589238083111102C066EA01C067EAC0
:1046F000CE010E94F3228D8D9E8D009749F049AD29
:104700005AAD6BAD7CADDF91CF911F910C944F2CC6
:10471000EFA5F8A990818CA9892B80838B8D9C8D26
:10472000892B29F0DF91CF911F910C948A22DF9180
:10473000CF911F910895BF92CF92DF92EF92FF9297
:104740000F931F93CF93DF93EC01B62E072F142FF7
:104750008D8D9E8D009709F452C069A1062E000C24
:10476000770B0E945D2C8D8D9E8DDC01ED91FC916F
:104770000190F081E02D60E00995CB2CD02EEE2445
:10478000E394F12C8D8D9E8D112371F1B0E2EB1627
:10479000F104B8F00E94722C69A1062E000C770B70
:1047A0008D8D9E8D0E945D2C8D8D9E8DDC01ED91F9
:1047B000FC910190F081E02D60E00995EE24E394F6
:1047C000F12C8D8D9E8DF6016491DC01ED91FC91B3
:1047D0000190F081E02D0995BFEFEB1AFB0A115013
:1047E000F60131966F01CECFDF91CF911F910F91DE
:1047F000FF90EF90DF90CF90BF900C94722CEDA5BE
:10480000FEA590818BA9809589238083E62EF72EC3
:10481000112379F1F70184912B8D3C8D232B39F0F5
:104820000E9483221150C70101967C01F1CF28E03C
:1048300030E040E8E9A5FAA599A9582F542319F0CA
:104840005081952B03C05081909595239083EBA5C3
:10485000FCA550819AA9952B9083EBA5FCA55081CE
:104860009AA990959523908346952150310911F787
:10487000D9CFDF91CF911F910F91FF90EF90DF90F3
:10488000CF90BF900895FC01868197819C01295F9C
:104890003F4F37FF02C0295F3F4F83E03595279593
:1048A0008A95E1F784819581289FA001299F500D69
:1048B000389F500D112460E070E0878D90A10C941A
:1048C000E2318F929F92AF92BF92CF92DF92EF929E
:1048D000FF920F931F93CF93DF93EC01862EB42E9C
:1048E000A22E902E8F8D98A1892BE9F42E813F81E5
:1048F000C901079697FD079623E0959587952A9518
:10490000E1F72C813D81AC01429FC001439F900D96
:10491000529F900D11240E941A3098A38F8F892BDB
:1049200011F480E092C1CE010E9443248E819F81C8
:104930006C817D8181329105E4F0AC0140545109D4
:1049400057FF02C04F5F5F4F5595479562557109FC
:1049500077FF02C06F5F7F4F75956795CC24C39436
:10496000D12C80E4E82EF12C02E510E025E638E0B9
:104970001BC0AC014052510957FF02C04F5F5F4F4F
:10498000559547956357710977FF02C06F5F7F4F59
:1049900075956795CC24C394D12CA0E2EA2EF12C16
:1049A00003E710E025E836E0CE010E94991A8AA2BA
:1049B0008D8D9E8D009799F0B11007C02E813F819B
:1049C0002032310521F42CE303C02B2D01C02DE34F
:1049D00029A3992009F436C10E943D2C79C061E0D9
:1049E0008EA10E940F1761E08FA10E940F178EA168
:1049F000082E000C990BFC01E45DFE4FE491F0E001
:104A0000EE0FFF1FE65BFE4F259134913EA72DA7C9
:104A1000FC01E85EFE4FE491EBAB8FA1082E000C89
:104A2000990BFC01E45DFE4FE491F0E0EE0FFF1FF7
:104A3000E65BFE4FA591B491B8ABAFA7FC01E85E71
:104A4000FE4FE491ECAB8C91E82BEC938B8D9C8D1D
:104A5000892B31F0992009F43BC00E94392B38C0D2
:104A600061E08CA10E940F1761E08DA10E940F17D9
:104A70008CA1082E000C990BFC01E45DFE4FE49123
:104A8000F0E0EE0FFF1FE65BFE4F259134913AA751
:104A900029A7FC01E85EFE4FE491E9AB8DA1082E49
:104AA000000C990BFC01E45DFE4FE491F0E0EE0F89
:104AB000FF1FE65BFE4FA591B491BCA7ABA7FC011D
:104AC000E85EFE4FE491EAAB8C91E095E823EC932D
:104AD000AA20F1F088A587FD1BC061E00E940F1796
:104AE00061E088A50E944B1761E070E080E090E0F3
:104AF0000E946F1660E088A50E944B176AE070E084
:104B000080E090E00E946F1661E088A50E944B173C
:104B10008D8D9E8D009739F04DA95EA96FA978AD56
:104B20000E944F2C0FC08B8D9C8D892B21F08EAD58
:104B30009FAD0E946922EFA5F8A990818CA980956C
:104B40008923808344E061E876E0CE010E949B23C4
:104B50006E816150CE010E94F32244E06DE776E061
:104B6000CE010E949B238AA1813011F460E101C033
:104B700064E1CE010E94F32244E069E776E0CE01D1
:104B80000E949B238FE88DAF8C819D818038910599
:104B900071F48E819F8180349105B9F48AA18130AE
:104BA00011F48FE901C08FEC8DAF12E10FC0803698
:104BB000910559F48E819F81409739F48AA1813003
:104BC00011F480E101C08FEA8DAF12E06AEDCE01F1
:104BD0000E94F322612FCE010E94F32261E8CE01F0
:104BE0000E94F3226DADCE010E94F32269EDCE0149
:104BF0000E94F3228AA1813011F462E201C061EFC8
:104C0000CE010E94F32246E063E776E0CE010E94E7
:104C10009B238D8D9E8D009739F049AD5AAD6BADBC
:104C20007CAD0E944F2C0CC0EFA5F8A990818CA9F7
:104C3000892B80838B8D9C8D892B11F00E948A2279
:104C400081E003C0A11046CF67CFDF91CF911F91C4
:104C50000F91FF90EF90DF90CF90BF90AF909F901B
:104C60008F9008950F931F93CF93DF93DC0157FD2F
:104C700064C016968D919C911797481759070CF0B0
:104C80005CC077FF04C0260F371F60E070E0149609
:104C9000CD91DC911597CB01820F931FC817D907CF
:104CA0001CF49E01261B370B121613060CF045C090
:104CB000FA0157FD3796CF01E3E095958795EA9580
:104CC000E1F78C9FF0018D9FF00D9C9FF00D11245A
:104CD0006E0F7F1F5F96ED91FC919097E60FF71F87
:104CE0004770552781E090E001C0880F4A95EAF7A8
:104CF000482F0130110539F078F002301105E9F440
:104D00002E0F3F1F13C02E0F3F1FE217F307A9F00E
:104D10008081842B8193F9CF80952E0F3F1FE2175E
:104D2000F30759F0908198239193F9CFE217F30795
:104D300021F0808184278193F9CFDF91CF911F915A
:104D40000F910895EF92FF920F931F93CF93DF93EC
:104D5000EC0177FDA5C0EC80FD806E157F050CF0A1
:104D60009FC057FF04C0240F351F40E050E08E81E4
:104D70009F81FA01E20FF31F8E179F071CF49C011D
:104D8000241B350B121613060CF08AC0922F842FA9
:104D90008695869586958E9DD0018F9DB00D1124A8
:104DA0006A0F7B1FAF8DB8A1A60FB71F4770B1F177
:104DB00088E0841B482F682F70E0FB01E559F94F0C
:104DC000E491281798F4621B71092FEF30E002C0BC
:104DD000359527956A95E2F7E2230130110549F0F0
:104DE00078F00230110509F05BC00EC001301105EA
:104DF00019F48C91E82B0AC00130110508F049C064
:104E0000E0958C91E82302C08C91E827EC939417ED
:104E100008F446C02C813D81A20FB31FE92FE41B8B
:104E2000E830F8F00230110561F48E2F9C919095D6
:104E30009C932C813D81A20FB31F88508830B0F71E
:104E40000FC081E00115110509F480E081959E2FC6
:104E50008C932C813D81A20FB31F98509830C0F7DE
:104E6000E770EE23E9F0F0E0ED59F94FE4910130FD
:104E7000110539F048F00230110591F48C91E827C2
:104E800006C08C91E82B03C0E0958C91E823EC934D
:104E900007C00230110509F4B7CFAE0DBF1DBECF5C
:104EA000DF91CF911F910F91FF90EF9008950F9395
:104EB0001F93DC015696EC915697E23061F0E33097
:104EC00009F1E13081F51496ED91FC911597E41B01
:104ED000F50B319723C0DC011496ED91FC911597E9
:104EE000DF01A61BB70BBD01DC011696ED91FC910D
:104EF0001797DF01A41BB50BAD0141505109621B8F
:104F0000730B11C0FA01DC0116964D915C91179755
:104F1000DA01A61BB70BBD01621B730BAB01BF010E
:104F20000E94A22602C00E9432261F910F9108956E
:104F30000F931F93DC015696EC915697E23069F07F
:104F4000E33011F1E13089F51496ED91FC9115975C
:104F5000E41BF50BE21BF30B23C0DC011496ED916F
:104F6000FC911597DF01A61BB70BBD0161507109BC
:104F7000DC011696ED91FC911797DF01A41BB50B90
:104F8000AD01421B530B11C0FA01DC0116964D9185
:104F90005C911797DA01A61BB70BBD01615071092F
:104FA000AB01BF010E94322602C00E94A2261F91BF
:104FB0000F910895CF92DF92EF92FF920F931F937C
:104FC000CF93DF93EC018D8D9E8D009739F04DA925
:104FD0005EA96FA978AD0E944F2C0FC08B8D9C8D60
:104FE000892B21F08EAD9FAD0E946922EFA5F8A913
:104FF00090818CA980958923808345E06EE576E0D9
:10500000CE010E949B236C816150CE010E94F3224D
:105010002E813F81C901079697FD079623E095955C
:1050200087952A95E1F72C813D81829F7001839FAE
:10503000F00C929FF00C11240F8D18A18D8D9E8D78
:10504000E00EF11E009709F443C069A1062E000C82
:10505000770B0E945D2C8D8D9E8DDC01ED91FC9176
:105060000190F081E02D60E40995680101E010E015
:105070008D8D9E8DEC14FD0441F100321105B0F0D0
:105080000E94722C69A1062E000C770B8D8D9E8DCF
:105090000E945D2C8D8D9E8DDC01ED91FC91019027
:1050A000F081E02D60E4099501E010E08D8D9E8D8A
:1050B000F60161916F01DC01ED91FC910190F081AD
:1050C000E02D09950F5F1F4FD3CF0E94722C35C082
:1050D000EDA5FEA590818BA9892B80830E151F0558
:1050E00061F1F80181918F012B8D3C8D232B19F0FB
:1050F0000E948322F3CF28E030E040E8E9A5FAA53A
:1051000099A9582F542319F05081952B03C0508131
:10511000909595239083EBA5FCA550819AA9952B9A
:105120009083EBA5FCA550819AA990959523908337
:1051300046952150310911F7D1CF8D8D9E8D009765
:1051400071F049AD5AAD6BAD7CADDF91CF911F9140
:105150000F91FF90EF90DF90CF900C944F2CEFA524
:10516000F8A990818CA9892B80838B8D9C8D892BAC
:1051700051F0DF91CF911F910F91FF90EF90DF9051
:10518000CF900C948A22DF91CF911F910F91FF90C5
:10519000EF90DF90CF9008952091C5033091C60322
:1051A00028173907B9F490918303809184039817E5
:1051B00089F0E0918303F0E0EB57FC4F8081209170
:1051C000830330E02F5F3F4F2F73332720938303F8
:1051D00090E008958FEF9FEF08951F93CF93DF9393
:1051E000DC015C968D919C915D97009739F421E0EC
:1051F00030E013963C932E9312973BC05196ED915D
:10520000FC91529750962C915097322F30951FB7A2
:105210005E964C915E97742F727041FD6095F89484
:105220004081772311F0422B01C043234083EC01DE
:105230002197F1F748E0508160FF02C0522B01C076
:1052400053235083EC012197F1F76695415099F76C
:105250008081772319F08323808302C0282B208349
:105260001FBF5C968D919C915D970197F1F781E04E
:1052700090E0DF91CF911F91089508952091C5038B
:105280003091C6032817390771F4909183038091F8
:105290008403981741F0E0918303F0E0EB57FC4F53
:1052A000808190E008958FEF9FEF08952091C503CE
:1052B0003091C6032817390771F480918403209137
:1052C000830390E0805C9F4F821B910960E470E053
:1052D0000E94A52F089580E090E00895E091C50315
:1052E000F091C603E817F90769F4A389B4899C9182
:1052F0008589809589238C931092C6031092C503EB
:1053000081E0089580E00895CF93DF93EC018A8DCA
:105310009B8D892BF1F08091C5039091C603C8172E
:10532000D907B9F0009711F00E946E298E8D8E7FFB
:105330008E8F1092840310928303D093C603C09380
:10534000C503EB89FC8990818D89892B808381E05D
:1053500001C080E0DF91CF9108951F920F920FB6A8
:105360000F9211242F933F934F935F936F937F93EB
:105370008F939F93AF93BF93EF93FF93E091C503F8
:10538000F091C603309709F451C0968DA685B78574
:10539000858591FF04C09C91892329F447C09C9185
:1053A000892309F043C0A389B4899C91858980959C
:1053B00089238C93868997890197F1F7608D718D88
:1053C000A685B785558538E020E0CB010197F1F738
:1053D000822F90E095958795282F4C91452309F0D1
:1053E0002068315091F7868D81FD2095809184034E
:1053F00090E001968F73992730918303381749F015
:10540000A0918403B0E0AB57BC4F2C9380938403EE
:1054100003C0868D8160868F828D938D0197F1F711
:10542000A389B4899C918589892B8C93FF91EF91F5
:10543000BF91AF919F918F917F916F915F914F91AC
:105440003F912F910F900FBE0F901F90189525EC54
:1054500031E0FC01318320830C946E291F93CF939C
:10546000DF93EC01162F6E8D6695617081E06827E1
:10547000812F0E944B1761E0812F0E940F17812F0F
:1054800090E0FC01E85EFE4FE491E88BFC01E45DF6
:10549000FE4FE491F0E0EE0FFF1FE65BFE4F8591BB
:1054A00094919A8B898BDF91CF911F9108951F93CF
:1054B000CF93DF93EC01162F60E0812F0E940F172E
:1054C0008E8D81FD04C061E0812F0E944B171C87E7
:1054D000812F90E0FC01E85EFE4FE491ED87FC0136
:1054E000E45DFE4FE491F0E0EE0FFF1FE05CFE4F45
:1054F000859194919F878E87DF91CF911F91089519
:105500001F93CF93DF93EC01162F1B821A8288EE34
:1055100093E0A0E0B0E08C839D83AE83BF8385ECF5
:1055200091E0998388831F8A1E8A198E188E1B8E9C
:105530001A8E1D8E1C8E8E8D8E7F20FB81F98E8F94
:10554000642FCE010E942E2A612FCE01DF91CF91D0
:105550001F910C94572ACF93DF93EC019A01AB0172
:105560001B8E1A8E198E188E1F8A1E8A60E874E8A8
:105570008EE190E00E94DB2FF9012430310518F014
:10558000C901039702C081E090E09D8F8C8F6C85EC
:10559000663108F069C0C9019695879584319105F7
:1055A00010F0439702C081E090E09F8B8E8B36977E
:1055B00018F0C901059702C081E090E0998F888FAB
:1055C000C901880F991F280F391F369527953695E1
:1055D00027952D30310518F02C50310902C021E0FB
:1055E00030E03B8F2A8F90916800683050F021E0C6
:1055F0006E3008F420E081E001C0880F2A95EAF7B8
:1056000001C084E0892B809368009C85983038F035
:105610009E3040F0963148F020E030E008C02DE6A2
:1056200030E005C02BE630E002C02CE630E03C8BD9
:105630002B8B983030F481E001C0880F9A95EAF7FF
:105640000EC0292F30E09E3018F42850310902C0D6
:105650002E50310981E001C0880F2A95EAF78D8B21
:105660008C8D9D8D0197F1F7CE01DF91CF910C9438
:105670008429CF93CFB7F8948091CA03811127C0B2
:10568000E6E3F1E08491E2E2F1E09491E82FF0E0CA
:10569000EE0FFF1FEC5AFE4FA591B491EC91E92358
:1056A00021F461E08AE00E944B1761E08AE00E94E9
:1056B0000F178CB580618CBD8CB580648CBD61E0AA
:1056C0008DE00E940F1761E08BE00E940F17809120
:1056D000CA038F5F8093CA03CFBFCF910895809193
:1056E000FF0390E020910004821B9109089590919E
:1056F00000048091FF03981750F4E92FF0E0EF5F6A
:10570000FB4F208130E09F5F9093000402C02FEF99
:105710003FEFC9010895E09100048091FF03E8176D
:1057200030F4F0E0EF5FFB4F808190E008958FEF61
:105730009FEF08950895CF93DF93EC01E091D70395
:10574000F091D8033097F1F0909100048091FF031D
:105750009817C0F090E0292F30E02617370754F44F
:10576000DE01A20FB31F4C91D901AF5FBB4F4C9329
:105770009F5FF1CF109200046093FF03CB01DF9194
:10578000CF910994DF91CF910895E091D903F091E1
:10579000DA03309729F01092DD031092DC030994AC
:1057A0000895CF92DF92EF92FF920F931F93CF93C2
:1057B000DF937C01CB018A012091DB03222389F056
:1057C000EB016B01C40ED51ECC15DD0569F06991A6
:1057D000D701ED91FC910190F081E02DC701099571
:1057E000F3CF642F0E94BB2CC801DF91CF911F9192
:1057F0000F91FF90EF90DF90CF900895CF93DF93BC
:105800001F92CDB7DEB769832091DB032223D1F04D
:105810002091DC03203240F021E030E0FC013383B2
:10582000228380E090E015C08091DD03E82FF0E056
:10583000E252FC4F998190838F5F8093DD038093C8
:10584000DC0305C061E0CE0101960E94BB2C81E023
:1058500090E00F90DF91CF910895FC0113821282A6
:1058600088EE93E0A0E0B0E084839583A683B783BD
:1058700087ED91E091838083089510920004109247
:10588000FF031092DD031092DC030E947C2C85EC58
:105890009BE20E94E82C8BE99BE20C94E32CCB0169
:1058A000BA010C94A72C81E08093DB036093FE0384
:1058B0001092DD031092DC0308950C94532C0F9387
:1058C000062F21E04091DC036EED73E08091FE0332
:1058D0000E94092D1092DD031092DC031092DB036D
:1058E0000F91089561E00C945F2C8BEC93E00C9485
:1058F0002D2C0E94DD3108951092940481E0809354
:1059000092041092910461E082E10E944B1761E0E1
:1059100083E10E944B17E9EBF0E080818E7F80836A
:1059200080818D7F808380E28093B80085E48093BE
:10593000BC000895ECEBF0E080818A7B808360E01E
:1059400082E10E944B1760E083E10C944B179B01AE
:10595000AC0160E072E18AE790E00E94B92FDA01C1
:10596000C9014097A109B109B695A7959795879563
:105970008093B800089540914304262F30E0240F0F
:10598000311D21323105DCF4209194042430C9F416
:10599000FC0180E090E0861758F430914304219197
:1059A000DC01AB5BBB4FA30FB11D2C930196F3CF72
:1059B00080914304680F6093430480E0089581E080
:1059C000089582E008959093880480938704089551
:1059D00090938A0480938904089585EC8093BC0099
:1059E000109294040895CF93DF9391E090938C04E8
:1059F000882361F0C091B800D091BA000E949A2C1F
:105A00000E947C2CD093BA00C093B800DF91CF9154
:105A100008954F925F926F927F928F929F92AF9272
:105A2000BF92CF92DF92EF92FF920F931F93CF938B
:105A3000DF93413208F0C6C0122FF42ED72EE62E87
:105A4000D82F0E944A164B015C01C0919404CC23CC
:105A500011F180918D0490918E04A0918F04B091EA
:105A60009004892B8A2B8B2B81F30E944A1640903D
:105A70008D0450908E0460908F0470909004DC012F
:105A8000CB0188199909AA09BB09481659066A0663
:105A90007B06D8F683C082E080939404009392043E
:105AA0008FEF8093210410926604F09265049E2D7E
:105AB000A7E6B4E0EE2DFD2D8E2F891B8F1518F46F
:105AC00081918D93F9CF1092930490919304DD0FFF
:105AD000D92BD093930480919104813089F5109251
